{"contracts/FarmingYield.sol":{"FarmingYield":{"abi":[{"inputs":[{"internalType":"contract IERC20","name":"_stakingToken","type":"address"},{"internalType":"contract ERC20Mock","name":"_rewardToken1","type":"address"},{"internalType":"contract ERC20Mock","name":"_rewardToken2","type":"address"},{"internalType":"uint256","name":"_depositFee","type":"uint256"},{"internalType":"address","name":"_treasury","type":"address"},{"internalType":"uint256","name":"_reward1PerBlock","type":"uint256"},{"internalType":"uint256","name":"_reward2PerBlock","type":"uint256"},{"internalType":"uint256","name":"_lockPeriod","type":"uint256"}],"stateMutability":"nonpayable","type":"constructor"},{"anonymous":false,"inputs":[{"indexed":true,"internalType":"address","name":"user","type":"address"},{"indexed":false,"internalType":"uint256","name":"amount1","type":"uint256"},{"indexed":false,"internalType":"uint256","name":"amount2","type":"uint256"}],"name":"Claim","type":"event"},{"anonymous":false,"inputs":[{"indexed":true,"internalType":"address","name":"user","type":"address"},{"indexed":false,"internalType":"uint256","name":"amount","type":"uint256"}],"name":"Deposit","type":"event"},{"anonymous":false,"inputs":[{"indexed":true,"internalType":"address","name":"previousOwner","type":"address"},{"indexed":true,"internalType":"address","name":"newOwner","type":"address"}],"name":"OwnershipTransferred","type":"event"},{"anonymous":false,"inputs":[{"indexed":true,"internalType":"address","name":"user","type":"address"},{"indexed":false,"internalType":"uint256","name":"amount","type":"uint256"}],"name":"Withdraw","type":"event"},{"inputs":[],"name":"accReward1PerShare","outputs":[{"internalType":"uint256","name":"","type":"uint256"}],"stateMutability":"view","type":"function"},{"inputs":[],"name":"accReward2PerShare","outputs":[{"internalType":"uint256","name":"","type":"uint256"}],"stateMutability":"view","type":"function"},{"inputs":[],"name":"claim","outputs":[],"stateMutability":"nonpayable","type":"function"},{"inputs":[{"internalType":"uint256","name":"amount","type":"uint256"}],"name":"deposit","outputs":[],"stateMutability":"nonpayable","type":"function"},{"inputs":[],"name":"depositFee","outputs":[{"internalType":"uint256","name":"","type":"uint256"}],"stateMutability":"view","type":"function"},{"inputs":[{"internalType":"address","name":"_user","type":"address"}],"name":"getFundInfo","outputs":[{"internalType":"uint256","name":"","type":"uint256"},{"internalType":"uint256","name":"","type":"uint256"}],"stateMutability":"view","type":"function"},{"inputs":[],"name":"lastRewardBlock","outputs":[{"internalType":"uint256","name":"","type":"uint256"}],"stateMutability":"view","type":"function"},{"inputs":[],"name":"lockPeriod","outputs":[{"internalType":"uint256","name":"","type":"uint256"}],"stateMutability":"view","type":"function"},{"inputs":[],"name":"owner","outputs":[{"internalType":"address","name":"","type":"address"}],"stateMutability":"view","type":"function"},{"inputs":[{"internalType":"address","name":"_user","type":"address"}],"name":"pendingReward","outputs":[{"internalType":"uint256","name":"","type":"uint256"},{"internalType":"uint256","name":"","type":"uint256"}],"stateMutability":"view","type":"function"},{"inputs":[],"name":"renounceOwnership","outputs":[],"stateMutability":"nonpayable","type":"function"},{"inputs":[],"name":"reward1PerBlock","outputs":[{"internalType":"uint256","name":"","type":"uint256"}],"stateMutability":"view","type":"function"},{"inputs":[],"name":"reward2PerBlock","outputs":[{"internalType":"uint256","name":"","type":"uint256"}],"stateMutability":"view","type":"function"},{"inputs":[],"name":"rewardToken1","outputs":[{"internalType":"contract ERC20Mock","name":"","type":"address"}],"stateMutability":"view","type":"function"},{"inputs":[],"name":"rewardToken2","outputs":[{"internalType":"contract ERC20Mock","name":"","type":"address"}],"stateMutability":"view","type":"function"},{"inputs":[],"name":"stakingToken","outputs":[{"internalType":"contract IERC20","name":"","type":"address"}],"stateMutability":"view","type":"function"},{"inputs":[],"name":"totalStaked","outputs":[{"internalType":"uint256","name":"","type":"uint256"}],"stateMutability":"view","type":"function"},{"inputs":[{"internalType":"address","name":"newOwner","type":"address"}],"name":"transferOwnership","outputs":[],"stateMutability":"nonpayable","type":"function"},{"inputs":[],"name":"treasury","outputs":[{"internalType":"address","name":"","type":"address"}],"stateMutability":"view","type":"function"},{"inputs":[],"name":"update","outputs":[],"stateMutability":"nonpayable","type":"function"},{"inputs":[{"internalType":"address","name":"","type":"address"}],"name":"userInfo","outputs":[{"internalType":"uint256","name":"amount","type":"uint256"},{"internalType":"uint256","name":"reward1Debt","type":"uint256"},{"internalType":"uint256","name":"reward2Debt","type":"uint256"}],"stateMutability":"view","type":"function"},{"inputs":[{"internalType":"uint256","name":"amount","type":"uint256"}],"name":"withdraw","outputs":[],"stateMutability":"nonpayable","type":"function"}],"evm":{"bytecode":{"linkReferences":{},"object":"608060405262278d006006553480156200001857600080fd5b506040516200473e3803806200473e83398181016040528101906200003e9190620007dd565b6200005e62000052620005df60201b60201c565b620005e760201b60201c565b620000927fe34c57241c0b6f5db3dbc4656db03ee12e953a561db0f7f2b273aa0026b8597860001b620006ab60201b60201c565b620000c67fcbdd4ba62d787e4676644047c123f9f45ec08835991a32ebadcd453030904e7a60001b620006ab60201b60201c565b620000fa7ff83a9a2b749f505cecdcc280fa4fdb3e1f692b1b8f4ae4d5eb915536ef965a6560001b620006ab60201b60201c565b87600160006101000a81548173ffffffffffffffffffffffffffffffffffffffff021916908373ffffffffffffffffffffffffffffffffffffffff1602179055506200016f7fcc47e69981a5202c7d1162aab22fef29f872f670286621d583524bc29867875760001b620006ab60201b60201c565b620001a37fc4134372ba2cacedd41ba5ec5cac9930ec23cbfa561cfb5262dd6add6840bfab60001b620006ab60201b60201c565b86600260006101000a81548173ffffffffffffffffffffffffffffffffffffffff021916908373ffffffffffffffffffffffffffffffffffffffff160217905550620002187fcc0d1d15770f0d82868346f8708f7c77b1ab470f32452a7036701624109256da60001b620006ab60201b60201c565b6200024c7f40e48b8ba31e6f533bcacbd28c69b1d18cf949a4a32073003fcffe2c29e502b760001b620006ab60201b60201c565b85600360006101000a81548173ffffffffffffffffffffffffffffffffffffffff021916908373ffffffffffffffffffffffffffffffffffffffff160217905550620002c17f25d3806381d833da0fcae9e88d23adeb13bb5356af6cc990f9d84e8767ab874260001b620006ab60201b60201c565b620002f57f5fbf8d1aee02e785b6dad67ca39a73e38e224f360db09c051572c8886633d1bf60001b620006ab60201b60201c565b84600481905550620003307feb19524febf94545a97c72e0762d4a69ca50ccf8cff40b776e0b362a3f50d28a60001b620006ab60201b60201c565b620003647f19627106e670e1b38e2143bd23c20a41c5b34ab7ea3b7ed6308cce67a0298af960001b620006ab60201b60201c565b83600960006101000a81548173ffffffffffffffffffffffffffffffffffffffff021916908373ffffffffffffffffffffffffffffffffffffffff160217905550620003d97f88e6037b9bacad784112b8d6954da44bfca69161d44128296fd80d3f5cee089a60001b620006ab60201b60201c565b6200040d7f8d585c2285f67e23bc4b3a1ebf4524f301e4b91f3beafd4863dbbacd506e4b5860001b620006ab60201b60201c565b82600781905550620004487fa8efe5ff1fbaf6ddc61a1ca9b46367888d635870689f5f722e0f0b3ea7db942b60001b620006ab60201b60201c565b6200047c7f59d0774edca95dab8710067d7f4ec0aaa6a7e8071bd7daaa3bd339e996378bd960001b620006ab60201b60201c565b81600881905550620004b77f5a2c3341e1ad56691168db4737132e81713b89404ef98d78b88edd0da37b505460001b620006ab60201b60201c565b620004eb7f5935d6a2e0d55fe7a7d12e2ea4e06bc8c316be8cb4d4fe5ec0a3f9ff122dd86660001b620006ab60201b60201c565b43600a81905550620005267f1070aa1cdf8e7a4ce6f0bc65480938ab037354f1bcca1cb1e22d43e6a1e940f460001b620006ab60201b60201c565b6200055a7f0892ef3fbfbfd7370db3ac85ecc9e8e7c77079a6e15cb41cdb37e99819a5f9fd60001b620006ab60201b60201c565b6000600b81905550620005967f0478d001e10cac2ae648c8bfab1ab00adf0823460c459c8733e3e2ece528ed9160001b620006ab60201b60201c565b620005ca7fd85e35d3bda4e6782c5ad837fb9998a7b6cb6af285f4b81de8df4905279fa7fe60001b620006ab60201b60201c565b806006819055505050505050505050620008a6565b600033905090565b60008060009054906101000a900473ffffffffffffffffffffffffffffffffffffffff169050816000806101000a81548173ffffffffffffffffffffffffffffffffffffffff021916908373ffffffffffffffffffffffffffffffffffffffff1602179055508173ffffffffffffffffffffffffffffffffffffffff168173ffffffffffffffffffffffffffffffffffffffff167f8be0079c531659141344cd1fd0a4f28419497f9722a3daafe3b4186f6b6457e060405160405180910390a35050565b50565b600080fd5b600073ffffffffffffffffffffffffffffffffffffffff82169050919050565b6000620006e082620006b3565b9050919050565b6000620006f482620006d3565b9050919050565b6200070681620006e7565b81146200071257600080fd5b50565b6000815190506200072681620006fb565b92915050565b60006200073982620006d3565b9050919050565b6200074b816200072c565b81146200075757600080fd5b50565b6000815190506200076b8162000740565b92915050565b6000819050919050565b620007868162000771565b81146200079257600080fd5b50565b600081519050620007a6816200077b565b92915050565b620007b781620006d3565b8114620007c357600080fd5b50565b600081519050620007d781620007ac565b92915050565b600080600080600080600080610100898b031215620008015762000800620006ae565b5b6000620008118b828c0162000715565b9850506020620008248b828c016200075a565b9750506040620008378b828c016200075a565b96505060606200084a8b828c0162000795565b95505060806200085d8b828c01620007c6565b94505060a0620008708b828c0162000795565b93505060c0620008838b828c0162000795565b92505060e0620008968b828c0162000795565b9150509295985092959890939650565b613e8880620008b66000396000f3fe608060405234801561001057600080fd5b50600436106101425760003560e01c806372f702f3116100b8578063a9f8d1811161007c578063a9f8d18114610310578063b6b55f251461032e578063d61a47f11461034a578063ea02b0e514610368578063f2fde38b14610386578063f40f0f52146103a257610142565b806372f702f31461028e578063817b1cd2146102ac5780638da5cb5b146102ca578063a2e62045146102e8578063a36e8600146102f257610142565b8063532a61591161010a578063532a6159146101ee5780635a98674b1461020c57806361d027b31461022a57806367a52793146102485780636f28d68814610266578063715018a61461028457610142565b80631959a002146101475780632e1a7d4d146101795780633d835e01146101955780633fd8b02f146101c65780634e71d92d146101e4575b600080fd5b610161600480360381019061015c9190613794565b6103d3565b604051610170939291906137da565b60405180910390f35b610193600480360381019061018e919061383d565b6103fd565b005b6101af60048036038101906101aa9190613794565b610ff9565b6040516101bd92919061386a565b60405180910390f35b6101ce6113ec565b6040516101db9190613893565b60405180910390f35b6101ec6113f2565b005b6101f6611ce8565b6040516102039190613893565b60405180910390f35b610214611cee565b6040516102219190613893565b60405180910390f35b610232611cf4565b60405161023f91906138bd565b60405180910390f35b610250611d1a565b60405161025d9190613893565b60405180910390f35b61026e611d20565b60405161027b9190613937565b60405180910390f35b61028c611d46565b005b610296611d5a565b6040516102a39190613973565b60405180910390f35b6102b4611d80565b6040516102c19190613893565b60405180910390f35b6102d2611d86565b6040516102df91906138bd565b60405180910390f35b6102f0611daf565b005b6102fa612507565b6040516103079190613893565b60405180910390f35b61031861250d565b6040516103259190613893565b60405180910390f35b6103486004803603810190610343919061383d565b612513565b005b610352613325565b60405161035f9190613937565b60405180910390f35b61037061334b565b60405161037d9190613893565b60405180910390f35b6103a0600480360381019061039b9190613794565b613351565b005b6103bc60048036038101906103b79190613794565b6133d4565b6040516103ca92919061386a565b60405180910390f35b600d6020528060005260406000206000915090508060000154908060010154908060020154905083565b6104297f441f9f04d9ea35119229033a22dd41b848b0a6c406238ef992bd33778ef0eba860001b61358c565b6104557f415db434b90baf4582a9babb8a7e2469b4aaf705508dbbc2fd5bb5f0ef5ead3660001b61358c565b6104817f912041ec950b16f0c18cf10df45f85fb885e94e071d18b3aeeb4270d8dedb87d60001b61358c565b6104ad7f752afa3f1db3d6c3ddeb4543e506ec7d5419bce862a9b7c2d3dab679931414e960001b61358c565b600081116104f0576040517f08c379a00000000000000000000000000000000000000000000000000000000081526004016104e7906139eb565b60405180910390fd5b61051c7f9053a95e374859cb2ad2e637222ced51dcd732a4558bbded09ecbb11aae1e04c60001b61358c565b6105487f2f38c748040d2a314f2ad913a7e7abe08ec8e3bb556b419694aba1353473f94a60001b61358c565b6105747f96bba9422d4a340c413cd7023e87ac5b73de0e37be734fd1317f8ad7414aaa5d60001b61358c565b6000600d60003373ffffffffffffffffffffffffffffffffffffffff1673ffffffffffffffffffffffffffffffffffffffff16815260200190815260200160002090506105e37faa4f334caaee5bbf1af1f10feea3a61f529f7bdb2d18c7fec86b805acf82abac60001b61358c565b61060f7fc9126346edad0a904d0b23fc64f5cf91bcfdc3099266f0dce7b839642f156d2b60001b61358c565b600061061a33610ff9565b9150506106497fde494527ec9bae5266ee9c30b9fcc19ecf22492c13e9eb1b284dff1caba1b62c60001b61358c565b6106757f14c3c620222db750dd784365de6058365ac40630ef3a6765e796f891e5eaa49c60001b61358c565b6106a17f84466732ffd1a19d0911c72e661ba9ca9919fbc92f2f86ebbaee5a5a1af8d6b860001b61358c565b808311156106e4576040517f08c379a00000000000000000000000000000000000000000000000000000000081526004016106db90613a7d565b60405180910390fd5b6107107f192051eff1ab0d855ae2ada8e1631835de04a398d6de903b38fa78102895072e60001b61358c565b61073c7f8bdf77f806c3927f363d49d9163a9f7c5f79ed94c13dd10dbdfeacff84608dbd60001b61358c565b6107687ff3cb5a2ef2ac075b92713b0382b3dcdb7d503beeb4beb7cf331d73ca18b24d1060001b61358c565b610770611daf565b61079c7fa039ac587199f19b58e752f990672e2ca90fc94d96302962c9085a7cb036bcf660001b61358c565b6107c87f2817315488bbe23455d6679b76e3295e3e3017628778fb01e445b5a2c2d0b80660001b61358c565b6000806107d4336133d4565b915091506108047f5f82a00b33ff48a02d85963ae73025c8827a6d987377fb17f0a9e9fb92f8ca9560001b61358c565b6108307f05c7c29ebd37e1748bdea04b1af60d83c1c2d627361e7a6208e13200e680522260001b61358c565b600260009054906101000a900473ffffffffffffffffffffffffffffffffffffffff1673ffffffffffffffffffffffffffffffffffffffff1663a9059cbb600960009054906101000a900473ffffffffffffffffffffffffffffffffffffffff166108b860646108aa600a8861358f90919063ffffffff16565b6135a590919063ffffffff16565b6040518363ffffffff1660e01b81526004016108d5929190613a9d565b6020604051808303816000875af11580156108f4573d6000803e3d6000fd5b505050506040513d601f19601f820116820180604052508101906109189190613afe565b506109457f3e5f465e6474ab49f2581b8c5780a544c5128133a64739873e789adbb7cbfb7460001b61358c565b6109717f24a9f875dea45b362033ffeb5e26cda7dc1ca54c018cfe7845c4494f03c19cdf60001b61358c565b600360009054906101000a900473ffffffffffffffffffffffffffffffffffffffff1673ffffffffffffffffffffffffffffffffffffffff1663a9059cbb600960009054906101000a900473ffffffffffffffffffffffffffffffffffffffff166109f960646109eb600a8761358f90919063ffffffff16565b6135a590919063ffffffff16565b6040518363ffffffff1660e01b8152600401610a16929190613a9d565b6020604051808303816000875af1158015610a35573d6000803e3d6000fd5b505050506040513d601f19601f82011682018060405250810190610a599190613afe565b50610a867fd1f44700fbee67ff8e8f1b014356906d3102cb1c7d823dd51311895ee22692ae60001b61358c565b610ab27fd1397f9b9a0be6c498bf8ea7ce893873b4830bee1b5dff4f73077ba30deca86b60001b61358c565b600260009054906101000a900473ffffffffffffffffffffffffffffffffffffffff1673ffffffffffffffffffffffffffffffffffffffff1663a9059cbb33610b2a610b1b6064610b0d600a8961358f90919063ffffffff16565b6135a590919063ffffffff16565b866135bb90919063ffffffff16565b6040518363ffffffff1660e01b8152600401610b47929190613a9d565b6020604051808303816000875af1158015610b66573d6000803e3d6000fd5b505050506040513d601f19601f82011682018060405250810190610b8a9190613afe565b50610bb77fd03ff56cec7f6b5f3f7265844d2b70c18eed5c30e7b63492d31dfed69eea559860001b61358c565b610be37f672fd0ab4bc89b069f4692cde2491074048daf3e553b04fb7d4a18c192446aba60001b61358c565b600360009054906101000a900473ffffffffffffffffffffffffffffffffffffffff1673ffffffffffffffffffffffffffffffffffffffff1663a9059cbb33610c5b610c4c6064610c3e600a8861358f90919063ffffffff16565b6135a590919063ffffffff16565b856135bb90919063ffffffff16565b6040518363ffffffff1660e01b8152600401610c78929190613a9d565b6020604051808303816000875af1158015610c97573d6000803e3d6000fd5b505050506040513d601f19601f82011682018060405250810190610cbb9190613afe565b50610ce87f6dd80a224c51ad685ec31e7b524b9ff16eefdd770a27f64eddb55adad018c72360001b61358c565b610d147ffd129554d70739fd3891a031997ed5036052c7a6b3599fc5e4e294d44d6a517260001b61358c565b610d2b8585600001546135bb90919063ffffffff16565b8460000181905550610d5f7fe7af1e2848757c47b56fb5d50da9d5f684e712fbdf0dbfca5c2a50298194c8b060001b61358c565b610d8b7fd4829fa3790aeebcb5696989274df5ad0ed2c5f10466762ce9eefdfebd1d2dd360001b61358c565b610dbb64e8d4a51000610dad600b54876000015461358f90919063ffffffff16565b6135a590919063ffffffff16565b8460010181905550610def7fbb8fb28356d13e5a235179052300fddb14861937edeba85602f7c3e9f1c6cbf560001b61358c565b610e1b7f51f32e16a46d80392b4e81b92e0213f710ddcd6bf1159adb31671e1accf5c45760001b61358c565b610e4b64e8d4a51000610e3d600c54876000015461358f90919063ffffffff16565b6135a590919063ffffffff16565b8460020181905550610e7f7ff69fe8c63116112008627e79c413b0d15b821cbad83b74695da95169b44005e760001b61358c565b610eab7f018b964d70f48adef35e772c8068317f5952f38305763b5ce54726800a285cec60001b61358c565b600160009054906101000a900473ffffffffffffffffffffffffffffffffffffffff1673ffffffffffffffffffffffffffffffffffffffff1663a9059cbb33876040518363ffffffff1660e01b8152600401610f08929190613a9d565b6020604051808303816000875af1158015610f27573d6000803e3d6000fd5b505050506040513d601f19601f82011682018060405250810190610f4b9190613afe565b50610f787f7444a57c42fcc55b96bdb388d0ce2a5484f7d66351321158d6945958a796996b60001b61358c565b610fa47fd4718fea819d33f51a51c3078c228e3177bd575001a915c119f2e94211ee8f8a60001b61358c565b3373ffffffffffffffffffffffffffffffffffffffff167f884edad9ce6fa2440d8a54cc123490eb96d2768479d49ff9c7366125a942436486604051610fea9190613893565b60405180910390a25050505050565b6000806110287f997a9c10bd33ac6632c873fd31e623638c02c3bd4a764628a6dcbc3a33ccefdb60001b61358c565b6110547f1bce3b53465cd09baf2ad3530575c4e77837c4cab74b6dead610857391c10cc860001b61358c565b6110807f31865ce197f4b0e6f26aceed32f175667a7e6fec6e166f41c8647715242e750360001b61358c565b6000600d60008573ffffffffffffffffffffffffffffffffffffffff1673ffffffffffffffffffffffffffffffffffffffff16815260200190815260200160002090506110ef7f45133126c09243e775cc5537981579beb452e42656a6e37ab28772e7aa36d6ec60001b61358c565b61111b7fe49b53985db78286ea2f5bcfa65b3c057b9fa85177ae9cc1034e9d34482d9f6760001b61358c565b60006111497fcfe76be50b3ff5f60c86f16e7f2f04c1a85db63e7927d0d014e3a1f66784b43960001b61358c565b6111757ffd8c0ce99c9f7c2a4eb751c9529d203b671a9206938938d47a42ab621b63172060001b61358c565b60005b8260030180549050811015611377576111b37ff66d83df518cd9e8c95d24234447943e589080742c9069a48e91d728c9b868ed60001b61358c565b6111df7f38d417ad5a3ee9342b32d4ecbfe22a3364af5fbfce152d9385e6a6794009efad60001b61358c565b60008360030182815481106111f7576111f6613b2b565b5b906000526020600020906002020160010154426112149190613b89565b90506112427f77e612d03bc4d72cf90c7c310cfee625a2db307762e9ae9795a616ed29fb538e60001b61358c565b61126e7f53405e789bc265df0bace73d148890bb7fac4fd359327fa82be698f66e206f5b60001b61358c565b600654811015611336576112a47f538a8cc4ca32b29c8251ecec430852f96bb7e5786276c1fa8f2b6549942d9ce260001b61358c565b6112d07f9d48e3e198d70f0e7a5adb8583e5d6a53832778c477dbd505d853c2bd2c3032260001b61358c565b6112fc7f8dce8051929d4cc61d7c6aa747b53ae34776830b3de200b06fa017153f37cb1260001b61358c565b83600301828154811061131257611311613b2b565b5b9060005260206000209060020201600001548361132f9190613bbd565b9250611363565b6113627f24e532ad4fc179bba85aedac039adf90ad2ddffdb7d4537bd78cfa209b79ccc160001b61358c565b5b50808061136f90613bf1565b915050611178565b506113a47feccdbba6067a55711585414baf67ee516d400ebbbf3e1f504fa0146d459b437b60001b61358c565b6113d07f0e706aa8dfd078fc9d2a7fd516e07fccb98468cff7ea5d86c2d348135fba544a60001b61358c565b808183600001546113e19190613b89565b935093505050915091565b60065481565b61141e7f9ae69ff15a591c405925ce5bb3e7d8dc064065a9ecf75a152f613e6d9b80166760001b61358c565b61144a7fdbb63cb171628a98c512be3b0392afefd60dd83362e8d7e06bfe373d64d1ae7b60001b61358c565b6114767f68ecabdc875cbe98ec19df423b1c9ddde574cd67454794d58601a1bbc70692f160001b61358c565b6000600d60003373ffffffffffffffffffffffffffffffffffffffff1673ffffffffffffffffffffffffffffffffffffffff16815260200190815260200160002090506114e57fc852c7da49ecec354fea50b2ae052f574f35b518823464846892b83295a5812160001b61358c565b6115117f163efd95c0fcd01cf405ae9bf40c58831c73a6e5d1060a99d5dc0250282a791a60001b61358c565b611519611daf565b6115457f46c38433840fec8e3f6c43710f4199170e9aed76453107b7d650a1e341d3070c60001b61358c565b6115717f481cd945a98dbfd66268a82f3e06192c692cd1c5e805f2fec7fa3cdc88f9503760001b61358c565b60008061157d336133d4565b915091506115ad7f71700352d026fd30c09c401c089300769eb9eed141f9c4cdce6304aa66864bf560001b61358c565b6115d97fecff65ab10f7dbd7886b785e37f4ca434d26f04ffd018a5865852a51b6ee3a9160001b61358c565b600260009054906101000a900473ffffffffffffffffffffffffffffffffffffffff1673ffffffffffffffffffffffffffffffffffffffff1663a9059cbb600960009054906101000a900473ffffffffffffffffffffffffffffffffffffffff166116616064611653600a8861358f90919063ffffffff16565b6135a590919063ffffffff16565b6040518363ffffffff1660e01b815260040161167e929190613a9d565b6020604051808303816000875af115801561169d573d6000803e3d6000fd5b505050506040513d601f19601f820116820180604052508101906116c19190613afe565b506116ee7f98658d91883bddb9c2b2d69e6b305ccc446532db482c7b6511c19201c32c120360001b61358c565b61171a7f5ada061393f614a3aef5b81c6688ce5da4f489821f61ba251a928b12a878d2ce60001b61358c565b600360009054906101000a900473ffffffffffffffffffffffffffffffffffffffff1673ffffffffffffffffffffffffffffffffffffffff1663a9059cbb600960009054906101000a900473ffffffffffffffffffffffffffffffffffffffff166117a26064611794600a8761358f90919063ffffffff16565b6135a590919063ffffffff16565b6040518363ffffffff1660e01b81526004016117bf929190613a9d565b6020604051808303816000875af11580156117de573d6000803e3d6000fd5b505050506040513d601f19601f820116820180604052508101906118029190613afe565b5061182f7f47c27ef9bd39aef1ed7f11b202c1c4ce20e5f5906ab03656a5f6321b5c8d63a060001b61358c565b61185b7fb7e7005b2a03fc0df5c9ae3cac52a6a6fb746b489a2fa0d14064dd7c143f32af60001b61358c565b6118946118856064611877600a8661358f90919063ffffffff16565b6135a590919063ffffffff16565b836135bb90919063ffffffff16565b91506118c27fb2530e912c4bdd90bd450833304cf938b87df580ac0c20ba963fc9b3a545444560001b61358c565b6118ee7fd78940fbc99f24d70592360806257fcb31cb054c50bd9a9060c38a61af9ae65b60001b61358c565b611927611918606461190a600a8561358f90919063ffffffff16565b6135a590919063ffffffff16565b826135bb90919063ffffffff16565b90506119557fcf990b4cf8400ab73e95c06c2c739f574237cffd6a0b71afe993d00d40439b5260001b61358c565b6119817f5453dd67a714e96eaf36e746f2170f1456d82ca091d72f81e6b13a22e8f8b77d60001b61358c565b600260009054906101000a900473ffffffffffffffffffffffffffffffffffffffff1673ffffffffffffffffffffffffffffffffffffffff1663a9059cbb33846040518363ffffffff1660e01b81526004016119de929190613a9d565b6020604051808303816000875af11580156119fd573d6000803e3d6000fd5b505050506040513d601f19601f82011682018060405250810190611a219190613afe565b50611a4e7f52fd9a2328bd417843348ce0ec1f9ef5d78fc56a5b647bcfb5ff9b99c9811c3360001b61358c565b611a7a7f69e437e07a057b2bf0df0b7094b63057076d2b9c126ff1f436ad2eaca922ce1a60001b61358c565b600360009054906101000a900473ffffffffffffffffffffffffffffffffffffffff1673ffffffffffffffffffffffffffffffffffffffff1663a9059cbb33836040518363ffffffff1660e01b8152600401611ad7929190613a9d565b6020604051808303816000875af1158015611af6573d6000803e3d6000fd5b505050506040513d601f19601f82011682018060405250810190611b1a9190613afe565b50611b477f1a3466a782673b46d00015ab0ca081a908214134462b8d579e5309f15d6531a960001b61358c565b611b737f0423a46eaf8b0e7dd3ea9421e66aebdbd5177e95b10be84c6e200531d961a5b360001b61358c565b611ba364e8d4a51000611b95600b54866000015461358f90919063ffffffff16565b6135a590919063ffffffff16565b8360010181905550611bd77ff5053479e6daeff425e47307fe25375b3ec2efd219e2f1ce56fbb62e21ac84ac60001b61358c565b611c037faa3af3b9313ec6b240611f8a742881a480bfee4b8066049cad41359af58dc83b60001b61358c565b611c3364e8d4a51000611c25600c54866000015461358f90919063ffffffff16565b6135a590919063ffffffff16565b8360020181905550611c677fb5ca7f3a10510eb5ee1803fdf267d8bc5f19fe1eb496db4f533a99779806480260001b61358c565b611c937f58180c371a7ed561c074362957b57664e01952fdade4c334ecb983d7e76a5f8860001b61358c565b3373ffffffffffffffffffffffffffffffffffffffff167f34fcbac0073d7c3d388e51312faf357774904998eeb8fca628b9e6f65ee1cbf78383604051611cdb92919061386a565b60405180910390a2505050565b600b5481565b600c5481565b600960009054906101000a900473ffffffffffffffffffffffffffffffffffffffff1681565b60045481565b600260009054906101000a900473ffffffffffffffffffffffffffffffffffffffff1681565b611d4e6135d1565b611d58600061364f565b565b600160009054906101000a900473ffffffffffffffffffffffffffffffffffffffff1681565b60055481565b60008060009054906101000a900473ffffffffffffffffffffffffffffffffffffffff16905090565b611ddb7f9a104c6bfad03c49f6ad010551c6ff7125567cf32ca80d26053270d1d1e6719f60001b61358c565b611e077f55f3fad067a2c6ff868ff175923f3f247b02d404bc9d72f5e7622b40244dcc3d60001b61358c565b611e337f542537ca2f852b02b46512f3966bb6079a7d732fa4b40bdae2220a71498177ac60001b61358c565b6000600160009054906101000a900473ffffffffffffffffffffffffffffffffffffffff1673ffffffffffffffffffffffffffffffffffffffff166370a08231306040518263ffffffff1660e01b8152600401611e9091906138bd565b602060405180830381865afa158015611ead573d6000803e3d6000fd5b505050506040513d601f19601f82011682018060405250810190611ed19190613c4e565b9050611eff7fc1f38d698352ebe17ec6ac1716e9bbab2a91824d6a3a689efdf49da2a66a7c6f60001b61358c565b611f2b7f7ac50cbf99b7024ef0b652278b856aa52e111979ca6ed886641746931acab8f460001b61358c565b6000810361201c57611f5f7f3a5e32d57a79f78bd74a94cc20a47091828e2aa34f028532a86aebd1f6c0a0bd60001b61358c565b611f8b7f0338dccd554875f2d2c0273d290aa956d8c237698e114a22e6475007c14d720f60001b61358c565b611fb77fd25a2387189287666594a61e640ac1b5752485741583ece2d84f6800685cca6a60001b61358c565b43600a81905550611fea7fa30653b9aa803438ce1a51dd9f84443694dc566d935e6a5a9bec49ae94f494e160001b61358c565b6120167f1980c662127209250adcb64797de322d35b9d8bdf672b31ca7a558913e16593560001b61358c565b50612505565b6120487f68b6bb0595daef2d0da06d2e574516473a2e5859de8fddaad4c2d112b224bced60001b61358c565b6120747f19f6a754c489f4d425c9158e220d3e2197354e838618f12744776dcc93df6d7060001b61358c565b6120a07f020a159f8be6f0da89576d293395c0228c7ca8fe4991a844bdfe3131ffc942a460001b61358c565b60006120b7600a54436135bb90919063ffffffff16565b90506120e57f0ff3f197ccf301833f632804fc574b60c4a2ecfe4e99a73594a67ba5759c71fd60001b61358c565b6121117fa4471539eb4eed1ad98a57d8f97473172bd5525d62e4088a2a2a59b28a34e1b560001b61358c565b60006121286007548361358f90919063ffffffff16565b90506121567f0db2f984831fbc46c19a502f23e081b07cab7d87028b567650b10ad5bcf2f31260001b61358c565b6121827f9c9a8b93afc317fc1984520ed0cfd5f7453123177b45886f45ea8976192b33d760001b61358c565b60006121996008548461358f90919063ffffffff16565b90506121c77fd9687f32ca530c12632b9a783176c1d13ca044afc0d8fbb1b00338b461d7181560001b61358c565b6121f37fe471d89dba23ba6ab08915c725c864295e60bde82a19c2674da332a0540a756c60001b61358c565b600260009054906101000a900473ffffffffffffffffffffffffffffffffffffffff1673ffffffffffffffffffffffffffffffffffffffff166340c10f1930846040518363ffffffff1660e01b8152600401612250929190613a9d565b600060405180830381600087803b15801561226a57600080fd5b505af115801561227e573d6000803e3d6000fd5b505050506122ae7f0acd70fd8d06675ead35628ff79d7da65822fef3bc8d55446c8aeaea872d4d6460001b61358c565b6122da7fd2f65ef0afa4cb06f78f11876250c4627e7ebd3b40c4c43fd8b9d6f7af5d134b60001b61358c565b600360009054906101000a900473ffffffffffffffffffffffffffffffffffffffff1673ffffffffffffffffffffffffffffffffffffffff166340c10f1930836040518363ffffffff1660e01b8152600401612337929190613a9d565b600060405180830381600087803b15801561235157600080fd5b505af1158015612365573d6000803e3d6000fd5b505050506123957f4484eb503f91cdc044a4280a4c211968aac5046998d9b12384ec1b3b6c1415b660001b61358c565b6123c17f1bf65a14ab35b1ba0c2a3a5a509a4c8885b01ea9ae47d1f6cd51101ca4634fe160001b61358c565b6123ff6123ee856123e064e8d4a510008661358f90919063ffffffff16565b6135a590919063ffffffff16565b600b5461371390919063ffffffff16565b600b819055506124317f8b33ca965cd84eee4905d32a563f7a33ce8d32b99acbe8dc704e1e52716511ef60001b61358c565b61245d7f78803c8fd0c21196192557b551a5e375e1dbc5180b55c0e46979e818c8e4bcd460001b61358c565b61249b61248a8561247c64e8d4a510008561358f90919063ffffffff16565b6135a590919063ffffffff16565b600c5461371390919063ffffffff16565b600c819055506124cd7f8bd9782457819c999f9a6021c97f817479458be995e57df0604017aac689c3b560001b61358c565b6124f97f4ad08c7d54ce1af267eb5edc0ac476f7bc43f7d58e07f30d216bea2bb9290b1460001b61358c565b43600a81905550505050505b565b60075481565b600a5481565b61253f7f73dfb2becb8b618ed1cac97f95c6332fea6cea5000a7c0ad55a4d792f363f33460001b61358c565b61256b7fd0be4e7ee4019ccb656647d51c6f01ac5a4f5e81f6304c61cb5ea5afb276924360001b61358c565b6125977ffa2919cc9e514654f52331d030048061864326773cb527c8a64818968e985b7160001b61358c565b6125c37f371e545a68a42c958531e217894f7ad78349e056cfb2d4bbd12bb1596ea206c060001b61358c565b60008111612606576040517f08c379a00000000000000000000000000000000000000000000000000000000081526004016125fd906139eb565b60405180910390fd5b6126327f98af5338dcc8f30ddecee444b0ec20e02f363874543d497e7a20dbcf580e382260001b61358c565b61265e7f96581c54aaa55e1ef43dd83e505b9b19719ab30e842119d0ede7160fd0cefcfb60001b61358c565b61268a7fb86de7dbdcc786d026000b1980c9c1fa500965c8d3b16efc79fc2f27a3b564d360001b61358c565b6000600d60003373ffffffffffffffffffffffffffffffffffffffff1673ffffffffffffffffffffffffffffffffffffffff16815260200190815260200160002090506126f97f4739afbff182d5ce458f3c1da943009c454923ccdee12f27bee1e93bd07c511060001b61358c565b6127257f312231ac8ea0f2b11eb9c88694702945a760138cc3c70788f186038ea53270ed60001b61358c565b61272d611daf565b6127597ff99a3be7b1a0bdec0d22d076b810f385612e4ec6edc87c2b52b5f32b9b282afc60001b61358c565b6127857fddfe8749ef193468f20e46e3146aac76e36e9a4c094012bcbba9238e2116560d60001b61358c565b600081600001541115612d11576127be7f0a2d92700008ce2096f8b770e4f67ac6bd2606c8b5349608bf358c2dde1d64a160001b61358c565b6127ea7f7a3f41ca3de2c9bdf31b70f0bf1462e9422b540526d16b52ea3a25d97424fc9d60001b61358c565b6128167f9394140502e6d3c60bd5b382820e371ffd5a50459d5776e1bf757c210234072860001b61358c565b600080612822336133d4565b915091506128527fe76e9241d23b8391fb238119803a39f06a50e7a11dee49e1e25c6828e33c65f460001b61358c565b61287e7f2e5418f9dbf448985e13b484b05ec761c8b1b1725739bf4437f4979154cb47a360001b61358c565b600260009054906101000a900473ffffffffffffffffffffffffffffffffffffffff1673ffffffffffffffffffffffffffffffffffffffff1663a9059cbb600960009054906101000a900473ffffffffffffffffffffffffffffffffffffffff1661290660646128f8600a8861358f90919063ffffffff16565b6135a590919063ffffffff16565b6040518363ffffffff1660e01b8152600401612923929190613a9d565b6020604051808303816000875af1158015612942573d6000803e3d6000fd5b505050506040513d601f19601f820116820180604052508101906129669190613afe565b506129937fa64e234ebe303898e7e89f4ad909a9111b9a25df82ed4e0e82e52ea5dbf4b78760001b61358c565b6129bf7f5f50c97d463508e754dfbed200d2cf93f49acffe897c7a3971ccdb11895a144260001b61358c565b600360009054906101000a900473ffffffffffffffffffffffffffffffffffffffff1673ffffffffffffffffffffffffffffffffffffffff1663a9059cbb600960009054906101000a900473ffffffffffffffffffffffffffffffffffffffff16612a476064612a39600a8761358f90919063ffffffff16565b6135a590919063ffffffff16565b6040518363ffffffff1660e01b8152600401612a64929190613a9d565b6020604051808303816000875af1158015612a83573d6000803e3d6000fd5b505050506040513d601f19601f82011682018060405250810190612aa79190613afe565b50612ad47f668e1a6affd172f0471b55084c9919e5f6dbde0347f0dabed018f4185fe4416160001b61358c565b612b007fe34ae497c447e275d8594aa1ace7f7e708dd6627d5bec1167185959e0fd96e2960001b61358c565b600260009054906101000a900473ffffffffffffffffffffffffffffffffffffffff1673ffffffffffffffffffffffffffffffffffffffff1663a9059cbb33612b78612b696064612b5b600a8961358f90919063ffffffff16565b6135a590919063ffffffff16565b866135bb90919063ffffffff16565b6040518363ffffffff1660e01b8152600401612b95929190613a9d565b6020604051808303816000875af1158015612bb4573d6000803e3d6000fd5b505050506040513d601f19601f82011682018060405250810190612bd89190613afe565b50612c057ffcd6f6e98932ba16a3f6f336c932d4c21326299dae2f2b1988a4f007e108f7e960001b61358c565b612c317f8299e62e43cd85c93facf59ead9547841835e1b5d8494ab572ba5409d3e7e11a60001b61358c565b600360009054906101000a900473ffffffffffffffffffffffffffffffffffffffff1673ffffffffffffffffffffffffffffffffffffffff1663a9059cbb33612ca9612c9a6064612c8c600a8861358f90919063ffffffff16565b6135a590919063ffffffff16565b856135bb90919063ffffffff16565b6040518363ffffffff1660e01b8152600401612cc6929190613a9d565b6020604051808303816000875af1158015612ce5573d6000803e3d6000fd5b505050506040513d601f19601f82011682018060405250810190612d099190613afe565b505050612d3e565b612d3d7f3efd53f86eafd146a783e5a89b1c774fb66dfe423c59d1ce43aed7f60a8fd92a60001b61358c565b5b612d6a7f7307cce97a14fdbb2cc6d37688404df6d94caf37c1276080c7023ad1406e628b60001b61358c565b612d967f13f9a961277fb7e241c3cb75f4d0e69f7a1c40ccb85adb4dbe393439b20dfb4f60001b61358c565b6000606460045484612da89190613c7b565b612db29190613cec565b9050612de07fcac5483ccc48366c846c65a1fbec64aeaff122f5359d659ce5ba5ba28ddd729960001b61358c565b612e0c7f51ab597ebf2b7d8b37177ac7005264b805f96c5ce6cbb1af9c946e4d91760c6760001b61358c565b60008184612e1a9190613b89565b9050612e487ff832d15e714aa0eca0213997867e773b6d294f0319f72463fbed104cf82dc10c60001b61358c565b612e747f593d851aa6efac8d7e5254179f98f25d30b44e867b5e865ea5999150cd8c508b60001b61358c565b600160009054906101000a900473ffffffffffffffffffffffffffffffffffffffff1673ffffffffffffffffffffffffffffffffffffffff166323b872dd3330876040518463ffffffff1660e01b8152600401612ed393929190613d1d565b6020604051808303816000875af1158015612ef2573d6000803e3d6000fd5b505050506040513d601f19601f82011682018060405250810190612f169190613afe565b50612f437fbc39619d7299160282ba32b513aa436b750eaab30218aba7596177b449de669360001b61358c565b612f6f7fc256e7cf217d23f2cbfc5f5700506db6928a88fad203c786551db12f88d67cbe60001b61358c565b600160009054906101000a900473ffffffffffffffffffffffffffffffffffffffff1673ffffffffffffffffffffffffffffffffffffffff1663a9059cbb600960009054906101000a900473ffffffffffffffffffffffffffffffffffffffff16846040518363ffffffff1660e01b8152600401612fee929190613a9d565b6020604051808303816000875af115801561300d573d6000803e3d6000fd5b505050506040513d601f19601f820116820180604052508101906130319190613afe565b5061305e7f3be5eb80a6290ed5ee928e769c75b5921effd3c96830f917e6f67b52cb32c8e760001b61358c565b61308a7f0eab8462f5437c3c3d04f2ef61184e260497049bb2ce3e5bc0e54cf75287032a60001b61358c565b6130a181846000015461371390919063ffffffff16565b83600001819055506130d57f99b41c0ac38ea8262ea69fb8bcee34022dea7bb965aa4d8fb1ab5875d7ef3b7260001b61358c565b6131017f709e603ded08fc068ec8588b94105299a8f9c9b11a542ab1557da2ba55d32fba60001b61358c565b61313164e8d4a51000613123600b54866000015461358f90919063ffffffff16565b6135a590919063ffffffff16565b83600101819055506131657f1d7fce82212b9e7bebeecb5b7ed6179274e6e02b5f20bb565da055000803090b60001b61358c565b6131917f71bebb7fffb3ddfdee9ed3ec856d5304e38b94b3f164745bb124bd136e11736060001b61358c565b6131c164e8d4a510006131b3600c54866000015461358f90919063ffffffff16565b6135a590919063ffffffff16565b83600201819055506131f57fbc902cf53a2c2b122686dc30d41e1afa5e07fb29fdcb329f62e54dd173a89b9f60001b61358c565b6132217f45621b2018cc4fea3f0eae407ae5303b8f34b9bdf4f9b3f0724ac5ca8103185860001b61358c565b826003016040518060400160405280838152602001428152509080600181540180825580915050600190039060005260206000209060020201600090919091909150600082015181600001556020820151816001015550506132a57f52ee005e1ee526a685b84fbc76533f480b2d9a44c6553fee8a1c5bc28294c68e60001b61358c565b6132d17fd3a4c9eeee7a4d05cf5f9dfc8d434fb70c8c2b84ab676ecfc49b8ea0080d1a7c60001b61358c565b3373ffffffffffffffffffffffffffffffffffffffff167fe1fffcc4923d04b559f4d29a8bfc6cda04eb5b0d3c460751c2402c5c5cc9109c826040516133179190613893565b60405180910390a250505050565b600360009054906101000a900473ffffffffffffffffffffffffffffffffffffffff1681565b60085481565b6133596135d1565b600073ffffffffffffffffffffffffffffffffffffffff168173ffffffffffffffffffffffffffffffffffffffff16036133c8576040517f08c379a00000000000000000000000000000000000000000000000000000000081526004016133bf90613dc6565b60405180910390fd5b6133d18161364f565b50565b6000806134037fede0baaccb0fa8e52a3234a847340044e58b12c210eafe1702c053e427dfe09860001b61358c565b61342f7f46deb7bb70b9dff2c3bcf0fc1e8ca1f366d15cf4846307d2644f1f2681cfa5af60001b61358c565b61345b7fc178c214177bd4a1434c49de20cf171f06165ca5b73eaa7242440d28d0a71aea60001b61358c565b6000600d60008573ffffffffffffffffffffffffffffffffffffffff1673ffffffffffffffffffffffffffffffffffffffff16815260200190815260200160002090506134ca7f677f3c6b873c7d99063a15bd9453a54579c19cbb21229d7b4acee3ecffbac09f60001b61358c565b6134f67f887f7096c30c157cdb4f69a4b6b817987bf36fed8dff2134673775203d773a5f60001b61358c565b61353c816001015461352e64e8d4a51000613520600b54866000015461358f90919063ffffffff16565b6135a590919063ffffffff16565b6135bb90919063ffffffff16565b613582826002015461357464e8d4a51000613566600c54876000015461358f90919063ffffffff16565b6135a590919063ffffffff16565b6135bb90919063ffffffff16565b9250925050915091565b50565b6000818361359d9190613c7b565b905092915050565b600081836135b39190613cec565b905092915050565b600081836135c99190613b89565b905092915050565b6135d9613729565b73ffffffffffffffffffffffffffffffffffffffff166135f7611d86565b73ffffffffffffffffffffffffffffffffffffffff161461364d576040517f08c379a000000000000000000000000000000000000000000000000000000000815260040161364490613e32565b60405180910390fd5b565b60008060009054906101000a900473ffffffffffffffffffffffffffffffffffffffff169050816000806101000a81548173ffffffffffffffffffffffffffffffffffffffff021916908373ffffffffffffffffffffffffffffffffffffffff1602179055508173ffffffffffffffffffffffffffffffffffffffff168173ffffffffffffffffffffffffffffffffffffffff167f8be0079c531659141344cd1fd0a4f28419497f9722a3daafe3b4186f6b6457e060405160405180910390a35050565b600081836137219190613bbd565b905092915050565b600033905090565b600080fd5b600073ffffffffffffffffffffffffffffffffffffffff82169050919050565b600061376182613736565b9050919050565b61377181613756565b811461377c57600080fd5b50565b60008135905061378e81613768565b92915050565b6000602082840312156137aa576137a9613731565b5b60006137b88482850161377f565b91505092915050565b6000819050919050565b6137d4816137c1565b82525050565b60006060820190506137ef60008301866137cb565b6137fc60208301856137cb565b61380960408301846137cb565b949350505050565b61381a816137c1565b811461382557600080fd5b50565b60008135905061383781613811565b92915050565b60006020828403121561385357613852613731565b5b600061386184828501613828565b91505092915050565b600060408201905061387f60008301856137cb565b61388c60208301846137cb565b9392505050565b60006020820190506138a860008301846137cb565b92915050565b6138b781613756565b82525050565b60006020820190506138d260008301846138ae565b92915050565b6000819050919050565b60006138fd6138f86138f384613736565b6138d8565b613736565b9050919050565b600061390f826138e2565b9050919050565b600061392182613904565b9050919050565b61393181613916565b82525050565b600060208201905061394c6000830184613928565b92915050565b600061395d82613904565b9050919050565b61396d81613952565b82525050565b60006020820190506139886000830184613964565b92915050565b600082825260208201905092915050565b7f416d6f756e74206d7573742062652067726561746572207468616e2030000000600082015250565b60006139d5601d8361398e565b91506139e08261399f565b602082019050919050565b60006020820190508181036000830152613a04816139c8565b9050919050565b7f416d6f756e74206d757374206265206c657373207468616e207769746864726160008201527f7761626c6520616d6f756e740000000000000000000000000000000000000000602082015250565b6000613a67602c8361398e565b9150613a7282613a0b565b604082019050919050565b60006020820190508181036000830152613a9681613a5a565b9050919050565b6000604082019050613ab260008301856138ae565b613abf60208301846137cb565b9392505050565b60008115159050919050565b613adb81613ac6565b8114613ae657600080fd5b50565b600081519050613af881613ad2565b92915050565b600060208284031215613b1457613b13613731565b5b6000613b2284828501613ae9565b91505092915050565b7f4e487b7100000000000000000000000000000000000000000000000000000000600052603260045260246000fd5b7f4e487b7100000000000000000000000000000000000000000000000000000000600052601160045260246000fd5b6000613b94826137c1565b9150613b9f836137c1565b9250828203905081811115613bb757613bb6613b5a565b5b92915050565b6000613bc8826137c1565b9150613bd3836137c1565b9250828201905080821115613beb57613bea613b5a565b5b92915050565b6000613bfc826137c1565b91507fffffffffffffffffffffffffffffffffffffffffffffffffffffffffffffffff8203613c2e57613c2d613b5a565b5b600182019050919050565b600081519050613c4881613811565b92915050565b600060208284031215613c6457613c63613731565b5b6000613c7284828501613c39565b91505092915050565b6000613c86826137c1565b9150613c91836137c1565b9250828202613c9f816137c1565b91508282048414831517613cb657613cb5613b5a565b5b5092915050565b7f4e487b7100000000000000000000000000000000000000000000000000000000600052601260045260246000fd5b6000613cf7826137c1565b9150613d02836137c1565b925082613d1257613d11613cbd565b5b828204905092915050565b6000606082019050613d3260008301866138ae565b613d3f60208301856138ae565b613d4c60408301846137cb565b949350505050565b7f4f776e61626c653a206e6577206f776e657220697320746865207a65726f206160008201527f6464726573730000000000000000000000000000000000000000000000000000602082015250565b6000613db060268361398e565b9150613dbb82613d54565b604082019050919050565b60006020820190508181036000830152613ddf81613da3565b9050919050565b7f4f776e61626c653a2063616c6c6572206973206e6f7420746865206f776e6572600082015250565b6000613e1c60208361398e565b9150613e2782613de6565b602082019050919050565b60006020820190508181036000830152613e4b81613e0f565b905091905056fea2646970667358221220a273243e256902046f19c0808f1fea45035faef720af407887b7e01e2632877d64736f6c63430008120033","opcodes":"PUSH1 0x80 PUSH1 0x40 MSTORE PUSH3 0x278D00 PUSH1 0x6 SSTORE CALLVALUE DUP1 ISZERO PUSH3 0x18 JUMPI PUSH1 0x0 DUP1 REVERT JUMPDEST POP PUSH1 0x40 MLOAD PUSH3 0x473E CODESIZE SUB DUP1 PUSH3 0x473E DUP4 CODECOPY DUP2 DUP2 ADD PUSH1 0x40 MSTORE DUP2 ADD SWAP1 PUSH3 0x3E SWAP2 SWAP1 PUSH3 0x7DD JUMP JUMPDEST PUSH3 0x5E PUSH3 0x52 PUSH3 0x5DF PUSH1 0x20 SHL PUSH1 0x20 SHR JUMP JUMPDEST PUSH3 0x5E7 PUSH1 0x20 SHL PUSH1 0x20 SHR JUMP JUMPDEST PUSH3 0x92 PUSH32 0xE34C57241C0B6F5DB3DBC4656DB03EE12E953A561DB0F7F2B273AA0026B85978 PUSH1 0x0 SHL PUSH3 0x6AB PUSH1 0x20 SHL PUSH1 0x20 SHR JUMP JUMPDEST PUSH3 0xC6 PUSH32 0xCBDD4BA62D787E4676644047C123F9F45EC08835991A32EBADCD453030904E7A PUSH1 0x0 SHL PUSH3 0x6AB PUSH1 0x20 SHL PUSH1 0x20 SHR JUMP JUMPDEST PUSH3 0xFA PUSH32 0xF83A9A2B749F505CECDCC280FA4FDB3E1F692B1B8F4AE4D5EB915536EF965A65 PUSH1 0x0 SHL PUSH3 0x6AB PUSH1 0x20 SHL PUSH1 0x20 SHR JUMP JUMPDEST DUP8 PUSH1 0x1 PUSH1 0x0 PUSH2 0x100 EXP DUP2 SLOAD DUP2 PUSH20 0xFFFFFFFFFFFFFFFFFFFFFFFFFFFFFFFFFFFFFFFF MUL NOT AND SWAP1 DUP4 PUSH20 0xFFFFFFFFFFFFFFFFFFFFFFFFFFFFFFFFFFFFFFFF AND MUL OR SWAP1 SSTORE POP PUSH3 0x16F PUSH32 0xCC47E69981A5202C7D1162AAB22FEF29F872F670286621D583524BC298678757 PUSH1 0x0 SHL PUSH3 0x6AB PUSH1 0x20 SHL PUSH1 0x20 SHR JUMP JUMPDEST PUSH3 0x1A3 PUSH32 0xC4134372BA2CACEDD41BA5EC5CAC9930EC23CBFA561CFB5262DD6ADD6840BFAB PUSH1 0x0 SHL PUSH3 0x6AB PUSH1 0x20 SHL PUSH1 0x20 SHR JUMP JUMPDEST DUP7 PUSH1 0x2 PUSH1 0x0 PUSH2 0x100 EXP DUP2 SLOAD DUP2 PUSH20 0xFFFFFFFFFFFFFFFFFFFFFFFFFFFFFFFFFFFFFFFF MUL NOT AND SWAP1 DUP4 PUSH20 0xFFFFFFFFFFFFFFFFFFFFFFFFFFFFFFFFFFFFFFFF AND MUL OR SWAP1 SSTORE POP PUSH3 0x218 PUSH32 0xCC0D1D15770F0D82868346F8708F7C77B1AB470F32452A7036701624109256DA PUSH1 0x0 SHL PUSH3 0x6AB PUSH1 0x20 SHL PUSH1 0x20 SHR JUMP JUMPDEST PUSH3 0x24C PUSH32 0x40E48B8BA31E6F533BCACBD28C69B1D18CF949A4A32073003FCFFE2C29E502B7 PUSH1 0x0 SHL PUSH3 0x6AB PUSH1 0x20 SHL PUSH1 0x20 SHR JUMP JUMPDEST DUP6 PUSH1 0x3 PUSH1 0x0 PUSH2 0x100 EXP DUP2 SLOAD DUP2 PUSH20 0xFFFFFFFFFFFFFFFFFFFFFFFFFFFFFFFFFFFFFFFF MUL NOT AND SWAP1 DUP4 PUSH20 0xFFFFFFFFFFFFFFFFFFFFFFFFFFFFFFFFFFFFFFFF AND MUL OR SWAP1 SSTORE POP PUSH3 0x2C1 PUSH32 0x25D3806381D833DA0FCAE9E88D23ADEB13BB5356AF6CC990F9D84E8767AB8742 PUSH1 0x0 SHL PUSH3 0x6AB PUSH1 0x20 SHL PUSH1 0x20 SHR JUMP JUMPDEST PUSH3 0x2F5 PUSH32 0x5FBF8D1AEE02E785B6DAD67CA39A73E38E224F360DB09C051572C8886633D1BF PUSH1 0x0 SHL PUSH3 0x6AB PUSH1 0x20 SHL PUSH1 0x20 SHR JUMP JUMPDEST DUP5 PUSH1 0x4 DUP2 SWAP1 SSTORE POP PUSH3 0x330 PUSH32 0xEB19524FEBF94545A97C72E0762D4A69CA50CCF8CFF40B776E0B362A3F50D28A PUSH1 0x0 SHL PUSH3 0x6AB PUSH1 0x20 SHL PUSH1 0x20 SHR JUMP JUMPDEST PUSH3 0x364 PUSH32 0x19627106E670E1B38E2143BD23C20A41C5B34AB7EA3B7ED6308CCE67A0298AF9 PUSH1 0x0 SHL PUSH3 0x6AB PUSH1 0x20 SHL PUSH1 0x20 SHR JUMP JUMPDEST DUP4 PUSH1 0x9 PUSH1 0x0 PUSH2 0x100 EXP DUP2 SLOAD DUP2 PUSH20 0xFFFFFFFFFFFFFFFFFFFFFFFFFFFFFFFFFFFFFFFF MUL NOT AND SWAP1 DUP4 PUSH20 0xFFFFFFFFFFFFFFFFFFFFFFFFFFFFFFFFFFFFFFFF AND MUL OR SWAP1 SSTORE POP PUSH3 0x3D9 PUSH32 0x88E6037B9BACAD784112B8D6954DA44BFCA69161D44128296FD80D3F5CEE089A PUSH1 0x0 SHL PUSH3 0x6AB PUSH1 0x20 SHL PUSH1 0x20 SHR JUMP JUMPDEST PUSH3 0x40D PUSH32 0x8D585C2285F67E23BC4B3A1EBF4524F301E4B91F3BEAFD4863DBBACD506E4B58 PUSH1 0x0 SHL PUSH3 0x6AB PUSH1 0x20 SHL PUSH1 0x20 SHR JUMP JUMPDEST DUP3 PUSH1 0x7 DUP2 SWAP1 SSTORE POP PUSH3 0x448 PUSH32 0xA8EFE5FF1FBAF6DDC61A1CA9B46367888D635870689F5F722E0F0B3EA7DB942B PUSH1 0x0 SHL PUSH3 0x6AB PUSH1 0x20 SHL PUSH1 0x20 SHR JUMP JUMPDEST PUSH3 0x47C PUSH32 0x59D0774EDCA95DAB8710067D7F4EC0AAA6A7E8071BD7DAAA3BD339E996378BD9 PUSH1 0x0 SHL PUSH3 0x6AB PUSH1 0x20 SHL PUSH1 0x20 SHR JUMP JUMPDEST DUP2 PUSH1 0x8 DUP2 SWAP1 SSTORE POP PUSH3 0x4B7 PUSH32 0x5A2C3341E1AD56691168DB4737132E81713B89404EF98D78B88EDD0DA37B5054 PUSH1 0x0 SHL PUSH3 0x6AB PUSH1 0x20 SHL PUSH1 0x20 SHR JUMP JUMPDEST PUSH3 0x4EB PUSH32 0x5935D6A2E0D55FE7A7D12E2EA4E06BC8C316BE8CB4D4FE5EC0A3F9FF122DD866 PUSH1 0x0 SHL PUSH3 0x6AB PUSH1 0x20 SHL PUSH1 0x20 SHR JUMP JUMPDEST NUMBER PUSH1 0xA DUP2 SWAP1 SSTORE POP PUSH3 0x526 PUSH32 0x1070AA1CDF8E7A4CE6F0BC65480938AB037354F1BCCA1CB1E22D43E6A1E940F4 PUSH1 0x0 SHL PUSH3 0x6AB PUSH1 0x20 SHL PUSH1 0x20 SHR JUMP JUMPDEST PUSH3 0x55A PUSH32 0x892EF3FBFBFD7370DB3AC85ECC9E8E7C77079A6E15CB41CDB37E99819A5F9FD PUSH1 0x0 SHL PUSH3 0x6AB PUSH1 0x20 SHL PUSH1 0x20 SHR JUMP JUMPDEST PUSH1 0x0 PUSH1 0xB DUP2 SWAP1 SSTORE POP PUSH3 0x596 PUSH32 0x478D001E10CAC2AE648C8BFAB1AB00ADF0823460C459C8733E3E2ECE528ED91 PUSH1 0x0 SHL PUSH3 0x6AB PUSH1 0x20 SHL PUSH1 0x20 SHR JUMP JUMPDEST PUSH3 0x5CA PUSH32 0xD85E35D3BDA4E6782C5AD837FB9998A7B6CB6AF285F4B81DE8DF4905279FA7FE PUSH1 0x0 SHL PUSH3 0x6AB PUSH1 0x20 SHL PUSH1 0x20 SHR JUMP JUMPDEST DUP1 PUSH1 0x6 DUP2 SWAP1 SSTORE POP POP POP POP POP POP POP POP POP PUSH3 0x8A6 JUMP JUMPDEST PUSH1 0x0 CALLER SWAP1 POP SWAP1 JUMP JUMPDEST PUSH1 0x0 DUP1 PUSH1 0x0 SWAP1 SLOAD SWAP1 PUSH2 0x100 EXP SWAP1 DIV PUSH20 0xFFFFFFFFFFFFFFFFFFFFFFFFFFFFFFFFFFFFFFFF AND SWAP1 POP DUP2 PUSH1 0x0 DUP1 PUSH2 0x100 EXP DUP2 SLOAD DUP2 PUSH20 0xFFFFFFFFFFFFFFFFFFFFFFFFFFFFFFFFFFFFFFFF MUL NOT AND SWAP1 DUP4 PUSH20 0xFFFFFFFFFFFFFFFFFFFFFFFFFFFFFFFFFFFFFFFF AND MUL OR SWAP1 SSTORE POP DUP2 PUSH20 0xFFFFFFFFFFFFFFFFFFFFFFFFFFFFFFFFFFFFFFFF AND DUP2 PUSH20 0xFFFFFFFFFFFFFFFFFFFFFFFFFFFFFFFFFFFFFFFF AND PUSH32 0x8BE0079C531659141344CD1FD0A4F28419497F9722A3DAAFE3B4186F6B6457E0 PUSH1 0x40 MLOAD PUSH1 0x40 MLOAD DUP1 SWAP2 SUB SWAP1 LOG3 POP POP JUMP JUMPDEST POP JUMP JUMPDEST PUSH1 0x0 DUP1 REVERT JUMPDEST PUSH1 0x0 PUSH20 0xFFFFFFFFFFFFFFFFFFFFFFFFFFFFFFFFFFFFFFFF DUP3 AND SWAP1 POP SWAP2 SWAP1 POP JUMP JUMPDEST PUSH1 0x0 PUSH3 0x6E0 DUP3 PUSH3 0x6B3 JUMP JUMPDEST SWAP1 POP SWAP2 SWAP1 POP JUMP JUMPDEST PUSH1 0x0 PUSH3 0x6F4 DUP3 PUSH3 0x6D3 JUMP JUMPDEST SWAP1 POP SWAP2 SWAP1 POP JUMP JUMPDEST PUSH3 0x706 DUP2 PUSH3 0x6E7 JUMP JUMPDEST DUP2 EQ PUSH3 0x712 JUMPI PUSH1 0x0 DUP1 REVERT JUMPDEST POP JUMP JUMPDEST PUSH1 0x0 DUP2 MLOAD SWAP1 POP PUSH3 0x726 DUP2 PUSH3 0x6FB JUMP JUMPDEST SWAP3 SWAP2 POP POP JUMP JUMPDEST PUSH1 0x0 PUSH3 0x739 DUP3 PUSH3 0x6D3 JUMP JUMPDEST SWAP1 POP SWAP2 SWAP1 POP JUMP JUMPDEST PUSH3 0x74B DUP2 PUSH3 0x72C JUMP JUMPDEST DUP2 EQ PUSH3 0x757 JUMPI PUSH1 0x0 DUP1 REVERT JUMPDEST POP JUMP JUMPDEST PUSH1 0x0 DUP2 MLOAD SWAP1 POP PUSH3 0x76B DUP2 PUSH3 0x740 JUMP JUMPDEST SWAP3 SWAP2 POP POP JUMP JUMPDEST PUSH1 0x0 DUP2 SWAP1 POP SWAP2 SWAP1 POP JUMP JUMPDEST PUSH3 0x786 DUP2 PUSH3 0x771 JUMP JUMPDEST DUP2 EQ PUSH3 0x792 JUMPI PUSH1 0x0 DUP1 REVERT JUMPDEST POP JUMP JUMPDEST PUSH1 0x0 DUP2 MLOAD SWAP1 POP PUSH3 0x7A6 DUP2 PUSH3 0x77B JUMP JUMPDEST SWAP3 SWAP2 POP POP JUMP JUMPDEST PUSH3 0x7B7 DUP2 PUSH3 0x6D3 JUMP JUMPDEST DUP2 EQ PUSH3 0x7C3 JUMPI PUSH1 0x0 DUP1 REVERT JUMPDEST POP JUMP JUMPDEST PUSH1 0x0 DUP2 MLOAD SWAP1 POP PUSH3 0x7D7 DUP2 PUSH3 0x7AC JUMP JUMPDEST SWAP3 SWAP2 POP POP JUMP JUMPDEST PUSH1 0x0 DUP1 PUSH1 0x0 DUP1 PUSH1 0x0 DUP1 PUSH1 0x0 DUP1 PUSH2 0x100 DUP10 DUP12 SUB SLT ISZERO PUSH3 0x801 JUMPI PUSH3 0x800 PUSH3 0x6AE JUMP JUMPDEST JUMPDEST PUSH1 0x0 PUSH3 0x811 DUP12 DUP3 DUP13 ADD PUSH3 0x715 JUMP JUMPDEST SWAP9 POP POP PUSH1 0x20 PUSH3 0x824 DUP12 DUP3 DUP13 ADD PUSH3 0x75A JUMP JUMPDEST SWAP8 POP POP PUSH1 0x40 PUSH3 0x837 DUP12 DUP3 DUP13 ADD PUSH3 0x75A JUMP JUMPDEST SWAP7 POP POP PUSH1 0x60 PUSH3 0x84A DUP12 DUP3 DUP13 ADD PUSH3 0x795 JUMP JUMPDEST SWAP6 POP POP PUSH1 0x80 PUSH3 0x85D DUP12 DUP3 DUP13 ADD PUSH3 0x7C6 JUMP JUMPDEST SWAP5 POP POP PUSH1 0xA0 PUSH3 0x870 DUP12 DUP3 DUP13 ADD PUSH3 0x795 JUMP JUMPDEST SWAP4 POP POP PUSH1 0xC0 PUSH3 0x883 DUP12 DUP3 DUP13 ADD PUSH3 0x795 JUMP JUMPDEST SWAP3 POP POP PUSH1 0xE0 PUSH3 0x896 DUP12 DUP3 DUP13 ADD PUSH3 0x795 JUMP JUMPDEST SWAP2 POP POP SWAP3 SWAP6 SWAP9 POP SWAP3 SWAP6 SWAP9 SWAP1 SWAP4 SWAP7 POP JUMP JUMPDEST PUSH2 0x3E88 DUP1 PUSH3 0x8B6 PUSH1 0x0 CODECOPY PUSH1 0x0 RETURN INVALID PUSH1 0x80 PUSH1 0x40 MSTORE CALLVALUE DUP1 ISZERO PUSH2 0x10 JUMPI PUSH1 0x0 DUP1 REVERT JUMPDEST POP PUSH1 0x4 CALLDATASIZE LT PUSH2 0x142 JUMPI PUSH1 0x0 CALLDATALOAD PUSH1 0xE0 SHR DUP1 PUSH4 0x72F702F3 GT PUSH2 0xB8 JUMPI DUP1 PUSH4 0xA9F8D181 GT PUSH2 0x7C JUMPI DUP1 PUSH4 0xA9F8D181 EQ PUSH2 0x310 JUMPI DUP1 PUSH4 0xB6B55F25 EQ PUSH2 0x32E JUMPI DUP1 PUSH4 0xD61A47F1 EQ PUSH2 0x34A JUMPI DUP1 PUSH4 0xEA02B0E5 EQ PUSH2 0x368 JUMPI DUP1 PUSH4 0xF2FDE38B EQ PUSH2 0x386 JUMPI DUP1 PUSH4 0xF40F0F52 EQ PUSH2 0x3A2 JUMPI PUSH2 0x142 JUMP JUMPDEST DUP1 PUSH4 0x72F702F3 EQ PUSH2 0x28E JUMPI DUP1 PUSH4 0x817B1CD2 EQ PUSH2 0x2AC JUMPI DUP1 PUSH4 0x8DA5CB5B EQ PUSH2 0x2CA JUMPI DUP1 PUSH4 0xA2E62045 EQ PUSH2 0x2E8 JUMPI DUP1 PUSH4 0xA36E8600 EQ PUSH2 0x2F2 JUMPI PUSH2 0x142 JUMP JUMPDEST DUP1 PUSH4 0x532A6159 GT PUSH2 0x10A JUMPI DUP1 PUSH4 0x532A6159 EQ PUSH2 0x1EE JUMPI DUP1 PUSH4 0x5A98674B EQ PUSH2 0x20C JUMPI DUP1 PUSH4 0x61D027B3 EQ PUSH2 0x22A JUMPI DUP1 PUSH4 0x67A52793 EQ PUSH2 0x248 JUMPI DUP1 PUSH4 0x6F28D688 EQ PUSH2 0x266 JUMPI DUP1 PUSH4 0x715018A6 EQ PUSH2 0x284 JUMPI PUSH2 0x142 JUMP JUMPDEST DUP1 PUSH4 0x1959A002 EQ PUSH2 0x147 JUMPI DUP1 PUSH4 0x2E1A7D4D EQ PUSH2 0x179 JUMPI DUP1 PUSH4 0x3D835E01 EQ PUSH2 0x195 JUMPI DUP1 PUSH4 0x3FD8B02F EQ PUSH2 0x1C6 JUMPI DUP1 PUSH4 0x4E71D92D EQ PUSH2 0x1E4 JUMPI JUMPDEST PUSH1 0x0 DUP1 REVERT JUMPDEST PUSH2 0x161 PUSH1 0x4 DUP1 CALLDATASIZE SUB DUP2 ADD SWAP1 PUSH2 0x15C SWAP2 SWAP1 PUSH2 0x3794 JUMP JUMPDEST PUSH2 0x3D3 JUMP JUMPDEST PUSH1 0x40 MLOAD PUSH2 0x170 SWAP4 SWAP3 SWAP2 SWAP1 PUSH2 0x37DA JUMP JUMPDEST PUSH1 0x40 MLOAD DUP1 SWAP2 SUB SWAP1 RETURN JUMPDEST PUSH2 0x193 PUSH1 0x4 DUP1 CALLDATASIZE SUB DUP2 ADD SWAP1 PUSH2 0x18E SWAP2 SWAP1 PUSH2 0x383D JUMP JUMPDEST PUSH2 0x3FD JUMP JUMPDEST STOP JUMPDEST PUSH2 0x1AF PUSH1 0x4 DUP1 CALLDATASIZE SUB DUP2 ADD SWAP1 PUSH2 0x1AA SWAP2 SWAP1 PUSH2 0x3794 JUMP JUMPDEST PUSH2 0xFF9 JUMP JUMPDEST PUSH1 0x40 MLOAD PUSH2 0x1BD SWAP3 SWAP2 SWAP1 PUSH2 0x386A JUMP JUMPDEST PUSH1 0x40 MLOAD DUP1 SWAP2 SUB SWAP1 RETURN JUMPDEST PUSH2 0x1CE PUSH2 0x13EC JUMP JUMPDEST PUSH1 0x40 MLOAD PUSH2 0x1DB SWAP2 SWAP1 PUSH2 0x3893 JUMP JUMPDEST PUSH1 0x40 MLOAD DUP1 SWAP2 SUB SWAP1 RETURN JUMPDEST PUSH2 0x1EC PUSH2 0x13F2 JUMP JUMPDEST STOP JUMPDEST PUSH2 0x1F6 PUSH2 0x1CE8 JUMP JUMPDEST PUSH1 0x40 MLOAD PUSH2 0x203 SWAP2 SWAP1 PUSH2 0x3893 JUMP JUMPDEST PUSH1 0x40 MLOAD DUP1 SWAP2 SUB SWAP1 RETURN JUMPDEST PUSH2 0x214 PUSH2 0x1CEE JUMP JUMPDEST PUSH1 0x40 MLOAD PUSH2 0x221 SWAP2 SWAP1 PUSH2 0x3893 JUMP JUMPDEST PUSH1 0x40 MLOAD DUP1 SWAP2 SUB SWAP1 RETURN JUMPDEST PUSH2 0x232 PUSH2 0x1CF4 JUMP JUMPDEST PUSH1 0x40 MLOAD PUSH2 0x23F SWAP2 SWAP1 PUSH2 0x38BD JUMP JUMPDEST PUSH1 0x40 MLOAD DUP1 SWAP2 SUB SWAP1 RETURN JUMPDEST PUSH2 0x250 PUSH2 0x1D1A JUMP JUMPDEST PUSH1 0x40 MLOAD PUSH2 0x25D SWAP2 SWAP1 PUSH2 0x3893 JUMP JUMPDEST PUSH1 0x40 MLOAD DUP1 SWAP2 SUB SWAP1 RETURN JUMPDEST PUSH2 0x26E PUSH2 0x1D20 JUMP JUMPDEST PUSH1 0x40 MLOAD PUSH2 0x27B SWAP2 SWAP1 PUSH2 0x3937 JUMP JUMPDEST PUSH1 0x40 MLOAD DUP1 SWAP2 SUB SWAP1 RETURN JUMPDEST PUSH2 0x28C PUSH2 0x1D46 JUMP JUMPDEST STOP JUMPDEST PUSH2 0x296 PUSH2 0x1D5A JUMP JUMPDEST PUSH1 0x40 MLOAD PUSH2 0x2A3 SWAP2 SWAP1 PUSH2 0x3973 JUMP JUMPDEST PUSH1 0x40 MLOAD DUP1 SWAP2 SUB SWAP1 RETURN JUMPDEST PUSH2 0x2B4 PUSH2 0x1D80 JUMP JUMPDEST PUSH1 0x40 MLOAD PUSH2 0x2C1 SWAP2 SWAP1 PUSH2 0x3893 JUMP JUMPDEST PUSH1 0x40 MLOAD DUP1 SWAP2 SUB SWAP1 RETURN JUMPDEST PUSH2 0x2D2 PUSH2 0x1D86 JUMP JUMPDEST PUSH1 0x40 MLOAD PUSH2 0x2DF SWAP2 SWAP1 PUSH2 0x38BD JUMP JUMPDEST PUSH1 0x40 MLOAD DUP1 SWAP2 SUB SWAP1 RETURN JUMPDEST PUSH2 0x2F0 PUSH2 0x1DAF JUMP JUMPDEST STOP JUMPDEST PUSH2 0x2FA PUSH2 0x2507 JUMP JUMPDEST PUSH1 0x40 MLOAD PUSH2 0x307 SWAP2 SWAP1 PUSH2 0x3893 JUMP JUMPDEST PUSH1 0x40 MLOAD DUP1 SWAP2 SUB SWAP1 RETURN JUMPDEST PUSH2 0x318 PUSH2 0x250D JUMP JUMPDEST PUSH1 0x40 MLOAD PUSH2 0x325 SWAP2 SWAP1 PUSH2 0x3893 JUMP JUMPDEST PUSH1 0x40 MLOAD DUP1 SWAP2 SUB SWAP1 RETURN JUMPDEST PUSH2 0x348 PUSH1 0x4 DUP1 CALLDATASIZE SUB DUP2 ADD SWAP1 PUSH2 0x343 SWAP2 SWAP1 PUSH2 0x383D JUMP JUMPDEST PUSH2 0x2513 JUMP JUMPDEST STOP JUMPDEST PUSH2 0x352 PUSH2 0x3325 JUMP JUMPDEST PUSH1 0x40 MLOAD PUSH2 0x35F SWAP2 SWAP1 PUSH2 0x3937 JUMP JUMPDEST PUSH1 0x40 MLOAD DUP1 SWAP2 SUB SWAP1 RETURN JUMPDEST PUSH2 0x370 PUSH2 0x334B JUMP JUMPDEST PUSH1 0x40 MLOAD PUSH2 0x37D SWAP2 SWAP1 PUSH2 0x3893 JUMP JUMPDEST PUSH1 0x40 MLOAD DUP1 SWAP2 SUB SWAP1 RETURN JUMPDEST PUSH2 0x3A0 PUSH1 0x4 DUP1 CALLDATASIZE SUB DUP2 ADD SWAP1 PUSH2 0x39B SWAP2 SWAP1 PUSH2 0x3794 JUMP JUMPDEST PUSH2 0x3351 JUMP JUMPDEST STOP JUMPDEST PUSH2 0x3BC PUSH1 0x4 DUP1 CALLDATASIZE SUB DUP2 ADD SWAP1 PUSH2 0x3B7 SWAP2 SWAP1 PUSH2 0x3794 JUMP JUMPDEST PUSH2 0x33D4 JUMP JUMPDEST PUSH1 0x40 MLOAD PUSH2 0x3CA SWAP3 SWAP2 SWAP1 PUSH2 0x386A JUMP JUMPDEST PUSH1 0x40 MLOAD DUP1 SWAP2 SUB SWAP1 RETURN JUMPDEST PUSH1 0xD PUSH1 0x20 MSTORE DUP1 PUSH1 0x0 MSTORE PUSH1 0x40 PUSH1 0x0 KECCAK256 PUSH1 0x0 SWAP2 POP SWAP1 POP DUP1 PUSH1 0x0 ADD SLOAD SWAP1 DUP1 PUSH1 0x1 ADD SLOAD SWAP1 DUP1 PUSH1 0x2 ADD SLOAD SWAP1 POP DUP4 JUMP JUMPDEST PUSH2 0x429 PUSH32 0x441F9F04D9EA35119229033A22DD41B848B0A6C406238EF992BD33778EF0EBA8 PUSH1 0x0 SHL PUSH2 0x358C JUMP JUMPDEST PUSH2 0x455 PUSH32 0x415DB434B90BAF4582A9BABB8A7E2469B4AAF705508DBBC2FD5BB5F0EF5EAD36 PUSH1 0x0 SHL PUSH2 0x358C JUMP JUMPDEST PUSH2 0x481 PUSH32 0x912041EC950B16F0C18CF10DF45F85FB885E94E071D18B3AEEB4270D8DEDB87D PUSH1 0x0 SHL PUSH2 0x358C JUMP JUMPDEST PUSH2 0x4AD PUSH32 0x752AFA3F1DB3D6C3DDEB4543E506EC7D5419BCE862A9B7C2D3DAB679931414E9 PUSH1 0x0 SHL PUSH2 0x358C JUMP JUMPDEST PUSH1 0x0 DUP2 GT PUSH2 0x4F0 JUMPI PUSH1 0x40 MLOAD PUSH32 0x8C379A000000000000000000000000000000000000000000000000000000000 DUP2 MSTORE PUSH1 0x4 ADD PUSH2 0x4E7 SWAP1 PUSH2 0x39EB JUMP JUMPDEST PUSH1 0x40 MLOAD DUP1 SWAP2 SUB SWAP1 REVERT JUMPDEST PUSH2 0x51C PUSH32 0x9053A95E374859CB2AD2E637222CED51DCD732A4558BBDED09ECBB11AAE1E04C PUSH1 0x0 SHL PUSH2 0x358C JUMP JUMPDEST PUSH2 0x548 PUSH32 0x2F38C748040D2A314F2AD913A7E7ABE08EC8E3BB556B419694ABA1353473F94A PUSH1 0x0 SHL PUSH2 0x358C JUMP JUMPDEST PUSH2 0x574 PUSH32 0x96BBA9422D4A340C413CD7023E87AC5B73DE0E37BE734FD1317F8AD7414AAA5D PUSH1 0x0 SHL PUSH2 0x358C JUMP JUMPDEST PUSH1 0x0 PUSH1 0xD PUSH1 0x0 CALLER PUSH20 0xFFFFFFFFFFFFFFFFFFFFFFFFFFFFFFFFFFFFFFFF AND PUSH20 0xFFFFFFFFFFFFFFFFFFFFFFFFFFFFFFFFFFFFFFFF AND DUP2 MSTORE PUSH1 0x20 ADD SWAP1 DUP2 MSTORE PUSH1 0x20 ADD PUSH1 0x0 KECCAK256 SWAP1 POP PUSH2 0x5E3 PUSH32 0xAA4F334CAAEE5BBF1AF1F10FEEA3A61F529F7BDB2D18C7FEC86B805ACF82ABAC PUSH1 0x0 SHL PUSH2 0x358C JUMP JUMPDEST PUSH2 0x60F PUSH32 0xC9126346EDAD0A904D0B23FC64F5CF91BCFDC3099266F0DCE7B839642F156D2B PUSH1 0x0 SHL PUSH2 0x358C JUMP JUMPDEST PUSH1 0x0 PUSH2 0x61A CALLER PUSH2 0xFF9 JUMP JUMPDEST SWAP2 POP POP PUSH2 0x649 PUSH32 0xDE494527EC9BAE5266EE9C30B9FCC19ECF22492C13E9EB1B284DFF1CABA1B62C PUSH1 0x0 SHL PUSH2 0x358C JUMP JUMPDEST PUSH2 0x675 PUSH32 0x14C3C620222DB750DD784365DE6058365AC40630EF3A6765E796F891E5EAA49C PUSH1 0x0 SHL PUSH2 0x358C JUMP JUMPDEST PUSH2 0x6A1 PUSH32 0x84466732FFD1A19D0911C72E661BA9CA9919FBC92F2F86EBBAEE5A5A1AF8D6B8 PUSH1 0x0 SHL PUSH2 0x358C JUMP JUMPDEST DUP1 DUP4 GT ISZERO PUSH2 0x6E4 JUMPI PUSH1 0x40 MLOAD PUSH32 0x8C379A000000000000000000000000000000000000000000000000000000000 DUP2 MSTORE PUSH1 0x4 ADD PUSH2 0x6DB SWAP1 PUSH2 0x3A7D JUMP JUMPDEST PUSH1 0x40 MLOAD DUP1 SWAP2 SUB SWAP1 REVERT JUMPDEST PUSH2 0x710 PUSH32 0x192051EFF1AB0D855AE2ADA8E1631835DE04A398D6DE903B38FA78102895072E PUSH1 0x0 SHL PUSH2 0x358C JUMP JUMPDEST PUSH2 0x73C PUSH32 0x8BDF77F806C3927F363D49D9163A9F7C5F79ED94C13DD10DBDFEACFF84608DBD PUSH1 0x0 SHL PUSH2 0x358C JUMP JUMPDEST PUSH2 0x768 PUSH32 0xF3CB5A2EF2AC075B92713B0382B3DCDB7D503BEEB4BEB7CF331D73CA18B24D10 PUSH1 0x0 SHL PUSH2 0x358C JUMP JUMPDEST PUSH2 0x770 PUSH2 0x1DAF JUMP JUMPDEST PUSH2 0x79C PUSH32 0xA039AC587199F19B58E752F990672E2CA90FC94D96302962C9085A7CB036BCF6 PUSH1 0x0 SHL PUSH2 0x358C JUMP JUMPDEST PUSH2 0x7C8 PUSH32 0x2817315488BBE23455D6679B76E3295E3E3017628778FB01E445B5A2C2D0B806 PUSH1 0x0 SHL PUSH2 0x358C JUMP JUMPDEST PUSH1 0x0 DUP1 PUSH2 0x7D4 CALLER PUSH2 0x33D4 JUMP JUMPDEST SWAP2 POP SWAP2 POP PUSH2 0x804 PUSH32 0x5F82A00B33FF48A02D85963AE73025C8827A6D987377FB17F0A9E9FB92F8CA95 PUSH1 0x0 SHL PUSH2 0x358C JUMP JUMPDEST PUSH2 0x830 PUSH32 0x5C7C29EBD37E1748BDEA04B1AF60D83C1C2D627361E7A6208E13200E6805222 PUSH1 0x0 SHL PUSH2 0x358C JUMP JUMPDEST PUSH1 0x2 PUSH1 0x0 SWAP1 SLOAD SWAP1 PUSH2 0x100 EXP SWAP1 DIV PUSH20 0xFFFFFFFFFFFFFFFFFFFFFFFFFFFFFFFFFFFFFFFF AND PUSH20 0xFFFFFFFFFFFFFFFFFFFFFFFFFFFFFFFFFFFFFFFF AND PUSH4 0xA9059CBB PUSH1 0x9 PUSH1 0x0 SWAP1 SLOAD SWAP1 PUSH2 0x100 EXP SWAP1 DIV PUSH20 0xFFFFFFFFFFFFFFFFFFFFFFFFFFFFFFFFFFFFFFFF AND PUSH2 0x8B8 PUSH1 0x64 PUSH2 0x8AA PUSH1 0xA DUP9 PUSH2 0x358F SWAP1 SWAP2 SWAP1 PUSH4 0xFFFFFFFF AND JUMP JUMPDEST PUSH2 0x35A5 SWAP1 SWAP2 SWAP1 PUSH4 0xFFFFFFFF AND JUMP JUMPDEST PUSH1 0x40 MLOAD DUP4 PUSH4 0xFFFFFFFF AND PUSH1 0xE0 SHL DUP2 MSTORE PUSH1 0x4 ADD PUSH2 0x8D5 SWAP3 SWAP2 SWAP1 PUSH2 0x3A9D JUMP JUMPDEST PUSH1 0x20 PUSH1 0x40 MLOAD DUP1 DUP4 SUB DUP2 PUSH1 0x0 DUP8 GAS CALL ISZERO DUP1 ISZERO PUSH2 0x8F4 JUMPI RETURNDATASIZE PUSH1 0x0 DUP1 RETURNDATACOPY RETURNDATASIZE PUSH1 0x0 REVERT JUMPDEST POP POP POP POP PUSH1 0x40 MLOAD RETURNDATASIZE PUSH1 0x1F NOT PUSH1 0x1F DUP3 ADD AND DUP3 ADD DUP1 PUSH1 0x40 MSTORE POP DUP2 ADD SWAP1 PUSH2 0x918 SWAP2 SWAP1 PUSH2 0x3AFE JUMP JUMPDEST POP PUSH2 0x945 PUSH32 0x3E5F465E6474AB49F2581B8C5780A544C5128133A64739873E789ADBB7CBFB74 PUSH1 0x0 SHL PUSH2 0x358C JUMP JUMPDEST PUSH2 0x971 PUSH32 0x24A9F875DEA45B362033FFEB5E26CDA7DC1CA54C018CFE7845C4494F03C19CDF PUSH1 0x0 SHL PUSH2 0x358C JUMP JUMPDEST PUSH1 0x3 PUSH1 0x0 SWAP1 SLOAD SWAP1 PUSH2 0x100 EXP SWAP1 DIV PUSH20 0xFFFFFFFFFFFFFFFFFFFFFFFFFFFFFFFFFFFFFFFF AND PUSH20 0xFFFFFFFFFFFFFFFFFFFFFFFFFFFFFFFFFFFFFFFF AND PUSH4 0xA9059CBB PUSH1 0x9 PUSH1 0x0 SWAP1 SLOAD SWAP1 PUSH2 0x100 EXP SWAP1 DIV PUSH20 0xFFFFFFFFFFFFFFFFFFFFFFFFFFFFFFFFFFFFFFFF AND PUSH2 0x9F9 PUSH1 0x64 PUSH2 0x9EB PUSH1 0xA DUP8 PUSH2 0x358F SWAP1 SWAP2 SWAP1 PUSH4 0xFFFFFFFF AND JUMP JUMPDEST PUSH2 0x35A5 SWAP1 SWAP2 SWAP1 PUSH4 0xFFFFFFFF AND JUMP JUMPDEST PUSH1 0x40 MLOAD DUP4 PUSH4 0xFFFFFFFF AND PUSH1 0xE0 SHL DUP2 MSTORE PUSH1 0x4 ADD PUSH2 0xA16 SWAP3 SWAP2 SWAP1 PUSH2 0x3A9D JUMP JUMPDEST PUSH1 0x20 PUSH1 0x40 MLOAD DUP1 DUP4 SUB DUP2 PUSH1 0x0 DUP8 GAS CALL ISZERO DUP1 ISZERO PUSH2 0xA35 JUMPI RETURNDATASIZE PUSH1 0x0 DUP1 RETURNDATACOPY RETURNDATASIZE PUSH1 0x0 REVERT JUMPDEST POP POP POP POP PUSH1 0x40 MLOAD RETURNDATASIZE PUSH1 0x1F NOT PUSH1 0x1F DUP3 ADD AND DUP3 ADD DUP1 PUSH1 0x40 MSTORE POP DUP2 ADD SWAP1 PUSH2 0xA59 SWAP2 SWAP1 PUSH2 0x3AFE JUMP JUMPDEST POP PUSH2 0xA86 PUSH32 0xD1F44700FBEE67FF8E8F1B014356906D3102CB1C7D823DD51311895EE22692AE PUSH1 0x0 SHL PUSH2 0x358C JUMP JUMPDEST PUSH2 0xAB2 PUSH32 0xD1397F9B9A0BE6C498BF8EA7CE893873B4830BEE1B5DFF4F73077BA30DECA86B PUSH1 0x0 SHL PUSH2 0x358C JUMP JUMPDEST PUSH1 0x2 PUSH1 0x0 SWAP1 SLOAD SWAP1 PUSH2 0x100 EXP SWAP1 DIV PUSH20 0xFFFFFFFFFFFFFFFFFFFFFFFFFFFFFFFFFFFFFFFF AND PUSH20 0xFFFFFFFFFFFFFFFFFFFFFFFFFFFFFFFFFFFFFFFF AND PUSH4 0xA9059CBB CALLER PUSH2 0xB2A PUSH2 0xB1B PUSH1 0x64 PUSH2 0xB0D PUSH1 0xA DUP10 PUSH2 0x358F SWAP1 SWAP2 SWAP1 PUSH4 0xFFFFFFFF AND JUMP JUMPDEST PUSH2 0x35A5 SWAP1 SWAP2 SWAP1 PUSH4 0xFFFFFFFF AND JUMP JUMPDEST DUP7 PUSH2 0x35BB SWAP1 SWAP2 SWAP1 PUSH4 0xFFFFFFFF AND JUMP JUMPDEST PUSH1 0x40 MLOAD DUP4 PUSH4 0xFFFFFFFF AND PUSH1 0xE0 SHL DUP2 MSTORE PUSH1 0x4 ADD PUSH2 0xB47 SWAP3 SWAP2 SWAP1 PUSH2 0x3A9D JUMP JUMPDEST PUSH1 0x20 PUSH1 0x40 MLOAD DUP1 DUP4 SUB DUP2 PUSH1 0x0 DUP8 GAS CALL ISZERO DUP1 ISZERO PUSH2 0xB66 JUMPI RETURNDATASIZE PUSH1 0x0 DUP1 RETURNDATACOPY RETURNDATASIZE PUSH1 0x0 REVERT JUMPDEST POP POP POP POP PUSH1 0x40 MLOAD RETURNDATASIZE PUSH1 0x1F NOT PUSH1 0x1F DUP3 ADD AND DUP3 ADD DUP1 PUSH1 0x40 MSTORE POP DUP2 ADD SWAP1 PUSH2 0xB8A SWAP2 SWAP1 PUSH2 0x3AFE JUMP JUMPDEST POP PUSH2 0xBB7 PUSH32 0xD03FF56CEC7F6B5F3F7265844D2B70C18EED5C30E7B63492D31DFED69EEA5598 PUSH1 0x0 SHL PUSH2 0x358C JUMP JUMPDEST PUSH2 0xBE3 PUSH32 0x672FD0AB4BC89B069F4692CDE2491074048DAF3E553B04FB7D4A18C192446ABA PUSH1 0x0 SHL PUSH2 0x358C JUMP JUMPDEST PUSH1 0x3 PUSH1 0x0 SWAP1 SLOAD SWAP1 PUSH2 0x100 EXP SWAP1 DIV PUSH20 0xFFFFFFFFFFFFFFFFFFFFFFFFFFFFFFFFFFFFFFFF AND PUSH20 0xFFFFFFFFFFFFFFFFFFFFFFFFFFFFFFFFFFFFFFFF AND PUSH4 0xA9059CBB CALLER PUSH2 0xC5B PUSH2 0xC4C PUSH1 0x64 PUSH2 0xC3E PUSH1 0xA DUP9 PUSH2 0x358F SWAP1 SWAP2 SWAP1 PUSH4 0xFFFFFFFF AND JUMP JUMPDEST PUSH2 0x35A5 SWAP1 SWAP2 SWAP1 PUSH4 0xFFFFFFFF AND JUMP JUMPDEST DUP6 PUSH2 0x35BB SWAP1 SWAP2 SWAP1 PUSH4 0xFFFFFFFF AND JUMP JUMPDEST PUSH1 0x40 MLOAD DUP4 PUSH4 0xFFFFFFFF AND PUSH1 0xE0 SHL DUP2 MSTORE PUSH1 0x4 ADD PUSH2 0xC78 SWAP3 SWAP2 SWAP1 PUSH2 0x3A9D JUMP JUMPDEST PUSH1 0x20 PUSH1 0x40 MLOAD DUP1 DUP4 SUB DUP2 PUSH1 0x0 DUP8 GAS CALL ISZERO DUP1 ISZERO PUSH2 0xC97 JUMPI RETURNDATASIZE PUSH1 0x0 DUP1 RETURNDATACOPY RETURNDATASIZE PUSH1 0x0 REVERT JUMPDEST POP POP POP POP PUSH1 0x40 MLOAD RETURNDATASIZE PUSH1 0x1F NOT PUSH1 0x1F DUP3 ADD AND DUP3 ADD DUP1 PUSH1 0x40 MSTORE POP DUP2 ADD SWAP1 PUSH2 0xCBB SWAP2 SWAP1 PUSH2 0x3AFE JUMP JUMPDEST POP PUSH2 0xCE8 PUSH32 0x6DD80A224C51AD685EC31E7B524B9FF16EEFDD770A27F64EDDB55ADAD018C723 PUSH1 0x0 SHL PUSH2 0x358C JUMP JUMPDEST PUSH2 0xD14 PUSH32 0xFD129554D70739FD3891A031997ED5036052C7A6B3599FC5E4E294D44D6A5172 PUSH1 0x0 SHL PUSH2 0x358C JUMP JUMPDEST PUSH2 0xD2B DUP6 DUP6 PUSH1 0x0 ADD SLOAD PUSH2 0x35BB SWAP1 SWAP2 SWAP1 PUSH4 0xFFFFFFFF AND JUMP JUMPDEST DUP5 PUSH1 0x0 ADD DUP2 SWAP1 SSTORE POP PUSH2 0xD5F PUSH32 0xE7AF1E2848757C47B56FB5D50DA9D5F684E712FBDF0DBFCA5C2A50298194C8B0 PUSH1 0x0 SHL PUSH2 0x358C JUMP JUMPDEST PUSH2 0xD8B PUSH32 0xD4829FA3790AEEBCB5696989274DF5AD0ED2C5F10466762CE9EEFDFEBD1D2DD3 PUSH1 0x0 SHL PUSH2 0x358C JUMP JUMPDEST PUSH2 0xDBB PUSH5 0xE8D4A51000 PUSH2 0xDAD PUSH1 0xB SLOAD DUP8 PUSH1 0x0 ADD SLOAD PUSH2 0x358F SWAP1 SWAP2 SWAP1 PUSH4 0xFFFFFFFF AND JUMP JUMPDEST PUSH2 0x35A5 SWAP1 SWAP2 SWAP1 PUSH4 0xFFFFFFFF AND JUMP JUMPDEST DUP5 PUSH1 0x1 ADD DUP2 SWAP1 SSTORE POP PUSH2 0xDEF PUSH32 0xBB8FB28356D13E5A235179052300FDDB14861937EDEBA85602F7C3E9F1C6CBF5 PUSH1 0x0 SHL PUSH2 0x358C JUMP JUMPDEST PUSH2 0xE1B PUSH32 0x51F32E16A46D80392B4E81B92E0213F710DDCD6BF1159ADB31671E1ACCF5C457 PUSH1 0x0 SHL PUSH2 0x358C JUMP JUMPDEST PUSH2 0xE4B PUSH5 0xE8D4A51000 PUSH2 0xE3D PUSH1 0xC SLOAD DUP8 PUSH1 0x0 ADD SLOAD PUSH2 0x358F SWAP1 SWAP2 SWAP1 PUSH4 0xFFFFFFFF AND JUMP JUMPDEST PUSH2 0x35A5 SWAP1 SWAP2 SWAP1 PUSH4 0xFFFFFFFF AND JUMP JUMPDEST DUP5 PUSH1 0x2 ADD DUP2 SWAP1 SSTORE POP PUSH2 0xE7F PUSH32 0xF69FE8C63116112008627E79C413B0D15B821CBAD83B74695DA95169B44005E7 PUSH1 0x0 SHL PUSH2 0x358C JUMP JUMPDEST PUSH2 0xEAB PUSH32 0x18B964D70F48ADEF35E772C8068317F5952F38305763B5CE54726800A285CEC PUSH1 0x0 SHL PUSH2 0x358C JUMP JUMPDEST PUSH1 0x1 PUSH1 0x0 SWAP1 SLOAD SWAP1 PUSH2 0x100 EXP SWAP1 DIV PUSH20 0xFFFFFFFFFFFFFFFFFFFFFFFFFFFFFFFFFFFFFFFF AND PUSH20 0xFFFFFFFFFFFFFFFFFFFFFFFFFFFFFFFFFFFFFFFF AND PUSH4 0xA9059CBB CALLER DUP8 PUSH1 0x40 MLOAD DUP4 PUSH4 0xFFFFFFFF AND PUSH1 0xE0 SHL DUP2 MSTORE PUSH1 0x4 ADD PUSH2 0xF08 SWAP3 SWAP2 SWAP1 PUSH2 0x3A9D JUMP JUMPDEST PUSH1 0x20 PUSH1 0x40 MLOAD DUP1 DUP4 SUB DUP2 PUSH1 0x0 DUP8 GAS CALL ISZERO DUP1 ISZERO PUSH2 0xF27 JUMPI RETURNDATASIZE PUSH1 0x0 DUP1 RETURNDATACOPY RETURNDATASIZE PUSH1 0x0 REVERT JUMPDEST POP POP POP POP PUSH1 0x40 MLOAD RETURNDATASIZE PUSH1 0x1F NOT PUSH1 0x1F DUP3 ADD AND DUP3 ADD DUP1 PUSH1 0x40 MSTORE POP DUP2 ADD SWAP1 PUSH2 0xF4B SWAP2 SWAP1 PUSH2 0x3AFE JUMP JUMPDEST POP PUSH2 0xF78 PUSH32 0x7444A57C42FCC55B96BDB388D0CE2A5484F7D66351321158D6945958A796996B PUSH1 0x0 SHL PUSH2 0x358C JUMP JUMPDEST PUSH2 0xFA4 PUSH32 0xD4718FEA819D33F51A51C3078C228E3177BD575001A915C119F2E94211EE8F8A PUSH1 0x0 SHL PUSH2 0x358C JUMP JUMPDEST CALLER PUSH20 0xFFFFFFFFFFFFFFFFFFFFFFFFFFFFFFFFFFFFFFFF AND PUSH32 0x884EDAD9CE6FA2440D8A54CC123490EB96D2768479D49FF9C7366125A9424364 DUP7 PUSH1 0x40 MLOAD PUSH2 0xFEA SWAP2 SWAP1 PUSH2 0x3893 JUMP JUMPDEST PUSH1 0x40 MLOAD DUP1 SWAP2 SUB SWAP1 LOG2 POP POP POP POP POP JUMP JUMPDEST PUSH1 0x0 DUP1 PUSH2 0x1028 PUSH32 0x997A9C10BD33AC6632C873FD31E623638C02C3BD4A764628A6DCBC3A33CCEFDB PUSH1 0x0 SHL PUSH2 0x358C JUMP JUMPDEST PUSH2 0x1054 PUSH32 0x1BCE3B53465CD09BAF2AD3530575C4E77837C4CAB74B6DEAD610857391C10CC8 PUSH1 0x0 SHL PUSH2 0x358C JUMP JUMPDEST PUSH2 0x1080 PUSH32 0x31865CE197F4B0E6F26ACEED32F175667A7E6FEC6E166F41C8647715242E7503 PUSH1 0x0 SHL PUSH2 0x358C JUMP JUMPDEST PUSH1 0x0 PUSH1 0xD PUSH1 0x0 DUP6 PUSH20 0xFFFFFFFFFFFFFFFFFFFFFFFFFFFFFFFFFFFFFFFF AND PUSH20 0xFFFFFFFFFFFFFFFFFFFFFFFFFFFFFFFFFFFFFFFF AND DUP2 MSTORE PUSH1 0x20 ADD SWAP1 DUP2 MSTORE PUSH1 0x20 ADD PUSH1 0x0 KECCAK256 SWAP1 POP PUSH2 0x10EF PUSH32 0x45133126C09243E775CC5537981579BEB452E42656A6E37AB28772E7AA36D6EC PUSH1 0x0 SHL PUSH2 0x358C JUMP JUMPDEST PUSH2 0x111B PUSH32 0xE49B53985DB78286EA2F5BCFA65B3C057B9FA85177AE9CC1034E9D34482D9F67 PUSH1 0x0 SHL PUSH2 0x358C JUMP JUMPDEST PUSH1 0x0 PUSH2 0x1149 PUSH32 0xCFE76BE50B3FF5F60C86F16E7F2F04C1A85DB63E7927D0D014E3A1F66784B439 PUSH1 0x0 SHL PUSH2 0x358C JUMP JUMPDEST PUSH2 0x1175 PUSH32 0xFD8C0CE99C9F7C2A4EB751C9529D203B671A9206938938D47A42AB621B631720 PUSH1 0x0 SHL PUSH2 0x358C JUMP JUMPDEST PUSH1 0x0 JUMPDEST DUP3 PUSH1 0x3 ADD DUP1 SLOAD SWAP1 POP DUP2 LT ISZERO PUSH2 0x1377 JUMPI PUSH2 0x11B3 PUSH32 0xF66D83DF518CD9E8C95D24234447943E589080742C9069A48E91D728C9B868ED PUSH1 0x0 SHL PUSH2 0x358C JUMP JUMPDEST PUSH2 0x11DF PUSH32 0x38D417AD5A3EE9342B32D4ECBFE22A3364AF5FBFCE152D9385E6A6794009EFAD PUSH1 0x0 SHL PUSH2 0x358C JUMP JUMPDEST PUSH1 0x0 DUP4 PUSH1 0x3 ADD DUP3 DUP2 SLOAD DUP2 LT PUSH2 0x11F7 JUMPI PUSH2 0x11F6 PUSH2 0x3B2B JUMP JUMPDEST JUMPDEST SWAP1 PUSH1 0x0 MSTORE PUSH1 0x20 PUSH1 0x0 KECCAK256 SWAP1 PUSH1 0x2 MUL ADD PUSH1 0x1 ADD SLOAD TIMESTAMP PUSH2 0x1214 SWAP2 SWAP1 PUSH2 0x3B89 JUMP JUMPDEST SWAP1 POP PUSH2 0x1242 PUSH32 0x77E612D03BC4D72CF90C7C310CFEE625A2DB307762E9AE9795A616ED29FB538E PUSH1 0x0 SHL PUSH2 0x358C JUMP JUMPDEST PUSH2 0x126E PUSH32 0x53405E789BC265DF0BACE73D148890BB7FAC4FD359327FA82BE698F66E206F5B PUSH1 0x0 SHL PUSH2 0x358C JUMP JUMPDEST PUSH1 0x6 SLOAD DUP2 LT ISZERO PUSH2 0x1336 JUMPI PUSH2 0x12A4 PUSH32 0x538A8CC4CA32B29C8251ECEC430852F96BB7E5786276C1FA8F2B6549942D9CE2 PUSH1 0x0 SHL PUSH2 0x358C JUMP JUMPDEST PUSH2 0x12D0 PUSH32 0x9D48E3E198D70F0E7A5ADB8583E5D6A53832778C477DBD505D853C2BD2C30322 PUSH1 0x0 SHL PUSH2 0x358C JUMP JUMPDEST PUSH2 0x12FC PUSH32 0x8DCE8051929D4CC61D7C6AA747B53AE34776830B3DE200B06FA017153F37CB12 PUSH1 0x0 SHL PUSH2 0x358C JUMP JUMPDEST DUP4 PUSH1 0x3 ADD DUP3 DUP2 SLOAD DUP2 LT PUSH2 0x1312 JUMPI PUSH2 0x1311 PUSH2 0x3B2B JUMP JUMPDEST JUMPDEST SWAP1 PUSH1 0x0 MSTORE PUSH1 0x20 PUSH1 0x0 KECCAK256 SWAP1 PUSH1 0x2 MUL ADD PUSH1 0x0 ADD SLOAD DUP4 PUSH2 0x132F SWAP2 SWAP1 PUSH2 0x3BBD JUMP JUMPDEST SWAP3 POP PUSH2 0x1363 JUMP JUMPDEST PUSH2 0x1362 PUSH32 0x24E532AD4FC179BBA85AEDAC039ADF90AD2DDFFDB7D4537BD78CFA209B79CCC1 PUSH1 0x0 SHL PUSH2 0x358C JUMP JUMPDEST JUMPDEST POP DUP1 DUP1 PUSH2 0x136F SWAP1 PUSH2 0x3BF1 JUMP JUMPDEST SWAP2 POP POP PUSH2 0x1178 JUMP JUMPDEST POP PUSH2 0x13A4 PUSH32 0xECCDBBA6067A55711585414BAF67EE516D400EBBBF3E1F504FA0146D459B437B PUSH1 0x0 SHL PUSH2 0x358C JUMP JUMPDEST PUSH2 0x13D0 PUSH32 0xE706AA8DFD078FC9D2A7FD516E07FCCB98468CFF7EA5D86C2D348135FBA544A PUSH1 0x0 SHL PUSH2 0x358C JUMP JUMPDEST DUP1 DUP2 DUP4 PUSH1 0x0 ADD SLOAD PUSH2 0x13E1 SWAP2 SWAP1 PUSH2 0x3B89 JUMP JUMPDEST SWAP4 POP SWAP4 POP POP POP SWAP2 POP SWAP2 JUMP JUMPDEST PUSH1 0x6 SLOAD DUP2 JUMP JUMPDEST PUSH2 0x141E PUSH32 0x9AE69FF15A591C405925CE5BB3E7D8DC064065A9ECF75A152F613E6D9B801667 PUSH1 0x0 SHL PUSH2 0x358C JUMP JUMPDEST PUSH2 0x144A PUSH32 0xDBB63CB171628A98C512BE3B0392AFEFD60DD83362E8D7E06BFE373D64D1AE7B PUSH1 0x0 SHL PUSH2 0x358C JUMP JUMPDEST PUSH2 0x1476 PUSH32 0x68ECABDC875CBE98EC19DF423B1C9DDDE574CD67454794D58601A1BBC70692F1 PUSH1 0x0 SHL PUSH2 0x358C JUMP JUMPDEST PUSH1 0x0 PUSH1 0xD PUSH1 0x0 CALLER PUSH20 0xFFFFFFFFFFFFFFFFFFFFFFFFFFFFFFFFFFFFFFFF AND PUSH20 0xFFFFFFFFFFFFFFFFFFFFFFFFFFFFFFFFFFFFFFFF AND DUP2 MSTORE PUSH1 0x20 ADD SWAP1 DUP2 MSTORE PUSH1 0x20 ADD PUSH1 0x0 KECCAK256 SWAP1 POP PUSH2 0x14E5 PUSH32 0xC852C7DA49ECEC354FEA50B2AE052F574F35B518823464846892B83295A58121 PUSH1 0x0 SHL PUSH2 0x358C JUMP JUMPDEST PUSH2 0x1511 PUSH32 0x163EFD95C0FCD01CF405AE9BF40C58831C73A6E5D1060A99D5DC0250282A791A PUSH1 0x0 SHL PUSH2 0x358C JUMP JUMPDEST PUSH2 0x1519 PUSH2 0x1DAF JUMP JUMPDEST PUSH2 0x1545 PUSH32 0x46C38433840FEC8E3F6C43710F4199170E9AED76453107B7D650A1E341D3070C PUSH1 0x0 SHL PUSH2 0x358C JUMP JUMPDEST PUSH2 0x1571 PUSH32 0x481CD945A98DBFD66268A82F3E06192C692CD1C5E805F2FEC7FA3CDC88F95037 PUSH1 0x0 SHL PUSH2 0x358C JUMP JUMPDEST PUSH1 0x0 DUP1 PUSH2 0x157D CALLER PUSH2 0x33D4 JUMP JUMPDEST SWAP2 POP SWAP2 POP PUSH2 0x15AD PUSH32 0x71700352D026FD30C09C401C089300769EB9EED141F9C4CDCE6304AA66864BF5 PUSH1 0x0 SHL PUSH2 0x358C JUMP JUMPDEST PUSH2 0x15D9 PUSH32 0xECFF65AB10F7DBD7886B785E37F4CA434D26F04FFD018A5865852A51B6EE3A91 PUSH1 0x0 SHL PUSH2 0x358C JUMP JUMPDEST PUSH1 0x2 PUSH1 0x0 SWAP1 SLOAD SWAP1 PUSH2 0x100 EXP SWAP1 DIV PUSH20 0xFFFFFFFFFFFFFFFFFFFFFFFFFFFFFFFFFFFFFFFF AND PUSH20 0xFFFFFFFFFFFFFFFFFFFFFFFFFFFFFFFFFFFFFFFF AND PUSH4 0xA9059CBB PUSH1 0x9 PUSH1 0x0 SWAP1 SLOAD SWAP1 PUSH2 0x100 EXP SWAP1 DIV PUSH20 0xFFFFFFFFFFFFFFFFFFFFFFFFFFFFFFFFFFFFFFFF AND PUSH2 0x1661 PUSH1 0x64 PUSH2 0x1653 PUSH1 0xA DUP9 PUSH2 0x358F SWAP1 SWAP2 SWAP1 PUSH4 0xFFFFFFFF AND JUMP JUMPDEST PUSH2 0x35A5 SWAP1 SWAP2 SWAP1 PUSH4 0xFFFFFFFF AND JUMP JUMPDEST PUSH1 0x40 MLOAD DUP4 PUSH4 0xFFFFFFFF AND PUSH1 0xE0 SHL DUP2 MSTORE PUSH1 0x4 ADD PUSH2 0x167E SWAP3 SWAP2 SWAP1 PUSH2 0x3A9D JUMP JUMPDEST PUSH1 0x20 PUSH1 0x40 MLOAD DUP1 DUP4 SUB DUP2 PUSH1 0x0 DUP8 GAS CALL ISZERO DUP1 ISZERO PUSH2 0x169D JUMPI RETURNDATASIZE PUSH1 0x0 DUP1 RETURNDATACOPY RETURNDATASIZE PUSH1 0x0 REVERT JUMPDEST POP POP POP POP PUSH1 0x40 MLOAD RETURNDATASIZE PUSH1 0x1F NOT PUSH1 0x1F DUP3 ADD AND DUP3 ADD DUP1 PUSH1 0x40 MSTORE POP DUP2 ADD SWAP1 PUSH2 0x16C1 SWAP2 SWAP1 PUSH2 0x3AFE JUMP JUMPDEST POP PUSH2 0x16EE PUSH32 0x98658D91883BDDB9C2B2D69E6B305CCC446532DB482C7B6511C19201C32C1203 PUSH1 0x0 SHL PUSH2 0x358C JUMP JUMPDEST PUSH2 0x171A PUSH32 0x5ADA061393F614A3AEF5B81C6688CE5DA4F489821F61BA251A928B12A878D2CE PUSH1 0x0 SHL PUSH2 0x358C JUMP JUMPDEST PUSH1 0x3 PUSH1 0x0 SWAP1 SLOAD SWAP1 PUSH2 0x100 EXP SWAP1 DIV PUSH20 0xFFFFFFFFFFFFFFFFFFFFFFFFFFFFFFFFFFFFFFFF AND PUSH20 0xFFFFFFFFFFFFFFFFFFFFFFFFFFFFFFFFFFFFFFFF AND PUSH4 0xA9059CBB PUSH1 0x9 PUSH1 0x0 SWAP1 SLOAD SWAP1 PUSH2 0x100 EXP SWAP1 DIV PUSH20 0xFFFFFFFFFFFFFFFFFFFFFFFFFFFFFFFFFFFFFFFF AND PUSH2 0x17A2 PUSH1 0x64 PUSH2 0x1794 PUSH1 0xA DUP8 PUSH2 0x358F SWAP1 SWAP2 SWAP1 PUSH4 0xFFFFFFFF AND JUMP JUMPDEST PUSH2 0x35A5 SWAP1 SWAP2 SWAP1 PUSH4 0xFFFFFFFF AND JUMP JUMPDEST PUSH1 0x40 MLOAD DUP4 PUSH4 0xFFFFFFFF AND PUSH1 0xE0 SHL DUP2 MSTORE PUSH1 0x4 ADD PUSH2 0x17BF SWAP3 SWAP2 SWAP1 PUSH2 0x3A9D JUMP JUMPDEST PUSH1 0x20 PUSH1 0x40 MLOAD DUP1 DUP4 SUB DUP2 PUSH1 0x0 DUP8 GAS CALL ISZERO DUP1 ISZERO PUSH2 0x17DE JUMPI RETURNDATASIZE PUSH1 0x0 DUP1 RETURNDATACOPY RETURNDATASIZE PUSH1 0x0 REVERT JUMPDEST POP POP POP POP PUSH1 0x40 MLOAD RETURNDATASIZE PUSH1 0x1F NOT PUSH1 0x1F DUP3 ADD AND DUP3 ADD DUP1 PUSH1 0x40 MSTORE POP DUP2 ADD SWAP1 PUSH2 0x1802 SWAP2 SWAP1 PUSH2 0x3AFE JUMP JUMPDEST POP PUSH2 0x182F PUSH32 0x47C27EF9BD39AEF1ED7F11B202C1C4CE20E5F5906AB03656A5F6321B5C8D63A0 PUSH1 0x0 SHL PUSH2 0x358C JUMP JUMPDEST PUSH2 0x185B PUSH32 0xB7E7005B2A03FC0DF5C9AE3CAC52A6A6FB746B489A2FA0D14064DD7C143F32AF PUSH1 0x0 SHL PUSH2 0x358C JUMP JUMPDEST PUSH2 0x1894 PUSH2 0x1885 PUSH1 0x64 PUSH2 0x1877 PUSH1 0xA DUP7 PUSH2 0x358F SWAP1 SWAP2 SWAP1 PUSH4 0xFFFFFFFF AND JUMP JUMPDEST PUSH2 0x35A5 SWAP1 SWAP2 SWAP1 PUSH4 0xFFFFFFFF AND JUMP JUMPDEST DUP4 PUSH2 0x35BB SWAP1 SWAP2 SWAP1 PUSH4 0xFFFFFFFF AND JUMP JUMPDEST SWAP2 POP PUSH2 0x18C2 PUSH32 0xB2530E912C4BDD90BD450833304CF938B87DF580AC0C20BA963FC9B3A5454445 PUSH1 0x0 SHL PUSH2 0x358C JUMP JUMPDEST PUSH2 0x18EE PUSH32 0xD78940FBC99F24D70592360806257FCB31CB054C50BD9A9060C38A61AF9AE65B PUSH1 0x0 SHL PUSH2 0x358C JUMP JUMPDEST PUSH2 0x1927 PUSH2 0x1918 PUSH1 0x64 PUSH2 0x190A PUSH1 0xA DUP6 PUSH2 0x358F SWAP1 SWAP2 SWAP1 PUSH4 0xFFFFFFFF AND JUMP JUMPDEST PUSH2 0x35A5 SWAP1 SWAP2 SWAP1 PUSH4 0xFFFFFFFF AND JUMP JUMPDEST DUP3 PUSH2 0x35BB SWAP1 SWAP2 SWAP1 PUSH4 0xFFFFFFFF AND JUMP JUMPDEST SWAP1 POP PUSH2 0x1955 PUSH32 0xCF990B4CF8400AB73E95C06C2C739F574237CFFD6A0B71AFE993D00D40439B52 PUSH1 0x0 SHL PUSH2 0x358C JUMP JUMPDEST PUSH2 0x1981 PUSH32 0x5453DD67A714E96EAF36E746F2170F1456D82CA091D72F81E6B13A22E8F8B77D PUSH1 0x0 SHL PUSH2 0x358C JUMP JUMPDEST PUSH1 0x2 PUSH1 0x0 SWAP1 SLOAD SWAP1 PUSH2 0x100 EXP SWAP1 DIV PUSH20 0xFFFFFFFFFFFFFFFFFFFFFFFFFFFFFFFFFFFFFFFF AND PUSH20 0xFFFFFFFFFFFFFFFFFFFFFFFFFFFFFFFFFFFFFFFF AND PUSH4 0xA9059CBB CALLER DUP5 PUSH1 0x40 MLOAD DUP4 PUSH4 0xFFFFFFFF AND PUSH1 0xE0 SHL DUP2 MSTORE PUSH1 0x4 ADD PUSH2 0x19DE SWAP3 SWAP2 SWAP1 PUSH2 0x3A9D JUMP JUMPDEST PUSH1 0x20 PUSH1 0x40 MLOAD DUP1 DUP4 SUB DUP2 PUSH1 0x0 DUP8 GAS CALL ISZERO DUP1 ISZERO PUSH2 0x19FD JUMPI RETURNDATASIZE PUSH1 0x0 DUP1 RETURNDATACOPY RETURNDATASIZE PUSH1 0x0 REVERT JUMPDEST POP POP POP POP PUSH1 0x40 MLOAD RETURNDATASIZE PUSH1 0x1F NOT PUSH1 0x1F DUP3 ADD AND DUP3 ADD DUP1 PUSH1 0x40 MSTORE POP DUP2 ADD SWAP1 PUSH2 0x1A21 SWAP2 SWAP1 PUSH2 0x3AFE JUMP JUMPDEST POP PUSH2 0x1A4E PUSH32 0x52FD9A2328BD417843348CE0EC1F9EF5D78FC56A5B647BCFB5FF9B99C9811C33 PUSH1 0x0 SHL PUSH2 0x358C JUMP JUMPDEST PUSH2 0x1A7A PUSH32 0x69E437E07A057B2BF0DF0B7094B63057076D2B9C126FF1F436AD2EACA922CE1A PUSH1 0x0 SHL PUSH2 0x358C JUMP JUMPDEST PUSH1 0x3 PUSH1 0x0 SWAP1 SLOAD SWAP1 PUSH2 0x100 EXP SWAP1 DIV PUSH20 0xFFFFFFFFFFFFFFFFFFFFFFFFFFFFFFFFFFFFFFFF AND PUSH20 0xFFFFFFFFFFFFFFFFFFFFFFFFFFFFFFFFFFFFFFFF AND PUSH4 0xA9059CBB CALLER DUP4 PUSH1 0x40 MLOAD DUP4 PUSH4 0xFFFFFFFF AND PUSH1 0xE0 SHL DUP2 MSTORE PUSH1 0x4 ADD PUSH2 0x1AD7 SWAP3 SWAP2 SWAP1 PUSH2 0x3A9D JUMP JUMPDEST PUSH1 0x20 PUSH1 0x40 MLOAD DUP1 DUP4 SUB DUP2 PUSH1 0x0 DUP8 GAS CALL ISZERO DUP1 ISZERO PUSH2 0x1AF6 JUMPI RETURNDATASIZE PUSH1 0x0 DUP1 RETURNDATACOPY RETURNDATASIZE PUSH1 0x0 REVERT JUMPDEST POP POP POP POP PUSH1 0x40 MLOAD RETURNDATASIZE PUSH1 0x1F NOT PUSH1 0x1F DUP3 ADD AND DUP3 ADD DUP1 PUSH1 0x40 MSTORE POP DUP2 ADD SWAP1 PUSH2 0x1B1A SWAP2 SWAP1 PUSH2 0x3AFE JUMP JUMPDEST POP PUSH2 0x1B47 PUSH32 0x1A3466A782673B46D00015AB0CA081A908214134462B8D579E5309F15D6531A9 PUSH1 0x0 SHL PUSH2 0x358C JUMP JUMPDEST PUSH2 0x1B73 PUSH32 0x423A46EAF8B0E7DD3EA9421E66AEBDBD5177E95B10BE84C6E200531D961A5B3 PUSH1 0x0 SHL PUSH2 0x358C JUMP JUMPDEST PUSH2 0x1BA3 PUSH5 0xE8D4A51000 PUSH2 0x1B95 PUSH1 0xB SLOAD DUP7 PUSH1 0x0 ADD SLOAD PUSH2 0x358F SWAP1 SWAP2 SWAP1 PUSH4 0xFFFFFFFF AND JUMP JUMPDEST PUSH2 0x35A5 SWAP1 SWAP2 SWAP1 PUSH4 0xFFFFFFFF AND JUMP JUMPDEST DUP4 PUSH1 0x1 ADD DUP2 SWAP1 SSTORE POP PUSH2 0x1BD7 PUSH32 0xF5053479E6DAEFF425E47307FE25375B3EC2EFD219E2F1CE56FBB62E21AC84AC PUSH1 0x0 SHL PUSH2 0x358C JUMP JUMPDEST PUSH2 0x1C03 PUSH32 0xAA3AF3B9313EC6B240611F8A742881A480BFEE4B8066049CAD41359AF58DC83B PUSH1 0x0 SHL PUSH2 0x358C JUMP JUMPDEST PUSH2 0x1C33 PUSH5 0xE8D4A51000 PUSH2 0x1C25 PUSH1 0xC SLOAD DUP7 PUSH1 0x0 ADD SLOAD PUSH2 0x358F SWAP1 SWAP2 SWAP1 PUSH4 0xFFFFFFFF AND JUMP JUMPDEST PUSH2 0x35A5 SWAP1 SWAP2 SWAP1 PUSH4 0xFFFFFFFF AND JUMP JUMPDEST DUP4 PUSH1 0x2 ADD DUP2 SWAP1 SSTORE POP PUSH2 0x1C67 PUSH32 0xB5CA7F3A10510EB5EE1803FDF267D8BC5F19FE1EB496DB4F533A997798064802 PUSH1 0x0 SHL PUSH2 0x358C JUMP JUMPDEST PUSH2 0x1C93 PUSH32 0x58180C371A7ED561C074362957B57664E01952FDADE4C334ECB983D7E76A5F88 PUSH1 0x0 SHL PUSH2 0x358C JUMP JUMPDEST CALLER PUSH20 0xFFFFFFFFFFFFFFFFFFFFFFFFFFFFFFFFFFFFFFFF AND PUSH32 0x34FCBAC0073D7C3D388E51312FAF357774904998EEB8FCA628B9E6F65EE1CBF7 DUP4 DUP4 PUSH1 0x40 MLOAD PUSH2 0x1CDB SWAP3 SWAP2 SWAP1 PUSH2 0x386A JUMP JUMPDEST PUSH1 0x40 MLOAD DUP1 SWAP2 SUB SWAP1 LOG2 POP POP POP JUMP JUMPDEST PUSH1 0xB SLOAD DUP2 JUMP JUMPDEST PUSH1 0xC SLOAD DUP2 JUMP JUMPDEST PUSH1 0x9 PUSH1 0x0 SWAP1 SLOAD SWAP1 PUSH2 0x100 EXP SWAP1 DIV PUSH20 0xFFFFFFFFFFFFFFFFFFFFFFFFFFFFFFFFFFFFFFFF AND DUP2 JUMP JUMPDEST PUSH1 0x4 SLOAD DUP2 JUMP JUMPDEST PUSH1 0x2 PUSH1 0x0 SWAP1 SLOAD SWAP1 PUSH2 0x100 EXP SWAP1 DIV PUSH20 0xFFFFFFFFFFFFFFFFFFFFFFFFFFFFFFFFFFFFFFFF AND DUP2 JUMP JUMPDEST PUSH2 0x1D4E PUSH2 0x35D1 JUMP JUMPDEST PUSH2 0x1D58 PUSH1 0x0 PUSH2 0x364F JUMP JUMPDEST JUMP JUMPDEST PUSH1 0x1 PUSH1 0x0 SWAP1 SLOAD SWAP1 PUSH2 0x100 EXP SWAP1 DIV PUSH20 0xFFFFFFFFFFFFFFFFFFFFFFFFFFFFFFFFFFFFFFFF AND DUP2 JUMP JUMPDEST PUSH1 0x5 SLOAD DUP2 JUMP JUMPDEST PUSH1 0x0 DUP1 PUSH1 0x0 SWAP1 SLOAD SWAP1 PUSH2 0x100 EXP SWAP1 DIV PUSH20 0xFFFFFFFFFFFFFFFFFFFFFFFFFFFFFFFFFFFFFFFF AND SWAP1 POP SWAP1 JUMP JUMPDEST PUSH2 0x1DDB PUSH32 0x9A104C6BFAD03C49F6AD010551C6FF7125567CF32CA80D26053270D1D1E6719F PUSH1 0x0 SHL PUSH2 0x358C JUMP JUMPDEST PUSH2 0x1E07 PUSH32 0x55F3FAD067A2C6FF868FF175923F3F247B02D404BC9D72F5E7622B40244DCC3D PUSH1 0x0 SHL PUSH2 0x358C JUMP JUMPDEST PUSH2 0x1E33 PUSH32 0x542537CA2F852B02B46512F3966BB6079A7D732FA4B40BDAE2220A71498177AC PUSH1 0x0 SHL PUSH2 0x358C JUMP JUMPDEST PUSH1 0x0 PUSH1 0x1 PUSH1 0x0 SWAP1 SLOAD SWAP1 PUSH2 0x100 EXP SWAP1 DIV PUSH20 0xFFFFFFFFFFFFFFFFFFFFFFFFFFFFFFFFFFFFFFFF AND PUSH20 0xFFFFFFFFFFFFFFFFFFFFFFFFFFFFFFFFFFFFFFFF AND PUSH4 0x70A08231 ADDRESS PUSH1 0x40 MLOAD DUP3 PUSH4 0xFFFFFFFF AND PUSH1 0xE0 SHL DUP2 MSTORE PUSH1 0x4 ADD PUSH2 0x1E90 SWAP2 SWAP1 PUSH2 0x38BD JUMP JUMPDEST PUSH1 0x20 PUSH1 0x40 MLOAD DUP1 DUP4 SUB DUP2 DUP7 GAS STATICCALL ISZERO DUP1 ISZERO PUSH2 0x1EAD JUMPI RETURNDATASIZE PUSH1 0x0 DUP1 RETURNDATACOPY RETURNDATASIZE PUSH1 0x0 REVERT JUMPDEST POP POP POP POP PUSH1 0x40 MLOAD RETURNDATASIZE PUSH1 0x1F NOT PUSH1 0x1F DUP3 ADD AND DUP3 ADD DUP1 PUSH1 0x40 MSTORE POP DUP2 ADD SWAP1 PUSH2 0x1ED1 SWAP2 SWAP1 PUSH2 0x3C4E JUMP JUMPDEST SWAP1 POP PUSH2 0x1EFF PUSH32 0xC1F38D698352EBE17EC6AC1716E9BBAB2A91824D6A3A689EFDF49DA2A66A7C6F PUSH1 0x0 SHL PUSH2 0x358C JUMP JUMPDEST PUSH2 0x1F2B PUSH32 0x7AC50CBF99B7024EF0B652278B856AA52E111979CA6ED886641746931ACAB8F4 PUSH1 0x0 SHL PUSH2 0x358C JUMP JUMPDEST PUSH1 0x0 DUP2 SUB PUSH2 0x201C JUMPI PUSH2 0x1F5F PUSH32 0x3A5E32D57A79F78BD74A94CC20A47091828E2AA34F028532A86AEBD1F6C0A0BD PUSH1 0x0 SHL PUSH2 0x358C JUMP JUMPDEST PUSH2 0x1F8B PUSH32 0x338DCCD554875F2D2C0273D290AA956D8C237698E114A22E6475007C14D720F PUSH1 0x0 SHL PUSH2 0x358C JUMP JUMPDEST PUSH2 0x1FB7 PUSH32 0xD25A2387189287666594A61E640AC1B5752485741583ECE2D84F6800685CCA6A PUSH1 0x0 SHL PUSH2 0x358C JUMP JUMPDEST NUMBER PUSH1 0xA DUP2 SWAP1 SSTORE POP PUSH2 0x1FEA PUSH32 0xA30653B9AA803438CE1A51DD9F84443694DC566D935E6A5A9BEC49AE94F494E1 PUSH1 0x0 SHL PUSH2 0x358C JUMP JUMPDEST PUSH2 0x2016 PUSH32 0x1980C662127209250ADCB64797DE322D35B9D8BDF672B31CA7A558913E165935 PUSH1 0x0 SHL PUSH2 0x358C JUMP JUMPDEST POP PUSH2 0x2505 JUMP JUMPDEST PUSH2 0x2048 PUSH32 0x68B6BB0595DAEF2D0DA06D2E574516473A2E5859DE8FDDAAD4C2D112B224BCED PUSH1 0x0 SHL PUSH2 0x358C JUMP JUMPDEST PUSH2 0x2074 PUSH32 0x19F6A754C489F4D425C9158E220D3E2197354E838618F12744776DCC93DF6D70 PUSH1 0x0 SHL PUSH2 0x358C JUMP JUMPDEST PUSH2 0x20A0 PUSH32 0x20A159F8BE6F0DA89576D293395C0228C7CA8FE4991A844BDFE3131FFC942A4 PUSH1 0x0 SHL PUSH2 0x358C JUMP JUMPDEST PUSH1 0x0 PUSH2 0x20B7 PUSH1 0xA SLOAD NUMBER PUSH2 0x35BB SWAP1 SWAP2 SWAP1 PUSH4 0xFFFFFFFF AND JUMP JUMPDEST SWAP1 POP PUSH2 0x20E5 PUSH32 0xFF3F197CCF301833F632804FC574B60C4A2ECFE4E99A73594A67BA5759C71FD PUSH1 0x0 SHL PUSH2 0x358C JUMP JUMPDEST PUSH2 0x2111 PUSH32 0xA4471539EB4EED1AD98A57D8F97473172BD5525D62E4088A2A2A59B28A34E1B5 PUSH1 0x0 SHL PUSH2 0x358C JUMP JUMPDEST PUSH1 0x0 PUSH2 0x2128 PUSH1 0x7 SLOAD DUP4 PUSH2 0x358F SWAP1 SWAP2 SWAP1 PUSH4 0xFFFFFFFF AND JUMP JUMPDEST SWAP1 POP PUSH2 0x2156 PUSH32 0xDB2F984831FBC46C19A502F23E081B07CAB7D87028B567650B10AD5BCF2F312 PUSH1 0x0 SHL PUSH2 0x358C JUMP JUMPDEST PUSH2 0x2182 PUSH32 0x9C9A8B93AFC317FC1984520ED0CFD5F7453123177B45886F45EA8976192B33D7 PUSH1 0x0 SHL PUSH2 0x358C JUMP JUMPDEST PUSH1 0x0 PUSH2 0x2199 PUSH1 0x8 SLOAD DUP5 PUSH2 0x358F SWAP1 SWAP2 SWAP1 PUSH4 0xFFFFFFFF AND JUMP JUMPDEST SWAP1 POP PUSH2 0x21C7 PUSH32 0xD9687F32CA530C12632B9A783176C1D13CA044AFC0D8FBB1B00338B461D71815 PUSH1 0x0 SHL PUSH2 0x358C JUMP JUMPDEST PUSH2 0x21F3 PUSH32 0xE471D89DBA23BA6AB08915C725C864295E60BDE82A19C2674DA332A0540A756C PUSH1 0x0 SHL PUSH2 0x358C JUMP JUMPDEST PUSH1 0x2 PUSH1 0x0 SWAP1 SLOAD SWAP1 PUSH2 0x100 EXP SWAP1 DIV PUSH20 0xFFFFFFFFFFFFFFFFFFFFFFFFFFFFFFFFFFFFFFFF AND PUSH20 0xFFFFFFFFFFFFFFFFFFFFFFFFFFFFFFFFFFFFFFFF AND PUSH4 0x40C10F19 ADDRESS DUP5 PUSH1 0x40 MLOAD DUP4 PUSH4 0xFFFFFFFF AND PUSH1 0xE0 SHL DUP2 MSTORE PUSH1 0x4 ADD PUSH2 0x2250 SWAP3 SWAP2 SWAP1 PUSH2 0x3A9D JUMP JUMPDEST PUSH1 0x0 PUSH1 0x40 MLOAD DUP1 DUP4 SUB DUP2 PUSH1 0x0 DUP8 DUP1 EXTCODESIZE ISZERO DUP1 ISZERO PUSH2 0x226A JUMPI PUSH1 0x0 DUP1 REVERT JUMPDEST POP GAS CALL ISZERO DUP1 ISZERO PUSH2 0x227E JUMPI RETURNDATASIZE PUSH1 0x0 DUP1 RETURNDATACOPY RETURNDATASIZE PUSH1 0x0 REVERT JUMPDEST POP POP POP POP PUSH2 0x22AE PUSH32 0xACD70FD8D06675EAD35628FF79D7DA65822FEF3BC8D55446C8AEAEA872D4D64 PUSH1 0x0 SHL PUSH2 0x358C JUMP JUMPDEST PUSH2 0x22DA PUSH32 0xD2F65EF0AFA4CB06F78F11876250C4627E7EBD3B40C4C43FD8B9D6F7AF5D134B PUSH1 0x0 SHL PUSH2 0x358C JUMP JUMPDEST PUSH1 0x3 PUSH1 0x0 SWAP1 SLOAD SWAP1 PUSH2 0x100 EXP SWAP1 DIV PUSH20 0xFFFFFFFFFFFFFFFFFFFFFFFFFFFFFFFFFFFFFFFF AND PUSH20 0xFFFFFFFFFFFFFFFFFFFFFFFFFFFFFFFFFFFFFFFF AND PUSH4 0x40C10F19 ADDRESS DUP4 PUSH1 0x40 MLOAD DUP4 PUSH4 0xFFFFFFFF AND PUSH1 0xE0 SHL DUP2 MSTORE PUSH1 0x4 ADD PUSH2 0x2337 SWAP3 SWAP2 SWAP1 PUSH2 0x3A9D JUMP JUMPDEST PUSH1 0x0 PUSH1 0x40 MLOAD DUP1 DUP4 SUB DUP2 PUSH1 0x0 DUP8 DUP1 EXTCODESIZE ISZERO DUP1 ISZERO PUSH2 0x2351 JUMPI PUSH1 0x0 DUP1 REVERT JUMPDEST POP GAS CALL ISZERO DUP1 ISZERO PUSH2 0x2365 JUMPI RETURNDATASIZE PUSH1 0x0 DUP1 RETURNDATACOPY RETURNDATASIZE PUSH1 0x0 REVERT JUMPDEST POP POP POP POP PUSH2 0x2395 PUSH32 0x4484EB503F91CDC044A4280A4C211968AAC5046998D9B12384EC1B3B6C1415B6 PUSH1 0x0 SHL PUSH2 0x358C JUMP JUMPDEST PUSH2 0x23C1 PUSH32 0x1BF65A14AB35B1BA0C2A3A5A509A4C8885B01EA9AE47D1F6CD51101CA4634FE1 PUSH1 0x0 SHL PUSH2 0x358C JUMP JUMPDEST PUSH2 0x23FF PUSH2 0x23EE DUP6 PUSH2 0x23E0 PUSH5 0xE8D4A51000 DUP7 PUSH2 0x358F SWAP1 SWAP2 SWAP1 PUSH4 0xFFFFFFFF AND JUMP JUMPDEST PUSH2 0x35A5 SWAP1 SWAP2 SWAP1 PUSH4 0xFFFFFFFF AND JUMP JUMPDEST PUSH1 0xB SLOAD PUSH2 0x3713 SWAP1 SWAP2 SWAP1 PUSH4 0xFFFFFFFF AND JUMP JUMPDEST PUSH1 0xB DUP2 SWAP1 SSTORE POP PUSH2 0x2431 PUSH32 0x8B33CA965CD84EEE4905D32A563F7A33CE8D32B99ACBE8DC704E1E52716511EF PUSH1 0x0 SHL PUSH2 0x358C JUMP JUMPDEST PUSH2 0x245D PUSH32 0x78803C8FD0C21196192557B551A5E375E1DBC5180B55C0E46979E818C8E4BCD4 PUSH1 0x0 SHL PUSH2 0x358C JUMP JUMPDEST PUSH2 0x249B PUSH2 0x248A DUP6 PUSH2 0x247C PUSH5 0xE8D4A51000 DUP6 PUSH2 0x358F SWAP1 SWAP2 SWAP1 PUSH4 0xFFFFFFFF AND JUMP JUMPDEST PUSH2 0x35A5 SWAP1 SWAP2 SWAP1 PUSH4 0xFFFFFFFF AND JUMP JUMPDEST PUSH1 0xC SLOAD PUSH2 0x3713 SWAP1 SWAP2 SWAP1 PUSH4 0xFFFFFFFF AND JUMP JUMPDEST PUSH1 0xC DUP2 SWAP1 SSTORE POP PUSH2 0x24CD PUSH32 0x8BD9782457819C999F9A6021C97F817479458BE995E57DF0604017AAC689C3B5 PUSH1 0x0 SHL PUSH2 0x358C JUMP JUMPDEST PUSH2 0x24F9 PUSH32 0x4AD08C7D54CE1AF267EB5EDC0AC476F7BC43F7D58E07F30D216BEA2BB9290B14 PUSH1 0x0 SHL PUSH2 0x358C JUMP JUMPDEST NUMBER PUSH1 0xA DUP2 SWAP1 SSTORE POP POP POP POP POP JUMPDEST JUMP JUMPDEST PUSH1 0x7 SLOAD DUP2 JUMP JUMPDEST PUSH1 0xA SLOAD DUP2 JUMP JUMPDEST PUSH2 0x253F PUSH32 0x73DFB2BECB8B618ED1CAC97F95C6332FEA6CEA5000A7C0AD55A4D792F363F334 PUSH1 0x0 SHL PUSH2 0x358C JUMP JUMPDEST PUSH2 0x256B PUSH32 0xD0BE4E7EE4019CCB656647D51C6F01AC5A4F5E81F6304C61CB5EA5AFB2769243 PUSH1 0x0 SHL PUSH2 0x358C JUMP JUMPDEST PUSH2 0x2597 PUSH32 0xFA2919CC9E514654F52331D030048061864326773CB527C8A64818968E985B71 PUSH1 0x0 SHL PUSH2 0x358C JUMP JUMPDEST PUSH2 0x25C3 PUSH32 0x371E545A68A42C958531E217894F7AD78349E056CFB2D4BBD12BB1596EA206C0 PUSH1 0x0 SHL PUSH2 0x358C JUMP JUMPDEST PUSH1 0x0 DUP2 GT PUSH2 0x2606 JUMPI PUSH1 0x40 MLOAD PUSH32 0x8C379A000000000000000000000000000000000000000000000000000000000 DUP2 MSTORE PUSH1 0x4 ADD PUSH2 0x25FD SWAP1 PUSH2 0x39EB JUMP JUMPDEST PUSH1 0x40 MLOAD DUP1 SWAP2 SUB SWAP1 REVERT JUMPDEST PUSH2 0x2632 PUSH32 0x98AF5338DCC8F30DDECEE444B0EC20E02F363874543D497E7A20DBCF580E3822 PUSH1 0x0 SHL PUSH2 0x358C JUMP JUMPDEST PUSH2 0x265E PUSH32 0x96581C54AAA55E1EF43DD83E505B9B19719AB30E842119D0EDE7160FD0CEFCFB PUSH1 0x0 SHL PUSH2 0x358C JUMP JUMPDEST PUSH2 0x268A PUSH32 0xB86DE7DBDCC786D026000B1980C9C1FA500965C8D3B16EFC79FC2F27A3B564D3 PUSH1 0x0 SHL PUSH2 0x358C JUMP JUMPDEST PUSH1 0x0 PUSH1 0xD PUSH1 0x0 CALLER PUSH20 0xFFFFFFFFFFFFFFFFFFFFFFFFFFFFFFFFFFFFFFFF AND PUSH20 0xFFFFFFFFFFFFFFFFFFFFFFFFFFFFFFFFFFFFFFFF AND DUP2 MSTORE PUSH1 0x20 ADD SWAP1 DUP2 MSTORE PUSH1 0x20 ADD PUSH1 0x0 KECCAK256 SWAP1 POP PUSH2 0x26F9 PUSH32 0x4739AFBFF182D5CE458F3C1DA943009C454923CCDEE12F27BEE1E93BD07C5110 PUSH1 0x0 SHL PUSH2 0x358C JUMP JUMPDEST PUSH2 0x2725 PUSH32 0x312231AC8EA0F2B11EB9C88694702945A760138CC3C70788F186038EA53270ED PUSH1 0x0 SHL PUSH2 0x358C JUMP JUMPDEST PUSH2 0x272D PUSH2 0x1DAF JUMP JUMPDEST PUSH2 0x2759 PUSH32 0xF99A3BE7B1A0BDEC0D22D076B810F385612E4EC6EDC87C2B52B5F32B9B282AFC PUSH1 0x0 SHL PUSH2 0x358C JUMP JUMPDEST PUSH2 0x2785 PUSH32 0xDDFE8749EF193468F20E46E3146AAC76E36E9A4C094012BCBBA9238E2116560D PUSH1 0x0 SHL PUSH2 0x358C JUMP JUMPDEST PUSH1 0x0 DUP2 PUSH1 0x0 ADD SLOAD GT ISZERO PUSH2 0x2D11 JUMPI PUSH2 0x27BE PUSH32 0xA2D92700008CE2096F8B770E4F67AC6BD2606C8B5349608BF358C2DDE1D64A1 PUSH1 0x0 SHL PUSH2 0x358C JUMP JUMPDEST PUSH2 0x27EA PUSH32 0x7A3F41CA3DE2C9BDF31B70F0BF1462E9422B540526D16B52EA3A25D97424FC9D PUSH1 0x0 SHL PUSH2 0x358C JUMP JUMPDEST PUSH2 0x2816 PUSH32 0x9394140502E6D3C60BD5B382820E371FFD5A50459D5776E1BF757C2102340728 PUSH1 0x0 SHL PUSH2 0x358C JUMP JUMPDEST PUSH1 0x0 DUP1 PUSH2 0x2822 CALLER PUSH2 0x33D4 JUMP JUMPDEST SWAP2 POP SWAP2 POP PUSH2 0x2852 PUSH32 0xE76E9241D23B8391FB238119803A39F06A50E7A11DEE49E1E25C6828E33C65F4 PUSH1 0x0 SHL PUSH2 0x358C JUMP JUMPDEST PUSH2 0x287E PUSH32 0x2E5418F9DBF448985E13B484B05EC761C8B1B1725739BF4437F4979154CB47A3 PUSH1 0x0 SHL PUSH2 0x358C JUMP JUMPDEST PUSH1 0x2 PUSH1 0x0 SWAP1 SLOAD SWAP1 PUSH2 0x100 EXP SWAP1 DIV PUSH20 0xFFFFFFFFFFFFFFFFFFFFFFFFFFFFFFFFFFFFFFFF AND PUSH20 0xFFFFFFFFFFFFFFFFFFFFFFFFFFFFFFFFFFFFFFFF AND PUSH4 0xA9059CBB PUSH1 0x9 PUSH1 0x0 SWAP1 SLOAD SWAP1 PUSH2 0x100 EXP SWAP1 DIV PUSH20 0xFFFFFFFFFFFFFFFFFFFFFFFFFFFFFFFFFFFFFFFF AND PUSH2 0x2906 PUSH1 0x64 PUSH2 0x28F8 PUSH1 0xA DUP9 PUSH2 0x358F SWAP1 SWAP2 SWAP1 PUSH4 0xFFFFFFFF AND JUMP JUMPDEST PUSH2 0x35A5 SWAP1 SWAP2 SWAP1 PUSH4 0xFFFFFFFF AND JUMP JUMPDEST PUSH1 0x40 MLOAD DUP4 PUSH4 0xFFFFFFFF AND PUSH1 0xE0 SHL DUP2 MSTORE PUSH1 0x4 ADD PUSH2 0x2923 SWAP3 SWAP2 SWAP1 PUSH2 0x3A9D JUMP JUMPDEST PUSH1 0x20 PUSH1 0x40 MLOAD DUP1 DUP4 SUB DUP2 PUSH1 0x0 DUP8 GAS CALL ISZERO DUP1 ISZERO PUSH2 0x2942 JUMPI RETURNDATASIZE PUSH1 0x0 DUP1 RETURNDATACOPY RETURNDATASIZE PUSH1 0x0 REVERT JUMPDEST POP POP POP POP PUSH1 0x40 MLOAD RETURNDATASIZE PUSH1 0x1F NOT PUSH1 0x1F DUP3 ADD AND DUP3 ADD DUP1 PUSH1 0x40 MSTORE POP DUP2 ADD SWAP1 PUSH2 0x2966 SWAP2 SWAP1 PUSH2 0x3AFE JUMP JUMPDEST POP PUSH2 0x2993 PUSH32 0xA64E234EBE303898E7E89F4AD909A9111B9A25DF82ED4E0E82E52EA5DBF4B787 PUSH1 0x0 SHL PUSH2 0x358C JUMP JUMPDEST PUSH2 0x29BF PUSH32 0x5F50C97D463508E754DFBED200D2CF93F49ACFFE897C7A3971CCDB11895A1442 PUSH1 0x0 SHL PUSH2 0x358C JUMP JUMPDEST PUSH1 0x3 PUSH1 0x0 SWAP1 SLOAD SWAP1 PUSH2 0x100 EXP SWAP1 DIV PUSH20 0xFFFFFFFFFFFFFFFFFFFFFFFFFFFFFFFFFFFFFFFF AND PUSH20 0xFFFFFFFFFFFFFFFFFFFFFFFFFFFFFFFFFFFFFFFF AND PUSH4 0xA9059CBB PUSH1 0x9 PUSH1 0x0 SWAP1 SLOAD SWAP1 PUSH2 0x100 EXP SWAP1 DIV PUSH20 0xFFFFFFFFFFFFFFFFFFFFFFFFFFFFFFFFFFFFFFFF AND PUSH2 0x2A47 PUSH1 0x64 PUSH2 0x2A39 PUSH1 0xA DUP8 PUSH2 0x358F SWAP1 SWAP2 SWAP1 PUSH4 0xFFFFFFFF AND JUMP JUMPDEST PUSH2 0x35A5 SWAP1 SWAP2 SWAP1 PUSH4 0xFFFFFFFF AND JUMP JUMPDEST PUSH1 0x40 MLOAD DUP4 PUSH4 0xFFFFFFFF AND PUSH1 0xE0 SHL DUP2 MSTORE PUSH1 0x4 ADD PUSH2 0x2A64 SWAP3 SWAP2 SWAP1 PUSH2 0x3A9D JUMP JUMPDEST PUSH1 0x20 PUSH1 0x40 MLOAD DUP1 DUP4 SUB DUP2 PUSH1 0x0 DUP8 GAS CALL ISZERO DUP1 ISZERO PUSH2 0x2A83 JUMPI RETURNDATASIZE PUSH1 0x0 DUP1 RETURNDATACOPY RETURNDATASIZE PUSH1 0x0 REVERT JUMPDEST POP POP POP POP PUSH1 0x40 MLOAD RETURNDATASIZE PUSH1 0x1F NOT PUSH1 0x1F DUP3 ADD AND DUP3 ADD DUP1 PUSH1 0x40 MSTORE POP DUP2 ADD SWAP1 PUSH2 0x2AA7 SWAP2 SWAP1 PUSH2 0x3AFE JUMP JUMPDEST POP PUSH2 0x2AD4 PUSH32 0x668E1A6AFFD172F0471B55084C9919E5F6DBDE0347F0DABED018F4185FE44161 PUSH1 0x0 SHL PUSH2 0x358C JUMP JUMPDEST PUSH2 0x2B00 PUSH32 0xE34AE497C447E275D8594AA1ACE7F7E708DD6627D5BEC1167185959E0FD96E29 PUSH1 0x0 SHL PUSH2 0x358C JUMP JUMPDEST PUSH1 0x2 PUSH1 0x0 SWAP1 SLOAD SWAP1 PUSH2 0x100 EXP SWAP1 DIV PUSH20 0xFFFFFFFFFFFFFFFFFFFFFFFFFFFFFFFFFFFFFFFF AND PUSH20 0xFFFFFFFFFFFFFFFFFFFFFFFFFFFFFFFFFFFFFFFF AND PUSH4 0xA9059CBB CALLER PUSH2 0x2B78 PUSH2 0x2B69 PUSH1 0x64 PUSH2 0x2B5B PUSH1 0xA DUP10 PUSH2 0x358F SWAP1 SWAP2 SWAP1 PUSH4 0xFFFFFFFF AND JUMP JUMPDEST PUSH2 0x35A5 SWAP1 SWAP2 SWAP1 PUSH4 0xFFFFFFFF AND JUMP JUMPDEST DUP7 PUSH2 0x35BB SWAP1 SWAP2 SWAP1 PUSH4 0xFFFFFFFF AND JUMP JUMPDEST PUSH1 0x40 MLOAD DUP4 PUSH4 0xFFFFFFFF AND PUSH1 0xE0 SHL DUP2 MSTORE PUSH1 0x4 ADD PUSH2 0x2B95 SWAP3 SWAP2 SWAP1 PUSH2 0x3A9D JUMP JUMPDEST PUSH1 0x20 PUSH1 0x40 MLOAD DUP1 DUP4 SUB DUP2 PUSH1 0x0 DUP8 GAS CALL ISZERO DUP1 ISZERO PUSH2 0x2BB4 JUMPI RETURNDATASIZE PUSH1 0x0 DUP1 RETURNDATACOPY RETURNDATASIZE PUSH1 0x0 REVERT JUMPDEST POP POP POP POP PUSH1 0x40 MLOAD RETURNDATASIZE PUSH1 0x1F NOT PUSH1 0x1F DUP3 ADD AND DUP3 ADD DUP1 PUSH1 0x40 MSTORE POP DUP2 ADD SWAP1 PUSH2 0x2BD8 SWAP2 SWAP1 PUSH2 0x3AFE JUMP JUMPDEST POP PUSH2 0x2C05 PUSH32 0xFCD6F6E98932BA16A3F6F336C932D4C21326299DAE2F2B1988A4F007E108F7E9 PUSH1 0x0 SHL PUSH2 0x358C JUMP JUMPDEST PUSH2 0x2C31 PUSH32 0x8299E62E43CD85C93FACF59EAD9547841835E1B5D8494AB572BA5409D3E7E11A PUSH1 0x0 SHL PUSH2 0x358C JUMP JUMPDEST PUSH1 0x3 PUSH1 0x0 SWAP1 SLOAD SWAP1 PUSH2 0x100 EXP SWAP1 DIV PUSH20 0xFFFFFFFFFFFFFFFFFFFFFFFFFFFFFFFFFFFFFFFF AND PUSH20 0xFFFFFFFFFFFFFFFFFFFFFFFFFFFFFFFFFFFFFFFF AND PUSH4 0xA9059CBB CALLER PUSH2 0x2CA9 PUSH2 0x2C9A PUSH1 0x64 PUSH2 0x2C8C PUSH1 0xA DUP9 PUSH2 0x358F SWAP1 SWAP2 SWAP1 PUSH4 0xFFFFFFFF AND JUMP JUMPDEST PUSH2 0x35A5 SWAP1 SWAP2 SWAP1 PUSH4 0xFFFFFFFF AND JUMP JUMPDEST DUP6 PUSH2 0x35BB SWAP1 SWAP2 SWAP1 PUSH4 0xFFFFFFFF AND JUMP JUMPDEST PUSH1 0x40 MLOAD DUP4 PUSH4 0xFFFFFFFF AND PUSH1 0xE0 SHL DUP2 MSTORE PUSH1 0x4 ADD PUSH2 0x2CC6 SWAP3 SWAP2 SWAP1 PUSH2 0x3A9D JUMP JUMPDEST PUSH1 0x20 PUSH1 0x40 MLOAD DUP1 DUP4 SUB DUP2 PUSH1 0x0 DUP8 GAS CALL ISZERO DUP1 ISZERO PUSH2 0x2CE5 JUMPI RETURNDATASIZE PUSH1 0x0 DUP1 RETURNDATACOPY RETURNDATASIZE PUSH1 0x0 REVERT JUMPDEST POP POP POP POP PUSH1 0x40 MLOAD RETURNDATASIZE PUSH1 0x1F NOT PUSH1 0x1F DUP3 ADD AND DUP3 ADD DUP1 PUSH1 0x40 MSTORE POP DUP2 ADD SWAP1 PUSH2 0x2D09 SWAP2 SWAP1 PUSH2 0x3AFE JUMP JUMPDEST POP POP POP PUSH2 0x2D3E JUMP JUMPDEST PUSH2 0x2D3D PUSH32 0x3EFD53F86EAFD146A783E5A89B1C774FB66DFE423C59D1CE43AED7F60A8FD92A PUSH1 0x0 SHL PUSH2 0x358C JUMP JUMPDEST JUMPDEST PUSH2 0x2D6A PUSH32 0x7307CCE97A14FDBB2CC6D37688404DF6D94CAF37C1276080C7023AD1406E628B PUSH1 0x0 SHL PUSH2 0x358C JUMP JUMPDEST PUSH2 0x2D96 PUSH32 0x13F9A961277FB7E241C3CB75F4D0E69F7A1C40CCB85ADB4DBE393439B20DFB4F PUSH1 0x0 SHL PUSH2 0x358C JUMP JUMPDEST PUSH1 0x0 PUSH1 0x64 PUSH1 0x4 SLOAD DUP5 PUSH2 0x2DA8 SWAP2 SWAP1 PUSH2 0x3C7B JUMP JUMPDEST PUSH2 0x2DB2 SWAP2 SWAP1 PUSH2 0x3CEC JUMP JUMPDEST SWAP1 POP PUSH2 0x2DE0 PUSH32 0xCAC5483CCC48366C846C65A1FBEC64AEAFF122F5359D659CE5BA5BA28DDD7299 PUSH1 0x0 SHL PUSH2 0x358C JUMP JUMPDEST PUSH2 0x2E0C PUSH32 0x51AB597EBF2B7D8B37177AC7005264B805F96C5CE6CBB1AF9C946E4D91760C67 PUSH1 0x0 SHL PUSH2 0x358C JUMP JUMPDEST PUSH1 0x0 DUP2 DUP5 PUSH2 0x2E1A SWAP2 SWAP1 PUSH2 0x3B89 JUMP JUMPDEST SWAP1 POP PUSH2 0x2E48 PUSH32 0xF832D15E714AA0ECA0213997867E773B6D294F0319F72463FBED104CF82DC10C PUSH1 0x0 SHL PUSH2 0x358C JUMP JUMPDEST PUSH2 0x2E74 PUSH32 0x593D851AA6EFAC8D7E5254179F98F25D30B44E867B5E865EA5999150CD8C508B PUSH1 0x0 SHL PUSH2 0x358C JUMP JUMPDEST PUSH1 0x1 PUSH1 0x0 SWAP1 SLOAD SWAP1 PUSH2 0x100 EXP SWAP1 DIV PUSH20 0xFFFFFFFFFFFFFFFFFFFFFFFFFFFFFFFFFFFFFFFF AND PUSH20 0xFFFFFFFFFFFFFFFFFFFFFFFFFFFFFFFFFFFFFFFF AND PUSH4 0x23B872DD CALLER ADDRESS DUP8 PUSH1 0x40 MLOAD DUP5 PUSH4 0xFFFFFFFF AND PUSH1 0xE0 SHL DUP2 MSTORE PUSH1 0x4 ADD PUSH2 0x2ED3 SWAP4 SWAP3 SWAP2 SWAP1 PUSH2 0x3D1D JUMP JUMPDEST PUSH1 0x20 PUSH1 0x40 MLOAD DUP1 DUP4 SUB DUP2 PUSH1 0x0 DUP8 GAS CALL ISZERO DUP1 ISZERO PUSH2 0x2EF2 JUMPI RETURNDATASIZE PUSH1 0x0 DUP1 RETURNDATACOPY RETURNDATASIZE PUSH1 0x0 REVERT JUMPDEST POP POP POP POP PUSH1 0x40 MLOAD RETURNDATASIZE PUSH1 0x1F NOT PUSH1 0x1F DUP3 ADD AND DUP3 ADD DUP1 PUSH1 0x40 MSTORE POP DUP2 ADD SWAP1 PUSH2 0x2F16 SWAP2 SWAP1 PUSH2 0x3AFE JUMP JUMPDEST POP PUSH2 0x2F43 PUSH32 0xBC39619D7299160282BA32B513AA436B750EAAB30218ABA7596177B449DE6693 PUSH1 0x0 SHL PUSH2 0x358C JUMP JUMPDEST PUSH2 0x2F6F PUSH32 0xC256E7CF217D23F2CBFC5F5700506DB6928A88FAD203C786551DB12F88D67CBE PUSH1 0x0 SHL PUSH2 0x358C JUMP JUMPDEST PUSH1 0x1 PUSH1 0x0 SWAP1 SLOAD SWAP1 PUSH2 0x100 EXP SWAP1 DIV PUSH20 0xFFFFFFFFFFFFFFFFFFFFFFFFFFFFFFFFFFFFFFFF AND PUSH20 0xFFFFFFFFFFFFFFFFFFFFFFFFFFFFFFFFFFFFFFFF AND PUSH4 0xA9059CBB PUSH1 0x9 PUSH1 0x0 SWAP1 SLOAD SWAP1 PUSH2 0x100 EXP SWAP1 DIV PUSH20 0xFFFFFFFFFFFFFFFFFFFFFFFFFFFFFFFFFFFFFFFF AND DUP5 PUSH1 0x40 MLOAD DUP4 PUSH4 0xFFFFFFFF AND PUSH1 0xE0 SHL DUP2 MSTORE PUSH1 0x4 ADD PUSH2 0x2FEE SWAP3 SWAP2 SWAP1 PUSH2 0x3A9D JUMP JUMPDEST PUSH1 0x20 PUSH1 0x40 MLOAD DUP1 DUP4 SUB DUP2 PUSH1 0x0 DUP8 GAS CALL ISZERO DUP1 ISZERO PUSH2 0x300D JUMPI RETURNDATASIZE PUSH1 0x0 DUP1 RETURNDATACOPY RETURNDATASIZE PUSH1 0x0 REVERT JUMPDEST POP POP POP POP PUSH1 0x40 MLOAD RETURNDATASIZE PUSH1 0x1F NOT PUSH1 0x1F DUP3 ADD AND DUP3 ADD DUP1 PUSH1 0x40 MSTORE POP DUP2 ADD SWAP1 PUSH2 0x3031 SWAP2 SWAP1 PUSH2 0x3AFE JUMP JUMPDEST POP PUSH2 0x305E PUSH32 0x3BE5EB80A6290ED5EE928E769C75B5921EFFD3C96830F917E6F67B52CB32C8E7 PUSH1 0x0 SHL PUSH2 0x358C JUMP JUMPDEST PUSH2 0x308A PUSH32 0xEAB8462F5437C3C3D04F2EF61184E260497049BB2CE3E5BC0E54CF75287032A PUSH1 0x0 SHL PUSH2 0x358C JUMP JUMPDEST PUSH2 0x30A1 DUP2 DUP5 PUSH1 0x0 ADD SLOAD PUSH2 0x3713 SWAP1 SWAP2 SWAP1 PUSH4 0xFFFFFFFF AND JUMP JUMPDEST DUP4 PUSH1 0x0 ADD DUP2 SWAP1 SSTORE POP PUSH2 0x30D5 PUSH32 0x99B41C0AC38EA8262EA69FB8BCEE34022DEA7BB965AA4D8FB1AB5875D7EF3B72 PUSH1 0x0 SHL PUSH2 0x358C JUMP JUMPDEST PUSH2 0x3101 PUSH32 0x709E603DED08FC068EC8588B94105299A8F9C9B11A542AB1557DA2BA55D32FBA PUSH1 0x0 SHL PUSH2 0x358C JUMP JUMPDEST PUSH2 0x3131 PUSH5 0xE8D4A51000 PUSH2 0x3123 PUSH1 0xB SLOAD DUP7 PUSH1 0x0 ADD SLOAD PUSH2 0x358F SWAP1 SWAP2 SWAP1 PUSH4 0xFFFFFFFF AND JUMP JUMPDEST PUSH2 0x35A5 SWAP1 SWAP2 SWAP1 PUSH4 0xFFFFFFFF AND JUMP JUMPDEST DUP4 PUSH1 0x1 ADD DUP2 SWAP1 SSTORE POP PUSH2 0x3165 PUSH32 0x1D7FCE82212B9E7BEBEECB5B7ED6179274E6E02B5F20BB565DA055000803090B PUSH1 0x0 SHL PUSH2 0x358C JUMP JUMPDEST PUSH2 0x3191 PUSH32 0x71BEBB7FFFB3DDFDEE9ED3EC856D5304E38B94B3F164745BB124BD136E117360 PUSH1 0x0 SHL PUSH2 0x358C JUMP JUMPDEST PUSH2 0x31C1 PUSH5 0xE8D4A51000 PUSH2 0x31B3 PUSH1 0xC SLOAD DUP7 PUSH1 0x0 ADD SLOAD PUSH2 0x358F SWAP1 SWAP2 SWAP1 PUSH4 0xFFFFFFFF AND JUMP JUMPDEST PUSH2 0x35A5 SWAP1 SWAP2 SWAP1 PUSH4 0xFFFFFFFF AND JUMP JUMPDEST DUP4 PUSH1 0x2 ADD DUP2 SWAP1 SSTORE POP PUSH2 0x31F5 PUSH32 0xBC902CF53A2C2B122686DC30D41E1AFA5E07FB29FDCB329F62E54DD173A89B9F PUSH1 0x0 SHL PUSH2 0x358C JUMP JUMPDEST PUSH2 0x3221 PUSH32 0x45621B2018CC4FEA3F0EAE407AE5303B8F34B9BDF4F9B3F0724AC5CA81031858 PUSH1 0x0 SHL PUSH2 0x358C JUMP JUMPDEST DUP3 PUSH1 0x3 ADD PUSH1 0x40 MLOAD DUP1 PUSH1 0x40 ADD PUSH1 0x40 MSTORE DUP1 DUP4 DUP2 MSTORE PUSH1 0x20 ADD TIMESTAMP DUP2 MSTORE POP SWAP1 DUP1 PUSH1 0x1 DUP2 SLOAD ADD DUP1 DUP3 SSTORE DUP1 SWAP2 POP POP PUSH1 0x1 SWAP1 SUB SWAP1 PUSH1 0x0 MSTORE PUSH1 0x20 PUSH1 0x0 KECCAK256 SWAP1 PUSH1 0x2 MUL ADD PUSH1 0x0 SWAP1 SWAP2 SWAP1 SWAP2 SWAP1 SWAP2 POP PUSH1 0x0 DUP3 ADD MLOAD DUP2 PUSH1 0x0 ADD SSTORE PUSH1 0x20 DUP3 ADD MLOAD DUP2 PUSH1 0x1 ADD SSTORE POP POP PUSH2 0x32A5 PUSH32 0x52EE005E1EE526A685B84FBC76533F480B2D9A44C6553FEE8A1C5BC28294C68E PUSH1 0x0 SHL PUSH2 0x358C JUMP JUMPDEST PUSH2 0x32D1 PUSH32 0xD3A4C9EEEE7A4D05CF5F9DFC8D434FB70C8C2B84AB676ECFC49B8EA0080D1A7C PUSH1 0x0 SHL PUSH2 0x358C JUMP JUMPDEST CALLER PUSH20 0xFFFFFFFFFFFFFFFFFFFFFFFFFFFFFFFFFFFFFFFF AND PUSH32 0xE1FFFCC4923D04B559F4D29A8BFC6CDA04EB5B0D3C460751C2402C5C5CC9109C DUP3 PUSH1 0x40 MLOAD PUSH2 0x3317 SWAP2 SWAP1 PUSH2 0x3893 JUMP JUMPDEST PUSH1 0x40 MLOAD DUP1 SWAP2 SUB SWAP1 LOG2 POP POP POP POP JUMP JUMPDEST PUSH1 0x3 PUSH1 0x0 SWAP1 SLOAD SWAP1 PUSH2 0x100 EXP SWAP1 DIV PUSH20 0xFFFFFFFFFFFFFFFFFFFFFFFFFFFFFFFFFFFFFFFF AND DUP2 JUMP JUMPDEST PUSH1 0x8 SLOAD DUP2 JUMP JUMPDEST PUSH2 0x3359 PUSH2 0x35D1 JUMP JUMPDEST PUSH1 0x0 PUSH20 0xFFFFFFFFFFFFFFFFFFFFFFFFFFFFFFFFFFFFFFFF AND DUP2 PUSH20 0xFFFFFFFFFFFFFFFFFFFFFFFFFFFFFFFFFFFFFFFF AND SUB PUSH2 0x33C8 JUMPI PUSH1 0x40 MLOAD PUSH32 0x8C379A000000000000000000000000000000000000000000000000000000000 DUP2 MSTORE PUSH1 0x4 ADD PUSH2 0x33BF SWAP1 PUSH2 0x3DC6 JUMP JUMPDEST PUSH1 0x40 MLOAD DUP1 SWAP2 SUB SWAP1 REVERT JUMPDEST PUSH2 0x33D1 DUP2 PUSH2 0x364F JUMP JUMPDEST POP JUMP JUMPDEST PUSH1 0x0 DUP1 PUSH2 0x3403 PUSH32 0xEDE0BAACCB0FA8E52A3234A847340044E58B12C210EAFE1702C053E427DFE098 PUSH1 0x0 SHL PUSH2 0x358C JUMP JUMPDEST PUSH2 0x342F PUSH32 0x46DEB7BB70B9DFF2C3BCF0FC1E8CA1F366D15CF4846307D2644F1F2681CFA5AF PUSH1 0x0 SHL PUSH2 0x358C JUMP JUMPDEST PUSH2 0x345B PUSH32 0xC178C214177BD4A1434C49DE20CF171F06165CA5B73EAA7242440D28D0A71AEA PUSH1 0x0 SHL PUSH2 0x358C JUMP JUMPDEST PUSH1 0x0 PUSH1 0xD PUSH1 0x0 DUP6 PUSH20 0xFFFFFFFFFFFFFFFFFFFFFFFFFFFFFFFFFFFFFFFF AND PUSH20 0xFFFFFFFFFFFFFFFFFFFFFFFFFFFFFFFFFFFFFFFF AND DUP2 MSTORE PUSH1 0x20 ADD SWAP1 DUP2 MSTORE PUSH1 0x20 ADD PUSH1 0x0 KECCAK256 SWAP1 POP PUSH2 0x34CA PUSH32 0x677F3C6B873C7D99063A15BD9453A54579C19CBB21229D7B4ACEE3ECFFBAC09F PUSH1 0x0 SHL PUSH2 0x358C JUMP JUMPDEST PUSH2 0x34F6 PUSH32 0x887F7096C30C157CDB4F69A4B6B817987BF36FED8DFF2134673775203D773A5F PUSH1 0x0 SHL PUSH2 0x358C JUMP JUMPDEST PUSH2 0x353C DUP2 PUSH1 0x1 ADD SLOAD PUSH2 0x352E PUSH5 0xE8D4A51000 PUSH2 0x3520 PUSH1 0xB SLOAD DUP7 PUSH1 0x0 ADD SLOAD PUSH2 0x358F SWAP1 SWAP2 SWAP1 PUSH4 0xFFFFFFFF AND JUMP JUMPDEST PUSH2 0x35A5 SWAP1 SWAP2 SWAP1 PUSH4 0xFFFFFFFF AND JUMP JUMPDEST PUSH2 0x35BB SWAP1 SWAP2 SWAP1 PUSH4 0xFFFFFFFF AND JUMP JUMPDEST PUSH2 0x3582 DUP3 PUSH1 0x2 ADD SLOAD PUSH2 0x3574 PUSH5 0xE8D4A51000 PUSH2 0x3566 PUSH1 0xC SLOAD DUP8 PUSH1 0x0 ADD SLOAD PUSH2 0x358F SWAP1 SWAP2 SWAP1 PUSH4 0xFFFFFFFF AND JUMP JUMPDEST PUSH2 0x35A5 SWAP1 SWAP2 SWAP1 PUSH4 0xFFFFFFFF AND JUMP JUMPDEST PUSH2 0x35BB SWAP1 SWAP2 SWAP1 PUSH4 0xFFFFFFFF AND JUMP JUMPDEST SWAP3 POP SWAP3 POP POP SWAP2 POP SWAP2 JUMP JUMPDEST POP JUMP JUMPDEST PUSH1 0x0 DUP2 DUP4 PUSH2 0x359D SWAP2 SWAP1 PUSH2 0x3C7B JUMP JUMPDEST SWAP1 POP SWAP3 SWAP2 POP POP JUMP JUMPDEST PUSH1 0x0 DUP2 DUP4 PUSH2 0x35B3 SWAP2 SWAP1 PUSH2 0x3CEC JUMP JUMPDEST SWAP1 POP SWAP3 SWAP2 POP POP JUMP JUMPDEST PUSH1 0x0 DUP2 DUP4 PUSH2 0x35C9 SWAP2 SWAP1 PUSH2 0x3B89 JUMP JUMPDEST SWAP1 POP SWAP3 SWAP2 POP POP JUMP JUMPDEST PUSH2 0x35D9 PUSH2 0x3729 JUMP JUMPDEST PUSH20 0xFFFFFFFFFFFFFFFFFFFFFFFFFFFFFFFFFFFFFFFF AND PUSH2 0x35F7 PUSH2 0x1D86 JUMP JUMPDEST PUSH20 0xFFFFFFFFFFFFFFFFFFFFFFFFFFFFFFFFFFFFFFFF AND EQ PUSH2 0x364D JUMPI PUSH1 0x40 MLOAD PUSH32 0x8C379A000000000000000000000000000000000000000000000000000000000 DUP2 MSTORE PUSH1 0x4 ADD PUSH2 0x3644 SWAP1 PUSH2 0x3E32 JUMP JUMPDEST PUSH1 0x40 MLOAD DUP1 SWAP2 SUB SWAP1 REVERT JUMPDEST JUMP JUMPDEST PUSH1 0x0 DUP1 PUSH1 0x0 SWAP1 SLOAD SWAP1 PUSH2 0x100 EXP SWAP1 DIV PUSH20 0xFFFFFFFFFFFFFFFFFFFFFFFFFFFFFFFFFFFFFFFF AND SWAP1 POP DUP2 PUSH1 0x0 DUP1 PUSH2 0x100 EXP DUP2 SLOAD DUP2 PUSH20 0xFFFFFFFFFFFFFFFFFFFFFFFFFFFFFFFFFFFFFFFF MUL NOT AND SWAP1 DUP4 PUSH20 0xFFFFFFFFFFFFFFFFFFFFFFFFFFFFFFFFFFFFFFFF AND MUL OR SWAP1 SSTORE POP DUP2 PUSH20 0xFFFFFFFFFFFFFFFFFFFFFFFFFFFFFFFFFFFFFFFF AND DUP2 PUSH20 0xFFFFFFFFFFFFFFFFFFFFFFFFFFFFFFFFFFFFFFFF AND PUSH32 0x8BE0079C531659141344CD1FD0A4F28419497F9722A3DAAFE3B4186F6B6457E0 PUSH1 0x40 MLOAD PUSH1 0x40 MLOAD DUP1 SWAP2 SUB SWAP1 LOG3 POP POP JUMP JUMPDEST PUSH1 0x0 DUP2 DUP4 PUSH2 0x3721 SWAP2 SWAP1 PUSH2 0x3BBD JUMP JUMPDEST SWAP1 POP SWAP3 SWAP2 POP POP JUMP JUMPDEST PUSH1 0x0 CALLER SWAP1 POP SWAP1 JUMP JUMPDEST PUSH1 0x0 DUP1 REVERT JUMPDEST PUSH1 0x0 PUSH20 0xFFFFFFFFFFFFFFFFFFFFFFFFFFFFFFFFFFFFFFFF DUP3 AND SWAP1 POP SWAP2 SWAP1 POP JUMP JUMPDEST PUSH1 0x0 PUSH2 0x3761 DUP3 PUSH2 0x3736 JUMP JUMPDEST SWAP1 POP SWAP2 SWAP1 POP JUMP JUMPDEST PUSH2 0x3771 DUP2 PUSH2 0x3756 JUMP JUMPDEST DUP2 EQ PUSH2 0x377C JUMPI PUSH1 0x0 DUP1 REVERT JUMPDEST POP JUMP JUMPDEST PUSH1 0x0 DUP2 CALLDATALOAD SWAP1 POP PUSH2 0x378E DUP2 PUSH2 0x3768 JUMP JUMPDEST SWAP3 SWAP2 POP POP JUMP JUMPDEST PUSH1 0x0 PUSH1 0x20 DUP3 DUP5 SUB SLT ISZERO PUSH2 0x37AA JUMPI PUSH2 0x37A9 PUSH2 0x3731 JUMP JUMPDEST JUMPDEST PUSH1 0x0 PUSH2 0x37B8 DUP5 DUP3 DUP6 ADD PUSH2 0x377F JUMP JUMPDEST SWAP2 POP POP SWAP3 SWAP2 POP POP JUMP JUMPDEST PUSH1 0x0 DUP2 SWAP1 POP SWAP2 SWAP1 POP JUMP JUMPDEST PUSH2 0x37D4 DUP2 PUSH2 0x37C1 JUMP JUMPDEST DUP3 MSTORE POP POP JUMP JUMPDEST PUSH1 0x0 PUSH1 0x60 DUP3 ADD SWAP1 POP PUSH2 0x37EF PUSH1 0x0 DUP4 ADD DUP7 PUSH2 0x37CB JUMP JUMPDEST PUSH2 0x37FC PUSH1 0x20 DUP4 ADD DUP6 PUSH2 0x37CB JUMP JUMPDEST PUSH2 0x3809 PUSH1 0x40 DUP4 ADD DUP5 PUSH2 0x37CB JUMP JUMPDEST SWAP5 SWAP4 POP POP POP POP JUMP JUMPDEST PUSH2 0x381A DUP2 PUSH2 0x37C1 JUMP JUMPDEST DUP2 EQ PUSH2 0x3825 JUMPI PUSH1 0x0 DUP1 REVERT JUMPDEST POP JUMP JUMPDEST PUSH1 0x0 DUP2 CALLDATALOAD SWAP1 POP PUSH2 0x3837 DUP2 PUSH2 0x3811 JUMP JUMPDEST SWAP3 SWAP2 POP POP JUMP JUMPDEST PUSH1 0x0 PUSH1 0x20 DUP3 DUP5 SUB SLT ISZERO PUSH2 0x3853 JUMPI PUSH2 0x3852 PUSH2 0x3731 JUMP JUMPDEST JUMPDEST PUSH1 0x0 PUSH2 0x3861 DUP5 DUP3 DUP6 ADD PUSH2 0x3828 JUMP JUMPDEST SWAP2 POP POP SWAP3 SWAP2 POP POP JUMP JUMPDEST PUSH1 0x0 PUSH1 0x40 DUP3 ADD SWAP1 POP PUSH2 0x387F PUSH1 0x0 DUP4 ADD DUP6 PUSH2 0x37CB JUMP JUMPDEST PUSH2 0x388C PUSH1 0x20 DUP4 ADD DUP5 PUSH2 0x37CB JUMP JUMPDEST SWAP4 SWAP3 POP POP POP JUMP JUMPDEST PUSH1 0x0 PUSH1 0x20 DUP3 ADD SWAP1 POP PUSH2 0x38A8 PUSH1 0x0 DUP4 ADD DUP5 PUSH2 0x37CB JUMP JUMPDEST SWAP3 SWAP2 POP POP JUMP JUMPDEST PUSH2 0x38B7 DUP2 PUSH2 0x3756 JUMP JUMPDEST DUP3 MSTORE POP POP JUMP JUMPDEST PUSH1 0x0 PUSH1 0x20 DUP3 ADD SWAP1 POP PUSH2 0x38D2 PUSH1 0x0 DUP4 ADD DUP5 PUSH2 0x38AE JUMP JUMPDEST SWAP3 SWAP2 POP POP JUMP JUMPDEST PUSH1 0x0 DUP2 SWAP1 POP SWAP2 SWAP1 POP JUMP JUMPDEST PUSH1 0x0 PUSH2 0x38FD PUSH2 0x38F8 PUSH2 0x38F3 DUP5 PUSH2 0x3736 JUMP JUMPDEST PUSH2 0x38D8 JUMP JUMPDEST PUSH2 0x3736 JUMP JUMPDEST SWAP1 POP SWAP2 SWAP1 POP JUMP JUMPDEST PUSH1 0x0 PUSH2 0x390F DUP3 PUSH2 0x38E2 JUMP JUMPDEST SWAP1 POP SWAP2 SWAP1 POP JUMP JUMPDEST PUSH1 0x0 PUSH2 0x3921 DUP3 PUSH2 0x3904 JUMP JUMPDEST SWAP1 POP SWAP2 SWAP1 POP JUMP JUMPDEST PUSH2 0x3931 DUP2 PUSH2 0x3916 JUMP JUMPDEST DUP3 MSTORE POP POP JUMP JUMPDEST PUSH1 0x0 PUSH1 0x20 DUP3 ADD SWAP1 POP PUSH2 0x394C PUSH1 0x0 DUP4 ADD DUP5 PUSH2 0x3928 JUMP JUMPDEST SWAP3 SWAP2 POP POP JUMP JUMPDEST PUSH1 0x0 PUSH2 0x395D DUP3 PUSH2 0x3904 JUMP JUMPDEST SWAP1 POP SWAP2 SWAP1 POP JUMP JUMPDEST PUSH2 0x396D DUP2 PUSH2 0x3952 JUMP JUMPDEST DUP3 MSTORE POP POP JUMP JUMPDEST PUSH1 0x0 PUSH1 0x20 DUP3 ADD SWAP1 POP PUSH2 0x3988 PUSH1 0x0 DUP4 ADD DUP5 PUSH2 0x3964 JUMP JUMPDEST SWAP3 SWAP2 POP POP JUMP JUMPDEST PUSH1 0x0 DUP3 DUP3 MSTORE PUSH1 0x20 DUP3 ADD SWAP1 POP SWAP3 SWAP2 POP POP JUMP JUMPDEST PUSH32 0x416D6F756E74206D7573742062652067726561746572207468616E2030000000 PUSH1 0x0 DUP3 ADD MSTORE POP JUMP JUMPDEST PUSH1 0x0 PUSH2 0x39D5 PUSH1 0x1D DUP4 PUSH2 0x398E JUMP JUMPDEST SWAP2 POP PUSH2 0x39E0 DUP3 PUSH2 0x399F JUMP JUMPDEST PUSH1 0x20 DUP3 ADD SWAP1 POP SWAP2 SWAP1 POP JUMP JUMPDEST PUSH1 0x0 PUSH1 0x20 DUP3 ADD SWAP1 POP DUP2 DUP2 SUB PUSH1 0x0 DUP4 ADD MSTORE PUSH2 0x3A04 DUP2 PUSH2 0x39C8 JUMP JUMPDEST SWAP1 POP SWAP2 SWAP1 POP JUMP JUMPDEST PUSH32 0x416D6F756E74206D757374206265206C657373207468616E2077697468647261 PUSH1 0x0 DUP3 ADD MSTORE PUSH32 0x7761626C6520616D6F756E740000000000000000000000000000000000000000 PUSH1 0x20 DUP3 ADD MSTORE POP JUMP JUMPDEST PUSH1 0x0 PUSH2 0x3A67 PUSH1 0x2C DUP4 PUSH2 0x398E JUMP JUMPDEST SWAP2 POP PUSH2 0x3A72 DUP3 PUSH2 0x3A0B JUMP JUMPDEST PUSH1 0x40 DUP3 ADD SWAP1 POP SWAP2 SWAP1 POP JUMP JUMPDEST PUSH1 0x0 PUSH1 0x20 DUP3 ADD SWAP1 POP DUP2 DUP2 SUB PUSH1 0x0 DUP4 ADD MSTORE PUSH2 0x3A96 DUP2 PUSH2 0x3A5A JUMP JUMPDEST SWAP1 POP SWAP2 SWAP1 POP JUMP JUMPDEST PUSH1 0x0 PUSH1 0x40 DUP3 ADD SWAP1 POP PUSH2 0x3AB2 PUSH1 0x0 DUP4 ADD DUP6 PUSH2 0x38AE JUMP JUMPDEST PUSH2 0x3ABF PUSH1 0x20 DUP4 ADD DUP5 PUSH2 0x37CB JUMP JUMPDEST SWAP4 SWAP3 POP POP POP JUMP JUMPDEST PUSH1 0x0 DUP2 ISZERO ISZERO SWAP1 POP SWAP2 SWAP1 POP JUMP JUMPDEST PUSH2 0x3ADB DUP2 PUSH2 0x3AC6 JUMP JUMPDEST DUP2 EQ PUSH2 0x3AE6 JUMPI PUSH1 0x0 DUP1 REVERT JUMPDEST POP JUMP JUMPDEST PUSH1 0x0 DUP2 MLOAD SWAP1 POP PUSH2 0x3AF8 DUP2 PUSH2 0x3AD2 JUMP JUMPDEST SWAP3 SWAP2 POP POP JUMP JUMPDEST PUSH1 0x0 PUSH1 0x20 DUP3 DUP5 SUB SLT ISZERO PUSH2 0x3B14 JUMPI PUSH2 0x3B13 PUSH2 0x3731 JUMP JUMPDEST JUMPDEST PUSH1 0x0 PUSH2 0x3B22 DUP5 DUP3 DUP6 ADD PUSH2 0x3AE9 JUMP JUMPDEST SWAP2 POP POP SWAP3 SWAP2 POP POP JUMP JUMPDEST PUSH32 0x4E487B7100000000000000000000000000000000000000000000000000000000 PUSH1 0x0 MSTORE PUSH1 0x32 PUSH1 0x4 MSTORE PUSH1 0x24 PUSH1 0x0 REVERT JUMPDEST PUSH32 0x4E487B7100000000000000000000000000000000000000000000000000000000 PUSH1 0x0 MSTORE PUSH1 0x11 PUSH1 0x4 MSTORE PUSH1 0x24 PUSH1 0x0 REVERT JUMPDEST PUSH1 0x0 PUSH2 0x3B94 DUP3 PUSH2 0x37C1 JUMP JUMPDEST SWAP2 POP PUSH2 0x3B9F DUP4 PUSH2 0x37C1 JUMP JUMPDEST SWAP3 POP DUP3 DUP3 SUB SWAP1 POP DUP2 DUP2 GT ISZERO PUSH2 0x3BB7 JUMPI PUSH2 0x3BB6 PUSH2 0x3B5A JUMP JUMPDEST JUMPDEST SWAP3 SWAP2 POP POP JUMP JUMPDEST PUSH1 0x0 PUSH2 0x3BC8 DUP3 PUSH2 0x37C1 JUMP JUMPDEST SWAP2 POP PUSH2 0x3BD3 DUP4 PUSH2 0x37C1 JUMP JUMPDEST SWAP3 POP DUP3 DUP3 ADD SWAP1 POP DUP1 DUP3 GT ISZERO PUSH2 0x3BEB JUMPI PUSH2 0x3BEA PUSH2 0x3B5A JUMP JUMPDEST JUMPDEST SWAP3 SWAP2 POP POP JUMP JUMPDEST PUSH1 0x0 PUSH2 0x3BFC DUP3 PUSH2 0x37C1 JUMP JUMPDEST SWAP2 POP PUSH32 0xFFFFFFFFFFFFFFFFFFFFFFFFFFFFFFFFFFFFFFFFFFFFFFFFFFFFFFFFFFFFFFFF DUP3 SUB PUSH2 0x3C2E JUMPI PUSH2 0x3C2D PUSH2 0x3B5A JUMP JUMPDEST JUMPDEST PUSH1 0x1 DUP3 ADD SWAP1 POP SWAP2 SWAP1 POP JUMP JUMPDEST PUSH1 0x0 DUP2 MLOAD SWAP1 POP PUSH2 0x3C48 DUP2 PUSH2 0x3811 JUMP JUMPDEST SWAP3 SWAP2 POP POP JUMP JUMPDEST PUSH1 0x0 PUSH1 0x20 DUP3 DUP5 SUB SLT ISZERO PUSH2 0x3C64 JUMPI PUSH2 0x3C63 PUSH2 0x3731 JUMP JUMPDEST JUMPDEST PUSH1 0x0 PUSH2 0x3C72 DUP5 DUP3 DUP6 ADD PUSH2 0x3C39 JUMP JUMPDEST SWAP2 POP POP SWAP3 SWAP2 POP POP JUMP JUMPDEST PUSH1 0x0 PUSH2 0x3C86 DUP3 PUSH2 0x37C1 JUMP JUMPDEST SWAP2 POP PUSH2 0x3C91 DUP4 PUSH2 0x37C1 JUMP JUMPDEST SWAP3 POP DUP3 DUP3 MUL PUSH2 0x3C9F DUP2 PUSH2 0x37C1 JUMP JUMPDEST SWAP2 POP DUP3 DUP3 DIV DUP5 EQ DUP4 ISZERO OR PUSH2 0x3CB6 JUMPI PUSH2 0x3CB5 PUSH2 0x3B5A JUMP JUMPDEST JUMPDEST POP SWAP3 SWAP2 POP POP JUMP JUMPDEST PUSH32 0x4E487B7100000000000000000000000000000000000000000000000000000000 PUSH1 0x0 MSTORE PUSH1 0x12 PUSH1 0x4 MSTORE PUSH1 0x24 PUSH1 0x0 REVERT JUMPDEST PUSH1 0x0 PUSH2 0x3CF7 DUP3 PUSH2 0x37C1 JUMP JUMPDEST SWAP2 POP PUSH2 0x3D02 DUP4 PUSH2 0x37C1 JUMP JUMPDEST SWAP3 POP DUP3 PUSH2 0x3D12 JUMPI PUSH2 0x3D11 PUSH2 0x3CBD JUMP JUMPDEST JUMPDEST DUP3 DUP3 DIV SWAP1 POP SWAP3 SWAP2 POP POP JUMP JUMPDEST PUSH1 0x0 PUSH1 0x60 DUP3 ADD SWAP1 POP PUSH2 0x3D32 PUSH1 0x0 DUP4 ADD DUP7 PUSH2 0x38AE JUMP JUMPDEST PUSH2 0x3D3F PUSH1 0x20 DUP4 ADD DUP6 PUSH2 0x38AE JUMP JUMPDEST PUSH2 0x3D4C PUSH1 0x40 DUP4 ADD DUP5 PUSH2 0x37CB JUMP JUMPDEST SWAP5 SWAP4 POP POP POP POP JUMP JUMPDEST PUSH32 0x4F776E61626C653A206E6577206F776E657220697320746865207A65726F2061 PUSH1 0x0 DUP3 ADD MSTORE PUSH32 0x6464726573730000000000000000000000000000000000000000000000000000 PUSH1 0x20 DUP3 ADD MSTORE POP JUMP JUMPDEST PUSH1 0x0 PUSH2 0x3DB0 PUSH1 0x26 DUP4 PUSH2 0x398E JUMP JUMPDEST SWAP2 POP PUSH2 0x3DBB DUP3 PUSH2 0x3D54 JUMP JUMPDEST PUSH1 0x40 DUP3 ADD SWAP1 POP SWAP2 SWAP1 POP JUMP JUMPDEST PUSH1 0x0 PUSH1 0x20 DUP3 ADD SWAP1 POP DUP2 DUP2 SUB PUSH1 0x0 DUP4 ADD MSTORE PUSH2 0x3DDF DUP2 PUSH2 0x3DA3 JUMP JUMPDEST SWAP1 POP SWAP2 SWAP1 POP JUMP JUMPDEST PUSH32 0x4F776E61626C653A2063616C6C6572206973206E6F7420746865206F776E6572 PUSH1 0x0 DUP3 ADD MSTORE POP JUMP JUMPDEST PUSH1 0x0 PUSH2 0x3E1C PUSH1 0x20 DUP4 PUSH2 0x398E JUMP JUMPDEST SWAP2 POP PUSH2 0x3E27 DUP3 PUSH2 0x3DE6 JUMP JUMPDEST PUSH1 0x20 DUP3 ADD SWAP1 POP SWAP2 SWAP1 POP JUMP JUMPDEST PUSH1 0x0 PUSH1 0x20 DUP3 ADD SWAP1 POP DUP2 DUP2 SUB PUSH1 0x0 DUP4 ADD MSTORE PUSH2 0x3E4B DUP2 PUSH2 0x3E0F JUMP JUMPDEST SWAP1 POP SWAP2 SWAP1 POP JUMP INVALID LOG2 PUSH5 0x6970667358 0x22 SLT KECCAK256 LOG2 PUSH20 0x243E256902046F19C0808F1FEA45035FAEF720AF BLOCKHASH PUSH25 0x87B7E01E2632877D64736F6C63430008120033000000000000 "},"methodIdentifiers":{"accReward1PerShare()":"532a6159","accReward2PerShare()":"5a98674b","claim()":"4e71d92d","deposit(uint256)":"b6b55f25","depositFee()":"67a52793","getFundInfo(address)":"3d835e01","lastRewardBlock()":"a9f8d181","lockPeriod()":"3fd8b02f","owner()":"8da5cb5b","pendingReward(address)":"f40f0f52","renounceOwnership()":"715018a6","reward1PerBlock()":"a36e8600","reward2PerBlock()":"ea02b0e5","rewardToken1()":"6f28d688","rewardToken2()":"d61a47f1","stakingToken()":"72f702f3","totalStaked()":"817b1cd2","transferOwnership(address)":"f2fde38b","treasury()":"61d027b3","update()":"a2e62045","userInfo(address)":"1959a002","withdraw(uint256)":"2e1a7d4d"}}}}}