{"contracts/FarmingYield.sol":{"FarmingYield":{"abi":[{"inputs":[{"internalType":"contract IERC20","name":"_stakingToken","type":"address"},{"internalType":"contract ERC20Mock","name":"_rewardToken1","type":"address"},{"internalType":"contract ERC20Mock","name":"_rewardToken2","type":"address"},{"internalType":"uint256","name":"_depositFee","type":"uint256"},{"internalType":"address","name":"_treasury","type":"address"},{"internalType":"uint256","name":"_reward1PerBlock","type":"uint256"},{"internalType":"uint256","name":"_reward2PerBlock","type":"uint256"}],"stateMutability":"nonpayable","type":"constructor"},{"anonymous":false,"inputs":[{"indexed":true,"internalType":"address","name":"user","type":"address"},{"indexed":false,"internalType":"uint256","name":"amount1","type":"uint256"},{"indexed":false,"internalType":"uint256","name":"amount2","type":"uint256"}],"name":"Claim","type":"event"},{"anonymous":false,"inputs":[{"indexed":true,"internalType":"address","name":"user","type":"address"},{"indexed":false,"internalType":"uint256","name":"amount","type":"uint256"}],"name":"Deposit","type":"event"},{"anonymous":false,"inputs":[{"indexed":true,"internalType":"address","name":"previousOwner","type":"address"},{"indexed":true,"internalType":"address","name":"newOwner","type":"address"}],"name":"OwnershipTransferred","type":"event"},{"anonymous":false,"inputs":[{"indexed":true,"internalType":"address","name":"user","type":"address"},{"indexed":false,"internalType":"uint256","name":"amount","type":"uint256"}],"name":"Withdraw","type":"event"},{"inputs":[],"name":"accReward1PerShare","outputs":[{"internalType":"uint256","name":"","type":"uint256"}],"stateMutability":"view","type":"function"},{"inputs":[],"name":"accReward2PerShare","outputs":[{"internalType":"uint256","name":"","type":"uint256"}],"stateMutability":"view","type":"function"},{"inputs":[],"name":"claim","outputs":[],"stateMutability":"nonpayable","type":"function"},{"inputs":[{"internalType":"uint256","name":"amount","type":"uint256"}],"name":"deposit","outputs":[],"stateMutability":"nonpayable","type":"function"},{"inputs":[],"name":"depositFee","outputs":[{"internalType":"uint256","name":"","type":"uint256"}],"stateMutability":"view","type":"function"},{"inputs":[{"internalType":"address","name":"","type":"address"}],"name":"lastBlockTimeStamp","outputs":[{"internalType":"uint256","name":"","type":"uint256"}],"stateMutability":"view","type":"function"},{"inputs":[],"name":"lastRewardBlock","outputs":[{"internalType":"uint256","name":"","type":"uint256"}],"stateMutability":"view","type":"function"},{"inputs":[],"name":"lockPeriod","outputs":[{"internalType":"uint256","name":"","type":"uint256"}],"stateMutability":"view","type":"function"},{"inputs":[],"name":"owner","outputs":[{"internalType":"address","name":"","type":"address"}],"stateMutability":"view","type":"function"},{"inputs":[{"internalType":"address","name":"_user","type":"address"}],"name":"pendingReward","outputs":[{"internalType":"uint256","name":"","type":"uint256"},{"internalType":"uint256","name":"","type":"uint256"}],"stateMutability":"view","type":"function"},{"inputs":[],"name":"renounceOwnership","outputs":[],"stateMutability":"nonpayable","type":"function"},{"inputs":[],"name":"reward1PerBlock","outputs":[{"internalType":"uint256","name":"","type":"uint256"}],"stateMutability":"view","type":"function"},{"inputs":[],"name":"reward2PerBlock","outputs":[{"internalType":"uint256","name":"","type":"uint256"}],"stateMutability":"view","type":"function"},{"inputs":[],"name":"rewardToken1","outputs":[{"internalType":"contract ERC20Mock","name":"","type":"address"}],"stateMutability":"view","type":"function"},{"inputs":[],"name":"rewardToken2","outputs":[{"internalType":"contract ERC20Mock","name":"","type":"address"}],"stateMutability":"view","type":"function"},{"inputs":[],"name":"stakingToken","outputs":[{"internalType":"contract IERC20","name":"","type":"address"}],"stateMutability":"view","type":"function"},{"inputs":[],"name":"totalStaked","outputs":[{"internalType":"uint256","name":"","type":"uint256"}],"stateMutability":"view","type":"function"},{"inputs":[{"internalType":"address","name":"newOwner","type":"address"}],"name":"transferOwnership","outputs":[],"stateMutability":"nonpayable","type":"function"},{"inputs":[],"name":"treasury","outputs":[{"internalType":"address","name":"","type":"address"}],"stateMutability":"view","type":"function"},{"inputs":[],"name":"update","outputs":[],"stateMutability":"nonpayable","type":"function"},{"inputs":[{"internalType":"address","name":"","type":"address"}],"name":"userInfo","outputs":[{"internalType":"uint256","name":"amount","type":"uint256"},{"internalType":"uint256","name":"reward1Debt","type":"uint256"},{"internalType":"uint256","name":"reward2Debt","type":"uint256"}],"stateMutability":"view","type":"function"},{"inputs":[{"internalType":"uint256","name":"amount","type":"uint256"}],"name":"withdraw","outputs":[],"stateMutability":"nonpayable","type":"function"}],"evm":{"bytecode":{"linkReferences":{},"object":"608060405262278d006006553480156200001857600080fd5b50604051620041813803806200418183398181016040528101906200003e91906200076d565b6200005e620000526200056f60201b60201c565b6200057760201b60201c565b620000927f887f7096c30c157cdb4f69a4b6b817987bf36fed8dff2134673775203d773a5f60001b6200063b60201b60201c565b620000c67f9a104c6bfad03c49f6ad010551c6ff7125567cf32ca80d26053270d1d1e6719f60001b6200063b60201b60201c565b620000fa7f55f3fad067a2c6ff868ff175923f3f247b02d404bc9d72f5e7622b40244dcc3d60001b6200063b60201b60201c565b86600160006101000a81548173ffffffffffffffffffffffffffffffffffffffff021916908373ffffffffffffffffffffffffffffffffffffffff1602179055506200016f7f542537ca2f852b02b46512f3966bb6079a7d732fa4b40bdae2220a71498177ac60001b6200063b60201b60201c565b620001a37fc1f38d698352ebe17ec6ac1716e9bbab2a91824d6a3a689efdf49da2a66a7c6f60001b6200063b60201b60201c565b85600260006101000a81548173ffffffffffffffffffffffffffffffffffffffff021916908373ffffffffffffffffffffffffffffffffffffffff160217905550620002187f7ac50cbf99b7024ef0b652278b856aa52e111979ca6ed886641746931acab8f460001b6200063b60201b60201c565b6200024c7f3a5e32d57a79f78bd74a94cc20a47091828e2aa34f028532a86aebd1f6c0a0bd60001b6200063b60201b60201c565b84600360006101000a81548173ffffffffffffffffffffffffffffffffffffffff021916908373ffffffffffffffffffffffffffffffffffffffff160217905550620002c17f0338dccd554875f2d2c0273d290aa956d8c237698e114a22e6475007c14d720f60001b6200063b60201b60201c565b620002f57fd25a2387189287666594a61e640ac1b5752485741583ece2d84f6800685cca6a60001b6200063b60201b60201c565b83600481905550620003307fa30653b9aa803438ce1a51dd9f84443694dc566d935e6a5a9bec49ae94f494e160001b6200063b60201b60201c565b620003647f1980c662127209250adcb64797de322d35b9d8bdf672b31ca7a558913e16593560001b6200063b60201b60201c565b82600960006101000a81548173ffffffffffffffffffffffffffffffffffffffff021916908373ffffffffffffffffffffffffffffffffffffffff160217905550620003d97f68b6bb0595daef2d0da06d2e574516473a2e5859de8fddaad4c2d112b224bced60001b6200063b60201b60201c565b6200040d7f19f6a754c489f4d425c9158e220d3e2197354e838618f12744776dcc93df6d7060001b6200063b60201b60201c565b81600781905550620004487f020a159f8be6f0da89576d293395c0228c7ca8fe4991a844bdfe3131ffc942a460001b6200063b60201b60201c565b6200047c7f0ff3f197ccf301833f632804fc574b60c4a2ecfe4e99a73594a67ba5759c71fd60001b6200063b60201b60201c565b80600881905550620004b77fa4471539eb4eed1ad98a57d8f97473172bd5525d62e4088a2a2a59b28a34e1b560001b6200063b60201b60201c565b620004eb7f0db2f984831fbc46c19a502f23e081b07cab7d87028b567650b10ad5bcf2f31260001b6200063b60201b60201c565b43600a81905550620005267f9c9a8b93afc317fc1984520ed0cfd5f7453123177b45886f45ea8976192b33d760001b6200063b60201b60201c565b6200055a7fd9687f32ca530c12632b9a783176c1d13ca044afc0d8fbb1b00338b461d7181560001b6200063b60201b60201c565b6000600b819055505050505050505062000820565b600033905090565b60008060009054906101000a900473ffffffffffffffffffffffffffffffffffffffff169050816000806101000a81548173ffffffffffffffffffffffffffffffffffffffff021916908373ffffffffffffffffffffffffffffffffffffffff1602179055508173ffffffffffffffffffffffffffffffffffffffff168173ffffffffffffffffffffffffffffffffffffffff167f8be0079c531659141344cd1fd0a4f28419497f9722a3daafe3b4186f6b6457e060405160405180910390a35050565b50565b600080fd5b600073ffffffffffffffffffffffffffffffffffffffff82169050919050565b6000620006708262000643565b9050919050565b6000620006848262000663565b9050919050565b620006968162000677565b8114620006a257600080fd5b50565b600081519050620006b6816200068b565b92915050565b6000620006c98262000663565b9050919050565b620006db81620006bc565b8114620006e757600080fd5b50565b600081519050620006fb81620006d0565b92915050565b6000819050919050565b620007168162000701565b81146200072257600080fd5b50565b60008151905062000736816200070b565b92915050565b620007478162000663565b81146200075357600080fd5b50565b60008151905062000767816200073c565b92915050565b600080600080600080600060e0888a0312156200078f576200078e6200063e565b5b60006200079f8a828b01620006a5565b9750506020620007b28a828b01620006ea565b9650506040620007c58a828b01620006ea565b9550506060620007d88a828b0162000725565b9450506080620007eb8a828b0162000756565b93505060a0620007fe8a828b0162000725565b92505060c0620008118a828b0162000725565b91505092959891949750929550565b61395180620008306000396000f3fe608060405234801561001057600080fd5b50600436106101425760003560e01c8063817b1cd2116100b8578063b6b55f251161007c578063b6b55f25146102fd578063bb9ce3f614610319578063d61a47f114610349578063ea02b0e514610367578063f2fde38b14610385578063f40f0f52146103a157610142565b8063817b1cd21461027b5780638da5cb5b14610299578063a2e62045146102b7578063a36e8600146102c1578063a9f8d181146102df57610142565b80635a98674b1161010a5780635a98674b146101db57806361d027b3146101f957806367a52793146102175780636f28d68814610235578063715018a61461025357806372f702f31461025d57610142565b80631959a002146101475780632e1a7d4d146101795780633fd8b02f146101955780634e71d92d146101b3578063532a6159146101bd575b600080fd5b610161600480360381019061015c91906132d4565b6103d2565b6040516101709392919061331a565b60405180910390f35b610193600480360381019061018e919061337d565b6103fc565b005b61019d610fde565b6040516101aa91906133aa565b60405180910390f35b6101bb610fe4565b005b6101c5611824565b6040516101d291906133aa565b60405180910390f35b6101e361182a565b6040516101f091906133aa565b60405180910390f35b610201611830565b60405161020e91906133d4565b60405180910390f35b61021f611856565b60405161022c91906133aa565b60405180910390f35b61023d61185c565b60405161024a919061344e565b60405180910390f35b61025b611882565b005b610265611896565b604051610272919061348a565b60405180910390f35b6102836118bc565b60405161029091906133aa565b60405180910390f35b6102a16118c2565b6040516102ae91906133d4565b60405180910390f35b6102bf6118eb565b005b6102c9612043565b6040516102d691906133aa565b60405180910390f35b6102e7612049565b6040516102f491906133aa565b60405180910390f35b6103176004803603810190610312919061337d565b61204f565b005b610333600480360381019061032e91906132d4565b612e4d565b60405161034091906133aa565b60405180910390f35b610351612e65565b60405161035e919061344e565b60405180910390f35b61036f612e8b565b60405161037c91906133aa565b60405180910390f35b61039f600480360381019061039a91906132d4565b612e91565b005b6103bb60048036038101906103b691906132d4565b612f14565b6040516103c99291906134a5565b60405180910390f35b600d6020528060005260406000206000915090508060000154908060010154908060020154905083565b6104287f96bba9422d4a340c413cd7023e87ac5b73de0e37be734fd1317f8ad7414aaa5d60001b6130cc565b6104547faa4f334caaee5bbf1af1f10feea3a61f529f7bdb2d18c7fec86b805acf82abac60001b6130cc565b6104807fc9126346edad0a904d0b23fc64f5cf91bcfdc3099266f0dce7b839642f156d2b60001b6130cc565b6104ac7fde494527ec9bae5266ee9c30b9fcc19ecf22492c13e9eb1b284dff1caba1b62c60001b6130cc565b600081116104ef576040517f08c379a00000000000000000000000000000000000000000000000000000000081526004016104e69061352b565b60405180910390fd5b61051b7f14c3c620222db750dd784365de6058365ac40630ef3a6765e796f891e5eaa49c60001b6130cc565b6105477f84466732ffd1a19d0911c72e661ba9ca9919fbc92f2f86ebbaee5a5a1af8d6b860001b6130cc565b6105737f192051eff1ab0d855ae2ada8e1631835de04a398d6de903b38fa78102895072e60001b6130cc565b6000600d60003373ffffffffffffffffffffffffffffffffffffffff1673ffffffffffffffffffffffffffffffffffffffff16815260200190815260200160002090506105e27f8bdf77f806c3927f363d49d9163a9f7c5f79ed94c13dd10dbdfeacff84608dbd60001b6130cc565b61060e7ff3cb5a2ef2ac075b92713b0382b3dcdb7d503beeb4beb7cf331d73ca18b24d1060001b6130cc565b61063a7fa039ac587199f19b58e752f990672e2ca90fc94d96302962c9085a7cb036bcf660001b6130cc565b62278d00600e60003373ffffffffffffffffffffffffffffffffffffffff1673ffffffffffffffffffffffffffffffffffffffff1681526020019081526020016000205442610689919061357a565b10156106ca576040517f08c379a00000000000000000000000000000000000000000000000000000000081526004016106c190613620565b60405180910390fd5b6106f67f2817315488bbe23455d6679b76e3295e3e3017628778fb01e445b5a2c2d0b80660001b6130cc565b6107227f5f82a00b33ff48a02d85963ae73025c8827a6d987377fb17f0a9e9fb92f8ca9560001b6130cc565b61074e7f05c7c29ebd37e1748bdea04b1af60d83c1c2d627361e7a6208e13200e680522260001b6130cc565b6107566118eb565b6107827f3e5f465e6474ab49f2581b8c5780a544c5128133a64739873e789adbb7cbfb7460001b6130cc565b6107ae7f24a9f875dea45b362033ffeb5e26cda7dc1ca54c018cfe7845c4494f03c19cdf60001b6130cc565b6000806107ba33612f14565b915091506107ea7fd1f44700fbee67ff8e8f1b014356906d3102cb1c7d823dd51311895ee22692ae60001b6130cc565b6108167fd1397f9b9a0be6c498bf8ea7ce893873b4830bee1b5dff4f73077ba30deca86b60001b6130cc565b600260009054906101000a900473ffffffffffffffffffffffffffffffffffffffff1673ffffffffffffffffffffffffffffffffffffffff1663a9059cbb600960009054906101000a900473ffffffffffffffffffffffffffffffffffffffff1661089e6064610890600a886130cf90919063ffffffff16565b6130e590919063ffffffff16565b6040518363ffffffff1660e01b81526004016108bb929190613640565b6020604051808303816000875af11580156108da573d6000803e3d6000fd5b505050506040513d601f19601f820116820180604052508101906108fe91906136a1565b5061092b7fd03ff56cec7f6b5f3f7265844d2b70c18eed5c30e7b63492d31dfed69eea559860001b6130cc565b6109577f672fd0ab4bc89b069f4692cde2491074048daf3e553b04fb7d4a18c192446aba60001b6130cc565b600360009054906101000a900473ffffffffffffffffffffffffffffffffffffffff1673ffffffffffffffffffffffffffffffffffffffff1663a9059cbb600960009054906101000a900473ffffffffffffffffffffffffffffffffffffffff166109df60646109d1600a876130cf90919063ffffffff16565b6130e590919063ffffffff16565b6040518363ffffffff1660e01b81526004016109fc929190613640565b6020604051808303816000875af1158015610a1b573d6000803e3d6000fd5b505050506040513d601f19601f82011682018060405250810190610a3f91906136a1565b50610a6c7f6dd80a224c51ad685ec31e7b524b9ff16eefdd770a27f64eddb55adad018c72360001b6130cc565b610a987ffd129554d70739fd3891a031997ed5036052c7a6b3599fc5e4e294d44d6a517260001b6130cc565b600260009054906101000a900473ffffffffffffffffffffffffffffffffffffffff1673ffffffffffffffffffffffffffffffffffffffff1663a9059cbb33610b10610b016064610af3600a896130cf90919063ffffffff16565b6130e590919063ffffffff16565b866130fb90919063ffffffff16565b6040518363ffffffff1660e01b8152600401610b2d929190613640565b6020604051808303816000875af1158015610b4c573d6000803e3d6000fd5b505050506040513d601f19601f82011682018060405250810190610b7091906136a1565b50610b9d7fe7af1e2848757c47b56fb5d50da9d5f684e712fbdf0dbfca5c2a50298194c8b060001b6130cc565b610bc97fd4829fa3790aeebcb5696989274df5ad0ed2c5f10466762ce9eefdfebd1d2dd360001b6130cc565b600360009054906101000a900473ffffffffffffffffffffffffffffffffffffffff1673ffffffffffffffffffffffffffffffffffffffff1663a9059cbb33610c41610c326064610c24600a886130cf90919063ffffffff16565b6130e590919063ffffffff16565b856130fb90919063ffffffff16565b6040518363ffffffff1660e01b8152600401610c5e929190613640565b6020604051808303816000875af1158015610c7d573d6000803e3d6000fd5b505050506040513d601f19601f82011682018060405250810190610ca191906136a1565b50610cce7fbb8fb28356d13e5a235179052300fddb14861937edeba85602f7c3e9f1c6cbf560001b6130cc565b610cfa7f51f32e16a46d80392b4e81b92e0213f710ddcd6bf1159adb31671e1accf5c45760001b6130cc565b610d118484600001546130fb90919063ffffffff16565b8360000181905550610d457ff69fe8c63116112008627e79c413b0d15b821cbad83b74695da95169b44005e760001b6130cc565b610d717f018b964d70f48adef35e772c8068317f5952f38305763b5ce54726800a285cec60001b6130cc565b610da164e8d4a51000610d93600b5486600001546130cf90919063ffffffff16565b6130e590919063ffffffff16565b8360010181905550610dd57f7444a57c42fcc55b96bdb388d0ce2a5484f7d66351321158d6945958a796996b60001b6130cc565b610e017fd4718fea819d33f51a51c3078c228e3177bd575001a915c119f2e94211ee8f8a60001b6130cc565b610e3164e8d4a51000610e23600c5486600001546130cf90919063ffffffff16565b6130e590919063ffffffff16565b8360020181905550610e657f9ae69ff15a591c405925ce5bb3e7d8dc064065a9ecf75a152f613e6d9b80166760001b6130cc565b610e917fdbb63cb171628a98c512be3b0392afefd60dd83362e8d7e06bfe373d64d1ae7b60001b6130cc565b600160009054906101000a900473ffffffffffffffffffffffffffffffffffffffff1673ffffffffffffffffffffffffffffffffffffffff1663a9059cbb33866040518363ffffffff1660e01b8152600401610eee929190613640565b6020604051808303816000875af1158015610f0d573d6000803e3d6000fd5b505050506040513d601f19601f82011682018060405250810190610f3191906136a1565b50610f5e7f68ecabdc875cbe98ec19df423b1c9ddde574cd67454794d58601a1bbc70692f160001b6130cc565b610f8a7fc852c7da49ecec354fea50b2ae052f574f35b518823464846892b83295a5812160001b6130cc565b3373ffffffffffffffffffffffffffffffffffffffff167f884edad9ce6fa2440d8a54cc123490eb96d2768479d49ff9c7366125a942436485604051610fd091906133aa565b60405180910390a250505050565b60065481565b6110107f163efd95c0fcd01cf405ae9bf40c58831c73a6e5d1060a99d5dc0250282a791a60001b6130cc565b61103c7f46c38433840fec8e3f6c43710f4199170e9aed76453107b7d650a1e341d3070c60001b6130cc565b6110687f481cd945a98dbfd66268a82f3e06192c692cd1c5e805f2fec7fa3cdc88f9503760001b6130cc565b6000600d60003373ffffffffffffffffffffffffffffffffffffffff1673ffffffffffffffffffffffffffffffffffffffff16815260200190815260200160002090506110d77f71700352d026fd30c09c401c089300769eb9eed141f9c4cdce6304aa66864bf560001b6130cc565b6111037fecff65ab10f7dbd7886b785e37f4ca434d26f04ffd018a5865852a51b6ee3a9160001b6130cc565b61110b6118eb565b6111377f98658d91883bddb9c2b2d69e6b305ccc446532db482c7b6511c19201c32c120360001b6130cc565b6111637f5ada061393f614a3aef5b81c6688ce5da4f489821f61ba251a928b12a878d2ce60001b6130cc565b60008061116f33612f14565b9150915061119f7f47c27ef9bd39aef1ed7f11b202c1c4ce20e5f5906ab03656a5f6321b5c8d63a060001b6130cc565b6111cb7fb7e7005b2a03fc0df5c9ae3cac52a6a6fb746b489a2fa0d14064dd7c143f32af60001b6130cc565b600260009054906101000a900473ffffffffffffffffffffffffffffffffffffffff1673ffffffffffffffffffffffffffffffffffffffff1663a9059cbb600960009054906101000a900473ffffffffffffffffffffffffffffffffffffffff166112536064611245600a886130cf90919063ffffffff16565b6130e590919063ffffffff16565b6040518363ffffffff1660e01b8152600401611270929190613640565b6020604051808303816000875af115801561128f573d6000803e3d6000fd5b505050506040513d601f19601f820116820180604052508101906112b391906136a1565b506112e07fb2530e912c4bdd90bd450833304cf938b87df580ac0c20ba963fc9b3a545444560001b6130cc565b61130c7fd78940fbc99f24d70592360806257fcb31cb054c50bd9a9060c38a61af9ae65b60001b6130cc565b600360009054906101000a900473ffffffffffffffffffffffffffffffffffffffff1673ffffffffffffffffffffffffffffffffffffffff1663a9059cbb600960009054906101000a900473ffffffffffffffffffffffffffffffffffffffff166113946064611386600a876130cf90919063ffffffff16565b6130e590919063ffffffff16565b6040518363ffffffff1660e01b81526004016113b1929190613640565b6020604051808303816000875af11580156113d0573d6000803e3d6000fd5b505050506040513d601f19601f820116820180604052508101906113f491906136a1565b506114217fcf990b4cf8400ab73e95c06c2c739f574237cffd6a0b71afe993d00d40439b5260001b6130cc565b61144d7f5453dd67a714e96eaf36e746f2170f1456d82ca091d72f81e6b13a22e8f8b77d60001b6130cc565b600260009054906101000a900473ffffffffffffffffffffffffffffffffffffffff1673ffffffffffffffffffffffffffffffffffffffff1663a9059cbb336114c56114b660646114a8600a896130cf90919063ffffffff16565b6130e590919063ffffffff16565b866130fb90919063ffffffff16565b6040518363ffffffff1660e01b81526004016114e2929190613640565b6020604051808303816000875af1158015611501573d6000803e3d6000fd5b505050506040513d601f19601f8201168201806040525081019061152591906136a1565b506115527f52fd9a2328bd417843348ce0ec1f9ef5d78fc56a5b647bcfb5ff9b99c9811c3360001b6130cc565b61157e7f69e437e07a057b2bf0df0b7094b63057076d2b9c126ff1f436ad2eaca922ce1a60001b6130cc565b600360009054906101000a900473ffffffffffffffffffffffffffffffffffffffff1673ffffffffffffffffffffffffffffffffffffffff1663a9059cbb336115f66115e760646115d9600a886130cf90919063ffffffff16565b6130e590919063ffffffff16565b856130fb90919063ffffffff16565b6040518363ffffffff1660e01b8152600401611613929190613640565b6020604051808303816000875af1158015611632573d6000803e3d6000fd5b505050506040513d601f19601f8201168201806040525081019061165691906136a1565b506116837f1a3466a782673b46d00015ab0ca081a908214134462b8d579e5309f15d6531a960001b6130cc565b6116af7f0423a46eaf8b0e7dd3ea9421e66aebdbd5177e95b10be84c6e200531d961a5b360001b6130cc565b6116df64e8d4a510006116d1600b5486600001546130cf90919063ffffffff16565b6130e590919063ffffffff16565b83600101819055506117137ff5053479e6daeff425e47307fe25375b3ec2efd219e2f1ce56fbb62e21ac84ac60001b6130cc565b61173f7faa3af3b9313ec6b240611f8a742881a480bfee4b8066049cad41359af58dc83b60001b6130cc565b61176f64e8d4a51000611761600c5486600001546130cf90919063ffffffff16565b6130e590919063ffffffff16565b83600201819055506117a37fb5ca7f3a10510eb5ee1803fdf267d8bc5f19fe1eb496db4f533a99779806480260001b6130cc565b6117cf7f58180c371a7ed561c074362957b57664e01952fdade4c334ecb983d7e76a5f8860001b6130cc565b3373ffffffffffffffffffffffffffffffffffffffff167f34fcbac0073d7c3d388e51312faf357774904998eeb8fca628b9e6f65ee1cbf783836040516118179291906134a5565b60405180910390a2505050565b600b5481565b600c5481565b600960009054906101000a900473ffffffffffffffffffffffffffffffffffffffff1681565b60045481565b600260009054906101000a900473ffffffffffffffffffffffffffffffffffffffff1681565b61188a613111565b611894600061318f565b565b600160009054906101000a900473ffffffffffffffffffffffffffffffffffffffff1681565b60055481565b60008060009054906101000a900473ffffffffffffffffffffffffffffffffffffffff16905090565b6119177f8b33ca965cd84eee4905d32a563f7a33ce8d32b99acbe8dc704e1e52716511ef60001b6130cc565b6119437f78803c8fd0c21196192557b551a5e375e1dbc5180b55c0e46979e818c8e4bcd460001b6130cc565b61196f7f8bd9782457819c999f9a6021c97f817479458be995e57df0604017aac689c3b560001b6130cc565b6000600160009054906101000a900473ffffffffffffffffffffffffffffffffffffffff1673ffffffffffffffffffffffffffffffffffffffff166370a08231306040518263ffffffff1660e01b81526004016119cc91906133d4565b602060405180830381865afa1580156119e9573d6000803e3d6000fd5b505050506040513d601f19601f82011682018060405250810190611a0d91906136e3565b9050611a3b7f4ad08c7d54ce1af267eb5edc0ac476f7bc43f7d58e07f30d216bea2bb9290b1460001b6130cc565b611a677f73dfb2becb8b618ed1cac97f95c6332fea6cea5000a7c0ad55a4d792f363f33460001b6130cc565b60008103611b5857611a9b7fd0be4e7ee4019ccb656647d51c6f01ac5a4f5e81f6304c61cb5ea5afb276924360001b6130cc565b611ac77ffa2919cc9e514654f52331d030048061864326773cb527c8a64818968e985b7160001b6130cc565b611af37f371e545a68a42c958531e217894f7ad78349e056cfb2d4bbd12bb1596ea206c060001b6130cc565b43600a81905550611b267f98af5338dcc8f30ddecee444b0ec20e02f363874543d497e7a20dbcf580e382260001b6130cc565b611b527f96581c54aaa55e1ef43dd83e505b9b19719ab30e842119d0ede7160fd0cefcfb60001b6130cc565b50612041565b611b847fb86de7dbdcc786d026000b1980c9c1fa500965c8d3b16efc79fc2f27a3b564d360001b6130cc565b611bb07f4739afbff182d5ce458f3c1da943009c454923ccdee12f27bee1e93bd07c511060001b6130cc565b611bdc7f312231ac8ea0f2b11eb9c88694702945a760138cc3c70788f186038ea53270ed60001b6130cc565b6000611bf3600a54436130fb90919063ffffffff16565b9050611c217ff99a3be7b1a0bdec0d22d076b810f385612e4ec6edc87c2b52b5f32b9b282afc60001b6130cc565b611c4d7fddfe8749ef193468f20e46e3146aac76e36e9a4c094012bcbba9238e2116560d60001b6130cc565b6000611c64600754836130cf90919063ffffffff16565b9050611c927f0a2d92700008ce2096f8b770e4f67ac6bd2606c8b5349608bf358c2dde1d64a160001b6130cc565b611cbe7f7a3f41ca3de2c9bdf31b70f0bf1462e9422b540526d16b52ea3a25d97424fc9d60001b6130cc565b6000611cd5600854846130cf90919063ffffffff16565b9050611d037f9394140502e6d3c60bd5b382820e371ffd5a50459d5776e1bf757c210234072860001b6130cc565b611d2f7fe76e9241d23b8391fb238119803a39f06a50e7a11dee49e1e25c6828e33c65f460001b6130cc565b600260009054906101000a900473ffffffffffffffffffffffffffffffffffffffff1673ffffffffffffffffffffffffffffffffffffffff166340c10f1930846040518363ffffffff1660e01b8152600401611d8c929190613640565b600060405180830381600087803b158015611da657600080fd5b505af1158015611dba573d6000803e3d6000fd5b50505050611dea7f2e5418f9dbf448985e13b484b05ec761c8b1b1725739bf4437f4979154cb47a360001b6130cc565b611e167fa64e234ebe303898e7e89f4ad909a9111b9a25df82ed4e0e82e52ea5dbf4b78760001b6130cc565b600360009054906101000a900473ffffffffffffffffffffffffffffffffffffffff1673ffffffffffffffffffffffffffffffffffffffff166340c10f1930836040518363ffffffff1660e01b8152600401611e73929190613640565b600060405180830381600087803b158015611e8d57600080fd5b505af1158015611ea1573d6000803e3d6000fd5b50505050611ed17f5f50c97d463508e754dfbed200d2cf93f49acffe897c7a3971ccdb11895a144260001b6130cc565b611efd7f668e1a6affd172f0471b55084c9919e5f6dbde0347f0dabed018f4185fe4416160001b6130cc565b611f3b611f2a85611f1c64e8d4a51000866130cf90919063ffffffff16565b6130e590919063ffffffff16565b600b5461325390919063ffffffff16565b600b81905550611f6d7fe34ae497c447e275d8594aa1ace7f7e708dd6627d5bec1167185959e0fd96e2960001b6130cc565b611f997ffcd6f6e98932ba16a3f6f336c932d4c21326299dae2f2b1988a4f007e108f7e960001b6130cc565b611fd7611fc685611fb864e8d4a51000856130cf90919063ffffffff16565b6130e590919063ffffffff16565b600c5461325390919063ffffffff16565b600c819055506120097f8299e62e43cd85c93facf59ead9547841835e1b5d8494ab572ba5409d3e7e11a60001b6130cc565b6120357f3efd53f86eafd146a783e5a89b1c774fb66dfe423c59d1ce43aed7f60a8fd92a60001b6130cc565b43600a81905550505050505b565b60075481565b600a5481565b61207b7f7307cce97a14fdbb2cc6d37688404df6d94caf37c1276080c7023ad1406e628b60001b6130cc565b6120a77f13f9a961277fb7e241c3cb75f4d0e69f7a1c40ccb85adb4dbe393439b20dfb4f60001b6130cc565b6120d37fcac5483ccc48366c846c65a1fbec64aeaff122f5359d659ce5ba5ba28ddd729960001b6130cc565b6120ff7f51ab597ebf2b7d8b37177ac7005264b805f96c5ce6cbb1af9c946e4d91760c6760001b6130cc565b60008111612142576040517f08c379a00000000000000000000000000000000000000000000000000000000081526004016121399061352b565b60405180910390fd5b61216e7ff832d15e714aa0eca0213997867e773b6d294f0319f72463fbed104cf82dc10c60001b6130cc565b61219a7f593d851aa6efac8d7e5254179f98f25d30b44e867b5e865ea5999150cd8c508b60001b6130cc565b6121c67fbc39619d7299160282ba32b513aa436b750eaab30218aba7596177b449de669360001b6130cc565b6000600d60003373ffffffffffffffffffffffffffffffffffffffff1673ffffffffffffffffffffffffffffffffffffffff16815260200190815260200160002090506122357fc256e7cf217d23f2cbfc5f5700506db6928a88fad203c786551db12f88d67cbe60001b6130cc565b6122617f3be5eb80a6290ed5ee928e769c75b5921effd3c96830f917e6f67b52cb32c8e760001b6130cc565b6122696118eb565b6122957f0eab8462f5437c3c3d04f2ef61184e260497049bb2ce3e5bc0e54cf75287032a60001b6130cc565b6122c17f99b41c0ac38ea8262ea69fb8bcee34022dea7bb965aa4d8fb1ab5875d7ef3b7260001b6130cc565b60008160000154111561284d576122fa7f709e603ded08fc068ec8588b94105299a8f9c9b11a542ab1557da2ba55d32fba60001b6130cc565b6123267f1d7fce82212b9e7bebeecb5b7ed6179274e6e02b5f20bb565da055000803090b60001b6130cc565b6123527f71bebb7fffb3ddfdee9ed3ec856d5304e38b94b3f164745bb124bd136e11736060001b6130cc565b60008061235e33612f14565b9150915061238e7fbc902cf53a2c2b122686dc30d41e1afa5e07fb29fdcb329f62e54dd173a89b9f60001b6130cc565b6123ba7f45621b2018cc4fea3f0eae407ae5303b8f34b9bdf4f9b3f0724ac5ca8103185860001b6130cc565b600260009054906101000a900473ffffffffffffffffffffffffffffffffffffffff1673ffffffffffffffffffffffffffffffffffffffff1663a9059cbb600960009054906101000a900473ffffffffffffffffffffffffffffffffffffffff166124426064612434600a886130cf90919063ffffffff16565b6130e590919063ffffffff16565b6040518363ffffffff1660e01b815260040161245f929190613640565b6020604051808303816000875af115801561247e573d6000803e3d6000fd5b505050506040513d601f19601f820116820180604052508101906124a291906136a1565b506124cf7f52ee005e1ee526a685b84fbc76533f480b2d9a44c6553fee8a1c5bc28294c68e60001b6130cc565b6124fb7fd3a4c9eeee7a4d05cf5f9dfc8d434fb70c8c2b84ab676ecfc49b8ea0080d1a7c60001b6130cc565b600360009054906101000a900473ffffffffffffffffffffffffffffffffffffffff1673ffffffffffffffffffffffffffffffffffffffff1663a9059cbb600960009054906101000a900473ffffffffffffffffffffffffffffffffffffffff166125836064612575600a876130cf90919063ffffffff16565b6130e590919063ffffffff16565b6040518363ffffffff1660e01b81526004016125a0929190613640565b6020604051808303816000875af11580156125bf573d6000803e3d6000fd5b505050506040513d601f19601f820116820180604052508101906125e391906136a1565b506126107f997a9c10bd33ac6632c873fd31e623638c02c3bd4a764628a6dcbc3a33ccefdb60001b6130cc565b61263c7f1bce3b53465cd09baf2ad3530575c4e77837c4cab74b6dead610857391c10cc860001b6130cc565b600260009054906101000a900473ffffffffffffffffffffffffffffffffffffffff1673ffffffffffffffffffffffffffffffffffffffff1663a9059cbb336126b46126a56064612697600a896130cf90919063ffffffff16565b6130e590919063ffffffff16565b866130fb90919063ffffffff16565b6040518363ffffffff1660e01b81526004016126d1929190613640565b6020604051808303816000875af11580156126f0573d6000803e3d6000fd5b505050506040513d601f19601f8201168201806040525081019061271491906136a1565b506127417f31865ce197f4b0e6f26aceed32f175667a7e6fec6e166f41c8647715242e750360001b6130cc565b61276d7f45133126c09243e775cc5537981579beb452e42656a6e37ab28772e7aa36d6ec60001b6130cc565b600360009054906101000a900473ffffffffffffffffffffffffffffffffffffffff1673ffffffffffffffffffffffffffffffffffffffff1663a9059cbb336127e56127d660646127c8600a886130cf90919063ffffffff16565b6130e590919063ffffffff16565b856130fb90919063ffffffff16565b6040518363ffffffff1660e01b8152600401612802929190613640565b6020604051808303816000875af1158015612821573d6000803e3d6000fd5b505050506040513d601f19601f8201168201806040525081019061284591906136a1565b50505061287a565b6128797fe49b53985db78286ea2f5bcfa65b3c057b9fa85177ae9cc1034e9d34482d9f6760001b6130cc565b5b6128a67fcfe76be50b3ff5f60c86f16e7f2f04c1a85db63e7927d0d014e3a1f66784b43960001b6130cc565b6128d27ffd8c0ce99c9f7c2a4eb751c9529d203b671a9206938938d47a42ab621b63172060001b6130cc565b60006064600454846128e49190613710565b6128ee9190613781565b905061291c7ff66d83df518cd9e8c95d24234447943e589080742c9069a48e91d728c9b868ed60001b6130cc565b6129487f38d417ad5a3ee9342b32d4ecbfe22a3364af5fbfce152d9385e6a6794009efad60001b6130cc565b60008184612956919061357a565b90506129847f77e612d03bc4d72cf90c7c310cfee625a2db307762e9ae9795a616ed29fb538e60001b6130cc565b6129b07f53405e789bc265df0bace73d148890bb7fac4fd359327fa82be698f66e206f5b60001b6130cc565b600160009054906101000a900473ffffffffffffffffffffffffffffffffffffffff1673ffffffffffffffffffffffffffffffffffffffff166323b872dd3330876040518463ffffffff1660e01b8152600401612a0f939291906137b2565b6020604051808303816000875af1158015612a2e573d6000803e3d6000fd5b505050506040513d601f19601f82011682018060405250810190612a5291906136a1565b50612a7f7f538a8cc4ca32b29c8251ecec430852f96bb7e5786276c1fa8f2b6549942d9ce260001b6130cc565b612aab7f9d48e3e198d70f0e7a5adb8583e5d6a53832778c477dbd505d853c2bd2c3032260001b6130cc565b600160009054906101000a900473ffffffffffffffffffffffffffffffffffffffff1673ffffffffffffffffffffffffffffffffffffffff1663a9059cbb600960009054906101000a900473ffffffffffffffffffffffffffffffffffffffff16846040518363ffffffff1660e01b8152600401612b2a929190613640565b6020604051808303816000875af1158015612b49573d6000803e3d6000fd5b505050506040513d601f19601f82011682018060405250810190612b6d91906136a1565b50612b9a7f8dce8051929d4cc61d7c6aa747b53ae34776830b3de200b06fa017153f37cb1260001b6130cc565b612bc67f24e532ad4fc179bba85aedac039adf90ad2ddffdb7d4537bd78cfa209b79ccc160001b6130cc565b612bdd81846000015461325390919063ffffffff16565b8360000181905550612c117feccdbba6067a55711585414baf67ee516d400ebbbf3e1f504fa0146d459b437b60001b6130cc565b612c3d7f0e706aa8dfd078fc9d2a7fd516e07fccb98468cff7ea5d86c2d348135fba544a60001b6130cc565b612c6d64e8d4a51000612c5f600b5486600001546130cf90919063ffffffff16565b6130e590919063ffffffff16565b8360010181905550612ca17f441f9f04d9ea35119229033a22dd41b848b0a6c406238ef992bd33778ef0eba860001b6130cc565b612ccd7f415db434b90baf4582a9babb8a7e2469b4aaf705508dbbc2fd5bb5f0ef5ead3660001b6130cc565b612cfd64e8d4a51000612cef600c5486600001546130cf90919063ffffffff16565b6130e590919063ffffffff16565b8360020181905550612d317f912041ec950b16f0c18cf10df45f85fb885e94e071d18b3aeeb4270d8dedb87d60001b6130cc565b612d5d7f752afa3f1db3d6c3ddeb4543e506ec7d5419bce862a9b7c2d3dab679931414e960001b6130cc565b42600e60003373ffffffffffffffffffffffffffffffffffffffff1673ffffffffffffffffffffffffffffffffffffffff16815260200190815260200160002081905550612dcd7f9053a95e374859cb2ad2e637222ced51dcd732a4558bbded09ecbb11aae1e04c60001b6130cc565b612df97f2f38c748040d2a314f2ad913a7e7abe08ec8e3bb556b419694aba1353473f94a60001b6130cc565b3373ffffffffffffffffffffffffffffffffffffffff167fe1fffcc4923d04b559f4d29a8bfc6cda04eb5b0d3c460751c2402c5c5cc9109c82604051612e3f91906133aa565b60405180910390a250505050565b600e6020528060005260406000206000915090505481565b600360009054906101000a900473ffffffffffffffffffffffffffffffffffffffff1681565b60085481565b612e99613111565b600073ffffffffffffffffffffffffffffffffffffffff168173ffffffffffffffffffffffffffffffffffffffff1603612f08576040517f08c379a0000000000000000000000000000000000000000000000000000000008152600401612eff9061385b565b60405180910390fd5b612f118161318f565b50565b600080612f437fe471d89dba23ba6ab08915c725c864295e60bde82a19c2674da332a0540a756c60001b6130cc565b612f6f7f0acd70fd8d06675ead35628ff79d7da65822fef3bc8d55446c8aeaea872d4d6460001b6130cc565b612f9b7fd2f65ef0afa4cb06f78f11876250c4627e7ebd3b40c4c43fd8b9d6f7af5d134b60001b6130cc565b6000600d60008573ffffffffffffffffffffffffffffffffffffffff1673ffffffffffffffffffffffffffffffffffffffff168152602001908152602001600020905061300a7f4484eb503f91cdc044a4280a4c211968aac5046998d9b12384ec1b3b6c1415b660001b6130cc565b6130367f1bf65a14ab35b1ba0c2a3a5a509a4c8885b01ea9ae47d1f6cd51101ca4634fe160001b6130cc565b61307c816001015461306e64e8d4a51000613060600b5486600001546130cf90919063ffffffff16565b6130e590919063ffffffff16565b6130fb90919063ffffffff16565b6130c282600201546130b464e8d4a510006130a6600c5487600001546130cf90919063ffffffff16565b6130e590919063ffffffff16565b6130fb90919063ffffffff16565b9250925050915091565b50565b600081836130dd9190613710565b905092915050565b600081836130f39190613781565b905092915050565b60008183613109919061357a565b905092915050565b613119613269565b73ffffffffffffffffffffffffffffffffffffffff166131376118c2565b73ffffffffffffffffffffffffffffffffffffffff161461318d576040517f08c379a0000000000000000000000000000000000000000000000000000000008152600401613184906138c7565b60405180910390fd5b565b60008060009054906101000a900473ffffffffffffffffffffffffffffffffffffffff169050816000806101000a81548173ffffffffffffffffffffffffffffffffffffffff021916908373ffffffffffffffffffffffffffffffffffffffff1602179055508173ffffffffffffffffffffffffffffffffffffffff168173ffffffffffffffffffffffffffffffffffffffff167f8be0079c531659141344cd1fd0a4f28419497f9722a3daafe3b4186f6b6457e060405160405180910390a35050565b6000818361326191906138e7565b905092915050565b600033905090565b600080fd5b600073ffffffffffffffffffffffffffffffffffffffff82169050919050565b60006132a182613276565b9050919050565b6132b181613296565b81146132bc57600080fd5b50565b6000813590506132ce816132a8565b92915050565b6000602082840312156132ea576132e9613271565b5b60006132f8848285016132bf565b91505092915050565b6000819050919050565b61331481613301565b82525050565b600060608201905061332f600083018661330b565b61333c602083018561330b565b613349604083018461330b565b949350505050565b61335a81613301565b811461336557600080fd5b50565b60008135905061337781613351565b92915050565b60006020828403121561339357613392613271565b5b60006133a184828501613368565b91505092915050565b60006020820190506133bf600083018461330b565b92915050565b6133ce81613296565b82525050565b60006020820190506133e960008301846133c5565b92915050565b6000819050919050565b600061341461340f61340a84613276565b6133ef565b613276565b9050919050565b6000613426826133f9565b9050919050565b60006134388261341b565b9050919050565b6134488161342d565b82525050565b6000602082019050613463600083018461343f565b92915050565b60006134748261341b565b9050919050565b61348481613469565b82525050565b600060208201905061349f600083018461347b565b92915050565b60006040820190506134ba600083018561330b565b6134c7602083018461330b565b9392505050565b600082825260208201905092915050565b7f416d6f756e74206d7573742062652067726561746572207468616e2030000000600082015250565b6000613515601d836134ce565b9150613520826134df565b602082019050919050565b6000602082019050818103600083015261354481613508565b9050919050565b7f4e487b7100000000000000000000000000000000000000000000000000000000600052601160045260246000fd5b600061358582613301565b915061359083613301565b92508282039050818111156135a8576135a761354b565b5b92915050565b7f43616e206e6f7420776974686472617720696e206c6f636b5f706572696f642060008201527f74696d6500000000000000000000000000000000000000000000000000000000602082015250565b600061360a6024836134ce565b9150613615826135ae565b604082019050919050565b60006020820190508181036000830152613639816135fd565b9050919050565b600060408201905061365560008301856133c5565b613662602083018461330b565b9392505050565b60008115159050919050565b61367e81613669565b811461368957600080fd5b50565b60008151905061369b81613675565b92915050565b6000602082840312156136b7576136b6613271565b5b60006136c58482850161368c565b91505092915050565b6000815190506136dd81613351565b92915050565b6000602082840312156136f9576136f8613271565b5b6000613707848285016136ce565b91505092915050565b600061371b82613301565b915061372683613301565b925082820261373481613301565b9150828204841483151761374b5761374a61354b565b5b5092915050565b7f4e487b7100000000000000000000000000000000000000000000000000000000600052601260045260246000fd5b600061378c82613301565b915061379783613301565b9250826137a7576137a6613752565b5b828204905092915050565b60006060820190506137c760008301866133c5565b6137d460208301856133c5565b6137e1604083018461330b565b949350505050565b7f4f776e61626c653a206e6577206f776e657220697320746865207a65726f206160008201527f6464726573730000000000000000000000000000000000000000000000000000602082015250565b60006138456026836134ce565b9150613850826137e9565b604082019050919050565b6000602082019050818103600083015261387481613838565b9050919050565b7f4f776e61626c653a2063616c6c6572206973206e6f7420746865206f776e6572600082015250565b60006138b16020836134ce565b91506138bc8261387b565b602082019050919050565b600060208201905081810360008301526138e0816138a4565b9050919050565b60006138f282613301565b91506138fd83613301565b92508282019050808211156139155761391461354b565b5b9291505056fea2646970667358221220ecf3edb98c1a856f3754b18cf9da1d4802da4e149059af21d9a790d8c97de1a964736f6c63430008120033","opcodes":"PUSH1 0x80 PUSH1 0x40 MSTORE PUSH3 0x278D00 PUSH1 0x6 SSTORE CALLVALUE DUP1 ISZERO PUSH3 0x18 JUMPI PUSH1 0x0 DUP1 REVERT JUMPDEST POP PUSH1 0x40 MLOAD PUSH3 0x4181 CODESIZE SUB DUP1 PUSH3 0x4181 DUP4 CODECOPY DUP2 DUP2 ADD PUSH1 0x40 MSTORE DUP2 ADD SWAP1 PUSH3 0x3E SWAP2 SWAP1 PUSH3 0x76D JUMP JUMPDEST PUSH3 0x5E PUSH3 0x52 PUSH3 0x56F PUSH1 0x20 SHL PUSH1 0x20 SHR JUMP JUMPDEST PUSH3 0x577 PUSH1 0x20 SHL PUSH1 0x20 SHR JUMP JUMPDEST PUSH3 0x92 PUSH32 0x887F7096C30C157CDB4F69A4B6B817987BF36FED8DFF2134673775203D773A5F PUSH1 0x0 SHL PUSH3 0x63B PUSH1 0x20 SHL PUSH1 0x20 SHR JUMP JUMPDEST PUSH3 0xC6 PUSH32 0x9A104C6BFAD03C49F6AD010551C6FF7125567CF32CA80D26053270D1D1E6719F PUSH1 0x0 SHL PUSH3 0x63B PUSH1 0x20 SHL PUSH1 0x20 SHR JUMP JUMPDEST PUSH3 0xFA PUSH32 0x55F3FAD067A2C6FF868FF175923F3F247B02D404BC9D72F5E7622B40244DCC3D PUSH1 0x0 SHL PUSH3 0x63B PUSH1 0x20 SHL PUSH1 0x20 SHR JUMP JUMPDEST DUP7 PUSH1 0x1 PUSH1 0x0 PUSH2 0x100 EXP DUP2 SLOAD DUP2 PUSH20 0xFFFFFFFFFFFFFFFFFFFFFFFFFFFFFFFFFFFFFFFF MUL NOT AND SWAP1 DUP4 PUSH20 0xFFFFFFFFFFFFFFFFFFFFFFFFFFFFFFFFFFFFFFFF AND MUL OR SWAP1 SSTORE POP PUSH3 0x16F PUSH32 0x542537CA2F852B02B46512F3966BB6079A7D732FA4B40BDAE2220A71498177AC PUSH1 0x0 SHL PUSH3 0x63B PUSH1 0x20 SHL PUSH1 0x20 SHR JUMP JUMPDEST PUSH3 0x1A3 PUSH32 0xC1F38D698352EBE17EC6AC1716E9BBAB2A91824D6A3A689EFDF49DA2A66A7C6F PUSH1 0x0 SHL PUSH3 0x63B PUSH1 0x20 SHL PUSH1 0x20 SHR JUMP JUMPDEST DUP6 PUSH1 0x2 PUSH1 0x0 PUSH2 0x100 EXP DUP2 SLOAD DUP2 PUSH20 0xFFFFFFFFFFFFFFFFFFFFFFFFFFFFFFFFFFFFFFFF MUL NOT AND SWAP1 DUP4 PUSH20 0xFFFFFFFFFFFFFFFFFFFFFFFFFFFFFFFFFFFFFFFF AND MUL OR SWAP1 SSTORE POP PUSH3 0x218 PUSH32 0x7AC50CBF99B7024EF0B652278B856AA52E111979CA6ED886641746931ACAB8F4 PUSH1 0x0 SHL PUSH3 0x63B PUSH1 0x20 SHL PUSH1 0x20 SHR JUMP JUMPDEST PUSH3 0x24C PUSH32 0x3A5E32D57A79F78BD74A94CC20A47091828E2AA34F028532A86AEBD1F6C0A0BD PUSH1 0x0 SHL PUSH3 0x63B PUSH1 0x20 SHL PUSH1 0x20 SHR JUMP JUMPDEST DUP5 PUSH1 0x3 PUSH1 0x0 PUSH2 0x100 EXP DUP2 SLOAD DUP2 PUSH20 0xFFFFFFFFFFFFFFFFFFFFFFFFFFFFFFFFFFFFFFFF MUL NOT AND SWAP1 DUP4 PUSH20 0xFFFFFFFFFFFFFFFFFFFFFFFFFFFFFFFFFFFFFFFF AND MUL OR SWAP1 SSTORE POP PUSH3 0x2C1 PUSH32 0x338DCCD554875F2D2C0273D290AA956D8C237698E114A22E6475007C14D720F PUSH1 0x0 SHL PUSH3 0x63B PUSH1 0x20 SHL PUSH1 0x20 SHR JUMP JUMPDEST PUSH3 0x2F5 PUSH32 0xD25A2387189287666594A61E640AC1B5752485741583ECE2D84F6800685CCA6A PUSH1 0x0 SHL PUSH3 0x63B PUSH1 0x20 SHL PUSH1 0x20 SHR JUMP JUMPDEST DUP4 PUSH1 0x4 DUP2 SWAP1 SSTORE POP PUSH3 0x330 PUSH32 0xA30653B9AA803438CE1A51DD9F84443694DC566D935E6A5A9BEC49AE94F494E1 PUSH1 0x0 SHL PUSH3 0x63B PUSH1 0x20 SHL PUSH1 0x20 SHR JUMP JUMPDEST PUSH3 0x364 PUSH32 0x1980C662127209250ADCB64797DE322D35B9D8BDF672B31CA7A558913E165935 PUSH1 0x0 SHL PUSH3 0x63B PUSH1 0x20 SHL PUSH1 0x20 SHR JUMP JUMPDEST DUP3 PUSH1 0x9 PUSH1 0x0 PUSH2 0x100 EXP DUP2 SLOAD DUP2 PUSH20 0xFFFFFFFFFFFFFFFFFFFFFFFFFFFFFFFFFFFFFFFF MUL NOT AND SWAP1 DUP4 PUSH20 0xFFFFFFFFFFFFFFFFFFFFFFFFFFFFFFFFFFFFFFFF AND MUL OR SWAP1 SSTORE POP PUSH3 0x3D9 PUSH32 0x68B6BB0595DAEF2D0DA06D2E574516473A2E5859DE8FDDAAD4C2D112B224BCED PUSH1 0x0 SHL PUSH3 0x63B PUSH1 0x20 SHL PUSH1 0x20 SHR JUMP JUMPDEST PUSH3 0x40D PUSH32 0x19F6A754C489F4D425C9158E220D3E2197354E838618F12744776DCC93DF6D70 PUSH1 0x0 SHL PUSH3 0x63B PUSH1 0x20 SHL PUSH1 0x20 SHR JUMP JUMPDEST DUP2 PUSH1 0x7 DUP2 SWAP1 SSTORE POP PUSH3 0x448 PUSH32 0x20A159F8BE6F0DA89576D293395C0228C7CA8FE4991A844BDFE3131FFC942A4 PUSH1 0x0 SHL PUSH3 0x63B PUSH1 0x20 SHL PUSH1 0x20 SHR JUMP JUMPDEST PUSH3 0x47C PUSH32 0xFF3F197CCF301833F632804FC574B60C4A2ECFE4E99A73594A67BA5759C71FD PUSH1 0x0 SHL PUSH3 0x63B PUSH1 0x20 SHL PUSH1 0x20 SHR JUMP JUMPDEST DUP1 PUSH1 0x8 DUP2 SWAP1 SSTORE POP PUSH3 0x4B7 PUSH32 0xA4471539EB4EED1AD98A57D8F97473172BD5525D62E4088A2A2A59B28A34E1B5 PUSH1 0x0 SHL PUSH3 0x63B PUSH1 0x20 SHL PUSH1 0x20 SHR JUMP JUMPDEST PUSH3 0x4EB PUSH32 0xDB2F984831FBC46C19A502F23E081B07CAB7D87028B567650B10AD5BCF2F312 PUSH1 0x0 SHL PUSH3 0x63B PUSH1 0x20 SHL PUSH1 0x20 SHR JUMP JUMPDEST NUMBER PUSH1 0xA DUP2 SWAP1 SSTORE POP PUSH3 0x526 PUSH32 0x9C9A8B93AFC317FC1984520ED0CFD5F7453123177B45886F45EA8976192B33D7 PUSH1 0x0 SHL PUSH3 0x63B PUSH1 0x20 SHL PUSH1 0x20 SHR JUMP JUMPDEST PUSH3 0x55A PUSH32 0xD9687F32CA530C12632B9A783176C1D13CA044AFC0D8FBB1B00338B461D71815 PUSH1 0x0 SHL PUSH3 0x63B PUSH1 0x20 SHL PUSH1 0x20 SHR JUMP JUMPDEST PUSH1 0x0 PUSH1 0xB DUP2 SWAP1 SSTORE POP POP POP POP POP POP POP POP PUSH3 0x820 JUMP JUMPDEST PUSH1 0x0 CALLER SWAP1 POP SWAP1 JUMP JUMPDEST PUSH1 0x0 DUP1 PUSH1 0x0 SWAP1 SLOAD SWAP1 PUSH2 0x100 EXP SWAP1 DIV PUSH20 0xFFFFFFFFFFFFFFFFFFFFFFFFFFFFFFFFFFFFFFFF AND SWAP1 POP DUP2 PUSH1 0x0 DUP1 PUSH2 0x100 EXP DUP2 SLOAD DUP2 PUSH20 0xFFFFFFFFFFFFFFFFFFFFFFFFFFFFFFFFFFFFFFFF MUL NOT AND SWAP1 DUP4 PUSH20 0xFFFFFFFFFFFFFFFFFFFFFFFFFFFFFFFFFFFFFFFF AND MUL OR SWAP1 SSTORE POP DUP2 PUSH20 0xFFFFFFFFFFFFFFFFFFFFFFFFFFFFFFFFFFFFFFFF AND DUP2 PUSH20 0xFFFFFFFFFFFFFFFFFFFFFFFFFFFFFFFFFFFFFFFF AND PUSH32 0x8BE0079C531659141344CD1FD0A4F28419497F9722A3DAAFE3B4186F6B6457E0 PUSH1 0x40 MLOAD PUSH1 0x40 MLOAD DUP1 SWAP2 SUB SWAP1 LOG3 POP POP JUMP JUMPDEST POP JUMP JUMPDEST PUSH1 0x0 DUP1 REVERT JUMPDEST PUSH1 0x0 PUSH20 0xFFFFFFFFFFFFFFFFFFFFFFFFFFFFFFFFFFFFFFFF DUP3 AND SWAP1 POP SWAP2 SWAP1 POP JUMP JUMPDEST PUSH1 0x0 PUSH3 0x670 DUP3 PUSH3 0x643 JUMP JUMPDEST SWAP1 POP SWAP2 SWAP1 POP JUMP JUMPDEST PUSH1 0x0 PUSH3 0x684 DUP3 PUSH3 0x663 JUMP JUMPDEST SWAP1 POP SWAP2 SWAP1 POP JUMP JUMPDEST PUSH3 0x696 DUP2 PUSH3 0x677 JUMP JUMPDEST DUP2 EQ PUSH3 0x6A2 JUMPI PUSH1 0x0 DUP1 REVERT JUMPDEST POP JUMP JUMPDEST PUSH1 0x0 DUP2 MLOAD SWAP1 POP PUSH3 0x6B6 DUP2 PUSH3 0x68B JUMP JUMPDEST SWAP3 SWAP2 POP POP JUMP JUMPDEST PUSH1 0x0 PUSH3 0x6C9 DUP3 PUSH3 0x663 JUMP JUMPDEST SWAP1 POP SWAP2 SWAP1 POP JUMP JUMPDEST PUSH3 0x6DB DUP2 PUSH3 0x6BC JUMP JUMPDEST DUP2 EQ PUSH3 0x6E7 JUMPI PUSH1 0x0 DUP1 REVERT JUMPDEST POP JUMP JUMPDEST PUSH1 0x0 DUP2 MLOAD SWAP1 POP PUSH3 0x6FB DUP2 PUSH3 0x6D0 JUMP JUMPDEST SWAP3 SWAP2 POP POP JUMP JUMPDEST PUSH1 0x0 DUP2 SWAP1 POP SWAP2 SWAP1 POP JUMP JUMPDEST PUSH3 0x716 DUP2 PUSH3 0x701 JUMP JUMPDEST DUP2 EQ PUSH3 0x722 JUMPI PUSH1 0x0 DUP1 REVERT JUMPDEST POP JUMP JUMPDEST PUSH1 0x0 DUP2 MLOAD SWAP1 POP PUSH3 0x736 DUP2 PUSH3 0x70B JUMP JUMPDEST SWAP3 SWAP2 POP POP JUMP JUMPDEST PUSH3 0x747 DUP2 PUSH3 0x663 JUMP JUMPDEST DUP2 EQ PUSH3 0x753 JUMPI PUSH1 0x0 DUP1 REVERT JUMPDEST POP JUMP JUMPDEST PUSH1 0x0 DUP2 MLOAD SWAP1 POP PUSH3 0x767 DUP2 PUSH3 0x73C JUMP JUMPDEST SWAP3 SWAP2 POP POP JUMP JUMPDEST PUSH1 0x0 DUP1 PUSH1 0x0 DUP1 PUSH1 0x0 DUP1 PUSH1 0x0 PUSH1 0xE0 DUP9 DUP11 SUB SLT ISZERO PUSH3 0x78F JUMPI PUSH3 0x78E PUSH3 0x63E JUMP JUMPDEST JUMPDEST PUSH1 0x0 PUSH3 0x79F DUP11 DUP3 DUP12 ADD PUSH3 0x6A5 JUMP JUMPDEST SWAP8 POP POP PUSH1 0x20 PUSH3 0x7B2 DUP11 DUP3 DUP12 ADD PUSH3 0x6EA JUMP JUMPDEST SWAP7 POP POP PUSH1 0x40 PUSH3 0x7C5 DUP11 DUP3 DUP12 ADD PUSH3 0x6EA JUMP JUMPDEST SWAP6 POP POP PUSH1 0x60 PUSH3 0x7D8 DUP11 DUP3 DUP12 ADD PUSH3 0x725 JUMP JUMPDEST SWAP5 POP POP PUSH1 0x80 PUSH3 0x7EB DUP11 DUP3 DUP12 ADD PUSH3 0x756 JUMP JUMPDEST SWAP4 POP POP PUSH1 0xA0 PUSH3 0x7FE DUP11 DUP3 DUP12 ADD PUSH3 0x725 JUMP JUMPDEST SWAP3 POP POP PUSH1 0xC0 PUSH3 0x811 DUP11 DUP3 DUP12 ADD PUSH3 0x725 JUMP JUMPDEST SWAP2 POP POP SWAP3 SWAP6 SWAP9 SWAP2 SWAP5 SWAP8 POP SWAP3 SWAP6 POP JUMP JUMPDEST PUSH2 0x3951 DUP1 PUSH3 0x830 PUSH1 0x0 CODECOPY PUSH1 0x0 RETURN INVALID PUSH1 0x80 PUSH1 0x40 MSTORE CALLVALUE DUP1 ISZERO PUSH2 0x10 JUMPI PUSH1 0x0 DUP1 REVERT JUMPDEST POP PUSH1 0x4 CALLDATASIZE LT PUSH2 0x142 JUMPI PUSH1 0x0 CALLDATALOAD PUSH1 0xE0 SHR DUP1 PUSH4 0x817B1CD2 GT PUSH2 0xB8 JUMPI DUP1 PUSH4 0xB6B55F25 GT PUSH2 0x7C JUMPI DUP1 PUSH4 0xB6B55F25 EQ PUSH2 0x2FD JUMPI DUP1 PUSH4 0xBB9CE3F6 EQ PUSH2 0x319 JUMPI DUP1 PUSH4 0xD61A47F1 EQ PUSH2 0x349 JUMPI DUP1 PUSH4 0xEA02B0E5 EQ PUSH2 0x367 JUMPI DUP1 PUSH4 0xF2FDE38B EQ PUSH2 0x385 JUMPI DUP1 PUSH4 0xF40F0F52 EQ PUSH2 0x3A1 JUMPI PUSH2 0x142 JUMP JUMPDEST DUP1 PUSH4 0x817B1CD2 EQ PUSH2 0x27B JUMPI DUP1 PUSH4 0x8DA5CB5B EQ PUSH2 0x299 JUMPI DUP1 PUSH4 0xA2E62045 EQ PUSH2 0x2B7 JUMPI DUP1 PUSH4 0xA36E8600 EQ PUSH2 0x2C1 JUMPI DUP1 PUSH4 0xA9F8D181 EQ PUSH2 0x2DF JUMPI PUSH2 0x142 JUMP JUMPDEST DUP1 PUSH4 0x5A98674B GT PUSH2 0x10A JUMPI DUP1 PUSH4 0x5A98674B EQ PUSH2 0x1DB JUMPI DUP1 PUSH4 0x61D027B3 EQ PUSH2 0x1F9 JUMPI DUP1 PUSH4 0x67A52793 EQ PUSH2 0x217 JUMPI DUP1 PUSH4 0x6F28D688 EQ PUSH2 0x235 JUMPI DUP1 PUSH4 0x715018A6 EQ PUSH2 0x253 JUMPI DUP1 PUSH4 0x72F702F3 EQ PUSH2 0x25D JUMPI PUSH2 0x142 JUMP JUMPDEST DUP1 PUSH4 0x1959A002 EQ PUSH2 0x147 JUMPI DUP1 PUSH4 0x2E1A7D4D EQ PUSH2 0x179 JUMPI DUP1 PUSH4 0x3FD8B02F EQ PUSH2 0x195 JUMPI DUP1 PUSH4 0x4E71D92D EQ PUSH2 0x1B3 JUMPI DUP1 PUSH4 0x532A6159 EQ PUSH2 0x1BD JUMPI JUMPDEST PUSH1 0x0 DUP1 REVERT JUMPDEST PUSH2 0x161 PUSH1 0x4 DUP1 CALLDATASIZE SUB DUP2 ADD SWAP1 PUSH2 0x15C SWAP2 SWAP1 PUSH2 0x32D4 JUMP JUMPDEST PUSH2 0x3D2 JUMP JUMPDEST PUSH1 0x40 MLOAD PUSH2 0x170 SWAP4 SWAP3 SWAP2 SWAP1 PUSH2 0x331A JUMP JUMPDEST PUSH1 0x40 MLOAD DUP1 SWAP2 SUB SWAP1 RETURN JUMPDEST PUSH2 0x193 PUSH1 0x4 DUP1 CALLDATASIZE SUB DUP2 ADD SWAP1 PUSH2 0x18E SWAP2 SWAP1 PUSH2 0x337D JUMP JUMPDEST PUSH2 0x3FC JUMP JUMPDEST STOP JUMPDEST PUSH2 0x19D PUSH2 0xFDE JUMP JUMPDEST PUSH1 0x40 MLOAD PUSH2 0x1AA SWAP2 SWAP1 PUSH2 0x33AA JUMP JUMPDEST PUSH1 0x40 MLOAD DUP1 SWAP2 SUB SWAP1 RETURN JUMPDEST PUSH2 0x1BB PUSH2 0xFE4 JUMP JUMPDEST STOP JUMPDEST PUSH2 0x1C5 PUSH2 0x1824 JUMP JUMPDEST PUSH1 0x40 MLOAD PUSH2 0x1D2 SWAP2 SWAP1 PUSH2 0x33AA JUMP JUMPDEST PUSH1 0x40 MLOAD DUP1 SWAP2 SUB SWAP1 RETURN JUMPDEST PUSH2 0x1E3 PUSH2 0x182A JUMP JUMPDEST PUSH1 0x40 MLOAD PUSH2 0x1F0 SWAP2 SWAP1 PUSH2 0x33AA JUMP JUMPDEST PUSH1 0x40 MLOAD DUP1 SWAP2 SUB SWAP1 RETURN JUMPDEST PUSH2 0x201 PUSH2 0x1830 JUMP JUMPDEST PUSH1 0x40 MLOAD PUSH2 0x20E SWAP2 SWAP1 PUSH2 0x33D4 JUMP JUMPDEST PUSH1 0x40 MLOAD DUP1 SWAP2 SUB SWAP1 RETURN JUMPDEST PUSH2 0x21F PUSH2 0x1856 JUMP JUMPDEST PUSH1 0x40 MLOAD PUSH2 0x22C SWAP2 SWAP1 PUSH2 0x33AA JUMP JUMPDEST PUSH1 0x40 MLOAD DUP1 SWAP2 SUB SWAP1 RETURN JUMPDEST PUSH2 0x23D PUSH2 0x185C JUMP JUMPDEST PUSH1 0x40 MLOAD PUSH2 0x24A SWAP2 SWAP1 PUSH2 0x344E JUMP JUMPDEST PUSH1 0x40 MLOAD DUP1 SWAP2 SUB SWAP1 RETURN JUMPDEST PUSH2 0x25B PUSH2 0x1882 JUMP JUMPDEST STOP JUMPDEST PUSH2 0x265 PUSH2 0x1896 JUMP JUMPDEST PUSH1 0x40 MLOAD PUSH2 0x272 SWAP2 SWAP1 PUSH2 0x348A JUMP JUMPDEST PUSH1 0x40 MLOAD DUP1 SWAP2 SUB SWAP1 RETURN JUMPDEST PUSH2 0x283 PUSH2 0x18BC JUMP JUMPDEST PUSH1 0x40 MLOAD PUSH2 0x290 SWAP2 SWAP1 PUSH2 0x33AA JUMP JUMPDEST PUSH1 0x40 MLOAD DUP1 SWAP2 SUB SWAP1 RETURN JUMPDEST PUSH2 0x2A1 PUSH2 0x18C2 JUMP JUMPDEST PUSH1 0x40 MLOAD PUSH2 0x2AE SWAP2 SWAP1 PUSH2 0x33D4 JUMP JUMPDEST PUSH1 0x40 MLOAD DUP1 SWAP2 SUB SWAP1 RETURN JUMPDEST PUSH2 0x2BF PUSH2 0x18EB JUMP JUMPDEST STOP JUMPDEST PUSH2 0x2C9 PUSH2 0x2043 JUMP JUMPDEST PUSH1 0x40 MLOAD PUSH2 0x2D6 SWAP2 SWAP1 PUSH2 0x33AA JUMP JUMPDEST PUSH1 0x40 MLOAD DUP1 SWAP2 SUB SWAP1 RETURN JUMPDEST PUSH2 0x2E7 PUSH2 0x2049 JUMP JUMPDEST PUSH1 0x40 MLOAD PUSH2 0x2F4 SWAP2 SWAP1 PUSH2 0x33AA JUMP JUMPDEST PUSH1 0x40 MLOAD DUP1 SWAP2 SUB SWAP1 RETURN JUMPDEST PUSH2 0x317 PUSH1 0x4 DUP1 CALLDATASIZE SUB DUP2 ADD SWAP1 PUSH2 0x312 SWAP2 SWAP1 PUSH2 0x337D JUMP JUMPDEST PUSH2 0x204F JUMP JUMPDEST STOP JUMPDEST PUSH2 0x333 PUSH1 0x4 DUP1 CALLDATASIZE SUB DUP2 ADD SWAP1 PUSH2 0x32E SWAP2 SWAP1 PUSH2 0x32D4 JUMP JUMPDEST PUSH2 0x2E4D JUMP JUMPDEST PUSH1 0x40 MLOAD PUSH2 0x340 SWAP2 SWAP1 PUSH2 0x33AA JUMP JUMPDEST PUSH1 0x40 MLOAD DUP1 SWAP2 SUB SWAP1 RETURN JUMPDEST PUSH2 0x351 PUSH2 0x2E65 JUMP JUMPDEST PUSH1 0x40 MLOAD PUSH2 0x35E SWAP2 SWAP1 PUSH2 0x344E JUMP JUMPDEST PUSH1 0x40 MLOAD DUP1 SWAP2 SUB SWAP1 RETURN JUMPDEST PUSH2 0x36F PUSH2 0x2E8B JUMP JUMPDEST PUSH1 0x40 MLOAD PUSH2 0x37C SWAP2 SWAP1 PUSH2 0x33AA JUMP JUMPDEST PUSH1 0x40 MLOAD DUP1 SWAP2 SUB SWAP1 RETURN JUMPDEST PUSH2 0x39F PUSH1 0x4 DUP1 CALLDATASIZE SUB DUP2 ADD SWAP1 PUSH2 0x39A SWAP2 SWAP1 PUSH2 0x32D4 JUMP JUMPDEST PUSH2 0x2E91 JUMP JUMPDEST STOP JUMPDEST PUSH2 0x3BB PUSH1 0x4 DUP1 CALLDATASIZE SUB DUP2 ADD SWAP1 PUSH2 0x3B6 SWAP2 SWAP1 PUSH2 0x32D4 JUMP JUMPDEST PUSH2 0x2F14 JUMP JUMPDEST PUSH1 0x40 MLOAD PUSH2 0x3C9 SWAP3 SWAP2 SWAP1 PUSH2 0x34A5 JUMP JUMPDEST PUSH1 0x40 MLOAD DUP1 SWAP2 SUB SWAP1 RETURN JUMPDEST PUSH1 0xD PUSH1 0x20 MSTORE DUP1 PUSH1 0x0 MSTORE PUSH1 0x40 PUSH1 0x0 KECCAK256 PUSH1 0x0 SWAP2 POP SWAP1 POP DUP1 PUSH1 0x0 ADD SLOAD SWAP1 DUP1 PUSH1 0x1 ADD SLOAD SWAP1 DUP1 PUSH1 0x2 ADD SLOAD SWAP1 POP DUP4 JUMP JUMPDEST PUSH2 0x428 PUSH32 0x96BBA9422D4A340C413CD7023E87AC5B73DE0E37BE734FD1317F8AD7414AAA5D PUSH1 0x0 SHL PUSH2 0x30CC JUMP JUMPDEST PUSH2 0x454 PUSH32 0xAA4F334CAAEE5BBF1AF1F10FEEA3A61F529F7BDB2D18C7FEC86B805ACF82ABAC PUSH1 0x0 SHL PUSH2 0x30CC JUMP JUMPDEST PUSH2 0x480 PUSH32 0xC9126346EDAD0A904D0B23FC64F5CF91BCFDC3099266F0DCE7B839642F156D2B PUSH1 0x0 SHL PUSH2 0x30CC JUMP JUMPDEST PUSH2 0x4AC PUSH32 0xDE494527EC9BAE5266EE9C30B9FCC19ECF22492C13E9EB1B284DFF1CABA1B62C PUSH1 0x0 SHL PUSH2 0x30CC JUMP JUMPDEST PUSH1 0x0 DUP2 GT PUSH2 0x4EF JUMPI PUSH1 0x40 MLOAD PUSH32 0x8C379A000000000000000000000000000000000000000000000000000000000 DUP2 MSTORE PUSH1 0x4 ADD PUSH2 0x4E6 SWAP1 PUSH2 0x352B JUMP JUMPDEST PUSH1 0x40 MLOAD DUP1 SWAP2 SUB SWAP1 REVERT JUMPDEST PUSH2 0x51B PUSH32 0x14C3C620222DB750DD784365DE6058365AC40630EF3A6765E796F891E5EAA49C PUSH1 0x0 SHL PUSH2 0x30CC JUMP JUMPDEST PUSH2 0x547 PUSH32 0x84466732FFD1A19D0911C72E661BA9CA9919FBC92F2F86EBBAEE5A5A1AF8D6B8 PUSH1 0x0 SHL PUSH2 0x30CC JUMP JUMPDEST PUSH2 0x573 PUSH32 0x192051EFF1AB0D855AE2ADA8E1631835DE04A398D6DE903B38FA78102895072E PUSH1 0x0 SHL PUSH2 0x30CC JUMP JUMPDEST PUSH1 0x0 PUSH1 0xD PUSH1 0x0 CALLER PUSH20 0xFFFFFFFFFFFFFFFFFFFFFFFFFFFFFFFFFFFFFFFF AND PUSH20 0xFFFFFFFFFFFFFFFFFFFFFFFFFFFFFFFFFFFFFFFF AND DUP2 MSTORE PUSH1 0x20 ADD SWAP1 DUP2 MSTORE PUSH1 0x20 ADD PUSH1 0x0 KECCAK256 SWAP1 POP PUSH2 0x5E2 PUSH32 0x8BDF77F806C3927F363D49D9163A9F7C5F79ED94C13DD10DBDFEACFF84608DBD PUSH1 0x0 SHL PUSH2 0x30CC JUMP JUMPDEST PUSH2 0x60E PUSH32 0xF3CB5A2EF2AC075B92713B0382B3DCDB7D503BEEB4BEB7CF331D73CA18B24D10 PUSH1 0x0 SHL PUSH2 0x30CC JUMP JUMPDEST PUSH2 0x63A PUSH32 0xA039AC587199F19B58E752F990672E2CA90FC94D96302962C9085A7CB036BCF6 PUSH1 0x0 SHL PUSH2 0x30CC JUMP JUMPDEST PUSH3 0x278D00 PUSH1 0xE PUSH1 0x0 CALLER PUSH20 0xFFFFFFFFFFFFFFFFFFFFFFFFFFFFFFFFFFFFFFFF AND PUSH20 0xFFFFFFFFFFFFFFFFFFFFFFFFFFFFFFFFFFFFFFFF AND DUP2 MSTORE PUSH1 0x20 ADD SWAP1 DUP2 MSTORE PUSH1 0x20 ADD PUSH1 0x0 KECCAK256 SLOAD TIMESTAMP PUSH2 0x689 SWAP2 SWAP1 PUSH2 0x357A JUMP JUMPDEST LT ISZERO PUSH2 0x6CA JUMPI PUSH1 0x40 MLOAD PUSH32 0x8C379A000000000000000000000000000000000000000000000000000000000 DUP2 MSTORE PUSH1 0x4 ADD PUSH2 0x6C1 SWAP1 PUSH2 0x3620 JUMP JUMPDEST PUSH1 0x40 MLOAD DUP1 SWAP2 SUB SWAP1 REVERT JUMPDEST PUSH2 0x6F6 PUSH32 0x2817315488BBE23455D6679B76E3295E3E3017628778FB01E445B5A2C2D0B806 PUSH1 0x0 SHL PUSH2 0x30CC JUMP JUMPDEST PUSH2 0x722 PUSH32 0x5F82A00B33FF48A02D85963AE73025C8827A6D987377FB17F0A9E9FB92F8CA95 PUSH1 0x0 SHL PUSH2 0x30CC JUMP JUMPDEST PUSH2 0x74E PUSH32 0x5C7C29EBD37E1748BDEA04B1AF60D83C1C2D627361E7A6208E13200E6805222 PUSH1 0x0 SHL PUSH2 0x30CC JUMP JUMPDEST PUSH2 0x756 PUSH2 0x18EB JUMP JUMPDEST PUSH2 0x782 PUSH32 0x3E5F465E6474AB49F2581B8C5780A544C5128133A64739873E789ADBB7CBFB74 PUSH1 0x0 SHL PUSH2 0x30CC JUMP JUMPDEST PUSH2 0x7AE PUSH32 0x24A9F875DEA45B362033FFEB5E26CDA7DC1CA54C018CFE7845C4494F03C19CDF PUSH1 0x0 SHL PUSH2 0x30CC JUMP JUMPDEST PUSH1 0x0 DUP1 PUSH2 0x7BA CALLER PUSH2 0x2F14 JUMP JUMPDEST SWAP2 POP SWAP2 POP PUSH2 0x7EA PUSH32 0xD1F44700FBEE67FF8E8F1B014356906D3102CB1C7D823DD51311895EE22692AE PUSH1 0x0 SHL PUSH2 0x30CC JUMP JUMPDEST PUSH2 0x816 PUSH32 0xD1397F9B9A0BE6C498BF8EA7CE893873B4830BEE1B5DFF4F73077BA30DECA86B PUSH1 0x0 SHL PUSH2 0x30CC JUMP JUMPDEST PUSH1 0x2 PUSH1 0x0 SWAP1 SLOAD SWAP1 PUSH2 0x100 EXP SWAP1 DIV PUSH20 0xFFFFFFFFFFFFFFFFFFFFFFFFFFFFFFFFFFFFFFFF AND PUSH20 0xFFFFFFFFFFFFFFFFFFFFFFFFFFFFFFFFFFFFFFFF AND PUSH4 0xA9059CBB PUSH1 0x9 PUSH1 0x0 SWAP1 SLOAD SWAP1 PUSH2 0x100 EXP SWAP1 DIV PUSH20 0xFFFFFFFFFFFFFFFFFFFFFFFFFFFFFFFFFFFFFFFF AND PUSH2 0x89E PUSH1 0x64 PUSH2 0x890 PUSH1 0xA DUP9 PUSH2 0x30CF SWAP1 SWAP2 SWAP1 PUSH4 0xFFFFFFFF AND JUMP JUMPDEST PUSH2 0x30E5 SWAP1 SWAP2 SWAP1 PUSH4 0xFFFFFFFF AND JUMP JUMPDEST PUSH1 0x40 MLOAD DUP4 PUSH4 0xFFFFFFFF AND PUSH1 0xE0 SHL DUP2 MSTORE PUSH1 0x4 ADD PUSH2 0x8BB SWAP3 SWAP2 SWAP1 PUSH2 0x3640 JUMP JUMPDEST PUSH1 0x20 PUSH1 0x40 MLOAD DUP1 DUP4 SUB DUP2 PUSH1 0x0 DUP8 GAS CALL ISZERO DUP1 ISZERO PUSH2 0x8DA JUMPI RETURNDATASIZE PUSH1 0x0 DUP1 RETURNDATACOPY RETURNDATASIZE PUSH1 0x0 REVERT JUMPDEST POP POP POP POP PUSH1 0x40 MLOAD RETURNDATASIZE PUSH1 0x1F NOT PUSH1 0x1F DUP3 ADD AND DUP3 ADD DUP1 PUSH1 0x40 MSTORE POP DUP2 ADD SWAP1 PUSH2 0x8FE SWAP2 SWAP1 PUSH2 0x36A1 JUMP JUMPDEST POP PUSH2 0x92B PUSH32 0xD03FF56CEC7F6B5F3F7265844D2B70C18EED5C30E7B63492D31DFED69EEA5598 PUSH1 0x0 SHL PUSH2 0x30CC JUMP JUMPDEST PUSH2 0x957 PUSH32 0x672FD0AB4BC89B069F4692CDE2491074048DAF3E553B04FB7D4A18C192446ABA PUSH1 0x0 SHL PUSH2 0x30CC JUMP JUMPDEST PUSH1 0x3 PUSH1 0x0 SWAP1 SLOAD SWAP1 PUSH2 0x100 EXP SWAP1 DIV PUSH20 0xFFFFFFFFFFFFFFFFFFFFFFFFFFFFFFFFFFFFFFFF AND PUSH20 0xFFFFFFFFFFFFFFFFFFFFFFFFFFFFFFFFFFFFFFFF AND PUSH4 0xA9059CBB PUSH1 0x9 PUSH1 0x0 SWAP1 SLOAD SWAP1 PUSH2 0x100 EXP SWAP1 DIV PUSH20 0xFFFFFFFFFFFFFFFFFFFFFFFFFFFFFFFFFFFFFFFF AND PUSH2 0x9DF PUSH1 0x64 PUSH2 0x9D1 PUSH1 0xA DUP8 PUSH2 0x30CF SWAP1 SWAP2 SWAP1 PUSH4 0xFFFFFFFF AND JUMP JUMPDEST PUSH2 0x30E5 SWAP1 SWAP2 SWAP1 PUSH4 0xFFFFFFFF AND JUMP JUMPDEST PUSH1 0x40 MLOAD DUP4 PUSH4 0xFFFFFFFF AND PUSH1 0xE0 SHL DUP2 MSTORE PUSH1 0x4 ADD PUSH2 0x9FC SWAP3 SWAP2 SWAP1 PUSH2 0x3640 JUMP JUMPDEST PUSH1 0x20 PUSH1 0x40 MLOAD DUP1 DUP4 SUB DUP2 PUSH1 0x0 DUP8 GAS CALL ISZERO DUP1 ISZERO PUSH2 0xA1B JUMPI RETURNDATASIZE PUSH1 0x0 DUP1 RETURNDATACOPY RETURNDATASIZE PUSH1 0x0 REVERT JUMPDEST POP POP POP POP PUSH1 0x40 MLOAD RETURNDATASIZE PUSH1 0x1F NOT PUSH1 0x1F DUP3 ADD AND DUP3 ADD DUP1 PUSH1 0x40 MSTORE POP DUP2 ADD SWAP1 PUSH2 0xA3F SWAP2 SWAP1 PUSH2 0x36A1 JUMP JUMPDEST POP PUSH2 0xA6C PUSH32 0x6DD80A224C51AD685EC31E7B524B9FF16EEFDD770A27F64EDDB55ADAD018C723 PUSH1 0x0 SHL PUSH2 0x30CC JUMP JUMPDEST PUSH2 0xA98 PUSH32 0xFD129554D70739FD3891A031997ED5036052C7A6B3599FC5E4E294D44D6A5172 PUSH1 0x0 SHL PUSH2 0x30CC JUMP JUMPDEST PUSH1 0x2 PUSH1 0x0 SWAP1 SLOAD SWAP1 PUSH2 0x100 EXP SWAP1 DIV PUSH20 0xFFFFFFFFFFFFFFFFFFFFFFFFFFFFFFFFFFFFFFFF AND PUSH20 0xFFFFFFFFFFFFFFFFFFFFFFFFFFFFFFFFFFFFFFFF AND PUSH4 0xA9059CBB CALLER PUSH2 0xB10 PUSH2 0xB01 PUSH1 0x64 PUSH2 0xAF3 PUSH1 0xA DUP10 PUSH2 0x30CF SWAP1 SWAP2 SWAP1 PUSH4 0xFFFFFFFF AND JUMP JUMPDEST PUSH2 0x30E5 SWAP1 SWAP2 SWAP1 PUSH4 0xFFFFFFFF AND JUMP JUMPDEST DUP7 PUSH2 0x30FB SWAP1 SWAP2 SWAP1 PUSH4 0xFFFFFFFF AND JUMP JUMPDEST PUSH1 0x40 MLOAD DUP4 PUSH4 0xFFFFFFFF AND PUSH1 0xE0 SHL DUP2 MSTORE PUSH1 0x4 ADD PUSH2 0xB2D SWAP3 SWAP2 SWAP1 PUSH2 0x3640 JUMP JUMPDEST PUSH1 0x20 PUSH1 0x40 MLOAD DUP1 DUP4 SUB DUP2 PUSH1 0x0 DUP8 GAS CALL ISZERO DUP1 ISZERO PUSH2 0xB4C JUMPI RETURNDATASIZE PUSH1 0x0 DUP1 RETURNDATACOPY RETURNDATASIZE PUSH1 0x0 REVERT JUMPDEST POP POP POP POP PUSH1 0x40 MLOAD RETURNDATASIZE PUSH1 0x1F NOT PUSH1 0x1F DUP3 ADD AND DUP3 ADD DUP1 PUSH1 0x40 MSTORE POP DUP2 ADD SWAP1 PUSH2 0xB70 SWAP2 SWAP1 PUSH2 0x36A1 JUMP JUMPDEST POP PUSH2 0xB9D PUSH32 0xE7AF1E2848757C47B56FB5D50DA9D5F684E712FBDF0DBFCA5C2A50298194C8B0 PUSH1 0x0 SHL PUSH2 0x30CC JUMP JUMPDEST PUSH2 0xBC9 PUSH32 0xD4829FA3790AEEBCB5696989274DF5AD0ED2C5F10466762CE9EEFDFEBD1D2DD3 PUSH1 0x0 SHL PUSH2 0x30CC JUMP JUMPDEST PUSH1 0x3 PUSH1 0x0 SWAP1 SLOAD SWAP1 PUSH2 0x100 EXP SWAP1 DIV PUSH20 0xFFFFFFFFFFFFFFFFFFFFFFFFFFFFFFFFFFFFFFFF AND PUSH20 0xFFFFFFFFFFFFFFFFFFFFFFFFFFFFFFFFFFFFFFFF AND PUSH4 0xA9059CBB CALLER PUSH2 0xC41 PUSH2 0xC32 PUSH1 0x64 PUSH2 0xC24 PUSH1 0xA DUP9 PUSH2 0x30CF SWAP1 SWAP2 SWAP1 PUSH4 0xFFFFFFFF AND JUMP JUMPDEST PUSH2 0x30E5 SWAP1 SWAP2 SWAP1 PUSH4 0xFFFFFFFF AND JUMP JUMPDEST DUP6 PUSH2 0x30FB SWAP1 SWAP2 SWAP1 PUSH4 0xFFFFFFFF AND JUMP JUMPDEST PUSH1 0x40 MLOAD DUP4 PUSH4 0xFFFFFFFF AND PUSH1 0xE0 SHL DUP2 MSTORE PUSH1 0x4 ADD PUSH2 0xC5E SWAP3 SWAP2 SWAP1 PUSH2 0x3640 JUMP JUMPDEST PUSH1 0x20 PUSH1 0x40 MLOAD DUP1 DUP4 SUB DUP2 PUSH1 0x0 DUP8 GAS CALL ISZERO DUP1 ISZERO PUSH2 0xC7D JUMPI RETURNDATASIZE PUSH1 0x0 DUP1 RETURNDATACOPY RETURNDATASIZE PUSH1 0x0 REVERT JUMPDEST POP POP POP POP PUSH1 0x40 MLOAD RETURNDATASIZE PUSH1 0x1F NOT PUSH1 0x1F DUP3 ADD AND DUP3 ADD DUP1 PUSH1 0x40 MSTORE POP DUP2 ADD SWAP1 PUSH2 0xCA1 SWAP2 SWAP1 PUSH2 0x36A1 JUMP JUMPDEST POP PUSH2 0xCCE PUSH32 0xBB8FB28356D13E5A235179052300FDDB14861937EDEBA85602F7C3E9F1C6CBF5 PUSH1 0x0 SHL PUSH2 0x30CC JUMP JUMPDEST PUSH2 0xCFA PUSH32 0x51F32E16A46D80392B4E81B92E0213F710DDCD6BF1159ADB31671E1ACCF5C457 PUSH1 0x0 SHL PUSH2 0x30CC JUMP JUMPDEST PUSH2 0xD11 DUP5 DUP5 PUSH1 0x0 ADD SLOAD PUSH2 0x30FB SWAP1 SWAP2 SWAP1 PUSH4 0xFFFFFFFF AND JUMP JUMPDEST DUP4 PUSH1 0x0 ADD DUP2 SWAP1 SSTORE POP PUSH2 0xD45 PUSH32 0xF69FE8C63116112008627E79C413B0D15B821CBAD83B74695DA95169B44005E7 PUSH1 0x0 SHL PUSH2 0x30CC JUMP JUMPDEST PUSH2 0xD71 PUSH32 0x18B964D70F48ADEF35E772C8068317F5952F38305763B5CE54726800A285CEC PUSH1 0x0 SHL PUSH2 0x30CC JUMP JUMPDEST PUSH2 0xDA1 PUSH5 0xE8D4A51000 PUSH2 0xD93 PUSH1 0xB SLOAD DUP7 PUSH1 0x0 ADD SLOAD PUSH2 0x30CF SWAP1 SWAP2 SWAP1 PUSH4 0xFFFFFFFF AND JUMP JUMPDEST PUSH2 0x30E5 SWAP1 SWAP2 SWAP1 PUSH4 0xFFFFFFFF AND JUMP JUMPDEST DUP4 PUSH1 0x1 ADD DUP2 SWAP1 SSTORE POP PUSH2 0xDD5 PUSH32 0x7444A57C42FCC55B96BDB388D0CE2A5484F7D66351321158D6945958A796996B PUSH1 0x0 SHL PUSH2 0x30CC JUMP JUMPDEST PUSH2 0xE01 PUSH32 0xD4718FEA819D33F51A51C3078C228E3177BD575001A915C119F2E94211EE8F8A PUSH1 0x0 SHL PUSH2 0x30CC JUMP JUMPDEST PUSH2 0xE31 PUSH5 0xE8D4A51000 PUSH2 0xE23 PUSH1 0xC SLOAD DUP7 PUSH1 0x0 ADD SLOAD PUSH2 0x30CF SWAP1 SWAP2 SWAP1 PUSH4 0xFFFFFFFF AND JUMP JUMPDEST PUSH2 0x30E5 SWAP1 SWAP2 SWAP1 PUSH4 0xFFFFFFFF AND JUMP JUMPDEST DUP4 PUSH1 0x2 ADD DUP2 SWAP1 SSTORE POP PUSH2 0xE65 PUSH32 0x9AE69FF15A591C405925CE5BB3E7D8DC064065A9ECF75A152F613E6D9B801667 PUSH1 0x0 SHL PUSH2 0x30CC JUMP JUMPDEST PUSH2 0xE91 PUSH32 0xDBB63CB171628A98C512BE3B0392AFEFD60DD83362E8D7E06BFE373D64D1AE7B PUSH1 0x0 SHL PUSH2 0x30CC JUMP JUMPDEST PUSH1 0x1 PUSH1 0x0 SWAP1 SLOAD SWAP1 PUSH2 0x100 EXP SWAP1 DIV PUSH20 0xFFFFFFFFFFFFFFFFFFFFFFFFFFFFFFFFFFFFFFFF AND PUSH20 0xFFFFFFFFFFFFFFFFFFFFFFFFFFFFFFFFFFFFFFFF AND PUSH4 0xA9059CBB CALLER DUP7 PUSH1 0x40 MLOAD DUP4 PUSH4 0xFFFFFFFF AND PUSH1 0xE0 SHL DUP2 MSTORE PUSH1 0x4 ADD PUSH2 0xEEE SWAP3 SWAP2 SWAP1 PUSH2 0x3640 JUMP JUMPDEST PUSH1 0x20 PUSH1 0x40 MLOAD DUP1 DUP4 SUB DUP2 PUSH1 0x0 DUP8 GAS CALL ISZERO DUP1 ISZERO PUSH2 0xF0D JUMPI RETURNDATASIZE PUSH1 0x0 DUP1 RETURNDATACOPY RETURNDATASIZE PUSH1 0x0 REVERT JUMPDEST POP POP POP POP PUSH1 0x40 MLOAD RETURNDATASIZE PUSH1 0x1F NOT PUSH1 0x1F DUP3 ADD AND DUP3 ADD DUP1 PUSH1 0x40 MSTORE POP DUP2 ADD SWAP1 PUSH2 0xF31 SWAP2 SWAP1 PUSH2 0x36A1 JUMP JUMPDEST POP PUSH2 0xF5E PUSH32 0x68ECABDC875CBE98EC19DF423B1C9DDDE574CD67454794D58601A1BBC70692F1 PUSH1 0x0 SHL PUSH2 0x30CC JUMP JUMPDEST PUSH2 0xF8A PUSH32 0xC852C7DA49ECEC354FEA50B2AE052F574F35B518823464846892B83295A58121 PUSH1 0x0 SHL PUSH2 0x30CC JUMP JUMPDEST CALLER PUSH20 0xFFFFFFFFFFFFFFFFFFFFFFFFFFFFFFFFFFFFFFFF AND PUSH32 0x884EDAD9CE6FA2440D8A54CC123490EB96D2768479D49FF9C7366125A9424364 DUP6 PUSH1 0x40 MLOAD PUSH2 0xFD0 SWAP2 SWAP1 PUSH2 0x33AA JUMP JUMPDEST PUSH1 0x40 MLOAD DUP1 SWAP2 SUB SWAP1 LOG2 POP POP POP POP JUMP JUMPDEST PUSH1 0x6 SLOAD DUP2 JUMP JUMPDEST PUSH2 0x1010 PUSH32 0x163EFD95C0FCD01CF405AE9BF40C58831C73A6E5D1060A99D5DC0250282A791A PUSH1 0x0 SHL PUSH2 0x30CC JUMP JUMPDEST PUSH2 0x103C PUSH32 0x46C38433840FEC8E3F6C43710F4199170E9AED76453107B7D650A1E341D3070C PUSH1 0x0 SHL PUSH2 0x30CC JUMP JUMPDEST PUSH2 0x1068 PUSH32 0x481CD945A98DBFD66268A82F3E06192C692CD1C5E805F2FEC7FA3CDC88F95037 PUSH1 0x0 SHL PUSH2 0x30CC JUMP JUMPDEST PUSH1 0x0 PUSH1 0xD PUSH1 0x0 CALLER PUSH20 0xFFFFFFFFFFFFFFFFFFFFFFFFFFFFFFFFFFFFFFFF AND PUSH20 0xFFFFFFFFFFFFFFFFFFFFFFFFFFFFFFFFFFFFFFFF AND DUP2 MSTORE PUSH1 0x20 ADD SWAP1 DUP2 MSTORE PUSH1 0x20 ADD PUSH1 0x0 KECCAK256 SWAP1 POP PUSH2 0x10D7 PUSH32 0x71700352D026FD30C09C401C089300769EB9EED141F9C4CDCE6304AA66864BF5 PUSH1 0x0 SHL PUSH2 0x30CC JUMP JUMPDEST PUSH2 0x1103 PUSH32 0xECFF65AB10F7DBD7886B785E37F4CA434D26F04FFD018A5865852A51B6EE3A91 PUSH1 0x0 SHL PUSH2 0x30CC JUMP JUMPDEST PUSH2 0x110B PUSH2 0x18EB JUMP JUMPDEST PUSH2 0x1137 PUSH32 0x98658D91883BDDB9C2B2D69E6B305CCC446532DB482C7B6511C19201C32C1203 PUSH1 0x0 SHL PUSH2 0x30CC JUMP JUMPDEST PUSH2 0x1163 PUSH32 0x5ADA061393F614A3AEF5B81C6688CE5DA4F489821F61BA251A928B12A878D2CE PUSH1 0x0 SHL PUSH2 0x30CC JUMP JUMPDEST PUSH1 0x0 DUP1 PUSH2 0x116F CALLER PUSH2 0x2F14 JUMP JUMPDEST SWAP2 POP SWAP2 POP PUSH2 0x119F PUSH32 0x47C27EF9BD39AEF1ED7F11B202C1C4CE20E5F5906AB03656A5F6321B5C8D63A0 PUSH1 0x0 SHL PUSH2 0x30CC JUMP JUMPDEST PUSH2 0x11CB PUSH32 0xB7E7005B2A03FC0DF5C9AE3CAC52A6A6FB746B489A2FA0D14064DD7C143F32AF PUSH1 0x0 SHL PUSH2 0x30CC JUMP JUMPDEST PUSH1 0x2 PUSH1 0x0 SWAP1 SLOAD SWAP1 PUSH2 0x100 EXP SWAP1 DIV PUSH20 0xFFFFFFFFFFFFFFFFFFFFFFFFFFFFFFFFFFFFFFFF AND PUSH20 0xFFFFFFFFFFFFFFFFFFFFFFFFFFFFFFFFFFFFFFFF AND PUSH4 0xA9059CBB PUSH1 0x9 PUSH1 0x0 SWAP1 SLOAD SWAP1 PUSH2 0x100 EXP SWAP1 DIV PUSH20 0xFFFFFFFFFFFFFFFFFFFFFFFFFFFFFFFFFFFFFFFF AND PUSH2 0x1253 PUSH1 0x64 PUSH2 0x1245 PUSH1 0xA DUP9 PUSH2 0x30CF SWAP1 SWAP2 SWAP1 PUSH4 0xFFFFFFFF AND JUMP JUMPDEST PUSH2 0x30E5 SWAP1 SWAP2 SWAP1 PUSH4 0xFFFFFFFF AND JUMP JUMPDEST PUSH1 0x40 MLOAD DUP4 PUSH4 0xFFFFFFFF AND PUSH1 0xE0 SHL DUP2 MSTORE PUSH1 0x4 ADD PUSH2 0x1270 SWAP3 SWAP2 SWAP1 PUSH2 0x3640 JUMP JUMPDEST PUSH1 0x20 PUSH1 0x40 MLOAD DUP1 DUP4 SUB DUP2 PUSH1 0x0 DUP8 GAS CALL ISZERO DUP1 ISZERO PUSH2 0x128F JUMPI RETURNDATASIZE PUSH1 0x0 DUP1 RETURNDATACOPY RETURNDATASIZE PUSH1 0x0 REVERT JUMPDEST POP POP POP POP PUSH1 0x40 MLOAD RETURNDATASIZE PUSH1 0x1F NOT PUSH1 0x1F DUP3 ADD AND DUP3 ADD DUP1 PUSH1 0x40 MSTORE POP DUP2 ADD SWAP1 PUSH2 0x12B3 SWAP2 SWAP1 PUSH2 0x36A1 JUMP JUMPDEST POP PUSH2 0x12E0 PUSH32 0xB2530E912C4BDD90BD450833304CF938B87DF580AC0C20BA963FC9B3A5454445 PUSH1 0x0 SHL PUSH2 0x30CC JUMP JUMPDEST PUSH2 0x130C PUSH32 0xD78940FBC99F24D70592360806257FCB31CB054C50BD9A9060C38A61AF9AE65B PUSH1 0x0 SHL PUSH2 0x30CC JUMP JUMPDEST PUSH1 0x3 PUSH1 0x0 SWAP1 SLOAD SWAP1 PUSH2 0x100 EXP SWAP1 DIV PUSH20 0xFFFFFFFFFFFFFFFFFFFFFFFFFFFFFFFFFFFFFFFF AND PUSH20 0xFFFFFFFFFFFFFFFFFFFFFFFFFFFFFFFFFFFFFFFF AND PUSH4 0xA9059CBB PUSH1 0x9 PUSH1 0x0 SWAP1 SLOAD SWAP1 PUSH2 0x100 EXP SWAP1 DIV PUSH20 0xFFFFFFFFFFFFFFFFFFFFFFFFFFFFFFFFFFFFFFFF AND PUSH2 0x1394 PUSH1 0x64 PUSH2 0x1386 PUSH1 0xA DUP8 PUSH2 0x30CF SWAP1 SWAP2 SWAP1 PUSH4 0xFFFFFFFF AND JUMP JUMPDEST PUSH2 0x30E5 SWAP1 SWAP2 SWAP1 PUSH4 0xFFFFFFFF AND JUMP JUMPDEST PUSH1 0x40 MLOAD DUP4 PUSH4 0xFFFFFFFF AND PUSH1 0xE0 SHL DUP2 MSTORE PUSH1 0x4 ADD PUSH2 0x13B1 SWAP3 SWAP2 SWAP1 PUSH2 0x3640 JUMP JUMPDEST PUSH1 0x20 PUSH1 0x40 MLOAD DUP1 DUP4 SUB DUP2 PUSH1 0x0 DUP8 GAS CALL ISZERO DUP1 ISZERO PUSH2 0x13D0 JUMPI RETURNDATASIZE PUSH1 0x0 DUP1 RETURNDATACOPY RETURNDATASIZE PUSH1 0x0 REVERT JUMPDEST POP POP POP POP PUSH1 0x40 MLOAD RETURNDATASIZE PUSH1 0x1F NOT PUSH1 0x1F DUP3 ADD AND DUP3 ADD DUP1 PUSH1 0x40 MSTORE POP DUP2 ADD SWAP1 PUSH2 0x13F4 SWAP2 SWAP1 PUSH2 0x36A1 JUMP JUMPDEST POP PUSH2 0x1421 PUSH32 0xCF990B4CF8400AB73E95C06C2C739F574237CFFD6A0B71AFE993D00D40439B52 PUSH1 0x0 SHL PUSH2 0x30CC JUMP JUMPDEST PUSH2 0x144D PUSH32 0x5453DD67A714E96EAF36E746F2170F1456D82CA091D72F81E6B13A22E8F8B77D PUSH1 0x0 SHL PUSH2 0x30CC JUMP JUMPDEST PUSH1 0x2 PUSH1 0x0 SWAP1 SLOAD SWAP1 PUSH2 0x100 EXP SWAP1 DIV PUSH20 0xFFFFFFFFFFFFFFFFFFFFFFFFFFFFFFFFFFFFFFFF AND PUSH20 0xFFFFFFFFFFFFFFFFFFFFFFFFFFFFFFFFFFFFFFFF AND PUSH4 0xA9059CBB CALLER PUSH2 0x14C5 PUSH2 0x14B6 PUSH1 0x64 PUSH2 0x14A8 PUSH1 0xA DUP10 PUSH2 0x30CF SWAP1 SWAP2 SWAP1 PUSH4 0xFFFFFFFF AND JUMP JUMPDEST PUSH2 0x30E5 SWAP1 SWAP2 SWAP1 PUSH4 0xFFFFFFFF AND JUMP JUMPDEST DUP7 PUSH2 0x30FB SWAP1 SWAP2 SWAP1 PUSH4 0xFFFFFFFF AND JUMP JUMPDEST PUSH1 0x40 MLOAD DUP4 PUSH4 0xFFFFFFFF AND PUSH1 0xE0 SHL DUP2 MSTORE PUSH1 0x4 ADD PUSH2 0x14E2 SWAP3 SWAP2 SWAP1 PUSH2 0x3640 JUMP JUMPDEST PUSH1 0x20 PUSH1 0x40 MLOAD DUP1 DUP4 SUB DUP2 PUSH1 0x0 DUP8 GAS CALL ISZERO DUP1 ISZERO PUSH2 0x1501 JUMPI RETURNDATASIZE PUSH1 0x0 DUP1 RETURNDATACOPY RETURNDATASIZE PUSH1 0x0 REVERT JUMPDEST POP POP POP POP PUSH1 0x40 MLOAD RETURNDATASIZE PUSH1 0x1F NOT PUSH1 0x1F DUP3 ADD AND DUP3 ADD DUP1 PUSH1 0x40 MSTORE POP DUP2 ADD SWAP1 PUSH2 0x1525 SWAP2 SWAP1 PUSH2 0x36A1 JUMP JUMPDEST POP PUSH2 0x1552 PUSH32 0x52FD9A2328BD417843348CE0EC1F9EF5D78FC56A5B647BCFB5FF9B99C9811C33 PUSH1 0x0 SHL PUSH2 0x30CC JUMP JUMPDEST PUSH2 0x157E PUSH32 0x69E437E07A057B2BF0DF0B7094B63057076D2B9C126FF1F436AD2EACA922CE1A PUSH1 0x0 SHL PUSH2 0x30CC JUMP JUMPDEST PUSH1 0x3 PUSH1 0x0 SWAP1 SLOAD SWAP1 PUSH2 0x100 EXP SWAP1 DIV PUSH20 0xFFFFFFFFFFFFFFFFFFFFFFFFFFFFFFFFFFFFFFFF AND PUSH20 0xFFFFFFFFFFFFFFFFFFFFFFFFFFFFFFFFFFFFFFFF AND PUSH4 0xA9059CBB CALLER PUSH2 0x15F6 PUSH2 0x15E7 PUSH1 0x64 PUSH2 0x15D9 PUSH1 0xA DUP9 PUSH2 0x30CF SWAP1 SWAP2 SWAP1 PUSH4 0xFFFFFFFF AND JUMP JUMPDEST PUSH2 0x30E5 SWAP1 SWAP2 SWAP1 PUSH4 0xFFFFFFFF AND JUMP JUMPDEST DUP6 PUSH2 0x30FB SWAP1 SWAP2 SWAP1 PUSH4 0xFFFFFFFF AND JUMP JUMPDEST PUSH1 0x40 MLOAD DUP4 PUSH4 0xFFFFFFFF AND PUSH1 0xE0 SHL DUP2 MSTORE PUSH1 0x4 ADD PUSH2 0x1613 SWAP3 SWAP2 SWAP1 PUSH2 0x3640 JUMP JUMPDEST PUSH1 0x20 PUSH1 0x40 MLOAD DUP1 DUP4 SUB DUP2 PUSH1 0x0 DUP8 GAS CALL ISZERO DUP1 ISZERO PUSH2 0x1632 JUMPI RETURNDATASIZE PUSH1 0x0 DUP1 RETURNDATACOPY RETURNDATASIZE PUSH1 0x0 REVERT JUMPDEST POP POP POP POP PUSH1 0x40 MLOAD RETURNDATASIZE PUSH1 0x1F NOT PUSH1 0x1F DUP3 ADD AND DUP3 ADD DUP1 PUSH1 0x40 MSTORE POP DUP2 ADD SWAP1 PUSH2 0x1656 SWAP2 SWAP1 PUSH2 0x36A1 JUMP JUMPDEST POP PUSH2 0x1683 PUSH32 0x1A3466A782673B46D00015AB0CA081A908214134462B8D579E5309F15D6531A9 PUSH1 0x0 SHL PUSH2 0x30CC JUMP JUMPDEST PUSH2 0x16AF PUSH32 0x423A46EAF8B0E7DD3EA9421E66AEBDBD5177E95B10BE84C6E200531D961A5B3 PUSH1 0x0 SHL PUSH2 0x30CC JUMP JUMPDEST PUSH2 0x16DF PUSH5 0xE8D4A51000 PUSH2 0x16D1 PUSH1 0xB SLOAD DUP7 PUSH1 0x0 ADD SLOAD PUSH2 0x30CF SWAP1 SWAP2 SWAP1 PUSH4 0xFFFFFFFF AND JUMP JUMPDEST PUSH2 0x30E5 SWAP1 SWAP2 SWAP1 PUSH4 0xFFFFFFFF AND JUMP JUMPDEST DUP4 PUSH1 0x1 ADD DUP2 SWAP1 SSTORE POP PUSH2 0x1713 PUSH32 0xF5053479E6DAEFF425E47307FE25375B3EC2EFD219E2F1CE56FBB62E21AC84AC PUSH1 0x0 SHL PUSH2 0x30CC JUMP JUMPDEST PUSH2 0x173F PUSH32 0xAA3AF3B9313EC6B240611F8A742881A480BFEE4B8066049CAD41359AF58DC83B PUSH1 0x0 SHL PUSH2 0x30CC JUMP JUMPDEST PUSH2 0x176F PUSH5 0xE8D4A51000 PUSH2 0x1761 PUSH1 0xC SLOAD DUP7 PUSH1 0x0 ADD SLOAD PUSH2 0x30CF SWAP1 SWAP2 SWAP1 PUSH4 0xFFFFFFFF AND JUMP JUMPDEST PUSH2 0x30E5 SWAP1 SWAP2 SWAP1 PUSH4 0xFFFFFFFF AND JUMP JUMPDEST DUP4 PUSH1 0x2 ADD DUP2 SWAP1 SSTORE POP PUSH2 0x17A3 PUSH32 0xB5CA7F3A10510EB5EE1803FDF267D8BC5F19FE1EB496DB4F533A997798064802 PUSH1 0x0 SHL PUSH2 0x30CC JUMP JUMPDEST PUSH2 0x17CF PUSH32 0x58180C371A7ED561C074362957B57664E01952FDADE4C334ECB983D7E76A5F88 PUSH1 0x0 SHL PUSH2 0x30CC JUMP JUMPDEST CALLER PUSH20 0xFFFFFFFFFFFFFFFFFFFFFFFFFFFFFFFFFFFFFFFF AND PUSH32 0x34FCBAC0073D7C3D388E51312FAF357774904998EEB8FCA628B9E6F65EE1CBF7 DUP4 DUP4 PUSH1 0x40 MLOAD PUSH2 0x1817 SWAP3 SWAP2 SWAP1 PUSH2 0x34A5 JUMP JUMPDEST PUSH1 0x40 MLOAD DUP1 SWAP2 SUB SWAP1 LOG2 POP POP POP JUMP JUMPDEST PUSH1 0xB SLOAD DUP2 JUMP JUMPDEST PUSH1 0xC SLOAD DUP2 JUMP JUMPDEST PUSH1 0x9 PUSH1 0x0 SWAP1 SLOAD SWAP1 PUSH2 0x100 EXP SWAP1 DIV PUSH20 0xFFFFFFFFFFFFFFFFFFFFFFFFFFFFFFFFFFFFFFFF AND DUP2 JUMP JUMPDEST PUSH1 0x4 SLOAD DUP2 JUMP JUMPDEST PUSH1 0x2 PUSH1 0x0 SWAP1 SLOAD SWAP1 PUSH2 0x100 EXP SWAP1 DIV PUSH20 0xFFFFFFFFFFFFFFFFFFFFFFFFFFFFFFFFFFFFFFFF AND DUP2 JUMP JUMPDEST PUSH2 0x188A PUSH2 0x3111 JUMP JUMPDEST PUSH2 0x1894 PUSH1 0x0 PUSH2 0x318F JUMP JUMPDEST JUMP JUMPDEST PUSH1 0x1 PUSH1 0x0 SWAP1 SLOAD SWAP1 PUSH2 0x100 EXP SWAP1 DIV PUSH20 0xFFFFFFFFFFFFFFFFFFFFFFFFFFFFFFFFFFFFFFFF AND DUP2 JUMP JUMPDEST PUSH1 0x5 SLOAD DUP2 JUMP JUMPDEST PUSH1 0x0 DUP1 PUSH1 0x0 SWAP1 SLOAD SWAP1 PUSH2 0x100 EXP SWAP1 DIV PUSH20 0xFFFFFFFFFFFFFFFFFFFFFFFFFFFFFFFFFFFFFFFF AND SWAP1 POP SWAP1 JUMP JUMPDEST PUSH2 0x1917 PUSH32 0x8B33CA965CD84EEE4905D32A563F7A33CE8D32B99ACBE8DC704E1E52716511EF PUSH1 0x0 SHL PUSH2 0x30CC JUMP JUMPDEST PUSH2 0x1943 PUSH32 0x78803C8FD0C21196192557B551A5E375E1DBC5180B55C0E46979E818C8E4BCD4 PUSH1 0x0 SHL PUSH2 0x30CC JUMP JUMPDEST PUSH2 0x196F PUSH32 0x8BD9782457819C999F9A6021C97F817479458BE995E57DF0604017AAC689C3B5 PUSH1 0x0 SHL PUSH2 0x30CC JUMP JUMPDEST PUSH1 0x0 PUSH1 0x1 PUSH1 0x0 SWAP1 SLOAD SWAP1 PUSH2 0x100 EXP SWAP1 DIV PUSH20 0xFFFFFFFFFFFFFFFFFFFFFFFFFFFFFFFFFFFFFFFF AND PUSH20 0xFFFFFFFFFFFFFFFFFFFFFFFFFFFFFFFFFFFFFFFF AND PUSH4 0x70A08231 ADDRESS PUSH1 0x40 MLOAD DUP3 PUSH4 0xFFFFFFFF AND PUSH1 0xE0 SHL DUP2 MSTORE PUSH1 0x4 ADD PUSH2 0x19CC SWAP2 SWAP1 PUSH2 0x33D4 JUMP JUMPDEST PUSH1 0x20 PUSH1 0x40 MLOAD DUP1 DUP4 SUB DUP2 DUP7 GAS STATICCALL ISZERO DUP1 ISZERO PUSH2 0x19E9 JUMPI RETURNDATASIZE PUSH1 0x0 DUP1 RETURNDATACOPY RETURNDATASIZE PUSH1 0x0 REVERT JUMPDEST POP POP POP POP PUSH1 0x40 MLOAD RETURNDATASIZE PUSH1 0x1F NOT PUSH1 0x1F DUP3 ADD AND DUP3 ADD DUP1 PUSH1 0x40 MSTORE POP DUP2 ADD SWAP1 PUSH2 0x1A0D SWAP2 SWAP1 PUSH2 0x36E3 JUMP JUMPDEST SWAP1 POP PUSH2 0x1A3B PUSH32 0x4AD08C7D54CE1AF267EB5EDC0AC476F7BC43F7D58E07F30D216BEA2BB9290B14 PUSH1 0x0 SHL PUSH2 0x30CC JUMP JUMPDEST PUSH2 0x1A67 PUSH32 0x73DFB2BECB8B618ED1CAC97F95C6332FEA6CEA5000A7C0AD55A4D792F363F334 PUSH1 0x0 SHL PUSH2 0x30CC JUMP JUMPDEST PUSH1 0x0 DUP2 SUB PUSH2 0x1B58 JUMPI PUSH2 0x1A9B PUSH32 0xD0BE4E7EE4019CCB656647D51C6F01AC5A4F5E81F6304C61CB5EA5AFB2769243 PUSH1 0x0 SHL PUSH2 0x30CC JUMP JUMPDEST PUSH2 0x1AC7 PUSH32 0xFA2919CC9E514654F52331D030048061864326773CB527C8A64818968E985B71 PUSH1 0x0 SHL PUSH2 0x30CC JUMP JUMPDEST PUSH2 0x1AF3 PUSH32 0x371E545A68A42C958531E217894F7AD78349E056CFB2D4BBD12BB1596EA206C0 PUSH1 0x0 SHL PUSH2 0x30CC JUMP JUMPDEST NUMBER PUSH1 0xA DUP2 SWAP1 SSTORE POP PUSH2 0x1B26 PUSH32 0x98AF5338DCC8F30DDECEE444B0EC20E02F363874543D497E7A20DBCF580E3822 PUSH1 0x0 SHL PUSH2 0x30CC JUMP JUMPDEST PUSH2 0x1B52 PUSH32 0x96581C54AAA55E1EF43DD83E505B9B19719AB30E842119D0EDE7160FD0CEFCFB PUSH1 0x0 SHL PUSH2 0x30CC JUMP JUMPDEST POP PUSH2 0x2041 JUMP JUMPDEST PUSH2 0x1B84 PUSH32 0xB86DE7DBDCC786D026000B1980C9C1FA500965C8D3B16EFC79FC2F27A3B564D3 PUSH1 0x0 SHL PUSH2 0x30CC JUMP JUMPDEST PUSH2 0x1BB0 PUSH32 0x4739AFBFF182D5CE458F3C1DA943009C454923CCDEE12F27BEE1E93BD07C5110 PUSH1 0x0 SHL PUSH2 0x30CC JUMP JUMPDEST PUSH2 0x1BDC PUSH32 0x312231AC8EA0F2B11EB9C88694702945A760138CC3C70788F186038EA53270ED PUSH1 0x0 SHL PUSH2 0x30CC JUMP JUMPDEST PUSH1 0x0 PUSH2 0x1BF3 PUSH1 0xA SLOAD NUMBER PUSH2 0x30FB SWAP1 SWAP2 SWAP1 PUSH4 0xFFFFFFFF AND JUMP JUMPDEST SWAP1 POP PUSH2 0x1C21 PUSH32 0xF99A3BE7B1A0BDEC0D22D076B810F385612E4EC6EDC87C2B52B5F32B9B282AFC PUSH1 0x0 SHL PUSH2 0x30CC JUMP JUMPDEST PUSH2 0x1C4D PUSH32 0xDDFE8749EF193468F20E46E3146AAC76E36E9A4C094012BCBBA9238E2116560D PUSH1 0x0 SHL PUSH2 0x30CC JUMP JUMPDEST PUSH1 0x0 PUSH2 0x1C64 PUSH1 0x7 SLOAD DUP4 PUSH2 0x30CF SWAP1 SWAP2 SWAP1 PUSH4 0xFFFFFFFF AND JUMP JUMPDEST SWAP1 POP PUSH2 0x1C92 PUSH32 0xA2D92700008CE2096F8B770E4F67AC6BD2606C8B5349608BF358C2DDE1D64A1 PUSH1 0x0 SHL PUSH2 0x30CC JUMP JUMPDEST PUSH2 0x1CBE PUSH32 0x7A3F41CA3DE2C9BDF31B70F0BF1462E9422B540526D16B52EA3A25D97424FC9D PUSH1 0x0 SHL PUSH2 0x30CC JUMP JUMPDEST PUSH1 0x0 PUSH2 0x1CD5 PUSH1 0x8 SLOAD DUP5 PUSH2 0x30CF SWAP1 SWAP2 SWAP1 PUSH4 0xFFFFFFFF AND JUMP JUMPDEST SWAP1 POP PUSH2 0x1D03 PUSH32 0x9394140502E6D3C60BD5B382820E371FFD5A50459D5776E1BF757C2102340728 PUSH1 0x0 SHL PUSH2 0x30CC JUMP JUMPDEST PUSH2 0x1D2F PUSH32 0xE76E9241D23B8391FB238119803A39F06A50E7A11DEE49E1E25C6828E33C65F4 PUSH1 0x0 SHL PUSH2 0x30CC JUMP JUMPDEST PUSH1 0x2 PUSH1 0x0 SWAP1 SLOAD SWAP1 PUSH2 0x100 EXP SWAP1 DIV PUSH20 0xFFFFFFFFFFFFFFFFFFFFFFFFFFFFFFFFFFFFFFFF AND PUSH20 0xFFFFFFFFFFFFFFFFFFFFFFFFFFFFFFFFFFFFFFFF AND PUSH4 0x40C10F19 ADDRESS DUP5 PUSH1 0x40 MLOAD DUP4 PUSH4 0xFFFFFFFF AND PUSH1 0xE0 SHL DUP2 MSTORE PUSH1 0x4 ADD PUSH2 0x1D8C SWAP3 SWAP2 SWAP1 PUSH2 0x3640 JUMP JUMPDEST PUSH1 0x0 PUSH1 0x40 MLOAD DUP1 DUP4 SUB DUP2 PUSH1 0x0 DUP8 DUP1 EXTCODESIZE ISZERO DUP1 ISZERO PUSH2 0x1DA6 JUMPI PUSH1 0x0 DUP1 REVERT JUMPDEST POP GAS CALL ISZERO DUP1 ISZERO PUSH2 0x1DBA JUMPI RETURNDATASIZE PUSH1 0x0 DUP1 RETURNDATACOPY RETURNDATASIZE PUSH1 0x0 REVERT JUMPDEST POP POP POP POP PUSH2 0x1DEA PUSH32 0x2E5418F9DBF448985E13B484B05EC761C8B1B1725739BF4437F4979154CB47A3 PUSH1 0x0 SHL PUSH2 0x30CC JUMP JUMPDEST PUSH2 0x1E16 PUSH32 0xA64E234EBE303898E7E89F4AD909A9111B9A25DF82ED4E0E82E52EA5DBF4B787 PUSH1 0x0 SHL PUSH2 0x30CC JUMP JUMPDEST PUSH1 0x3 PUSH1 0x0 SWAP1 SLOAD SWAP1 PUSH2 0x100 EXP SWAP1 DIV PUSH20 0xFFFFFFFFFFFFFFFFFFFFFFFFFFFFFFFFFFFFFFFF AND PUSH20 0xFFFFFFFFFFFFFFFFFFFFFFFFFFFFFFFFFFFFFFFF AND PUSH4 0x40C10F19 ADDRESS DUP4 PUSH1 0x40 MLOAD DUP4 PUSH4 0xFFFFFFFF AND PUSH1 0xE0 SHL DUP2 MSTORE PUSH1 0x4 ADD PUSH2 0x1E73 SWAP3 SWAP2 SWAP1 PUSH2 0x3640 JUMP JUMPDEST PUSH1 0x0 PUSH1 0x40 MLOAD DUP1 DUP4 SUB DUP2 PUSH1 0x0 DUP8 DUP1 EXTCODESIZE ISZERO DUP1 ISZERO PUSH2 0x1E8D JUMPI PUSH1 0x0 DUP1 REVERT JUMPDEST POP GAS CALL ISZERO DUP1 ISZERO PUSH2 0x1EA1 JUMPI RETURNDATASIZE PUSH1 0x0 DUP1 RETURNDATACOPY RETURNDATASIZE PUSH1 0x0 REVERT JUMPDEST POP POP POP POP PUSH2 0x1ED1 PUSH32 0x5F50C97D463508E754DFBED200D2CF93F49ACFFE897C7A3971CCDB11895A1442 PUSH1 0x0 SHL PUSH2 0x30CC JUMP JUMPDEST PUSH2 0x1EFD PUSH32 0x668E1A6AFFD172F0471B55084C9919E5F6DBDE0347F0DABED018F4185FE44161 PUSH1 0x0 SHL PUSH2 0x30CC JUMP JUMPDEST PUSH2 0x1F3B PUSH2 0x1F2A DUP6 PUSH2 0x1F1C PUSH5 0xE8D4A51000 DUP7 PUSH2 0x30CF SWAP1 SWAP2 SWAP1 PUSH4 0xFFFFFFFF AND JUMP JUMPDEST PUSH2 0x30E5 SWAP1 SWAP2 SWAP1 PUSH4 0xFFFFFFFF AND JUMP JUMPDEST PUSH1 0xB SLOAD PUSH2 0x3253 SWAP1 SWAP2 SWAP1 PUSH4 0xFFFFFFFF AND JUMP JUMPDEST PUSH1 0xB DUP2 SWAP1 SSTORE POP PUSH2 0x1F6D PUSH32 0xE34AE497C447E275D8594AA1ACE7F7E708DD6627D5BEC1167185959E0FD96E29 PUSH1 0x0 SHL PUSH2 0x30CC JUMP JUMPDEST PUSH2 0x1F99 PUSH32 0xFCD6F6E98932BA16A3F6F336C932D4C21326299DAE2F2B1988A4F007E108F7E9 PUSH1 0x0 SHL PUSH2 0x30CC JUMP JUMPDEST PUSH2 0x1FD7 PUSH2 0x1FC6 DUP6 PUSH2 0x1FB8 PUSH5 0xE8D4A51000 DUP6 PUSH2 0x30CF SWAP1 SWAP2 SWAP1 PUSH4 0xFFFFFFFF AND JUMP JUMPDEST PUSH2 0x30E5 SWAP1 SWAP2 SWAP1 PUSH4 0xFFFFFFFF AND JUMP JUMPDEST PUSH1 0xC SLOAD PUSH2 0x3253 SWAP1 SWAP2 SWAP1 PUSH4 0xFFFFFFFF AND JUMP JUMPDEST PUSH1 0xC DUP2 SWAP1 SSTORE POP PUSH2 0x2009 PUSH32 0x8299E62E43CD85C93FACF59EAD9547841835E1B5D8494AB572BA5409D3E7E11A PUSH1 0x0 SHL PUSH2 0x30CC JUMP JUMPDEST PUSH2 0x2035 PUSH32 0x3EFD53F86EAFD146A783E5A89B1C774FB66DFE423C59D1CE43AED7F60A8FD92A PUSH1 0x0 SHL PUSH2 0x30CC JUMP JUMPDEST NUMBER PUSH1 0xA DUP2 SWAP1 SSTORE POP POP POP POP POP JUMPDEST JUMP JUMPDEST PUSH1 0x7 SLOAD DUP2 JUMP JUMPDEST PUSH1 0xA SLOAD DUP2 JUMP JUMPDEST PUSH2 0x207B PUSH32 0x7307CCE97A14FDBB2CC6D37688404DF6D94CAF37C1276080C7023AD1406E628B PUSH1 0x0 SHL PUSH2 0x30CC JUMP JUMPDEST PUSH2 0x20A7 PUSH32 0x13F9A961277FB7E241C3CB75F4D0E69F7A1C40CCB85ADB4DBE393439B20DFB4F PUSH1 0x0 SHL PUSH2 0x30CC JUMP JUMPDEST PUSH2 0x20D3 PUSH32 0xCAC5483CCC48366C846C65A1FBEC64AEAFF122F5359D659CE5BA5BA28DDD7299 PUSH1 0x0 SHL PUSH2 0x30CC JUMP JUMPDEST PUSH2 0x20FF PUSH32 0x51AB597EBF2B7D8B37177AC7005264B805F96C5CE6CBB1AF9C946E4D91760C67 PUSH1 0x0 SHL PUSH2 0x30CC JUMP JUMPDEST PUSH1 0x0 DUP2 GT PUSH2 0x2142 JUMPI PUSH1 0x40 MLOAD PUSH32 0x8C379A000000000000000000000000000000000000000000000000000000000 DUP2 MSTORE PUSH1 0x4 ADD PUSH2 0x2139 SWAP1 PUSH2 0x352B JUMP JUMPDEST PUSH1 0x40 MLOAD DUP1 SWAP2 SUB SWAP1 REVERT JUMPDEST PUSH2 0x216E PUSH32 0xF832D15E714AA0ECA0213997867E773B6D294F0319F72463FBED104CF82DC10C PUSH1 0x0 SHL PUSH2 0x30CC JUMP JUMPDEST PUSH2 0x219A PUSH32 0x593D851AA6EFAC8D7E5254179F98F25D30B44E867B5E865EA5999150CD8C508B PUSH1 0x0 SHL PUSH2 0x30CC JUMP JUMPDEST PUSH2 0x21C6 PUSH32 0xBC39619D7299160282BA32B513AA436B750EAAB30218ABA7596177B449DE6693 PUSH1 0x0 SHL PUSH2 0x30CC JUMP JUMPDEST PUSH1 0x0 PUSH1 0xD PUSH1 0x0 CALLER PUSH20 0xFFFFFFFFFFFFFFFFFFFFFFFFFFFFFFFFFFFFFFFF AND PUSH20 0xFFFFFFFFFFFFFFFFFFFFFFFFFFFFFFFFFFFFFFFF AND DUP2 MSTORE PUSH1 0x20 ADD SWAP1 DUP2 MSTORE PUSH1 0x20 ADD PUSH1 0x0 KECCAK256 SWAP1 POP PUSH2 0x2235 PUSH32 0xC256E7CF217D23F2CBFC5F5700506DB6928A88FAD203C786551DB12F88D67CBE PUSH1 0x0 SHL PUSH2 0x30CC JUMP JUMPDEST PUSH2 0x2261 PUSH32 0x3BE5EB80A6290ED5EE928E769C75B5921EFFD3C96830F917E6F67B52CB32C8E7 PUSH1 0x0 SHL PUSH2 0x30CC JUMP JUMPDEST PUSH2 0x2269 PUSH2 0x18EB JUMP JUMPDEST PUSH2 0x2295 PUSH32 0xEAB8462F5437C3C3D04F2EF61184E260497049BB2CE3E5BC0E54CF75287032A PUSH1 0x0 SHL PUSH2 0x30CC JUMP JUMPDEST PUSH2 0x22C1 PUSH32 0x99B41C0AC38EA8262EA69FB8BCEE34022DEA7BB965AA4D8FB1AB5875D7EF3B72 PUSH1 0x0 SHL PUSH2 0x30CC JUMP JUMPDEST PUSH1 0x0 DUP2 PUSH1 0x0 ADD SLOAD GT ISZERO PUSH2 0x284D JUMPI PUSH2 0x22FA PUSH32 0x709E603DED08FC068EC8588B94105299A8F9C9B11A542AB1557DA2BA55D32FBA PUSH1 0x0 SHL PUSH2 0x30CC JUMP JUMPDEST PUSH2 0x2326 PUSH32 0x1D7FCE82212B9E7BEBEECB5B7ED6179274E6E02B5F20BB565DA055000803090B PUSH1 0x0 SHL PUSH2 0x30CC JUMP JUMPDEST PUSH2 0x2352 PUSH32 0x71BEBB7FFFB3DDFDEE9ED3EC856D5304E38B94B3F164745BB124BD136E117360 PUSH1 0x0 SHL PUSH2 0x30CC JUMP JUMPDEST PUSH1 0x0 DUP1 PUSH2 0x235E CALLER PUSH2 0x2F14 JUMP JUMPDEST SWAP2 POP SWAP2 POP PUSH2 0x238E PUSH32 0xBC902CF53A2C2B122686DC30D41E1AFA5E07FB29FDCB329F62E54DD173A89B9F PUSH1 0x0 SHL PUSH2 0x30CC JUMP JUMPDEST PUSH2 0x23BA PUSH32 0x45621B2018CC4FEA3F0EAE407AE5303B8F34B9BDF4F9B3F0724AC5CA81031858 PUSH1 0x0 SHL PUSH2 0x30CC JUMP JUMPDEST PUSH1 0x2 PUSH1 0x0 SWAP1 SLOAD SWAP1 PUSH2 0x100 EXP SWAP1 DIV PUSH20 0xFFFFFFFFFFFFFFFFFFFFFFFFFFFFFFFFFFFFFFFF AND PUSH20 0xFFFFFFFFFFFFFFFFFFFFFFFFFFFFFFFFFFFFFFFF AND PUSH4 0xA9059CBB PUSH1 0x9 PUSH1 0x0 SWAP1 SLOAD SWAP1 PUSH2 0x100 EXP SWAP1 DIV PUSH20 0xFFFFFFFFFFFFFFFFFFFFFFFFFFFFFFFFFFFFFFFF AND PUSH2 0x2442 PUSH1 0x64 PUSH2 0x2434 PUSH1 0xA DUP9 PUSH2 0x30CF SWAP1 SWAP2 SWAP1 PUSH4 0xFFFFFFFF AND JUMP JUMPDEST PUSH2 0x30E5 SWAP1 SWAP2 SWAP1 PUSH4 0xFFFFFFFF AND JUMP JUMPDEST PUSH1 0x40 MLOAD DUP4 PUSH4 0xFFFFFFFF AND PUSH1 0xE0 SHL DUP2 MSTORE PUSH1 0x4 ADD PUSH2 0x245F SWAP3 SWAP2 SWAP1 PUSH2 0x3640 JUMP JUMPDEST PUSH1 0x20 PUSH1 0x40 MLOAD DUP1 DUP4 SUB DUP2 PUSH1 0x0 DUP8 GAS CALL ISZERO DUP1 ISZERO PUSH2 0x247E JUMPI RETURNDATASIZE PUSH1 0x0 DUP1 RETURNDATACOPY RETURNDATASIZE PUSH1 0x0 REVERT JUMPDEST POP POP POP POP PUSH1 0x40 MLOAD RETURNDATASIZE PUSH1 0x1F NOT PUSH1 0x1F DUP3 ADD AND DUP3 ADD DUP1 PUSH1 0x40 MSTORE POP DUP2 ADD SWAP1 PUSH2 0x24A2 SWAP2 SWAP1 PUSH2 0x36A1 JUMP JUMPDEST POP PUSH2 0x24CF PUSH32 0x52EE005E1EE526A685B84FBC76533F480B2D9A44C6553FEE8A1C5BC28294C68E PUSH1 0x0 SHL PUSH2 0x30CC JUMP JUMPDEST PUSH2 0x24FB PUSH32 0xD3A4C9EEEE7A4D05CF5F9DFC8D434FB70C8C2B84AB676ECFC49B8EA0080D1A7C PUSH1 0x0 SHL PUSH2 0x30CC JUMP JUMPDEST PUSH1 0x3 PUSH1 0x0 SWAP1 SLOAD SWAP1 PUSH2 0x100 EXP SWAP1 DIV PUSH20 0xFFFFFFFFFFFFFFFFFFFFFFFFFFFFFFFFFFFFFFFF AND PUSH20 0xFFFFFFFFFFFFFFFFFFFFFFFFFFFFFFFFFFFFFFFF AND PUSH4 0xA9059CBB PUSH1 0x9 PUSH1 0x0 SWAP1 SLOAD SWAP1 PUSH2 0x100 EXP SWAP1 DIV PUSH20 0xFFFFFFFFFFFFFFFFFFFFFFFFFFFFFFFFFFFFFFFF AND PUSH2 0x2583 PUSH1 0x64 PUSH2 0x2575 PUSH1 0xA DUP8 PUSH2 0x30CF SWAP1 SWAP2 SWAP1 PUSH4 0xFFFFFFFF AND JUMP JUMPDEST PUSH2 0x30E5 SWAP1 SWAP2 SWAP1 PUSH4 0xFFFFFFFF AND JUMP JUMPDEST PUSH1 0x40 MLOAD DUP4 PUSH4 0xFFFFFFFF AND PUSH1 0xE0 SHL DUP2 MSTORE PUSH1 0x4 ADD PUSH2 0x25A0 SWAP3 SWAP2 SWAP1 PUSH2 0x3640 JUMP JUMPDEST PUSH1 0x20 PUSH1 0x40 MLOAD DUP1 DUP4 SUB DUP2 PUSH1 0x0 DUP8 GAS CALL ISZERO DUP1 ISZERO PUSH2 0x25BF JUMPI RETURNDATASIZE PUSH1 0x0 DUP1 RETURNDATACOPY RETURNDATASIZE PUSH1 0x0 REVERT JUMPDEST POP POP POP POP PUSH1 0x40 MLOAD RETURNDATASIZE PUSH1 0x1F NOT PUSH1 0x1F DUP3 ADD AND DUP3 ADD DUP1 PUSH1 0x40 MSTORE POP DUP2 ADD SWAP1 PUSH2 0x25E3 SWAP2 SWAP1 PUSH2 0x36A1 JUMP JUMPDEST POP PUSH2 0x2610 PUSH32 0x997A9C10BD33AC6632C873FD31E623638C02C3BD4A764628A6DCBC3A33CCEFDB PUSH1 0x0 SHL PUSH2 0x30CC JUMP JUMPDEST PUSH2 0x263C PUSH32 0x1BCE3B53465CD09BAF2AD3530575C4E77837C4CAB74B6DEAD610857391C10CC8 PUSH1 0x0 SHL PUSH2 0x30CC JUMP JUMPDEST PUSH1 0x2 PUSH1 0x0 SWAP1 SLOAD SWAP1 PUSH2 0x100 EXP SWAP1 DIV PUSH20 0xFFFFFFFFFFFFFFFFFFFFFFFFFFFFFFFFFFFFFFFF AND PUSH20 0xFFFFFFFFFFFFFFFFFFFFFFFFFFFFFFFFFFFFFFFF AND PUSH4 0xA9059CBB CALLER PUSH2 0x26B4 PUSH2 0x26A5 PUSH1 0x64 PUSH2 0x2697 PUSH1 0xA DUP10 PUSH2 0x30CF SWAP1 SWAP2 SWAP1 PUSH4 0xFFFFFFFF AND JUMP JUMPDEST PUSH2 0x30E5 SWAP1 SWAP2 SWAP1 PUSH4 0xFFFFFFFF AND JUMP JUMPDEST DUP7 PUSH2 0x30FB SWAP1 SWAP2 SWAP1 PUSH4 0xFFFFFFFF AND JUMP JUMPDEST PUSH1 0x40 MLOAD DUP4 PUSH4 0xFFFFFFFF AND PUSH1 0xE0 SHL DUP2 MSTORE PUSH1 0x4 ADD PUSH2 0x26D1 SWAP3 SWAP2 SWAP1 PUSH2 0x3640 JUMP JUMPDEST PUSH1 0x20 PUSH1 0x40 MLOAD DUP1 DUP4 SUB DUP2 PUSH1 0x0 DUP8 GAS CALL ISZERO DUP1 ISZERO PUSH2 0x26F0 JUMPI RETURNDATASIZE PUSH1 0x0 DUP1 RETURNDATACOPY RETURNDATASIZE PUSH1 0x0 REVERT JUMPDEST POP POP POP POP PUSH1 0x40 MLOAD RETURNDATASIZE PUSH1 0x1F NOT PUSH1 0x1F DUP3 ADD AND DUP3 ADD DUP1 PUSH1 0x40 MSTORE POP DUP2 ADD SWAP1 PUSH2 0x2714 SWAP2 SWAP1 PUSH2 0x36A1 JUMP JUMPDEST POP PUSH2 0x2741 PUSH32 0x31865CE197F4B0E6F26ACEED32F175667A7E6FEC6E166F41C8647715242E7503 PUSH1 0x0 SHL PUSH2 0x30CC JUMP JUMPDEST PUSH2 0x276D PUSH32 0x45133126C09243E775CC5537981579BEB452E42656A6E37AB28772E7AA36D6EC PUSH1 0x0 SHL PUSH2 0x30CC JUMP JUMPDEST PUSH1 0x3 PUSH1 0x0 SWAP1 SLOAD SWAP1 PUSH2 0x100 EXP SWAP1 DIV PUSH20 0xFFFFFFFFFFFFFFFFFFFFFFFFFFFFFFFFFFFFFFFF AND PUSH20 0xFFFFFFFFFFFFFFFFFFFFFFFFFFFFFFFFFFFFFFFF AND PUSH4 0xA9059CBB CALLER PUSH2 0x27E5 PUSH2 0x27D6 PUSH1 0x64 PUSH2 0x27C8 PUSH1 0xA DUP9 PUSH2 0x30CF SWAP1 SWAP2 SWAP1 PUSH4 0xFFFFFFFF AND JUMP JUMPDEST PUSH2 0x30E5 SWAP1 SWAP2 SWAP1 PUSH4 0xFFFFFFFF AND JUMP JUMPDEST DUP6 PUSH2 0x30FB SWAP1 SWAP2 SWAP1 PUSH4 0xFFFFFFFF AND JUMP JUMPDEST PUSH1 0x40 MLOAD DUP4 PUSH4 0xFFFFFFFF AND PUSH1 0xE0 SHL DUP2 MSTORE PUSH1 0x4 ADD PUSH2 0x2802 SWAP3 SWAP2 SWAP1 PUSH2 0x3640 JUMP JUMPDEST PUSH1 0x20 PUSH1 0x40 MLOAD DUP1 DUP4 SUB DUP2 PUSH1 0x0 DUP8 GAS CALL ISZERO DUP1 ISZERO PUSH2 0x2821 JUMPI RETURNDATASIZE PUSH1 0x0 DUP1 RETURNDATACOPY RETURNDATASIZE PUSH1 0x0 REVERT JUMPDEST POP POP POP POP PUSH1 0x40 MLOAD RETURNDATASIZE PUSH1 0x1F NOT PUSH1 0x1F DUP3 ADD AND DUP3 ADD DUP1 PUSH1 0x40 MSTORE POP DUP2 ADD SWAP1 PUSH2 0x2845 SWAP2 SWAP1 PUSH2 0x36A1 JUMP JUMPDEST POP POP POP PUSH2 0x287A JUMP JUMPDEST PUSH2 0x2879 PUSH32 0xE49B53985DB78286EA2F5BCFA65B3C057B9FA85177AE9CC1034E9D34482D9F67 PUSH1 0x0 SHL PUSH2 0x30CC JUMP JUMPDEST JUMPDEST PUSH2 0x28A6 PUSH32 0xCFE76BE50B3FF5F60C86F16E7F2F04C1A85DB63E7927D0D014E3A1F66784B439 PUSH1 0x0 SHL PUSH2 0x30CC JUMP JUMPDEST PUSH2 0x28D2 PUSH32 0xFD8C0CE99C9F7C2A4EB751C9529D203B671A9206938938D47A42AB621B631720 PUSH1 0x0 SHL PUSH2 0x30CC JUMP JUMPDEST PUSH1 0x0 PUSH1 0x64 PUSH1 0x4 SLOAD DUP5 PUSH2 0x28E4 SWAP2 SWAP1 PUSH2 0x3710 JUMP JUMPDEST PUSH2 0x28EE SWAP2 SWAP1 PUSH2 0x3781 JUMP JUMPDEST SWAP1 POP PUSH2 0x291C PUSH32 0xF66D83DF518CD9E8C95D24234447943E589080742C9069A48E91D728C9B868ED PUSH1 0x0 SHL PUSH2 0x30CC JUMP JUMPDEST PUSH2 0x2948 PUSH32 0x38D417AD5A3EE9342B32D4ECBFE22A3364AF5FBFCE152D9385E6A6794009EFAD PUSH1 0x0 SHL PUSH2 0x30CC JUMP JUMPDEST PUSH1 0x0 DUP2 DUP5 PUSH2 0x2956 SWAP2 SWAP1 PUSH2 0x357A JUMP JUMPDEST SWAP1 POP PUSH2 0x2984 PUSH32 0x77E612D03BC4D72CF90C7C310CFEE625A2DB307762E9AE9795A616ED29FB538E PUSH1 0x0 SHL PUSH2 0x30CC JUMP JUMPDEST PUSH2 0x29B0 PUSH32 0x53405E789BC265DF0BACE73D148890BB7FAC4FD359327FA82BE698F66E206F5B PUSH1 0x0 SHL PUSH2 0x30CC JUMP JUMPDEST PUSH1 0x1 PUSH1 0x0 SWAP1 SLOAD SWAP1 PUSH2 0x100 EXP SWAP1 DIV PUSH20 0xFFFFFFFFFFFFFFFFFFFFFFFFFFFFFFFFFFFFFFFF AND PUSH20 0xFFFFFFFFFFFFFFFFFFFFFFFFFFFFFFFFFFFFFFFF AND PUSH4 0x23B872DD CALLER ADDRESS DUP8 PUSH1 0x40 MLOAD DUP5 PUSH4 0xFFFFFFFF AND PUSH1 0xE0 SHL DUP2 MSTORE PUSH1 0x4 ADD PUSH2 0x2A0F SWAP4 SWAP3 SWAP2 SWAP1 PUSH2 0x37B2 JUMP JUMPDEST PUSH1 0x20 PUSH1 0x40 MLOAD DUP1 DUP4 SUB DUP2 PUSH1 0x0 DUP8 GAS CALL ISZERO DUP1 ISZERO PUSH2 0x2A2E JUMPI RETURNDATASIZE PUSH1 0x0 DUP1 RETURNDATACOPY RETURNDATASIZE PUSH1 0x0 REVERT JUMPDEST POP POP POP POP PUSH1 0x40 MLOAD RETURNDATASIZE PUSH1 0x1F NOT PUSH1 0x1F DUP3 ADD AND DUP3 ADD DUP1 PUSH1 0x40 MSTORE POP DUP2 ADD SWAP1 PUSH2 0x2A52 SWAP2 SWAP1 PUSH2 0x36A1 JUMP JUMPDEST POP PUSH2 0x2A7F PUSH32 0x538A8CC4CA32B29C8251ECEC430852F96BB7E5786276C1FA8F2B6549942D9CE2 PUSH1 0x0 SHL PUSH2 0x30CC JUMP JUMPDEST PUSH2 0x2AAB PUSH32 0x9D48E3E198D70F0E7A5ADB8583E5D6A53832778C477DBD505D853C2BD2C30322 PUSH1 0x0 SHL PUSH2 0x30CC JUMP JUMPDEST PUSH1 0x1 PUSH1 0x0 SWAP1 SLOAD SWAP1 PUSH2 0x100 EXP SWAP1 DIV PUSH20 0xFFFFFFFFFFFFFFFFFFFFFFFFFFFFFFFFFFFFFFFF AND PUSH20 0xFFFFFFFFFFFFFFFFFFFFFFFFFFFFFFFFFFFFFFFF AND PUSH4 0xA9059CBB PUSH1 0x9 PUSH1 0x0 SWAP1 SLOAD SWAP1 PUSH2 0x100 EXP SWAP1 DIV PUSH20 0xFFFFFFFFFFFFFFFFFFFFFFFFFFFFFFFFFFFFFFFF AND DUP5 PUSH1 0x40 MLOAD DUP4 PUSH4 0xFFFFFFFF AND PUSH1 0xE0 SHL DUP2 MSTORE PUSH1 0x4 ADD PUSH2 0x2B2A SWAP3 SWAP2 SWAP1 PUSH2 0x3640 JUMP JUMPDEST PUSH1 0x20 PUSH1 0x40 MLOAD DUP1 DUP4 SUB DUP2 PUSH1 0x0 DUP8 GAS CALL ISZERO DUP1 ISZERO PUSH2 0x2B49 JUMPI RETURNDATASIZE PUSH1 0x0 DUP1 RETURNDATACOPY RETURNDATASIZE PUSH1 0x0 REVERT JUMPDEST POP POP POP POP PUSH1 0x40 MLOAD RETURNDATASIZE PUSH1 0x1F NOT PUSH1 0x1F DUP3 ADD AND DUP3 ADD DUP1 PUSH1 0x40 MSTORE POP DUP2 ADD SWAP1 PUSH2 0x2B6D SWAP2 SWAP1 PUSH2 0x36A1 JUMP JUMPDEST POP PUSH2 0x2B9A PUSH32 0x8DCE8051929D4CC61D7C6AA747B53AE34776830B3DE200B06FA017153F37CB12 PUSH1 0x0 SHL PUSH2 0x30CC JUMP JUMPDEST PUSH2 0x2BC6 PUSH32 0x24E532AD4FC179BBA85AEDAC039ADF90AD2DDFFDB7D4537BD78CFA209B79CCC1 PUSH1 0x0 SHL PUSH2 0x30CC JUMP JUMPDEST PUSH2 0x2BDD DUP2 DUP5 PUSH1 0x0 ADD SLOAD PUSH2 0x3253 SWAP1 SWAP2 SWAP1 PUSH4 0xFFFFFFFF AND JUMP JUMPDEST DUP4 PUSH1 0x0 ADD DUP2 SWAP1 SSTORE POP PUSH2 0x2C11 PUSH32 0xECCDBBA6067A55711585414BAF67EE516D400EBBBF3E1F504FA0146D459B437B PUSH1 0x0 SHL PUSH2 0x30CC JUMP JUMPDEST PUSH2 0x2C3D PUSH32 0xE706AA8DFD078FC9D2A7FD516E07FCCB98468CFF7EA5D86C2D348135FBA544A PUSH1 0x0 SHL PUSH2 0x30CC JUMP JUMPDEST PUSH2 0x2C6D PUSH5 0xE8D4A51000 PUSH2 0x2C5F PUSH1 0xB SLOAD DUP7 PUSH1 0x0 ADD SLOAD PUSH2 0x30CF SWAP1 SWAP2 SWAP1 PUSH4 0xFFFFFFFF AND JUMP JUMPDEST PUSH2 0x30E5 SWAP1 SWAP2 SWAP1 PUSH4 0xFFFFFFFF AND JUMP JUMPDEST DUP4 PUSH1 0x1 ADD DUP2 SWAP1 SSTORE POP PUSH2 0x2CA1 PUSH32 0x441F9F04D9EA35119229033A22DD41B848B0A6C406238EF992BD33778EF0EBA8 PUSH1 0x0 SHL PUSH2 0x30CC JUMP JUMPDEST PUSH2 0x2CCD PUSH32 0x415DB434B90BAF4582A9BABB8A7E2469B4AAF705508DBBC2FD5BB5F0EF5EAD36 PUSH1 0x0 SHL PUSH2 0x30CC JUMP JUMPDEST PUSH2 0x2CFD PUSH5 0xE8D4A51000 PUSH2 0x2CEF PUSH1 0xC SLOAD DUP7 PUSH1 0x0 ADD SLOAD PUSH2 0x30CF SWAP1 SWAP2 SWAP1 PUSH4 0xFFFFFFFF AND JUMP JUMPDEST PUSH2 0x30E5 SWAP1 SWAP2 SWAP1 PUSH4 0xFFFFFFFF AND JUMP JUMPDEST DUP4 PUSH1 0x2 ADD DUP2 SWAP1 SSTORE POP PUSH2 0x2D31 PUSH32 0x912041EC950B16F0C18CF10DF45F85FB885E94E071D18B3AEEB4270D8DEDB87D PUSH1 0x0 SHL PUSH2 0x30CC JUMP JUMPDEST PUSH2 0x2D5D PUSH32 0x752AFA3F1DB3D6C3DDEB4543E506EC7D5419BCE862A9B7C2D3DAB679931414E9 PUSH1 0x0 SHL PUSH2 0x30CC JUMP JUMPDEST TIMESTAMP PUSH1 0xE PUSH1 0x0 CALLER PUSH20 0xFFFFFFFFFFFFFFFFFFFFFFFFFFFFFFFFFFFFFFFF AND PUSH20 0xFFFFFFFFFFFFFFFFFFFFFFFFFFFFFFFFFFFFFFFF AND DUP2 MSTORE PUSH1 0x20 ADD SWAP1 DUP2 MSTORE PUSH1 0x20 ADD PUSH1 0x0 KECCAK256 DUP2 SWAP1 SSTORE POP PUSH2 0x2DCD PUSH32 0x9053A95E374859CB2AD2E637222CED51DCD732A4558BBDED09ECBB11AAE1E04C PUSH1 0x0 SHL PUSH2 0x30CC JUMP JUMPDEST PUSH2 0x2DF9 PUSH32 0x2F38C748040D2A314F2AD913A7E7ABE08EC8E3BB556B419694ABA1353473F94A PUSH1 0x0 SHL PUSH2 0x30CC JUMP JUMPDEST CALLER PUSH20 0xFFFFFFFFFFFFFFFFFFFFFFFFFFFFFFFFFFFFFFFF AND PUSH32 0xE1FFFCC4923D04B559F4D29A8BFC6CDA04EB5B0D3C460751C2402C5C5CC9109C DUP3 PUSH1 0x40 MLOAD PUSH2 0x2E3F SWAP2 SWAP1 PUSH2 0x33AA JUMP JUMPDEST PUSH1 0x40 MLOAD DUP1 SWAP2 SUB SWAP1 LOG2 POP POP POP POP JUMP JUMPDEST PUSH1 0xE PUSH1 0x20 MSTORE DUP1 PUSH1 0x0 MSTORE PUSH1 0x40 PUSH1 0x0 KECCAK256 PUSH1 0x0 SWAP2 POP SWAP1 POP SLOAD DUP2 JUMP JUMPDEST PUSH1 0x3 PUSH1 0x0 SWAP1 SLOAD SWAP1 PUSH2 0x100 EXP SWAP1 DIV PUSH20 0xFFFFFFFFFFFFFFFFFFFFFFFFFFFFFFFFFFFFFFFF AND DUP2 JUMP JUMPDEST PUSH1 0x8 SLOAD DUP2 JUMP JUMPDEST PUSH2 0x2E99 PUSH2 0x3111 JUMP JUMPDEST PUSH1 0x0 PUSH20 0xFFFFFFFFFFFFFFFFFFFFFFFFFFFFFFFFFFFFFFFF AND DUP2 PUSH20 0xFFFFFFFFFFFFFFFFFFFFFFFFFFFFFFFFFFFFFFFF AND SUB PUSH2 0x2F08 JUMPI PUSH1 0x40 MLOAD PUSH32 0x8C379A000000000000000000000000000000000000000000000000000000000 DUP2 MSTORE PUSH1 0x4 ADD PUSH2 0x2EFF SWAP1 PUSH2 0x385B JUMP JUMPDEST PUSH1 0x40 MLOAD DUP1 SWAP2 SUB SWAP1 REVERT JUMPDEST PUSH2 0x2F11 DUP2 PUSH2 0x318F JUMP JUMPDEST POP JUMP JUMPDEST PUSH1 0x0 DUP1 PUSH2 0x2F43 PUSH32 0xE471D89DBA23BA6AB08915C725C864295E60BDE82A19C2674DA332A0540A756C PUSH1 0x0 SHL PUSH2 0x30CC JUMP JUMPDEST PUSH2 0x2F6F PUSH32 0xACD70FD8D06675EAD35628FF79D7DA65822FEF3BC8D55446C8AEAEA872D4D64 PUSH1 0x0 SHL PUSH2 0x30CC JUMP JUMPDEST PUSH2 0x2F9B PUSH32 0xD2F65EF0AFA4CB06F78F11876250C4627E7EBD3B40C4C43FD8B9D6F7AF5D134B PUSH1 0x0 SHL PUSH2 0x30CC JUMP JUMPDEST PUSH1 0x0 PUSH1 0xD PUSH1 0x0 DUP6 PUSH20 0xFFFFFFFFFFFFFFFFFFFFFFFFFFFFFFFFFFFFFFFF AND PUSH20 0xFFFFFFFFFFFFFFFFFFFFFFFFFFFFFFFFFFFFFFFF AND DUP2 MSTORE PUSH1 0x20 ADD SWAP1 DUP2 MSTORE PUSH1 0x20 ADD PUSH1 0x0 KECCAK256 SWAP1 POP PUSH2 0x300A PUSH32 0x4484EB503F91CDC044A4280A4C211968AAC5046998D9B12384EC1B3B6C1415B6 PUSH1 0x0 SHL PUSH2 0x30CC JUMP JUMPDEST PUSH2 0x3036 PUSH32 0x1BF65A14AB35B1BA0C2A3A5A509A4C8885B01EA9AE47D1F6CD51101CA4634FE1 PUSH1 0x0 SHL PUSH2 0x30CC JUMP JUMPDEST PUSH2 0x307C DUP2 PUSH1 0x1 ADD SLOAD PUSH2 0x306E PUSH5 0xE8D4A51000 PUSH2 0x3060 PUSH1 0xB SLOAD DUP7 PUSH1 0x0 ADD SLOAD PUSH2 0x30CF SWAP1 SWAP2 SWAP1 PUSH4 0xFFFFFFFF AND JUMP JUMPDEST PUSH2 0x30E5 SWAP1 SWAP2 SWAP1 PUSH4 0xFFFFFFFF AND JUMP JUMPDEST PUSH2 0x30FB SWAP1 SWAP2 SWAP1 PUSH4 0xFFFFFFFF AND JUMP JUMPDEST PUSH2 0x30C2 DUP3 PUSH1 0x2 ADD SLOAD PUSH2 0x30B4 PUSH5 0xE8D4A51000 PUSH2 0x30A6 PUSH1 0xC SLOAD DUP8 PUSH1 0x0 ADD SLOAD PUSH2 0x30CF SWAP1 SWAP2 SWAP1 PUSH4 0xFFFFFFFF AND JUMP JUMPDEST PUSH2 0x30E5 SWAP1 SWAP2 SWAP1 PUSH4 0xFFFFFFFF AND JUMP JUMPDEST PUSH2 0x30FB SWAP1 SWAP2 SWAP1 PUSH4 0xFFFFFFFF AND JUMP JUMPDEST SWAP3 POP SWAP3 POP POP SWAP2 POP SWAP2 JUMP JUMPDEST POP JUMP JUMPDEST PUSH1 0x0 DUP2 DUP4 PUSH2 0x30DD SWAP2 SWAP1 PUSH2 0x3710 JUMP JUMPDEST SWAP1 POP SWAP3 SWAP2 POP POP JUMP JUMPDEST PUSH1 0x0 DUP2 DUP4 PUSH2 0x30F3 SWAP2 SWAP1 PUSH2 0x3781 JUMP JUMPDEST SWAP1 POP SWAP3 SWAP2 POP POP JUMP JUMPDEST PUSH1 0x0 DUP2 DUP4 PUSH2 0x3109 SWAP2 SWAP1 PUSH2 0x357A JUMP JUMPDEST SWAP1 POP SWAP3 SWAP2 POP POP JUMP JUMPDEST PUSH2 0x3119 PUSH2 0x3269 JUMP JUMPDEST PUSH20 0xFFFFFFFFFFFFFFFFFFFFFFFFFFFFFFFFFFFFFFFF AND PUSH2 0x3137 PUSH2 0x18C2 JUMP JUMPDEST PUSH20 0xFFFFFFFFFFFFFFFFFFFFFFFFFFFFFFFFFFFFFFFF AND EQ PUSH2 0x318D JUMPI PUSH1 0x40 MLOAD PUSH32 0x8C379A000000000000000000000000000000000000000000000000000000000 DUP2 MSTORE PUSH1 0x4 ADD PUSH2 0x3184 SWAP1 PUSH2 0x38C7 JUMP JUMPDEST PUSH1 0x40 MLOAD DUP1 SWAP2 SUB SWAP1 REVERT JUMPDEST JUMP JUMPDEST PUSH1 0x0 DUP1 PUSH1 0x0 SWAP1 SLOAD SWAP1 PUSH2 0x100 EXP SWAP1 DIV PUSH20 0xFFFFFFFFFFFFFFFFFFFFFFFFFFFFFFFFFFFFFFFF AND SWAP1 POP DUP2 PUSH1 0x0 DUP1 PUSH2 0x100 EXP DUP2 SLOAD DUP2 PUSH20 0xFFFFFFFFFFFFFFFFFFFFFFFFFFFFFFFFFFFFFFFF MUL NOT AND SWAP1 DUP4 PUSH20 0xFFFFFFFFFFFFFFFFFFFFFFFFFFFFFFFFFFFFFFFF AND MUL OR SWAP1 SSTORE POP DUP2 PUSH20 0xFFFFFFFFFFFFFFFFFFFFFFFFFFFFFFFFFFFFFFFF AND DUP2 PUSH20 0xFFFFFFFFFFFFFFFFFFFFFFFFFFFFFFFFFFFFFFFF AND PUSH32 0x8BE0079C531659141344CD1FD0A4F28419497F9722A3DAAFE3B4186F6B6457E0 PUSH1 0x40 MLOAD PUSH1 0x40 MLOAD DUP1 SWAP2 SUB SWAP1 LOG3 POP POP JUMP JUMPDEST PUSH1 0x0 DUP2 DUP4 PUSH2 0x3261 SWAP2 SWAP1 PUSH2 0x38E7 JUMP JUMPDEST SWAP1 POP SWAP3 SWAP2 POP POP JUMP JUMPDEST PUSH1 0x0 CALLER SWAP1 POP SWAP1 JUMP JUMPDEST PUSH1 0x0 DUP1 REVERT JUMPDEST PUSH1 0x0 PUSH20 0xFFFFFFFFFFFFFFFFFFFFFFFFFFFFFFFFFFFFFFFF DUP3 AND SWAP1 POP SWAP2 SWAP1 POP JUMP JUMPDEST PUSH1 0x0 PUSH2 0x32A1 DUP3 PUSH2 0x3276 JUMP JUMPDEST SWAP1 POP SWAP2 SWAP1 POP JUMP JUMPDEST PUSH2 0x32B1 DUP2 PUSH2 0x3296 JUMP JUMPDEST DUP2 EQ PUSH2 0x32BC JUMPI PUSH1 0x0 DUP1 REVERT JUMPDEST POP JUMP JUMPDEST PUSH1 0x0 DUP2 CALLDATALOAD SWAP1 POP PUSH2 0x32CE DUP2 PUSH2 0x32A8 JUMP JUMPDEST SWAP3 SWAP2 POP POP JUMP JUMPDEST PUSH1 0x0 PUSH1 0x20 DUP3 DUP5 SUB SLT ISZERO PUSH2 0x32EA JUMPI PUSH2 0x32E9 PUSH2 0x3271 JUMP JUMPDEST JUMPDEST PUSH1 0x0 PUSH2 0x32F8 DUP5 DUP3 DUP6 ADD PUSH2 0x32BF JUMP JUMPDEST SWAP2 POP POP SWAP3 SWAP2 POP POP JUMP JUMPDEST PUSH1 0x0 DUP2 SWAP1 POP SWAP2 SWAP1 POP JUMP JUMPDEST PUSH2 0x3314 DUP2 PUSH2 0x3301 JUMP JUMPDEST DUP3 MSTORE POP POP JUMP JUMPDEST PUSH1 0x0 PUSH1 0x60 DUP3 ADD SWAP1 POP PUSH2 0x332F PUSH1 0x0 DUP4 ADD DUP7 PUSH2 0x330B JUMP JUMPDEST PUSH2 0x333C PUSH1 0x20 DUP4 ADD DUP6 PUSH2 0x330B JUMP JUMPDEST PUSH2 0x3349 PUSH1 0x40 DUP4 ADD DUP5 PUSH2 0x330B JUMP JUMPDEST SWAP5 SWAP4 POP POP POP POP JUMP JUMPDEST PUSH2 0x335A DUP2 PUSH2 0x3301 JUMP JUMPDEST DUP2 EQ PUSH2 0x3365 JUMPI PUSH1 0x0 DUP1 REVERT JUMPDEST POP JUMP JUMPDEST PUSH1 0x0 DUP2 CALLDATALOAD SWAP1 POP PUSH2 0x3377 DUP2 PUSH2 0x3351 JUMP JUMPDEST SWAP3 SWAP2 POP POP JUMP JUMPDEST PUSH1 0x0 PUSH1 0x20 DUP3 DUP5 SUB SLT ISZERO PUSH2 0x3393 JUMPI PUSH2 0x3392 PUSH2 0x3271 JUMP JUMPDEST JUMPDEST PUSH1 0x0 PUSH2 0x33A1 DUP5 DUP3 DUP6 ADD PUSH2 0x3368 JUMP JUMPDEST SWAP2 POP POP SWAP3 SWAP2 POP POP JUMP JUMPDEST PUSH1 0x0 PUSH1 0x20 DUP3 ADD SWAP1 POP PUSH2 0x33BF PUSH1 0x0 DUP4 ADD DUP5 PUSH2 0x330B JUMP JUMPDEST SWAP3 SWAP2 POP POP JUMP JUMPDEST PUSH2 0x33CE DUP2 PUSH2 0x3296 JUMP JUMPDEST DUP3 MSTORE POP POP JUMP JUMPDEST PUSH1 0x0 PUSH1 0x20 DUP3 ADD SWAP1 POP PUSH2 0x33E9 PUSH1 0x0 DUP4 ADD DUP5 PUSH2 0x33C5 JUMP JUMPDEST SWAP3 SWAP2 POP POP JUMP JUMPDEST PUSH1 0x0 DUP2 SWAP1 POP SWAP2 SWAP1 POP JUMP JUMPDEST PUSH1 0x0 PUSH2 0x3414 PUSH2 0x340F PUSH2 0x340A DUP5 PUSH2 0x3276 JUMP JUMPDEST PUSH2 0x33EF JUMP JUMPDEST PUSH2 0x3276 JUMP JUMPDEST SWAP1 POP SWAP2 SWAP1 POP JUMP JUMPDEST PUSH1 0x0 PUSH2 0x3426 DUP3 PUSH2 0x33F9 JUMP JUMPDEST SWAP1 POP SWAP2 SWAP1 POP JUMP JUMPDEST PUSH1 0x0 PUSH2 0x3438 DUP3 PUSH2 0x341B JUMP JUMPDEST SWAP1 POP SWAP2 SWAP1 POP JUMP JUMPDEST PUSH2 0x3448 DUP2 PUSH2 0x342D JUMP JUMPDEST DUP3 MSTORE POP POP JUMP JUMPDEST PUSH1 0x0 PUSH1 0x20 DUP3 ADD SWAP1 POP PUSH2 0x3463 PUSH1 0x0 DUP4 ADD DUP5 PUSH2 0x343F JUMP JUMPDEST SWAP3 SWAP2 POP POP JUMP JUMPDEST PUSH1 0x0 PUSH2 0x3474 DUP3 PUSH2 0x341B JUMP JUMPDEST SWAP1 POP SWAP2 SWAP1 POP JUMP JUMPDEST PUSH2 0x3484 DUP2 PUSH2 0x3469 JUMP JUMPDEST DUP3 MSTORE POP POP JUMP JUMPDEST PUSH1 0x0 PUSH1 0x20 DUP3 ADD SWAP1 POP PUSH2 0x349F PUSH1 0x0 DUP4 ADD DUP5 PUSH2 0x347B JUMP JUMPDEST SWAP3 SWAP2 POP POP JUMP JUMPDEST PUSH1 0x0 PUSH1 0x40 DUP3 ADD SWAP1 POP PUSH2 0x34BA PUSH1 0x0 DUP4 ADD DUP6 PUSH2 0x330B JUMP JUMPDEST PUSH2 0x34C7 PUSH1 0x20 DUP4 ADD DUP5 PUSH2 0x330B JUMP JUMPDEST SWAP4 SWAP3 POP POP POP JUMP JUMPDEST PUSH1 0x0 DUP3 DUP3 MSTORE PUSH1 0x20 DUP3 ADD SWAP1 POP SWAP3 SWAP2 POP POP JUMP JUMPDEST PUSH32 0x416D6F756E74206D7573742062652067726561746572207468616E2030000000 PUSH1 0x0 DUP3 ADD MSTORE POP JUMP JUMPDEST PUSH1 0x0 PUSH2 0x3515 PUSH1 0x1D DUP4 PUSH2 0x34CE JUMP JUMPDEST SWAP2 POP PUSH2 0x3520 DUP3 PUSH2 0x34DF JUMP JUMPDEST PUSH1 0x20 DUP3 ADD SWAP1 POP SWAP2 SWAP1 POP JUMP JUMPDEST PUSH1 0x0 PUSH1 0x20 DUP3 ADD SWAP1 POP DUP2 DUP2 SUB PUSH1 0x0 DUP4 ADD MSTORE PUSH2 0x3544 DUP2 PUSH2 0x3508 JUMP JUMPDEST SWAP1 POP SWAP2 SWAP1 POP JUMP JUMPDEST PUSH32 0x4E487B7100000000000000000000000000000000000000000000000000000000 PUSH1 0x0 MSTORE PUSH1 0x11 PUSH1 0x4 MSTORE PUSH1 0x24 PUSH1 0x0 REVERT JUMPDEST PUSH1 0x0 PUSH2 0x3585 DUP3 PUSH2 0x3301 JUMP JUMPDEST SWAP2 POP PUSH2 0x3590 DUP4 PUSH2 0x3301 JUMP JUMPDEST SWAP3 POP DUP3 DUP3 SUB SWAP1 POP DUP2 DUP2 GT ISZERO PUSH2 0x35A8 JUMPI PUSH2 0x35A7 PUSH2 0x354B JUMP JUMPDEST JUMPDEST SWAP3 SWAP2 POP POP JUMP JUMPDEST PUSH32 0x43616E206E6F7420776974686472617720696E206C6F636B5F706572696F6420 PUSH1 0x0 DUP3 ADD MSTORE PUSH32 0x74696D6500000000000000000000000000000000000000000000000000000000 PUSH1 0x20 DUP3 ADD MSTORE POP JUMP JUMPDEST PUSH1 0x0 PUSH2 0x360A PUSH1 0x24 DUP4 PUSH2 0x34CE JUMP JUMPDEST SWAP2 POP PUSH2 0x3615 DUP3 PUSH2 0x35AE JUMP JUMPDEST PUSH1 0x40 DUP3 ADD SWAP1 POP SWAP2 SWAP1 POP JUMP JUMPDEST PUSH1 0x0 PUSH1 0x20 DUP3 ADD SWAP1 POP DUP2 DUP2 SUB PUSH1 0x0 DUP4 ADD MSTORE PUSH2 0x3639 DUP2 PUSH2 0x35FD JUMP JUMPDEST SWAP1 POP SWAP2 SWAP1 POP JUMP JUMPDEST PUSH1 0x0 PUSH1 0x40 DUP3 ADD SWAP1 POP PUSH2 0x3655 PUSH1 0x0 DUP4 ADD DUP6 PUSH2 0x33C5 JUMP JUMPDEST PUSH2 0x3662 PUSH1 0x20 DUP4 ADD DUP5 PUSH2 0x330B JUMP JUMPDEST SWAP4 SWAP3 POP POP POP JUMP JUMPDEST PUSH1 0x0 DUP2 ISZERO ISZERO SWAP1 POP SWAP2 SWAP1 POP JUMP JUMPDEST PUSH2 0x367E DUP2 PUSH2 0x3669 JUMP JUMPDEST DUP2 EQ PUSH2 0x3689 JUMPI PUSH1 0x0 DUP1 REVERT JUMPDEST POP JUMP JUMPDEST PUSH1 0x0 DUP2 MLOAD SWAP1 POP PUSH2 0x369B DUP2 PUSH2 0x3675 JUMP JUMPDEST SWAP3 SWAP2 POP POP JUMP JUMPDEST PUSH1 0x0 PUSH1 0x20 DUP3 DUP5 SUB SLT ISZERO PUSH2 0x36B7 JUMPI PUSH2 0x36B6 PUSH2 0x3271 JUMP JUMPDEST JUMPDEST PUSH1 0x0 PUSH2 0x36C5 DUP5 DUP3 DUP6 ADD PUSH2 0x368C JUMP JUMPDEST SWAP2 POP POP SWAP3 SWAP2 POP POP JUMP JUMPDEST PUSH1 0x0 DUP2 MLOAD SWAP1 POP PUSH2 0x36DD DUP2 PUSH2 0x3351 JUMP JUMPDEST SWAP3 SWAP2 POP POP JUMP JUMPDEST PUSH1 0x0 PUSH1 0x20 DUP3 DUP5 SUB SLT ISZERO PUSH2 0x36F9 JUMPI PUSH2 0x36F8 PUSH2 0x3271 JUMP JUMPDEST JUMPDEST PUSH1 0x0 PUSH2 0x3707 DUP5 DUP3 DUP6 ADD PUSH2 0x36CE JUMP JUMPDEST SWAP2 POP POP SWAP3 SWAP2 POP POP JUMP JUMPDEST PUSH1 0x0 PUSH2 0x371B DUP3 PUSH2 0x3301 JUMP JUMPDEST SWAP2 POP PUSH2 0x3726 DUP4 PUSH2 0x3301 JUMP JUMPDEST SWAP3 POP DUP3 DUP3 MUL PUSH2 0x3734 DUP2 PUSH2 0x3301 JUMP JUMPDEST SWAP2 POP DUP3 DUP3 DIV DUP5 EQ DUP4 ISZERO OR PUSH2 0x374B JUMPI PUSH2 0x374A PUSH2 0x354B JUMP JUMPDEST JUMPDEST POP SWAP3 SWAP2 POP POP JUMP JUMPDEST PUSH32 0x4E487B7100000000000000000000000000000000000000000000000000000000 PUSH1 0x0 MSTORE PUSH1 0x12 PUSH1 0x4 MSTORE PUSH1 0x24 PUSH1 0x0 REVERT JUMPDEST PUSH1 0x0 PUSH2 0x378C DUP3 PUSH2 0x3301 JUMP JUMPDEST SWAP2 POP PUSH2 0x3797 DUP4 PUSH2 0x3301 JUMP JUMPDEST SWAP3 POP DUP3 PUSH2 0x37A7 JUMPI PUSH2 0x37A6 PUSH2 0x3752 JUMP JUMPDEST JUMPDEST DUP3 DUP3 DIV SWAP1 POP SWAP3 SWAP2 POP POP JUMP JUMPDEST PUSH1 0x0 PUSH1 0x60 DUP3 ADD SWAP1 POP PUSH2 0x37C7 PUSH1 0x0 DUP4 ADD DUP7 PUSH2 0x33C5 JUMP JUMPDEST PUSH2 0x37D4 PUSH1 0x20 DUP4 ADD DUP6 PUSH2 0x33C5 JUMP JUMPDEST PUSH2 0x37E1 PUSH1 0x40 DUP4 ADD DUP5 PUSH2 0x330B JUMP JUMPDEST SWAP5 SWAP4 POP POP POP POP JUMP JUMPDEST PUSH32 0x4F776E61626C653A206E6577206F776E657220697320746865207A65726F2061 PUSH1 0x0 DUP3 ADD MSTORE PUSH32 0x6464726573730000000000000000000000000000000000000000000000000000 PUSH1 0x20 DUP3 ADD MSTORE POP JUMP JUMPDEST PUSH1 0x0 PUSH2 0x3845 PUSH1 0x26 DUP4 PUSH2 0x34CE JUMP JUMPDEST SWAP2 POP PUSH2 0x3850 DUP3 PUSH2 0x37E9 JUMP JUMPDEST PUSH1 0x40 DUP3 ADD SWAP1 POP SWAP2 SWAP1 POP JUMP JUMPDEST PUSH1 0x0 PUSH1 0x20 DUP3 ADD SWAP1 POP DUP2 DUP2 SUB PUSH1 0x0 DUP4 ADD MSTORE PUSH2 0x3874 DUP2 PUSH2 0x3838 JUMP JUMPDEST SWAP1 POP SWAP2 SWAP1 POP JUMP JUMPDEST PUSH32 0x4F776E61626C653A2063616C6C6572206973206E6F7420746865206F776E6572 PUSH1 0x0 DUP3 ADD MSTORE POP JUMP JUMPDEST PUSH1 0x0 PUSH2 0x38B1 PUSH1 0x20 DUP4 PUSH2 0x34CE JUMP JUMPDEST SWAP2 POP PUSH2 0x38BC DUP3 PUSH2 0x387B JUMP JUMPDEST PUSH1 0x20 DUP3 ADD SWAP1 POP SWAP2 SWAP1 POP JUMP JUMPDEST PUSH1 0x0 PUSH1 0x20 DUP3 ADD SWAP1 POP DUP2 DUP2 SUB PUSH1 0x0 DUP4 ADD MSTORE PUSH2 0x38E0 DUP2 PUSH2 0x38A4 JUMP JUMPDEST SWAP1 POP SWAP2 SWAP1 POP JUMP JUMPDEST PUSH1 0x0 PUSH2 0x38F2 DUP3 PUSH2 0x3301 JUMP JUMPDEST SWAP2 POP PUSH2 0x38FD DUP4 PUSH2 0x3301 JUMP JUMPDEST SWAP3 POP DUP3 DUP3 ADD SWAP1 POP DUP1 DUP3 GT ISZERO PUSH2 0x3915 JUMPI PUSH2 0x3914 PUSH2 0x354B JUMP JUMPDEST JUMPDEST SWAP3 SWAP2 POP POP JUMP INVALID LOG2 PUSH5 0x6970667358 0x22 SLT KECCAK256 0xEC RETURN 0xED 0xB9 DUP13 BYTE DUP6 PUSH16 0x3754B18CF9DA1D4802DA4E149059AF21 0xD9 0xA7 SWAP1 0xD8 0xC9 PUSH30 0xE1A964736F6C634300081200330000000000000000000000000000000000 "},"methodIdentifiers":{"accReward1PerShare()":"532a6159","accReward2PerShare()":"5a98674b","claim()":"4e71d92d","deposit(uint256)":"b6b55f25","depositFee()":"67a52793","lastBlockTimeStamp(address)":"bb9ce3f6","lastRewardBlock()":"a9f8d181","lockPeriod()":"3fd8b02f","owner()":"8da5cb5b","pendingReward(address)":"f40f0f52","renounceOwnership()":"715018a6","reward1PerBlock()":"a36e8600","reward2PerBlock()":"ea02b0e5","rewardToken1()":"6f28d688","rewardToken2()":"d61a47f1","stakingToken()":"72f702f3","totalStaked()":"817b1cd2","transferOwnership(address)":"f2fde38b","treasury()":"61d027b3","update()":"a2e62045","userInfo(address)":"1959a002","withdraw(uint256)":"2e1a7d4d"}}}}}