{"contracts/FarmingYield.sol":{"FarmingYield":{"abi":[{"inputs":[{"internalType":"contract IERC20","name":"_stakingToken","type":"address"},{"internalType":"contract ERC20Mock","name":"_rewardToken1","type":"address"},{"internalType":"contract ERC20Mock","name":"_rewardToken2","type":"address"},{"internalType":"uint256","name":"_depositFee","type":"uint256"},{"internalType":"address","name":"_treasury","type":"address"},{"internalType":"uint256","name":"_reward1PerBlock","type":"uint256"},{"internalType":"uint256","name":"_reward2PerBlock","type":"uint256"},{"internalType":"uint256","name":"_lockPeriod","type":"uint256"}],"stateMutability":"nonpayable","type":"constructor"},{"anonymous":false,"inputs":[{"indexed":true,"internalType":"address","name":"user","type":"address"},{"indexed":false,"internalType":"uint256","name":"amount1","type":"uint256"},{"indexed":false,"internalType":"uint256","name":"amount2","type":"uint256"}],"name":"Claim","type":"event"},{"anonymous":false,"inputs":[{"indexed":true,"internalType":"address","name":"user","type":"address"},{"indexed":false,"internalType":"uint256","name":"amount","type":"uint256"}],"name":"Deposit","type":"event"},{"anonymous":false,"inputs":[{"indexed":true,"internalType":"address","name":"previousOwner","type":"address"},{"indexed":true,"internalType":"address","name":"newOwner","type":"address"}],"name":"OwnershipTransferred","type":"event"},{"anonymous":false,"inputs":[{"indexed":true,"internalType":"address","name":"user","type":"address"},{"indexed":false,"internalType":"uint256","name":"amount","type":"uint256"}],"name":"Withdraw","type":"event"},{"inputs":[],"name":"accReward1PerShare","outputs":[{"internalType":"uint256","name":"","type":"uint256"}],"stateMutability":"view","type":"function"},{"inputs":[],"name":"accReward2PerShare","outputs":[{"internalType":"uint256","name":"","type":"uint256"}],"stateMutability":"view","type":"function"},{"inputs":[],"name":"claim","outputs":[],"stateMutability":"nonpayable","type":"function"},{"inputs":[{"internalType":"uint256","name":"amount","type":"uint256"}],"name":"deposit","outputs":[],"stateMutability":"nonpayable","type":"function"},{"inputs":[],"name":"depositFee","outputs":[{"internalType":"uint256","name":"","type":"uint256"}],"stateMutability":"view","type":"function"},{"inputs":[{"internalType":"address","name":"_user","type":"address"}],"name":"getFundInfo","outputs":[{"internalType":"uint256","name":"","type":"uint256"},{"internalType":"uint256","name":"","type":"uint256"}],"stateMutability":"view","type":"function"},{"inputs":[],"name":"lastRewardBlock","outputs":[{"internalType":"uint256","name":"","type":"uint256"}],"stateMutability":"view","type":"function"},{"inputs":[],"name":"lockPeriod","outputs":[{"internalType":"uint256","name":"","type":"uint256"}],"stateMutability":"view","type":"function"},{"inputs":[{"internalType":"address","name":"_user","type":"address"}],"name":"optimize","outputs":[],"stateMutability":"nonpayable","type":"function"},{"inputs":[],"name":"owner","outputs":[{"internalType":"address","name":"","type":"address"}],"stateMutability":"view","type":"function"},{"inputs":[{"internalType":"address","name":"_user","type":"address"}],"name":"pendingReward","outputs":[{"internalType":"uint256","name":"","type":"uint256"},{"internalType":"uint256","name":"","type":"uint256"}],"stateMutability":"view","type":"function"},{"inputs":[],"name":"renounceOwnership","outputs":[],"stateMutability":"nonpayable","type":"function"},{"inputs":[],"name":"reward1PerBlock","outputs":[{"internalType":"uint256","name":"","type":"uint256"}],"stateMutability":"view","type":"function"},{"inputs":[],"name":"reward2PerBlock","outputs":[{"internalType":"uint256","name":"","type":"uint256"}],"stateMutability":"view","type":"function"},{"inputs":[],"name":"rewardToken1","outputs":[{"internalType":"contract ERC20Mock","name":"","type":"address"}],"stateMutability":"view","type":"function"},{"inputs":[],"name":"rewardToken2","outputs":[{"internalType":"contract ERC20Mock","name":"","type":"address"}],"stateMutability":"view","type":"function"},{"inputs":[],"name":"stakingToken","outputs":[{"internalType":"contract IERC20","name":"","type":"address"}],"stateMutability":"view","type":"function"},{"inputs":[],"name":"totalStaked","outputs":[{"internalType":"uint256","name":"","type":"uint256"}],"stateMutability":"view","type":"function"},{"inputs":[{"internalType":"address","name":"newOwner","type":"address"}],"name":"transferOwnership","outputs":[],"stateMutability":"nonpayable","type":"function"},{"inputs":[],"name":"treasury","outputs":[{"internalType":"address","name":"","type":"address"}],"stateMutability":"view","type":"function"},{"inputs":[],"name":"update","outputs":[],"stateMutability":"nonpayable","type":"function"},{"inputs":[{"internalType":"address","name":"","type":"address"}],"name":"userInfo","outputs":[{"internalType":"uint256","name":"amount","type":"uint256"},{"internalType":"uint256","name":"reward1Debt","type":"uint256"},{"internalType":"uint256","name":"reward2Debt","type":"uint256"}],"stateMutability":"view","type":"function"},{"inputs":[{"internalType":"uint256","name":"amount","type":"uint256"}],"name":"withdraw","outputs":[],"stateMutability":"nonpayable","type":"function"}],"evm":{"bytecode":{"linkReferences":{},"object":"608060405262278d006006553480156200001857600080fd5b50604051620051f5380380620051f583398181016040528101906200003e9190620007dc565b6200005e62000052620005de60201b60201c565b620005e660201b60201c565b620000927f96819d2a10d8b3161d328654a30c76277572cb1c74c641732f9142860806d50f60001b620006aa60201b60201c565b620000c57e155852185d4796eee80ded2dfef0927aaa31623f0c7366ff0b310c2a57a53a60001b620006aa60201b60201c565b620000f97ffe3faa21287c133a2162c310838561cd78578ebc60fe8a270508e224439297ed60001b620006aa60201b60201c565b87600160006101000a81548173ffffffffffffffffffffffffffffffffffffffff021916908373ffffffffffffffffffffffffffffffffffffffff1602179055506200016e7fd53ed49df29d530988cde1eacd8cccd2bfec5f4ecea1a438dcfadfe66b5b76b160001b620006aa60201b60201c565b620001a27f82a6409ade481f87ea9ab6ae9656de403636fc659202062c0d42ffd724b42e7c60001b620006aa60201b60201c565b86600260006101000a81548173ffffffffffffffffffffffffffffffffffffffff021916908373ffffffffffffffffffffffffffffffffffffffff160217905550620002177f6fc5ba5782a263a45452281d8e97482ac16187c4e241b097df0c423fe7106cd060001b620006aa60201b60201c565b6200024b7fbbe52e387085e19183b442fc6d538867139a6cb20cdcff42b46c77d471d7f06c60001b620006aa60201b60201c565b85600360006101000a81548173ffffffffffffffffffffffffffffffffffffffff021916908373ffffffffffffffffffffffffffffffffffffffff160217905550620002c07f718cc26e70fba8d0d5950f9ab45c1ca45590763e384835554f9ab93fcbc5406560001b620006aa60201b60201c565b620002f47f2ba9f48d19e833bc6c5d058f52fd3f07b02135b11d92e9b71e321f8f9e5f6d4660001b620006aa60201b60201c565b846004819055506200032f7f488f6aa9c910866536ddbe434131778f4825fa2e9c5fd1cbf5c8a3f790acb79e60001b620006aa60201b60201c565b620003637f49ec3d8688ba2762a54094f2ecbe33327bdca2032adcbf7718f42bfcdc09237760001b620006aa60201b60201c565b83600960006101000a81548173ffffffffffffffffffffffffffffffffffffffff021916908373ffffffffffffffffffffffffffffffffffffffff160217905550620003d87fd52e40b1d621fe053ad9f041465806fafefe4aeaf4c7da26b15532682f638a5160001b620006aa60201b60201c565b6200040c7f35286dda802cde8b96164738ca5fc4fa25fa0f482eae46fd76e008c2c12d6bbb60001b620006aa60201b60201c565b82600781905550620004477f8dc95877e12adb9a9343a92b6baaf8498aa2a462485461620d7659bf33a93c9b60001b620006aa60201b60201c565b6200047b7f54463ea56c485e0cb3e47e70d69826c3184da2b9c10196ca54d58a6f23a4fad660001b620006aa60201b60201c565b81600881905550620004b67fed58ec7d7f6b9209eddcb55007253e84deaf5c4e455b69bb69dd495cd704ea7d60001b620006aa60201b60201c565b620004ea7f5d225f6c18886cd6e33b078ed9e738eada6fc63405f83e86040418bfd890a41660001b620006aa60201b60201c565b43600a81905550620005257f6060823161be021dc3904d49ebee6a35e90dd9a0843f7673d97dcadf3256375c60001b620006aa60201b60201c565b620005597fa272b4a000fc1f92df7504f8fe02a2e246d773c0a9d86fef8e279029404b0fb060001b620006aa60201b60201c565b6000600b81905550620005957f9a6147f28e9f317ff641b6dc68d54f175c890f719686d0015d329d19bf0e8ffa60001b620006aa60201b60201c565b620005c97fbed444ee5865f61b46f2225b2e59f41cb9f346bee447dfccce7470b56ac7875760001b620006aa60201b60201c565b806006819055505050505050505050620008a5565b600033905090565b60008060009054906101000a900473ffffffffffffffffffffffffffffffffffffffff169050816000806101000a81548173ffffffffffffffffffffffffffffffffffffffff021916908373ffffffffffffffffffffffffffffffffffffffff1602179055508173ffffffffffffffffffffffffffffffffffffffff168173ffffffffffffffffffffffffffffffffffffffff167f8be0079c531659141344cd1fd0a4f28419497f9722a3daafe3b4186f6b6457e060405160405180910390a35050565b50565b600080fd5b600073ffffffffffffffffffffffffffffffffffffffff82169050919050565b6000620006df82620006b2565b9050919050565b6000620006f382620006d2565b9050919050565b6200070581620006e6565b81146200071157600080fd5b50565b6000815190506200072581620006fa565b92915050565b60006200073882620006d2565b9050919050565b6200074a816200072b565b81146200075657600080fd5b50565b6000815190506200076a816200073f565b92915050565b6000819050919050565b620007858162000770565b81146200079157600080fd5b50565b600081519050620007a5816200077a565b92915050565b620007b681620006d2565b8114620007c257600080fd5b50565b600081519050620007d681620007ab565b92915050565b600080600080600080600080610100898b0312156200080057620007ff620006ad565b5b6000620008108b828c0162000714565b9850506020620008238b828c0162000759565b9750506040620008368b828c0162000759565b9650506060620008498b828c0162000794565b95505060806200085c8b828c01620007c5565b94505060a06200086f8b828c0162000794565b93505060c0620008828b828c0162000794565b92505060e0620008958b828c0162000794565b9150509295985092959890939650565b61494080620008b56000396000f3fe608060405234801561001057600080fd5b506004361061014d5760003560e01c8063715018a6116100c3578063a9f8d1811161007c578063a9f8d18114610337578063b6b55f2514610355578063d61a47f114610371578063ea02b0e51461038f578063f2fde38b146103ad578063f40f0f52146103c95761014d565b8063715018a6146102ab57806372f702f3146102b5578063817b1cd2146102d35780638da5cb5b146102f1578063a2e620451461030f578063a36e8600146103195761014d565b80634e71d92d116101155780634e71d92d1461020b578063532a6159146102155780635a98674b1461023357806361d027b31461025157806367a527931461026f5780636f28d6881461028d5761014d565b80631959a002146101525780632e1a7d4d146101845780633d835e01146101a05780633fd8b02f146101d157806343a02568146101ef575b600080fd5b61016c600480360381019061016791906141f4565b6103fa565b60405161017b9392919061423a565b60405180910390f35b61019e6004803603810190610199919061429d565b610424565b005b6101ba60048036038101906101b591906141f4565b6110af565b6040516101c89291906142ca565b60405180910390f35b6101d96114a2565b6040516101e691906142f3565b60405180910390f35b610209600480360381019061020491906141f4565b6114a8565b005b610213611f1c565b005b61021d612811565b60405161022a91906142f3565b60405180910390f35b61023b612817565b60405161024891906142f3565b60405180910390f35b61025961281d565b604051610266919061431d565b60405180910390f35b610277612843565b60405161028491906142f3565b60405180910390f35b610295612849565b6040516102a29190614397565b60405180910390f35b6102b361286f565b005b6102bd612883565b6040516102ca91906143d3565b60405180910390f35b6102db6128a9565b6040516102e891906142f3565b60405180910390f35b6102f96128af565b604051610306919061431d565b60405180910390f35b6103176128d8565b005b610321612ff1565b60405161032e91906142f3565b60405180910390f35b61033f612ff7565b60405161034c91906142f3565b60405180910390f35b61036f600480360381019061036a919061429d565b612ffd565b005b610379613e07565b6040516103869190614397565b60405180910390f35b610397613e2d565b6040516103a491906142f3565b60405180910390f35b6103c760048036038101906103c291906141f4565b613e33565b005b6103e360048036038101906103de91906141f4565b613eb6565b6040516103f19291906142ca565b60405180910390f35b600d6020528060005260406000206000915090508060000154908060010154908060020154905083565b6104507fc256e7cf217d23f2cbfc5f5700506db6928a88fad203c786551db12f88d67cbe60001b614044565b61047c7f3be5eb80a6290ed5ee928e769c75b5921effd3c96830f917e6f67b52cb32c8e760001b614044565b6104a87f0eab8462f5437c3c3d04f2ef61184e260497049bb2ce3e5bc0e54cf75287032a60001b614044565b6104d47f99b41c0ac38ea8262ea69fb8bcee34022dea7bb965aa4d8fb1ab5875d7ef3b7260001b614044565b60008111610517576040517f08c379a000000000000000000000000000000000000000000000000000000000815260040161050e9061444b565b60405180910390fd5b6105437f709e603ded08fc068ec8588b94105299a8f9c9b11a542ab1557da2ba55d32fba60001b614044565b61056f7f1d7fce82212b9e7bebeecb5b7ed6179274e6e02b5f20bb565da055000803090b60001b614044565b61059b7f71bebb7fffb3ddfdee9ed3ec856d5304e38b94b3f164745bb124bd136e11736060001b614044565b6000600d60003373ffffffffffffffffffffffffffffffffffffffff1673ffffffffffffffffffffffffffffffffffffffff168152602001908152602001600020905061060a7fbc902cf53a2c2b122686dc30d41e1afa5e07fb29fdcb329f62e54dd173a89b9f60001b614044565b6106367f45621b2018cc4fea3f0eae407ae5303b8f34b9bdf4f9b3f0724ac5ca8103185860001b614044565b61063f336114a8565b61066b7f52ee005e1ee526a685b84fbc76533f480b2d9a44c6553fee8a1c5bc28294c68e60001b614044565b6106977fd3a4c9eeee7a4d05cf5f9dfc8d434fb70c8c2b84ab676ecfc49b8ea0080d1a7c60001b614044565b60006106a2336110af565b9150506106d17f997a9c10bd33ac6632c873fd31e623638c02c3bd4a764628a6dcbc3a33ccefdb60001b614044565b6106fd7f1bce3b53465cd09baf2ad3530575c4e77837c4cab74b6dead610857391c10cc860001b614044565b6107297f31865ce197f4b0e6f26aceed32f175667a7e6fec6e166f41c8647715242e750360001b614044565b8083111561076c576040517f08c379a0000000000000000000000000000000000000000000000000000000008152600401610763906144dd565b60405180910390fd5b6107987f45133126c09243e775cc5537981579beb452e42656a6e37ab28772e7aa36d6ec60001b614044565b6107c47fe49b53985db78286ea2f5bcfa65b3c057b9fa85177ae9cc1034e9d34482d9f6760001b614044565b6107f07fcfe76be50b3ff5f60c86f16e7f2f04c1a85db63e7927d0d014e3a1f66784b43960001b614044565b6107f86128d8565b6108247ffd8c0ce99c9f7c2a4eb751c9529d203b671a9206938938d47a42ab621b63172060001b614044565b6108507ff66d83df518cd9e8c95d24234447943e589080742c9069a48e91d728c9b868ed60001b614044565b60008061085c33613eb6565b9150915061088c7f38d417ad5a3ee9342b32d4ecbfe22a3364af5fbfce152d9385e6a6794009efad60001b614044565b6108b87f77e612d03bc4d72cf90c7c310cfee625a2db307762e9ae9795a616ed29fb538e60001b614044565b600260009054906101000a900473ffffffffffffffffffffffffffffffffffffffff1673ffffffffffffffffffffffffffffffffffffffff1663a9059cbb600960009054906101000a900473ffffffffffffffffffffffffffffffffffffffff166064600a86610928919061452c565b610932919061459d565b6040518363ffffffff1660e01b815260040161094f9291906145ce565b6020604051808303816000875af115801561096e573d6000803e3d6000fd5b505050506040513d601f19601f82011682018060405250810190610992919061462f565b506109bf7f53405e789bc265df0bace73d148890bb7fac4fd359327fa82be698f66e206f5b60001b614044565b6109eb7f538a8cc4ca32b29c8251ecec430852f96bb7e5786276c1fa8f2b6549942d9ce260001b614044565b600360009054906101000a900473ffffffffffffffffffffffffffffffffffffffff1673ffffffffffffffffffffffffffffffffffffffff1663a9059cbb600960009054906101000a900473ffffffffffffffffffffffffffffffffffffffff166064600a85610a5b919061452c565b610a65919061459d565b6040518363ffffffff1660e01b8152600401610a829291906145ce565b6020604051808303816000875af1158015610aa1573d6000803e3d6000fd5b505050506040513d601f19601f82011682018060405250810190610ac5919061462f565b50610af27f9d48e3e198d70f0e7a5adb8583e5d6a53832778c477dbd505d853c2bd2c3032260001b614044565b610b1e7f8dce8051929d4cc61d7c6aa747b53ae34776830b3de200b06fa017153f37cb1260001b614044565b600260009054906101000a900473ffffffffffffffffffffffffffffffffffffffff1673ffffffffffffffffffffffffffffffffffffffff1663a9059cbb336064600a86610b6c919061452c565b610b76919061459d565b85610b81919061465c565b6040518363ffffffff1660e01b8152600401610b9e9291906145ce565b6020604051808303816000875af1158015610bbd573d6000803e3d6000fd5b505050506040513d601f19601f82011682018060405250810190610be1919061462f565b50610c0e7f24e532ad4fc179bba85aedac039adf90ad2ddffdb7d4537bd78cfa209b79ccc160001b614044565b610c3a7feccdbba6067a55711585414baf67ee516d400ebbbf3e1f504fa0146d459b437b60001b614044565b600360009054906101000a900473ffffffffffffffffffffffffffffffffffffffff1673ffffffffffffffffffffffffffffffffffffffff1663a9059cbb336064600a85610c88919061452c565b610c92919061459d565b84610c9d919061465c565b6040518363ffffffff1660e01b8152600401610cba9291906145ce565b6020604051808303816000875af1158015610cd9573d6000803e3d6000fd5b505050506040513d601f19601f82011682018060405250810190610cfd919061462f565b50610d2a7f0e706aa8dfd078fc9d2a7fd516e07fccb98468cff7ea5d86c2d348135fba544a60001b614044565b610d567f441f9f04d9ea35119229033a22dd41b848b0a6c406238ef992bd33778ef0eba860001b614044565b848460000154610d66919061465c565b8460000181905550610d9a7f415db434b90baf4582a9babb8a7e2469b4aaf705508dbbc2fd5bb5f0ef5ead3660001b614044565b610dc67f912041ec950b16f0c18cf10df45f85fb885e94e071d18b3aeeb4270d8dedb87d60001b614044565b64e8d4a51000600b548560000154610dde919061452c565b610de8919061459d565b8460010181905550610e1c7f752afa3f1db3d6c3ddeb4543e506ec7d5419bce862a9b7c2d3dab679931414e960001b614044565b610e487f9053a95e374859cb2ad2e637222ced51dcd732a4558bbded09ecbb11aae1e04c60001b614044565b64e8d4a51000600c548560000154610e60919061452c565b610e6a919061459d565b8460020181905550610e9e7f2f38c748040d2a314f2ad913a7e7abe08ec8e3bb556b419694aba1353473f94a60001b614044565b610eca7f96bba9422d4a340c413cd7023e87ac5b73de0e37be734fd1317f8ad7414aaa5d60001b614044565b600160009054906101000a900473ffffffffffffffffffffffffffffffffffffffff1673ffffffffffffffffffffffffffffffffffffffff1663a9059cbb33876040518363ffffffff1660e01b8152600401610f279291906145ce565b6020604051808303816000875af1158015610f46573d6000803e3d6000fd5b505050506040513d601f19601f82011682018060405250810190610f6a919061462f565b50610f977faa4f334caaee5bbf1af1f10feea3a61f529f7bdb2d18c7fec86b805acf82abac60001b614044565b610fc37fc9126346edad0a904d0b23fc64f5cf91bcfdc3099266f0dce7b839642f156d2b60001b614044565b8484600301600081548110610fdb57610fda614690565b5b90600052602060002090600202016000016000828254610ffb919061465c565b9250508190555061102e7fde494527ec9bae5266ee9c30b9fcc19ecf22492c13e9eb1b284dff1caba1b62c60001b614044565b61105a7f14c3c620222db750dd784365de6058365ac40630ef3a6765e796f891e5eaa49c60001b614044565b3373ffffffffffffffffffffffffffffffffffffffff167f884edad9ce6fa2440d8a54cc123490eb96d2768479d49ff9c7366125a9424364866040516110a091906142f3565b60405180910390a25050505050565b6000806110de7fc852c7da49ecec354fea50b2ae052f574f35b518823464846892b83295a5812160001b614044565b61110a7f163efd95c0fcd01cf405ae9bf40c58831c73a6e5d1060a99d5dc0250282a791a60001b614044565b6111367f46c38433840fec8e3f6c43710f4199170e9aed76453107b7d650a1e341d3070c60001b614044565b6000600d60008573ffffffffffffffffffffffffffffffffffffffff1673ffffffffffffffffffffffffffffffffffffffff16815260200190815260200160002090506111a57f481cd945a98dbfd66268a82f3e06192c692cd1c5e805f2fec7fa3cdc88f9503760001b614044565b6111d17f71700352d026fd30c09c401c089300769eb9eed141f9c4cdce6304aa66864bf560001b614044565b60006111ff7fecff65ab10f7dbd7886b785e37f4ca434d26f04ffd018a5865852a51b6ee3a9160001b614044565b61122b7f98658d91883bddb9c2b2d69e6b305ccc446532db482c7b6511c19201c32c120360001b614044565b60005b826003018054905081101561142d576112697f5ada061393f614a3aef5b81c6688ce5da4f489821f61ba251a928b12a878d2ce60001b614044565b6112957f47c27ef9bd39aef1ed7f11b202c1c4ce20e5f5906ab03656a5f6321b5c8d63a060001b614044565b60008360030182815481106112ad576112ac614690565b5b906000526020600020906002020160010154426112ca919061465c565b90506112f87fb7e7005b2a03fc0df5c9ae3cac52a6a6fb746b489a2fa0d14064dd7c143f32af60001b614044565b6113247fb2530e912c4bdd90bd450833304cf938b87df580ac0c20ba963fc9b3a545444560001b614044565b6006548110156113ec5761135a7fd78940fbc99f24d70592360806257fcb31cb054c50bd9a9060c38a61af9ae65b60001b614044565b6113867fcf990b4cf8400ab73e95c06c2c739f574237cffd6a0b71afe993d00d40439b5260001b614044565b6113b27f5453dd67a714e96eaf36e746f2170f1456d82ca091d72f81e6b13a22e8f8b77d60001b614044565b8360030182815481106113c8576113c7614690565b5b906000526020600020906002020160000154836113e591906146bf565b9250611419565b6114187f52fd9a2328bd417843348ce0ec1f9ef5d78fc56a5b647bcfb5ff9b99c9811c3360001b614044565b5b508080611425906146f3565b91505061122e565b5061145a7f69e437e07a057b2bf0df0b7094b63057076d2b9c126ff1f436ad2eaca922ce1a60001b614044565b6114867f1a3466a782673b46d00015ab0ca081a908214134462b8d579e5309f15d6531a960001b614044565b80818360000154611497919061465c565b935093505050915091565b60065481565b6114d47fb9081d62bd7c453fc455c20e434c4eed259d080859724ddcb6d72c48cc891f5060001b614044565b6115007f9c635fd08b5d9ef0ac078255e3b69d62bb193d1f49646c22835637d7b0ec4ac860001b614044565b61152c7f435b7cc37c8fafcdd59177eec3822d278128b4858064441a82e8659fd68a1d4760001b614044565b6000600d60008373ffffffffffffffffffffffffffffffffffffffff1673ffffffffffffffffffffffffffffffffffffffff168152602001908152602001600020905061159b7f8e05a4efdf2e2cd3021c55cf11e9739b5345416d9844e7b122182fff88f5756760001b614044565b6115c77f10bc0882db81f457e792f73be4abc86f469e2ea09ac7f1a52946bd42e2f38cb060001b614044565b60006115f57f499fe063373723b22f49c519eded841974b4562b04386359a07bd3f4b44b4b5c60001b614044565b6116217f7b92af0045025758a1735f2112a732c7afd962ddec8511b6e822ab721bf4aa4960001b614044565b6000826003018054905090506116597f8009d4b9730f3af12ba4c8bbe4f7b358a8ef9292109fdc51d063f7cf951da44860001b614044565b6116857f878489bd3fcd4ae46d563743c021bab64d4d177d4af1ac8e0bbe3a21e478ae6560001b614044565b600181116116ed576116b97f3241773bf663d4f0d5ae47d401580ee869005c551885b41163d68c915f53acc660001b614044565b6116e57f4a7559aa22fac43d1d195e4f2e1e719b6026fdadf2c35f434366bd627d5be55660001b614044565b505050611f19565b6117197f7c79b4952bf179679fcaa1dc912924463ca890b82d325a6315feacf864ce3d1160001b614044565b6117457fec49c3325e9ca442a8d27945114bfb1ee16d9267944f0046357d96013b01b3fa60001b614044565b6117717f6d3c9b53ccdba4c020c2cc741c644630c498e8b5922894a574862362e4676da960001b614044565b600061179f7f2fb549b6e3fe68f365cd24dd84f4a08b65c163dec9299fa187020cd7f91f38a960001b614044565b6117cb7fd343264f4061233e96c2b1d943bad1352959a871c38a00296bba7b8a86be71b060001b614044565b600090505b8360030180549050811015611a565761180b7f435e8d25115448e44ff0380a94a4ffd1e5ef26db9c43dd84881280a98e062da660001b614044565b6118377f2186d16dfecd2fa9b891517737e8c5b37b7afd690226fa60345c44e15da185ee60001b614044565b600084600301828154811061184f5761184e614690565b5b9060005260206000209060020201600101544261186c919061465c565b905061189a7f5acf58d9abb0ba5794c63ab1ce68c75cf57e08d3ba9503765de9bf17fd0f1aac60001b614044565b6118c67fa31f194ec947456e0a570ba78995ba7983d2beb17aedca54a7835ba4b1e9973060001b614044565b600654811015611989576118fc7f1f858e2d949d630fd246a98a991154a7c0d24997eae4af346f494c68e861cf7a60001b614044565b6119287f1b79979c8762ab14d0fdc9159b381b246b8b6d11718e8982a8d4b24b28498e5c60001b614044565b6119547f42212e69725fd62d792a59ca9bf83603008bdb9fafb01b60109141d0395436a260001b614044565b8192506119837f329085ebb547636707b10e8215b22cbb4396d60cdc1f4b1566a4f2ffff1427c960001b614044565b50611a56565b6119b57f6f1761168006ec7fcb4994cfd05ec84b73fd9312ed5dba21d2dffe5c9c26969660001b614044565b6119e17fc3ec808c7fc989e74848cc34ed4116d584140ca3b6fd37724b134ccbcf971fd160001b614044565b611a0d7ff0b837e8425eb54885c12c29ebf95cc7040f078f7a73e3852ab6a99cea40cc3c60001b614044565b846003018281548110611a2357611a22614690565b5b90600052602060002090600202016000015484611a4091906146bf565b9350508080611a4e906146f3565b9150506117d0565b611a827fbe556a8d7a50bf74e0b30f1c0baec9dae27c0477bd4295c23e08294ab3ccf49060001b614044565b611aae7f5f93c950c21349330b121a9fcd0380ee3c184e3969378793b33c14a4020f3f2960001b614044565b60018211611b1757611ae27ffc3c92557c72086a556988416f28172384111d0f87132d0f0ecd1e9da6b496ea60001b614044565b611b0e7f4c3ec161232a98660639825355b5556d437d19d04eb8047b2183a07d96afb73560001b614044565b50505050611f19565b611b437ff25c051fc48bad1d98826540310f65d98e6f6b1fc0703c637279008ee2d6cd1860001b614044565b611b6f7fe34c57241c0b6f5db3dbc4656db03ee12e953a561db0f7f2b273aa0026b8597860001b614044565b611b9b7fcbdd4ba62d787e4676644047c123f9f45ec08835991a32ebadcd453030904e7a60001b614044565b8284600301600081548110611bb357611bb2614690565b5b906000526020600020906002020160000181905550611bf47ff83a9a2b749f505cecdcc280fa4fdb3e1f692b1b8f4ae4d5eb915536ef965a6560001b614044565b611c207fcc47e69981a5202c7d1162aab22fef29f872f670286621d583524bc29867875760001b614044565b600084600301805490509050611c587fc4134372ba2cacedd41ba5ec5cac9930ec23cbfa561cfb5262dd6add6840bfab60001b614044565b611c847fcc0d1d15770f0d82868346f8708f7c77b1ab470f32452a7036701624109256da60001b614044565b600181611c91919061465c565b91505b828210611e3257611cc77f40e48b8ba31e6f533bcacbd28c69b1d18cf949a4a32073003fcffe2c29e502b760001b614044565b611cf37f25d3806381d833da0fcae9e88d23adeb13bb5356af6cc990f9d84e8767ab874260001b614044565b846003018281548110611d0957611d08614690565b5b9060005260206000209060020201600001548560030160018585611d2d919061465c565b611d3791906146bf565b81548110611d4857611d47614690565b5b906000526020600020906002020160000181905550611d897f5fbf8d1aee02e785b6dad67ca39a73e38e224f360db09c051572c8886633d1bf60001b614044565b611db57feb19524febf94545a97c72e0762d4a69ca50ccf8cff40b776e0b362a3f50d28a60001b614044565b846003018281548110611dcb57611dca614690565b5b9060005260206000209060020201600101548560030160018585611def919061465c565b611df991906146bf565b81548110611e0a57611e09614690565b5b9060005260206000209060020201600101819055508180611e2a9061473b565b925050611c94565b611e5e7f19627106e670e1b38e2143bd23c20a41c5b34ab7ea3b7ed6308cce67a0298af960001b614044565b611e8a7f88e6037b9bacad784112b8d6954da44bfca69161d44128296fd80d3f5cee089a60001b614044565b600191505b82821015611f1357611ec37f8d585c2285f67e23bc4b3a1ebf4524f301e4b91f3beafd4863dbbacd506e4b5860001b614044565b84600301805480611ed757611ed6614764565b5b60019003818190600052602060002090600202016000808201600090556001820160009055505090558180611f0b906146f3565b925050611e8f565b50505050505b50565b611f487f84466732ffd1a19d0911c72e661ba9ca9919fbc92f2f86ebbaee5a5a1af8d6b860001b614044565b611f747f192051eff1ab0d855ae2ada8e1631835de04a398d6de903b38fa78102895072e60001b614044565b611fa07f8bdf77f806c3927f363d49d9163a9f7c5f79ed94c13dd10dbdfeacff84608dbd60001b614044565b6000600d60003373ffffffffffffffffffffffffffffffffffffffff1673ffffffffffffffffffffffffffffffffffffffff168152602001908152602001600020905061200f7ff3cb5a2ef2ac075b92713b0382b3dcdb7d503beeb4beb7cf331d73ca18b24d1060001b614044565b61203b7fa039ac587199f19b58e752f990672e2ca90fc94d96302962c9085a7cb036bcf660001b614044565b612044336114a8565b6120707f2817315488bbe23455d6679b76e3295e3e3017628778fb01e445b5a2c2d0b80660001b614044565b61209c7f5f82a00b33ff48a02d85963ae73025c8827a6d987377fb17f0a9e9fb92f8ca9560001b614044565b6120a46128d8565b6120d07f05c7c29ebd37e1748bdea04b1af60d83c1c2d627361e7a6208e13200e680522260001b614044565b6120fc7f3e5f465e6474ab49f2581b8c5780a544c5128133a64739873e789adbb7cbfb7460001b614044565b60008061210833613eb6565b915091506121387f24a9f875dea45b362033ffeb5e26cda7dc1ca54c018cfe7845c4494f03c19cdf60001b614044565b6121647fd1f44700fbee67ff8e8f1b014356906d3102cb1c7d823dd51311895ee22692ae60001b614044565b600260009054906101000a900473ffffffffffffffffffffffffffffffffffffffff1673ffffffffffffffffffffffffffffffffffffffff1663a9059cbb600960009054906101000a900473ffffffffffffffffffffffffffffffffffffffff166064600a866121d4919061452c565b6121de919061459d565b6040518363ffffffff1660e01b81526004016121fb9291906145ce565b6020604051808303816000875af115801561221a573d6000803e3d6000fd5b505050506040513d601f19601f8201168201806040525081019061223e919061462f565b5061226b7fd1397f9b9a0be6c498bf8ea7ce893873b4830bee1b5dff4f73077ba30deca86b60001b614044565b6122977fd03ff56cec7f6b5f3f7265844d2b70c18eed5c30e7b63492d31dfed69eea559860001b614044565b600360009054906101000a900473ffffffffffffffffffffffffffffffffffffffff1673ffffffffffffffffffffffffffffffffffffffff1663a9059cbb600960009054906101000a900473ffffffffffffffffffffffffffffffffffffffff166064600a85612307919061452c565b612311919061459d565b6040518363ffffffff1660e01b815260040161232e9291906145ce565b6020604051808303816000875af115801561234d573d6000803e3d6000fd5b505050506040513d601f19601f82011682018060405250810190612371919061462f565b5061239e7f672fd0ab4bc89b069f4692cde2491074048daf3e553b04fb7d4a18c192446aba60001b614044565b6123ca7f6dd80a224c51ad685ec31e7b524b9ff16eefdd770a27f64eddb55adad018c72360001b614044565b6064600a836123d9919061452c565b6123e3919061459d565b826123ee919061465c565b915061241c7ffd129554d70739fd3891a031997ed5036052c7a6b3599fc5e4e294d44d6a517260001b614044565b6124487fe7af1e2848757c47b56fb5d50da9d5f684e712fbdf0dbfca5c2a50298194c8b060001b614044565b6064600a82612457919061452c565b612461919061459d565b8161246c919061465c565b905061249a7fd4829fa3790aeebcb5696989274df5ad0ed2c5f10466762ce9eefdfebd1d2dd360001b614044565b6124c67fbb8fb28356d13e5a235179052300fddb14861937edeba85602f7c3e9f1c6cbf560001b614044565b600260009054906101000a900473ffffffffffffffffffffffffffffffffffffffff1673ffffffffffffffffffffffffffffffffffffffff1663a9059cbb33846040518363ffffffff1660e01b81526004016125239291906145ce565b6020604051808303816000875af1158015612542573d6000803e3d6000fd5b505050506040513d601f19601f82011682018060405250810190612566919061462f565b506125937f51f32e16a46d80392b4e81b92e0213f710ddcd6bf1159adb31671e1accf5c45760001b614044565b6125bf7ff69fe8c63116112008627e79c413b0d15b821cbad83b74695da95169b44005e760001b614044565b600360009054906101000a900473ffffffffffffffffffffffffffffffffffffffff1673ffffffffffffffffffffffffffffffffffffffff1663a9059cbb33836040518363ffffffff1660e01b815260040161261c9291906145ce565b6020604051808303816000875af115801561263b573d6000803e3d6000fd5b505050506040513d601f19601f8201168201806040525081019061265f919061462f565b5061268c7f018b964d70f48adef35e772c8068317f5952f38305763b5ce54726800a285cec60001b614044565b6126b87f7444a57c42fcc55b96bdb388d0ce2a5484f7d66351321158d6945958a796996b60001b614044565b64e8d4a51000600b5484600001546126d0919061452c565b6126da919061459d565b836001018190555061270e7fd4718fea819d33f51a51c3078c228e3177bd575001a915c119f2e94211ee8f8a60001b614044565b61273a7f9ae69ff15a591c405925ce5bb3e7d8dc064065a9ecf75a152f613e6d9b80166760001b614044565b64e8d4a51000600c548460000154612752919061452c565b61275c919061459d565b83600201819055506127907fdbb63cb171628a98c512be3b0392afefd60dd83362e8d7e06bfe373d64d1ae7b60001b614044565b6127bc7f68ecabdc875cbe98ec19df423b1c9ddde574cd67454794d58601a1bbc70692f160001b614044565b3373ffffffffffffffffffffffffffffffffffffffff167f34fcbac0073d7c3d388e51312faf357774904998eeb8fca628b9e6f65ee1cbf783836040516128049291906142ca565b60405180910390a2505050565b600b5481565b600c5481565b600960009054906101000a900473ffffffffffffffffffffffffffffffffffffffff1681565b60045481565b600260009054906101000a900473ffffffffffffffffffffffffffffffffffffffff1681565b612877614047565b61288160006140c5565b565b600160009054906101000a900473ffffffffffffffffffffffffffffffffffffffff1681565b60055481565b60008060009054906101000a900473ffffffffffffffffffffffffffffffffffffffff16905090565b6129047fa8efe5ff1fbaf6ddc61a1ca9b46367888d635870689f5f722e0f0b3ea7db942b60001b614044565b6129307f59d0774edca95dab8710067d7f4ec0aaa6a7e8071bd7daaa3bd339e996378bd960001b614044565b61295c7f5a2c3341e1ad56691168db4737132e81713b89404ef98d78b88edd0da37b505460001b614044565b6000600160009054906101000a900473ffffffffffffffffffffffffffffffffffffffff1673ffffffffffffffffffffffffffffffffffffffff166370a08231306040518263ffffffff1660e01b81526004016129b9919061431d565b602060405180830381865afa1580156129d6573d6000803e3d6000fd5b505050506040513d601f19601f820116820180604052508101906129fa91906147a8565b9050612a287f5935d6a2e0d55fe7a7d12e2ea4e06bc8c316be8cb4d4fe5ec0a3f9ff122dd86660001b614044565b612a547f1070aa1cdf8e7a4ce6f0bc65480938ab037354f1bcca1cb1e22d43e6a1e940f460001b614044565b60008103612b4557612a887f0892ef3fbfbfd7370db3ac85ecc9e8e7c77079a6e15cb41cdb37e99819a5f9fd60001b614044565b612ab47f0478d001e10cac2ae648c8bfab1ab00adf0823460c459c8733e3e2ece528ed9160001b614044565b612ae07fd85e35d3bda4e6782c5ad837fb9998a7b6cb6af285f4b81de8df4905279fa7fe60001b614044565b43600a81905550612b137fede0baaccb0fa8e52a3234a847340044e58b12c210eafe1702c053e427dfe09860001b614044565b612b3f7f46deb7bb70b9dff2c3bcf0fc1e8ca1f366d15cf4846307d2644f1f2681cfa5af60001b614044565b50612fef565b612b717fc178c214177bd4a1434c49de20cf171f06165ca5b73eaa7242440d28d0a71aea60001b614044565b612b9d7f677f3c6b873c7d99063a15bd9453a54579c19cbb21229d7b4acee3ecffbac09f60001b614044565b612bc97f887f7096c30c157cdb4f69a4b6b817987bf36fed8dff2134673775203d773a5f60001b614044565b6000600a5443612bd9919061465c565b9050612c077f9a104c6bfad03c49f6ad010551c6ff7125567cf32ca80d26053270d1d1e6719f60001b614044565b612c337f55f3fad067a2c6ff868ff175923f3f247b02d404bc9d72f5e7622b40244dcc3d60001b614044565b600060075482612c43919061452c565b9050612c717f542537ca2f852b02b46512f3966bb6079a7d732fa4b40bdae2220a71498177ac60001b614044565b612c9d7fc1f38d698352ebe17ec6ac1716e9bbab2a91824d6a3a689efdf49da2a66a7c6f60001b614044565b600060085483612cad919061452c565b9050612cdb7f7ac50cbf99b7024ef0b652278b856aa52e111979ca6ed886641746931acab8f460001b614044565b612d077f3a5e32d57a79f78bd74a94cc20a47091828e2aa34f028532a86aebd1f6c0a0bd60001b614044565b600260009054906101000a900473ffffffffffffffffffffffffffffffffffffffff1673ffffffffffffffffffffffffffffffffffffffff166340c10f1930846040518363ffffffff1660e01b8152600401612d649291906145ce565b600060405180830381600087803b158015612d7e57600080fd5b505af1158015612d92573d6000803e3d6000fd5b50505050612dc27f0338dccd554875f2d2c0273d290aa956d8c237698e114a22e6475007c14d720f60001b614044565b612dee7fd25a2387189287666594a61e640ac1b5752485741583ece2d84f6800685cca6a60001b614044565b600360009054906101000a900473ffffffffffffffffffffffffffffffffffffffff1673ffffffffffffffffffffffffffffffffffffffff166340c10f1930836040518363ffffffff1660e01b8152600401612e4b9291906145ce565b600060405180830381600087803b158015612e6557600080fd5b505af1158015612e79573d6000803e3d6000fd5b50505050612ea97fa30653b9aa803438ce1a51dd9f84443694dc566d935e6a5a9bec49ae94f494e160001b614044565b612ed57f1980c662127209250adcb64797de322d35b9d8bdf672b31ca7a558913e16593560001b614044565b8364e8d4a5100083612ee7919061452c565b612ef1919061459d565b600b54612efe91906146bf565b600b81905550612f307f68b6bb0595daef2d0da06d2e574516473a2e5859de8fddaad4c2d112b224bced60001b614044565b612f5c7f19f6a754c489f4d425c9158e220d3e2197354e838618f12744776dcc93df6d7060001b614044565b8364e8d4a5100082612f6e919061452c565b612f78919061459d565b600c54612f8591906146bf565b600c81905550612fb77f020a159f8be6f0da89576d293395c0228c7ca8fe4991a844bdfe3131ffc942a460001b614044565b612fe37f0ff3f197ccf301833f632804fc574b60c4a2ecfe4e99a73594a67ba5759c71fd60001b614044565b43600a81905550505050505b565b60075481565b600a5481565b6130297fa4471539eb4eed1ad98a57d8f97473172bd5525d62e4088a2a2a59b28a34e1b560001b614044565b6130557f0db2f984831fbc46c19a502f23e081b07cab7d87028b567650b10ad5bcf2f31260001b614044565b6130817f9c9a8b93afc317fc1984520ed0cfd5f7453123177b45886f45ea8976192b33d760001b614044565b6130ad7fd9687f32ca530c12632b9a783176c1d13ca044afc0d8fbb1b00338b461d7181560001b614044565b600081116130f0576040517f08c379a00000000000000000000000000000000000000000000000000000000081526004016130e79061444b565b60405180910390fd5b61311c7fe471d89dba23ba6ab08915c725c864295e60bde82a19c2674da332a0540a756c60001b614044565b6131487f0acd70fd8d06675ead35628ff79d7da65822fef3bc8d55446c8aeaea872d4d6460001b614044565b6131747fd2f65ef0afa4cb06f78f11876250c4627e7ebd3b40c4c43fd8b9d6f7af5d134b60001b614044565b6000600d60003373ffffffffffffffffffffffffffffffffffffffff1673ffffffffffffffffffffffffffffffffffffffff16815260200190815260200160002090506131e37f4484eb503f91cdc044a4280a4c211968aac5046998d9b12384ec1b3b6c1415b660001b614044565b61320f7f1bf65a14ab35b1ba0c2a3a5a509a4c8885b01ea9ae47d1f6cd51101ca4634fe160001b614044565b613218336114a8565b6132447f8b33ca965cd84eee4905d32a563f7a33ce8d32b99acbe8dc704e1e52716511ef60001b614044565b6132707f78803c8fd0c21196192557b551a5e375e1dbc5180b55c0e46979e818c8e4bcd460001b614044565b6132786128d8565b6132a47f8bd9782457819c999f9a6021c97f817479458be995e57df0604017aac689c3b560001b614044565b6132d07f4ad08c7d54ce1af267eb5edc0ac476f7bc43f7d58e07f30d216bea2bb9290b1460001b614044565b600081600001541115613816576133097f73dfb2becb8b618ed1cac97f95c6332fea6cea5000a7c0ad55a4d792f363f33460001b614044565b6133357fd0be4e7ee4019ccb656647d51c6f01ac5a4f5e81f6304c61cb5ea5afb276924360001b614044565b6133617ffa2919cc9e514654f52331d030048061864326773cb527c8a64818968e985b7160001b614044565b60008061336d33613eb6565b9150915061339d7f371e545a68a42c958531e217894f7ad78349e056cfb2d4bbd12bb1596ea206c060001b614044565b6133c97f98af5338dcc8f30ddecee444b0ec20e02f363874543d497e7a20dbcf580e382260001b614044565b600260009054906101000a900473ffffffffffffffffffffffffffffffffffffffff1673ffffffffffffffffffffffffffffffffffffffff1663a9059cbb600960009054906101000a900473ffffffffffffffffffffffffffffffffffffffff166064600a86613439919061452c565b613443919061459d565b6040518363ffffffff1660e01b81526004016134609291906145ce565b6020604051808303816000875af115801561347f573d6000803e3d6000fd5b505050506040513d601f19601f820116820180604052508101906134a3919061462f565b506134d07f96581c54aaa55e1ef43dd83e505b9b19719ab30e842119d0ede7160fd0cefcfb60001b614044565b6134fc7fb86de7dbdcc786d026000b1980c9c1fa500965c8d3b16efc79fc2f27a3b564d360001b614044565b600360009054906101000a900473ffffffffffffffffffffffffffffffffffffffff1673ffffffffffffffffffffffffffffffffffffffff1663a9059cbb600960009054906101000a900473ffffffffffffffffffffffffffffffffffffffff166064600a8561356c919061452c565b613576919061459d565b6040518363ffffffff1660e01b81526004016135939291906145ce565b6020604051808303816000875af11580156135b2573d6000803e3d6000fd5b505050506040513d601f19601f820116820180604052508101906135d6919061462f565b506136037f4739afbff182d5ce458f3c1da943009c454923ccdee12f27bee1e93bd07c511060001b614044565b61362f7f312231ac8ea0f2b11eb9c88694702945a760138cc3c70788f186038ea53270ed60001b614044565b600260009054906101000a900473ffffffffffffffffffffffffffffffffffffffff1673ffffffffffffffffffffffffffffffffffffffff1663a9059cbb336064600a8661367d919061452c565b613687919061459d565b85613692919061465c565b6040518363ffffffff1660e01b81526004016136af9291906145ce565b6020604051808303816000875af11580156136ce573d6000803e3d6000fd5b505050506040513d601f19601f820116820180604052508101906136f2919061462f565b5061371f7ff99a3be7b1a0bdec0d22d076b810f385612e4ec6edc87c2b52b5f32b9b282afc60001b614044565b61374b7fddfe8749ef193468f20e46e3146aac76e36e9a4c094012bcbba9238e2116560d60001b614044565b600360009054906101000a900473ffffffffffffffffffffffffffffffffffffffff1673ffffffffffffffffffffffffffffffffffffffff1663a9059cbb336064600a85613799919061452c565b6137a3919061459d565b846137ae919061465c565b6040518363ffffffff1660e01b81526004016137cb9291906145ce565b6020604051808303816000875af11580156137ea573d6000803e3d6000fd5b505050506040513d601f19601f8201168201806040525081019061380e919061462f565b505050613843565b6138427f0a2d92700008ce2096f8b770e4f67ac6bd2606c8b5349608bf358c2dde1d64a160001b614044565b5b61386f7f7a3f41ca3de2c9bdf31b70f0bf1462e9422b540526d16b52ea3a25d97424fc9d60001b614044565b61389b7f9394140502e6d3c60bd5b382820e371ffd5a50459d5776e1bf757c210234072860001b614044565b60006064600454846138ad919061452c565b6138b7919061459d565b90506138e57fe76e9241d23b8391fb238119803a39f06a50e7a11dee49e1e25c6828e33c65f460001b614044565b6139117f2e5418f9dbf448985e13b484b05ec761c8b1b1725739bf4437f4979154cb47a360001b614044565b6000818461391f919061465c565b905061394d7fa64e234ebe303898e7e89f4ad909a9111b9a25df82ed4e0e82e52ea5dbf4b78760001b614044565b6139797f5f50c97d463508e754dfbed200d2cf93f49acffe897c7a3971ccdb11895a144260001b614044565b600160009054906101000a900473ffffffffffffffffffffffffffffffffffffffff1673ffffffffffffffffffffffffffffffffffffffff166323b872dd3330876040518463ffffffff1660e01b81526004016139d8939291906147d5565b6020604051808303816000875af11580156139f7573d6000803e3d6000fd5b505050506040513d601f19601f82011682018060405250810190613a1b919061462f565b50613a487f668e1a6affd172f0471b55084c9919e5f6dbde0347f0dabed018f4185fe4416160001b614044565b613a747fe34ae497c447e275d8594aa1ace7f7e708dd6627d5bec1167185959e0fd96e2960001b614044565b600160009054906101000a900473ffffffffffffffffffffffffffffffffffffffff1673ffffffffffffffffffffffffffffffffffffffff1663a9059cbb600960009054906101000a900473ffffffffffffffffffffffffffffffffffffffff16846040518363ffffffff1660e01b8152600401613af39291906145ce565b6020604051808303816000875af1158015613b12573d6000803e3d6000fd5b505050506040513d601f19601f82011682018060405250810190613b36919061462f565b50613b637ffcd6f6e98932ba16a3f6f336c932d4c21326299dae2f2b1988a4f007e108f7e960001b614044565b613b8f7f8299e62e43cd85c93facf59ead9547841835e1b5d8494ab572ba5409d3e7e11a60001b614044565b808360000154613b9f91906146bf565b8360000181905550613bd37f3efd53f86eafd146a783e5a89b1c774fb66dfe423c59d1ce43aed7f60a8fd92a60001b614044565b613bff7f7307cce97a14fdbb2cc6d37688404df6d94caf37c1276080c7023ad1406e628b60001b614044565b64e8d4a51000600b548460000154613c17919061452c565b613c21919061459d565b8360010181905550613c557f13f9a961277fb7e241c3cb75f4d0e69f7a1c40ccb85adb4dbe393439b20dfb4f60001b614044565b613c817fcac5483ccc48366c846c65a1fbec64aeaff122f5359d659ce5ba5ba28ddd729960001b614044565b64e8d4a51000600c548460000154613c99919061452c565b613ca3919061459d565b8360020181905550613cd77f51ab597ebf2b7d8b37177ac7005264b805f96c5ce6cbb1af9c946e4d91760c6760001b614044565b613d037ff832d15e714aa0eca0213997867e773b6d294f0319f72463fbed104cf82dc10c60001b614044565b82600301604051806040016040528083815260200142815250908060018154018082558091505060019003906000526020600020906002020160009091909190915060008201518160000155602082015181600101555050613d877f593d851aa6efac8d7e5254179f98f25d30b44e867b5e865ea5999150cd8c508b60001b614044565b613db37fbc39619d7299160282ba32b513aa436b750eaab30218aba7596177b449de669360001b614044565b3373ffffffffffffffffffffffffffffffffffffffff167fe1fffcc4923d04b559f4d29a8bfc6cda04eb5b0d3c460751c2402c5c5cc9109c82604051613df991906142f3565b60405180910390a250505050565b600360009054906101000a900473ffffffffffffffffffffffffffffffffffffffff1681565b60085481565b613e3b614047565b600073ffffffffffffffffffffffffffffffffffffffff168173ffffffffffffffffffffffffffffffffffffffff1603613eaa576040517f08c379a0000000000000000000000000000000000000000000000000000000008152600401613ea19061487e565b60405180910390fd5b613eb3816140c5565b50565b600080613ee57f0423a46eaf8b0e7dd3ea9421e66aebdbd5177e95b10be84c6e200531d961a5b360001b614044565b613f117ff5053479e6daeff425e47307fe25375b3ec2efd219e2f1ce56fbb62e21ac84ac60001b614044565b613f3d7faa3af3b9313ec6b240611f8a742881a480bfee4b8066049cad41359af58dc83b60001b614044565b6000600d60008573ffffffffffffffffffffffffffffffffffffffff1673ffffffffffffffffffffffffffffffffffffffff1681526020019081526020016000209050613fac7fb5ca7f3a10510eb5ee1803fdf267d8bc5f19fe1eb496db4f533a99779806480260001b614044565b613fd87f58180c371a7ed561c074362957b57664e01952fdade4c334ecb983d7e76a5f8860001b614044565b806001015464e8d4a51000600b548360000154613ff5919061452c565b613fff919061459d565b614009919061465c565b816002015464e8d4a51000600c548460000154614026919061452c565b614030919061459d565b61403a919061465c565b9250925050915091565b50565b61404f614189565b73ffffffffffffffffffffffffffffffffffffffff1661406d6128af565b73ffffffffffffffffffffffffffffffffffffffff16146140c3576040517f08c379a00000000000000000000000000000000000000000000000000000000081526004016140ba906148ea565b60405180910390fd5b565b60008060009054906101000a900473ffffffffffffffffffffffffffffffffffffffff169050816000806101000a81548173ffffffffffffffffffffffffffffffffffffffff021916908373ffffffffffffffffffffffffffffffffffffffff1602179055508173ffffffffffffffffffffffffffffffffffffffff168173ffffffffffffffffffffffffffffffffffffffff167f8be0079c531659141344cd1fd0a4f28419497f9722a3daafe3b4186f6b6457e060405160405180910390a35050565b600033905090565b600080fd5b600073ffffffffffffffffffffffffffffffffffffffff82169050919050565b60006141c182614196565b9050919050565b6141d1816141b6565b81146141dc57600080fd5b50565b6000813590506141ee816141c8565b92915050565b60006020828403121561420a57614209614191565b5b6000614218848285016141df565b91505092915050565b6000819050919050565b61423481614221565b82525050565b600060608201905061424f600083018661422b565b61425c602083018561422b565b614269604083018461422b565b949350505050565b61427a81614221565b811461428557600080fd5b50565b60008135905061429781614271565b92915050565b6000602082840312156142b3576142b2614191565b5b60006142c184828501614288565b91505092915050565b60006040820190506142df600083018561422b565b6142ec602083018461422b565b9392505050565b6000602082019050614308600083018461422b565b92915050565b614317816141b6565b82525050565b6000602082019050614332600083018461430e565b92915050565b6000819050919050565b600061435d61435861435384614196565b614338565b614196565b9050919050565b600061436f82614342565b9050919050565b600061438182614364565b9050919050565b61439181614376565b82525050565b60006020820190506143ac6000830184614388565b92915050565b60006143bd82614364565b9050919050565b6143cd816143b2565b82525050565b60006020820190506143e860008301846143c4565b92915050565b600082825260208201905092915050565b7f416d6f756e74206d7573742062652067726561746572207468616e2030000000600082015250565b6000614435601d836143ee565b9150614440826143ff565b602082019050919050565b6000602082019050818103600083015261446481614428565b9050919050565b7f416d6f756e74206d757374206265206c657373207468616e207769746864726160008201527f7761626c6520616d6f756e740000000000000000000000000000000000000000602082015250565b60006144c7602c836143ee565b91506144d28261446b565b604082019050919050565b600060208201905081810360008301526144f6816144ba565b9050919050565b7f4e487b7100000000000000000000000000000000000000000000000000000000600052601160045260246000fd5b600061453782614221565b915061454283614221565b925082820261455081614221565b91508282048414831517614567576145666144fd565b5b5092915050565b7f4e487b7100000000000000000000000000000000000000000000000000000000600052601260045260246000fd5b60006145a882614221565b91506145b383614221565b9250826145c3576145c261456e565b5b828204905092915050565b60006040820190506145e3600083018561430e565b6145f0602083018461422b565b9392505050565b60008115159050919050565b61460c816145f7565b811461461757600080fd5b50565b60008151905061462981614603565b92915050565b60006020828403121561464557614644614191565b5b60006146538482850161461a565b91505092915050565b600061466782614221565b915061467283614221565b925082820390508181111561468a576146896144fd565b5b92915050565b7f4e487b7100000000000000000000000000000000000000000000000000000000600052603260045260246000fd5b60006146ca82614221565b91506146d583614221565b92508282019050808211156146ed576146ec6144fd565b5b92915050565b60006146fe82614221565b91507fffffffffffffffffffffffffffffffffffffffffffffffffffffffffffffffff82036147305761472f6144fd565b5b600182019050919050565b600061474682614221565b915060008203614759576147586144fd565b5b600182039050919050565b7f4e487b7100000000000000000000000000000000000000000000000000000000600052603160045260246000fd5b6000815190506147a281614271565b92915050565b6000602082840312156147be576147bd614191565b5b60006147cc84828501614793565b91505092915050565b60006060820190506147ea600083018661430e565b6147f7602083018561430e565b614804604083018461422b565b949350505050565b7f4f776e61626c653a206e6577206f776e657220697320746865207a65726f206160008201527f6464726573730000000000000000000000000000000000000000000000000000602082015250565b60006148686026836143ee565b91506148738261480c565b604082019050919050565b600060208201905081810360008301526148978161485b565b9050919050565b7f4f776e61626c653a2063616c6c6572206973206e6f7420746865206f776e6572600082015250565b60006148d46020836143ee565b91506148df8261489e565b602082019050919050565b60006020820190508181036000830152614903816148c7565b905091905056fea26469706673582212205d87f9938f5b9cd90fff079fb85cf0417758119964d1e4ddd3a7caf8878d123d64736f6c63430008120033","opcodes":"PUSH1 0x80 PUSH1 0x40 MSTORE PUSH3 0x278D00 PUSH1 0x6 SSTORE CALLVALUE DUP1 ISZERO PUSH3 0x18 JUMPI PUSH1 0x0 DUP1 REVERT JUMPDEST POP PUSH1 0x40 MLOAD PUSH3 0x51F5 CODESIZE SUB DUP1 PUSH3 0x51F5 DUP4 CODECOPY DUP2 DUP2 ADD PUSH1 0x40 MSTORE DUP2 ADD SWAP1 PUSH3 0x3E SWAP2 SWAP1 PUSH3 0x7DC JUMP JUMPDEST PUSH3 0x5E PUSH3 0x52 PUSH3 0x5DE PUSH1 0x20 SHL PUSH1 0x20 SHR JUMP JUMPDEST PUSH3 0x5E6 PUSH1 0x20 SHL PUSH1 0x20 SHR JUMP JUMPDEST PUSH3 0x92 PUSH32 0x96819D2A10D8B3161D328654A30C76277572CB1C74C641732F9142860806D50F PUSH1 0x0 SHL PUSH3 0x6AA PUSH1 0x20 SHL PUSH1 0x20 SHR JUMP JUMPDEST PUSH3 0xC5 PUSH31 0x155852185D4796EEE80DED2DFEF0927AAA31623F0C7366FF0B310C2A57A53A PUSH1 0x0 SHL PUSH3 0x6AA PUSH1 0x20 SHL PUSH1 0x20 SHR JUMP JUMPDEST PUSH3 0xF9 PUSH32 0xFE3FAA21287C133A2162C310838561CD78578EBC60FE8A270508E224439297ED PUSH1 0x0 SHL PUSH3 0x6AA PUSH1 0x20 SHL PUSH1 0x20 SHR JUMP JUMPDEST DUP8 PUSH1 0x1 PUSH1 0x0 PUSH2 0x100 EXP DUP2 SLOAD DUP2 PUSH20 0xFFFFFFFFFFFFFFFFFFFFFFFFFFFFFFFFFFFFFFFF MUL NOT AND SWAP1 DUP4 PUSH20 0xFFFFFFFFFFFFFFFFFFFFFFFFFFFFFFFFFFFFFFFF AND MUL OR SWAP1 SSTORE POP PUSH3 0x16E PUSH32 0xD53ED49DF29D530988CDE1EACD8CCCD2BFEC5F4ECEA1A438DCFADFE66B5B76B1 PUSH1 0x0 SHL PUSH3 0x6AA PUSH1 0x20 SHL PUSH1 0x20 SHR JUMP JUMPDEST PUSH3 0x1A2 PUSH32 0x82A6409ADE481F87EA9AB6AE9656DE403636FC659202062C0D42FFD724B42E7C PUSH1 0x0 SHL PUSH3 0x6AA PUSH1 0x20 SHL PUSH1 0x20 SHR JUMP JUMPDEST DUP7 PUSH1 0x2 PUSH1 0x0 PUSH2 0x100 EXP DUP2 SLOAD DUP2 PUSH20 0xFFFFFFFFFFFFFFFFFFFFFFFFFFFFFFFFFFFFFFFF MUL NOT AND SWAP1 DUP4 PUSH20 0xFFFFFFFFFFFFFFFFFFFFFFFFFFFFFFFFFFFFFFFF AND MUL OR SWAP1 SSTORE POP PUSH3 0x217 PUSH32 0x6FC5BA5782A263A45452281D8E97482AC16187C4E241B097DF0C423FE7106CD0 PUSH1 0x0 SHL PUSH3 0x6AA PUSH1 0x20 SHL PUSH1 0x20 SHR JUMP JUMPDEST PUSH3 0x24B PUSH32 0xBBE52E387085E19183B442FC6D538867139A6CB20CDCFF42B46C77D471D7F06C PUSH1 0x0 SHL PUSH3 0x6AA PUSH1 0x20 SHL PUSH1 0x20 SHR JUMP JUMPDEST DUP6 PUSH1 0x3 PUSH1 0x0 PUSH2 0x100 EXP DUP2 SLOAD DUP2 PUSH20 0xFFFFFFFFFFFFFFFFFFFFFFFFFFFFFFFFFFFFFFFF MUL NOT AND SWAP1 DUP4 PUSH20 0xFFFFFFFFFFFFFFFFFFFFFFFFFFFFFFFFFFFFFFFF AND MUL OR SWAP1 SSTORE POP PUSH3 0x2C0 PUSH32 0x718CC26E70FBA8D0D5950F9AB45C1CA45590763E384835554F9AB93FCBC54065 PUSH1 0x0 SHL PUSH3 0x6AA PUSH1 0x20 SHL PUSH1 0x20 SHR JUMP JUMPDEST PUSH3 0x2F4 PUSH32 0x2BA9F48D19E833BC6C5D058F52FD3F07B02135B11D92E9B71E321F8F9E5F6D46 PUSH1 0x0 SHL PUSH3 0x6AA PUSH1 0x20 SHL PUSH1 0x20 SHR JUMP JUMPDEST DUP5 PUSH1 0x4 DUP2 SWAP1 SSTORE POP PUSH3 0x32F PUSH32 0x488F6AA9C910866536DDBE434131778F4825FA2E9C5FD1CBF5C8A3F790ACB79E PUSH1 0x0 SHL PUSH3 0x6AA PUSH1 0x20 SHL PUSH1 0x20 SHR JUMP JUMPDEST PUSH3 0x363 PUSH32 0x49EC3D8688BA2762A54094F2ECBE33327BDCA2032ADCBF7718F42BFCDC092377 PUSH1 0x0 SHL PUSH3 0x6AA PUSH1 0x20 SHL PUSH1 0x20 SHR JUMP JUMPDEST DUP4 PUSH1 0x9 PUSH1 0x0 PUSH2 0x100 EXP DUP2 SLOAD DUP2 PUSH20 0xFFFFFFFFFFFFFFFFFFFFFFFFFFFFFFFFFFFFFFFF MUL NOT AND SWAP1 DUP4 PUSH20 0xFFFFFFFFFFFFFFFFFFFFFFFFFFFFFFFFFFFFFFFF AND MUL OR SWAP1 SSTORE POP PUSH3 0x3D8 PUSH32 0xD52E40B1D621FE053AD9F041465806FAFEFE4AEAF4C7DA26B15532682F638A51 PUSH1 0x0 SHL PUSH3 0x6AA PUSH1 0x20 SHL PUSH1 0x20 SHR JUMP JUMPDEST PUSH3 0x40C PUSH32 0x35286DDA802CDE8B96164738CA5FC4FA25FA0F482EAE46FD76E008C2C12D6BBB PUSH1 0x0 SHL PUSH3 0x6AA PUSH1 0x20 SHL PUSH1 0x20 SHR JUMP JUMPDEST DUP3 PUSH1 0x7 DUP2 SWAP1 SSTORE POP PUSH3 0x447 PUSH32 0x8DC95877E12ADB9A9343A92B6BAAF8498AA2A462485461620D7659BF33A93C9B PUSH1 0x0 SHL PUSH3 0x6AA PUSH1 0x20 SHL PUSH1 0x20 SHR JUMP JUMPDEST PUSH3 0x47B PUSH32 0x54463EA56C485E0CB3E47E70D69826C3184DA2B9C10196CA54D58A6F23A4FAD6 PUSH1 0x0 SHL PUSH3 0x6AA PUSH1 0x20 SHL PUSH1 0x20 SHR JUMP JUMPDEST DUP2 PUSH1 0x8 DUP2 SWAP1 SSTORE POP PUSH3 0x4B6 PUSH32 0xED58EC7D7F6B9209EDDCB55007253E84DEAF5C4E455B69BB69DD495CD704EA7D PUSH1 0x0 SHL PUSH3 0x6AA PUSH1 0x20 SHL PUSH1 0x20 SHR JUMP JUMPDEST PUSH3 0x4EA PUSH32 0x5D225F6C18886CD6E33B078ED9E738EADA6FC63405F83E86040418BFD890A416 PUSH1 0x0 SHL PUSH3 0x6AA PUSH1 0x20 SHL PUSH1 0x20 SHR JUMP JUMPDEST NUMBER PUSH1 0xA DUP2 SWAP1 SSTORE POP PUSH3 0x525 PUSH32 0x6060823161BE021DC3904D49EBEE6A35E90DD9A0843F7673D97DCADF3256375C PUSH1 0x0 SHL PUSH3 0x6AA PUSH1 0x20 SHL PUSH1 0x20 SHR JUMP JUMPDEST PUSH3 0x559 PUSH32 0xA272B4A000FC1F92DF7504F8FE02A2E246D773C0A9D86FEF8E279029404B0FB0 PUSH1 0x0 SHL PUSH3 0x6AA PUSH1 0x20 SHL PUSH1 0x20 SHR JUMP JUMPDEST PUSH1 0x0 PUSH1 0xB DUP2 SWAP1 SSTORE POP PUSH3 0x595 PUSH32 0x9A6147F28E9F317FF641B6DC68D54F175C890F719686D0015D329D19BF0E8FFA PUSH1 0x0 SHL PUSH3 0x6AA PUSH1 0x20 SHL PUSH1 0x20 SHR JUMP JUMPDEST PUSH3 0x5C9 PUSH32 0xBED444EE5865F61B46F2225B2E59F41CB9F346BEE447DFCCCE7470B56AC78757 PUSH1 0x0 SHL PUSH3 0x6AA PUSH1 0x20 SHL PUSH1 0x20 SHR JUMP JUMPDEST DUP1 PUSH1 0x6 DUP2 SWAP1 SSTORE POP POP POP POP POP POP POP POP POP PUSH3 0x8A5 JUMP JUMPDEST PUSH1 0x0 CALLER SWAP1 POP SWAP1 JUMP JUMPDEST PUSH1 0x0 DUP1 PUSH1 0x0 SWAP1 SLOAD SWAP1 PUSH2 0x100 EXP SWAP1 DIV PUSH20 0xFFFFFFFFFFFFFFFFFFFFFFFFFFFFFFFFFFFFFFFF AND SWAP1 POP DUP2 PUSH1 0x0 DUP1 PUSH2 0x100 EXP DUP2 SLOAD DUP2 PUSH20 0xFFFFFFFFFFFFFFFFFFFFFFFFFFFFFFFFFFFFFFFF MUL NOT AND SWAP1 DUP4 PUSH20 0xFFFFFFFFFFFFFFFFFFFFFFFFFFFFFFFFFFFFFFFF AND MUL OR SWAP1 SSTORE POP DUP2 PUSH20 0xFFFFFFFFFFFFFFFFFFFFFFFFFFFFFFFFFFFFFFFF AND DUP2 PUSH20 0xFFFFFFFFFFFFFFFFFFFFFFFFFFFFFFFFFFFFFFFF AND PUSH32 0x8BE0079C531659141344CD1FD0A4F28419497F9722A3DAAFE3B4186F6B6457E0 PUSH1 0x40 MLOAD PUSH1 0x40 MLOAD DUP1 SWAP2 SUB SWAP1 LOG3 POP POP JUMP JUMPDEST POP JUMP JUMPDEST PUSH1 0x0 DUP1 REVERT JUMPDEST PUSH1 0x0 PUSH20 0xFFFFFFFFFFFFFFFFFFFFFFFFFFFFFFFFFFFFFFFF DUP3 AND SWAP1 POP SWAP2 SWAP1 POP JUMP JUMPDEST PUSH1 0x0 PUSH3 0x6DF DUP3 PUSH3 0x6B2 JUMP JUMPDEST SWAP1 POP SWAP2 SWAP1 POP JUMP JUMPDEST PUSH1 0x0 PUSH3 0x6F3 DUP3 PUSH3 0x6D2 JUMP JUMPDEST SWAP1 POP SWAP2 SWAP1 POP JUMP JUMPDEST PUSH3 0x705 DUP2 PUSH3 0x6E6 JUMP JUMPDEST DUP2 EQ PUSH3 0x711 JUMPI PUSH1 0x0 DUP1 REVERT JUMPDEST POP JUMP JUMPDEST PUSH1 0x0 DUP2 MLOAD SWAP1 POP PUSH3 0x725 DUP2 PUSH3 0x6FA JUMP JUMPDEST SWAP3 SWAP2 POP POP JUMP JUMPDEST PUSH1 0x0 PUSH3 0x738 DUP3 PUSH3 0x6D2 JUMP JUMPDEST SWAP1 POP SWAP2 SWAP1 POP JUMP JUMPDEST PUSH3 0x74A DUP2 PUSH3 0x72B JUMP JUMPDEST DUP2 EQ PUSH3 0x756 JUMPI PUSH1 0x0 DUP1 REVERT JUMPDEST POP JUMP JUMPDEST PUSH1 0x0 DUP2 MLOAD SWAP1 POP PUSH3 0x76A DUP2 PUSH3 0x73F JUMP JUMPDEST SWAP3 SWAP2 POP POP JUMP JUMPDEST PUSH1 0x0 DUP2 SWAP1 POP SWAP2 SWAP1 POP JUMP JUMPDEST PUSH3 0x785 DUP2 PUSH3 0x770 JUMP JUMPDEST DUP2 EQ PUSH3 0x791 JUMPI PUSH1 0x0 DUP1 REVERT JUMPDEST POP JUMP JUMPDEST PUSH1 0x0 DUP2 MLOAD SWAP1 POP PUSH3 0x7A5 DUP2 PUSH3 0x77A JUMP JUMPDEST SWAP3 SWAP2 POP POP JUMP JUMPDEST PUSH3 0x7B6 DUP2 PUSH3 0x6D2 JUMP JUMPDEST DUP2 EQ PUSH3 0x7C2 JUMPI PUSH1 0x0 DUP1 REVERT JUMPDEST POP JUMP JUMPDEST PUSH1 0x0 DUP2 MLOAD SWAP1 POP PUSH3 0x7D6 DUP2 PUSH3 0x7AB JUMP JUMPDEST SWAP3 SWAP2 POP POP JUMP JUMPDEST PUSH1 0x0 DUP1 PUSH1 0x0 DUP1 PUSH1 0x0 DUP1 PUSH1 0x0 DUP1 PUSH2 0x100 DUP10 DUP12 SUB SLT ISZERO PUSH3 0x800 JUMPI PUSH3 0x7FF PUSH3 0x6AD JUMP JUMPDEST JUMPDEST PUSH1 0x0 PUSH3 0x810 DUP12 DUP3 DUP13 ADD PUSH3 0x714 JUMP JUMPDEST SWAP9 POP POP PUSH1 0x20 PUSH3 0x823 DUP12 DUP3 DUP13 ADD PUSH3 0x759 JUMP JUMPDEST SWAP8 POP POP PUSH1 0x40 PUSH3 0x836 DUP12 DUP3 DUP13 ADD PUSH3 0x759 JUMP JUMPDEST SWAP7 POP POP PUSH1 0x60 PUSH3 0x849 DUP12 DUP3 DUP13 ADD PUSH3 0x794 JUMP JUMPDEST SWAP6 POP POP PUSH1 0x80 PUSH3 0x85C DUP12 DUP3 DUP13 ADD PUSH3 0x7C5 JUMP JUMPDEST SWAP5 POP POP PUSH1 0xA0 PUSH3 0x86F DUP12 DUP3 DUP13 ADD PUSH3 0x794 JUMP JUMPDEST SWAP4 POP POP PUSH1 0xC0 PUSH3 0x882 DUP12 DUP3 DUP13 ADD PUSH3 0x794 JUMP JUMPDEST SWAP3 POP POP PUSH1 0xE0 PUSH3 0x895 DUP12 DUP3 DUP13 ADD PUSH3 0x794 JUMP JUMPDEST SWAP2 POP POP SWAP3 SWAP6 SWAP9 POP SWAP3 SWAP6 SWAP9 SWAP1 SWAP4 SWAP7 POP JUMP JUMPDEST PUSH2 0x4940 DUP1 PUSH3 0x8B5 PUSH1 0x0 CODECOPY PUSH1 0x0 RETURN INVALID PUSH1 0x80 PUSH1 0x40 MSTORE CALLVALUE DUP1 ISZERO PUSH2 0x10 JUMPI PUSH1 0x0 DUP1 REVERT JUMPDEST POP PUSH1 0x4 CALLDATASIZE LT PUSH2 0x14D JUMPI PUSH1 0x0 CALLDATALOAD PUSH1 0xE0 SHR DUP1 PUSH4 0x715018A6 GT PUSH2 0xC3 JUMPI DUP1 PUSH4 0xA9F8D181 GT PUSH2 0x7C JUMPI DUP1 PUSH4 0xA9F8D181 EQ PUSH2 0x337 JUMPI DUP1 PUSH4 0xB6B55F25 EQ PUSH2 0x355 JUMPI DUP1 PUSH4 0xD61A47F1 EQ PUSH2 0x371 JUMPI DUP1 PUSH4 0xEA02B0E5 EQ PUSH2 0x38F JUMPI DUP1 PUSH4 0xF2FDE38B EQ PUSH2 0x3AD JUMPI DUP1 PUSH4 0xF40F0F52 EQ PUSH2 0x3C9 JUMPI PUSH2 0x14D JUMP JUMPDEST DUP1 PUSH4 0x715018A6 EQ PUSH2 0x2AB JUMPI DUP1 PUSH4 0x72F702F3 EQ PUSH2 0x2B5 JUMPI DUP1 PUSH4 0x817B1CD2 EQ PUSH2 0x2D3 JUMPI DUP1 PUSH4 0x8DA5CB5B EQ PUSH2 0x2F1 JUMPI DUP1 PUSH4 0xA2E62045 EQ PUSH2 0x30F JUMPI DUP1 PUSH4 0xA36E8600 EQ PUSH2 0x319 JUMPI PUSH2 0x14D JUMP JUMPDEST DUP1 PUSH4 0x4E71D92D GT PUSH2 0x115 JUMPI DUP1 PUSH4 0x4E71D92D EQ PUSH2 0x20B JUMPI DUP1 PUSH4 0x532A6159 EQ PUSH2 0x215 JUMPI DUP1 PUSH4 0x5A98674B EQ PUSH2 0x233 JUMPI DUP1 PUSH4 0x61D027B3 EQ PUSH2 0x251 JUMPI DUP1 PUSH4 0x67A52793 EQ PUSH2 0x26F JUMPI DUP1 PUSH4 0x6F28D688 EQ PUSH2 0x28D JUMPI PUSH2 0x14D JUMP JUMPDEST DUP1 PUSH4 0x1959A002 EQ PUSH2 0x152 JUMPI DUP1 PUSH4 0x2E1A7D4D EQ PUSH2 0x184 JUMPI DUP1 PUSH4 0x3D835E01 EQ PUSH2 0x1A0 JUMPI DUP1 PUSH4 0x3FD8B02F EQ PUSH2 0x1D1 JUMPI DUP1 PUSH4 0x43A02568 EQ PUSH2 0x1EF JUMPI JUMPDEST PUSH1 0x0 DUP1 REVERT JUMPDEST PUSH2 0x16C PUSH1 0x4 DUP1 CALLDATASIZE SUB DUP2 ADD SWAP1 PUSH2 0x167 SWAP2 SWAP1 PUSH2 0x41F4 JUMP JUMPDEST PUSH2 0x3FA JUMP JUMPDEST PUSH1 0x40 MLOAD PUSH2 0x17B SWAP4 SWAP3 SWAP2 SWAP1 PUSH2 0x423A JUMP JUMPDEST PUSH1 0x40 MLOAD DUP1 SWAP2 SUB SWAP1 RETURN JUMPDEST PUSH2 0x19E PUSH1 0x4 DUP1 CALLDATASIZE SUB DUP2 ADD SWAP1 PUSH2 0x199 SWAP2 SWAP1 PUSH2 0x429D JUMP JUMPDEST PUSH2 0x424 JUMP JUMPDEST STOP JUMPDEST PUSH2 0x1BA PUSH1 0x4 DUP1 CALLDATASIZE SUB DUP2 ADD SWAP1 PUSH2 0x1B5 SWAP2 SWAP1 PUSH2 0x41F4 JUMP JUMPDEST PUSH2 0x10AF JUMP JUMPDEST PUSH1 0x40 MLOAD PUSH2 0x1C8 SWAP3 SWAP2 SWAP1 PUSH2 0x42CA JUMP JUMPDEST PUSH1 0x40 MLOAD DUP1 SWAP2 SUB SWAP1 RETURN JUMPDEST PUSH2 0x1D9 PUSH2 0x14A2 JUMP JUMPDEST PUSH1 0x40 MLOAD PUSH2 0x1E6 SWAP2 SWAP1 PUSH2 0x42F3 JUMP JUMPDEST PUSH1 0x40 MLOAD DUP1 SWAP2 SUB SWAP1 RETURN JUMPDEST PUSH2 0x209 PUSH1 0x4 DUP1 CALLDATASIZE SUB DUP2 ADD SWAP1 PUSH2 0x204 SWAP2 SWAP1 PUSH2 0x41F4 JUMP JUMPDEST PUSH2 0x14A8 JUMP JUMPDEST STOP JUMPDEST PUSH2 0x213 PUSH2 0x1F1C JUMP JUMPDEST STOP JUMPDEST PUSH2 0x21D PUSH2 0x2811 JUMP JUMPDEST PUSH1 0x40 MLOAD PUSH2 0x22A SWAP2 SWAP1 PUSH2 0x42F3 JUMP JUMPDEST PUSH1 0x40 MLOAD DUP1 SWAP2 SUB SWAP1 RETURN JUMPDEST PUSH2 0x23B PUSH2 0x2817 JUMP JUMPDEST PUSH1 0x40 MLOAD PUSH2 0x248 SWAP2 SWAP1 PUSH2 0x42F3 JUMP JUMPDEST PUSH1 0x40 MLOAD DUP1 SWAP2 SUB SWAP1 RETURN JUMPDEST PUSH2 0x259 PUSH2 0x281D JUMP JUMPDEST PUSH1 0x40 MLOAD PUSH2 0x266 SWAP2 SWAP1 PUSH2 0x431D JUMP JUMPDEST PUSH1 0x40 MLOAD DUP1 SWAP2 SUB SWAP1 RETURN JUMPDEST PUSH2 0x277 PUSH2 0x2843 JUMP JUMPDEST PUSH1 0x40 MLOAD PUSH2 0x284 SWAP2 SWAP1 PUSH2 0x42F3 JUMP JUMPDEST PUSH1 0x40 MLOAD DUP1 SWAP2 SUB SWAP1 RETURN JUMPDEST PUSH2 0x295 PUSH2 0x2849 JUMP JUMPDEST PUSH1 0x40 MLOAD PUSH2 0x2A2 SWAP2 SWAP1 PUSH2 0x4397 JUMP JUMPDEST PUSH1 0x40 MLOAD DUP1 SWAP2 SUB SWAP1 RETURN JUMPDEST PUSH2 0x2B3 PUSH2 0x286F JUMP JUMPDEST STOP JUMPDEST PUSH2 0x2BD PUSH2 0x2883 JUMP JUMPDEST PUSH1 0x40 MLOAD PUSH2 0x2CA SWAP2 SWAP1 PUSH2 0x43D3 JUMP JUMPDEST PUSH1 0x40 MLOAD DUP1 SWAP2 SUB SWAP1 RETURN JUMPDEST PUSH2 0x2DB PUSH2 0x28A9 JUMP JUMPDEST PUSH1 0x40 MLOAD PUSH2 0x2E8 SWAP2 SWAP1 PUSH2 0x42F3 JUMP JUMPDEST PUSH1 0x40 MLOAD DUP1 SWAP2 SUB SWAP1 RETURN JUMPDEST PUSH2 0x2F9 PUSH2 0x28AF JUMP JUMPDEST PUSH1 0x40 MLOAD PUSH2 0x306 SWAP2 SWAP1 PUSH2 0x431D JUMP JUMPDEST PUSH1 0x40 MLOAD DUP1 SWAP2 SUB SWAP1 RETURN JUMPDEST PUSH2 0x317 PUSH2 0x28D8 JUMP JUMPDEST STOP JUMPDEST PUSH2 0x321 PUSH2 0x2FF1 JUMP JUMPDEST PUSH1 0x40 MLOAD PUSH2 0x32E SWAP2 SWAP1 PUSH2 0x42F3 JUMP JUMPDEST PUSH1 0x40 MLOAD DUP1 SWAP2 SUB SWAP1 RETURN JUMPDEST PUSH2 0x33F PUSH2 0x2FF7 JUMP JUMPDEST PUSH1 0x40 MLOAD PUSH2 0x34C SWAP2 SWAP1 PUSH2 0x42F3 JUMP JUMPDEST PUSH1 0x40 MLOAD DUP1 SWAP2 SUB SWAP1 RETURN JUMPDEST PUSH2 0x36F PUSH1 0x4 DUP1 CALLDATASIZE SUB DUP2 ADD SWAP1 PUSH2 0x36A SWAP2 SWAP1 PUSH2 0x429D JUMP JUMPDEST PUSH2 0x2FFD JUMP JUMPDEST STOP JUMPDEST PUSH2 0x379 PUSH2 0x3E07 JUMP JUMPDEST PUSH1 0x40 MLOAD PUSH2 0x386 SWAP2 SWAP1 PUSH2 0x4397 JUMP JUMPDEST PUSH1 0x40 MLOAD DUP1 SWAP2 SUB SWAP1 RETURN JUMPDEST PUSH2 0x397 PUSH2 0x3E2D JUMP JUMPDEST PUSH1 0x40 MLOAD PUSH2 0x3A4 SWAP2 SWAP1 PUSH2 0x42F3 JUMP JUMPDEST PUSH1 0x40 MLOAD DUP1 SWAP2 SUB SWAP1 RETURN JUMPDEST PUSH2 0x3C7 PUSH1 0x4 DUP1 CALLDATASIZE SUB DUP2 ADD SWAP1 PUSH2 0x3C2 SWAP2 SWAP1 PUSH2 0x41F4 JUMP JUMPDEST PUSH2 0x3E33 JUMP JUMPDEST STOP JUMPDEST PUSH2 0x3E3 PUSH1 0x4 DUP1 CALLDATASIZE SUB DUP2 ADD SWAP1 PUSH2 0x3DE SWAP2 SWAP1 PUSH2 0x41F4 JUMP JUMPDEST PUSH2 0x3EB6 JUMP JUMPDEST PUSH1 0x40 MLOAD PUSH2 0x3F1 SWAP3 SWAP2 SWAP1 PUSH2 0x42CA JUMP JUMPDEST PUSH1 0x40 MLOAD DUP1 SWAP2 SUB SWAP1 RETURN JUMPDEST PUSH1 0xD PUSH1 0x20 MSTORE DUP1 PUSH1 0x0 MSTORE PUSH1 0x40 PUSH1 0x0 KECCAK256 PUSH1 0x0 SWAP2 POP SWAP1 POP DUP1 PUSH1 0x0 ADD SLOAD SWAP1 DUP1 PUSH1 0x1 ADD SLOAD SWAP1 DUP1 PUSH1 0x2 ADD SLOAD SWAP1 POP DUP4 JUMP JUMPDEST PUSH2 0x450 PUSH32 0xC256E7CF217D23F2CBFC5F5700506DB6928A88FAD203C786551DB12F88D67CBE PUSH1 0x0 SHL PUSH2 0x4044 JUMP JUMPDEST PUSH2 0x47C PUSH32 0x3BE5EB80A6290ED5EE928E769C75B5921EFFD3C96830F917E6F67B52CB32C8E7 PUSH1 0x0 SHL PUSH2 0x4044 JUMP JUMPDEST PUSH2 0x4A8 PUSH32 0xEAB8462F5437C3C3D04F2EF61184E260497049BB2CE3E5BC0E54CF75287032A PUSH1 0x0 SHL PUSH2 0x4044 JUMP JUMPDEST PUSH2 0x4D4 PUSH32 0x99B41C0AC38EA8262EA69FB8BCEE34022DEA7BB965AA4D8FB1AB5875D7EF3B72 PUSH1 0x0 SHL PUSH2 0x4044 JUMP JUMPDEST PUSH1 0x0 DUP2 GT PUSH2 0x517 JUMPI PUSH1 0x40 MLOAD PUSH32 0x8C379A000000000000000000000000000000000000000000000000000000000 DUP2 MSTORE PUSH1 0x4 ADD PUSH2 0x50E SWAP1 PUSH2 0x444B JUMP JUMPDEST PUSH1 0x40 MLOAD DUP1 SWAP2 SUB SWAP1 REVERT JUMPDEST PUSH2 0x543 PUSH32 0x709E603DED08FC068EC8588B94105299A8F9C9B11A542AB1557DA2BA55D32FBA PUSH1 0x0 SHL PUSH2 0x4044 JUMP JUMPDEST PUSH2 0x56F PUSH32 0x1D7FCE82212B9E7BEBEECB5B7ED6179274E6E02B5F20BB565DA055000803090B PUSH1 0x0 SHL PUSH2 0x4044 JUMP JUMPDEST PUSH2 0x59B PUSH32 0x71BEBB7FFFB3DDFDEE9ED3EC856D5304E38B94B3F164745BB124BD136E117360 PUSH1 0x0 SHL PUSH2 0x4044 JUMP JUMPDEST PUSH1 0x0 PUSH1 0xD PUSH1 0x0 CALLER PUSH20 0xFFFFFFFFFFFFFFFFFFFFFFFFFFFFFFFFFFFFFFFF AND PUSH20 0xFFFFFFFFFFFFFFFFFFFFFFFFFFFFFFFFFFFFFFFF AND DUP2 MSTORE PUSH1 0x20 ADD SWAP1 DUP2 MSTORE PUSH1 0x20 ADD PUSH1 0x0 KECCAK256 SWAP1 POP PUSH2 0x60A PUSH32 0xBC902CF53A2C2B122686DC30D41E1AFA5E07FB29FDCB329F62E54DD173A89B9F PUSH1 0x0 SHL PUSH2 0x4044 JUMP JUMPDEST PUSH2 0x636 PUSH32 0x45621B2018CC4FEA3F0EAE407AE5303B8F34B9BDF4F9B3F0724AC5CA81031858 PUSH1 0x0 SHL PUSH2 0x4044 JUMP JUMPDEST PUSH2 0x63F CALLER PUSH2 0x14A8 JUMP JUMPDEST PUSH2 0x66B PUSH32 0x52EE005E1EE526A685B84FBC76533F480B2D9A44C6553FEE8A1C5BC28294C68E PUSH1 0x0 SHL PUSH2 0x4044 JUMP JUMPDEST PUSH2 0x697 PUSH32 0xD3A4C9EEEE7A4D05CF5F9DFC8D434FB70C8C2B84AB676ECFC49B8EA0080D1A7C PUSH1 0x0 SHL PUSH2 0x4044 JUMP JUMPDEST PUSH1 0x0 PUSH2 0x6A2 CALLER PUSH2 0x10AF JUMP JUMPDEST SWAP2 POP POP PUSH2 0x6D1 PUSH32 0x997A9C10BD33AC6632C873FD31E623638C02C3BD4A764628A6DCBC3A33CCEFDB PUSH1 0x0 SHL PUSH2 0x4044 JUMP JUMPDEST PUSH2 0x6FD PUSH32 0x1BCE3B53465CD09BAF2AD3530575C4E77837C4CAB74B6DEAD610857391C10CC8 PUSH1 0x0 SHL PUSH2 0x4044 JUMP JUMPDEST PUSH2 0x729 PUSH32 0x31865CE197F4B0E6F26ACEED32F175667A7E6FEC6E166F41C8647715242E7503 PUSH1 0x0 SHL PUSH2 0x4044 JUMP JUMPDEST DUP1 DUP4 GT ISZERO PUSH2 0x76C JUMPI PUSH1 0x40 MLOAD PUSH32 0x8C379A000000000000000000000000000000000000000000000000000000000 DUP2 MSTORE PUSH1 0x4 ADD PUSH2 0x763 SWAP1 PUSH2 0x44DD JUMP JUMPDEST PUSH1 0x40 MLOAD DUP1 SWAP2 SUB SWAP1 REVERT JUMPDEST PUSH2 0x798 PUSH32 0x45133126C09243E775CC5537981579BEB452E42656A6E37AB28772E7AA36D6EC PUSH1 0x0 SHL PUSH2 0x4044 JUMP JUMPDEST PUSH2 0x7C4 PUSH32 0xE49B53985DB78286EA2F5BCFA65B3C057B9FA85177AE9CC1034E9D34482D9F67 PUSH1 0x0 SHL PUSH2 0x4044 JUMP JUMPDEST PUSH2 0x7F0 PUSH32 0xCFE76BE50B3FF5F60C86F16E7F2F04C1A85DB63E7927D0D014E3A1F66784B439 PUSH1 0x0 SHL PUSH2 0x4044 JUMP JUMPDEST PUSH2 0x7F8 PUSH2 0x28D8 JUMP JUMPDEST PUSH2 0x824 PUSH32 0xFD8C0CE99C9F7C2A4EB751C9529D203B671A9206938938D47A42AB621B631720 PUSH1 0x0 SHL PUSH2 0x4044 JUMP JUMPDEST PUSH2 0x850 PUSH32 0xF66D83DF518CD9E8C95D24234447943E589080742C9069A48E91D728C9B868ED PUSH1 0x0 SHL PUSH2 0x4044 JUMP JUMPDEST PUSH1 0x0 DUP1 PUSH2 0x85C CALLER PUSH2 0x3EB6 JUMP JUMPDEST SWAP2 POP SWAP2 POP PUSH2 0x88C PUSH32 0x38D417AD5A3EE9342B32D4ECBFE22A3364AF5FBFCE152D9385E6A6794009EFAD PUSH1 0x0 SHL PUSH2 0x4044 JUMP JUMPDEST PUSH2 0x8B8 PUSH32 0x77E612D03BC4D72CF90C7C310CFEE625A2DB307762E9AE9795A616ED29FB538E PUSH1 0x0 SHL PUSH2 0x4044 JUMP JUMPDEST PUSH1 0x2 PUSH1 0x0 SWAP1 SLOAD SWAP1 PUSH2 0x100 EXP SWAP1 DIV PUSH20 0xFFFFFFFFFFFFFFFFFFFFFFFFFFFFFFFFFFFFFFFF AND PUSH20 0xFFFFFFFFFFFFFFFFFFFFFFFFFFFFFFFFFFFFFFFF AND PUSH4 0xA9059CBB PUSH1 0x9 PUSH1 0x0 SWAP1 SLOAD SWAP1 PUSH2 0x100 EXP SWAP1 DIV PUSH20 0xFFFFFFFFFFFFFFFFFFFFFFFFFFFFFFFFFFFFFFFF AND PUSH1 0x64 PUSH1 0xA DUP7 PUSH2 0x928 SWAP2 SWAP1 PUSH2 0x452C JUMP JUMPDEST PUSH2 0x932 SWAP2 SWAP1 PUSH2 0x459D JUMP JUMPDEST PUSH1 0x40 MLOAD DUP4 PUSH4 0xFFFFFFFF AND PUSH1 0xE0 SHL DUP2 MSTORE PUSH1 0x4 ADD PUSH2 0x94F SWAP3 SWAP2 SWAP1 PUSH2 0x45CE JUMP JUMPDEST PUSH1 0x20 PUSH1 0x40 MLOAD DUP1 DUP4 SUB DUP2 PUSH1 0x0 DUP8 GAS CALL ISZERO DUP1 ISZERO PUSH2 0x96E JUMPI RETURNDATASIZE PUSH1 0x0 DUP1 RETURNDATACOPY RETURNDATASIZE PUSH1 0x0 REVERT JUMPDEST POP POP POP POP PUSH1 0x40 MLOAD RETURNDATASIZE PUSH1 0x1F NOT PUSH1 0x1F DUP3 ADD AND DUP3 ADD DUP1 PUSH1 0x40 MSTORE POP DUP2 ADD SWAP1 PUSH2 0x992 SWAP2 SWAP1 PUSH2 0x462F JUMP JUMPDEST POP PUSH2 0x9BF PUSH32 0x53405E789BC265DF0BACE73D148890BB7FAC4FD359327FA82BE698F66E206F5B PUSH1 0x0 SHL PUSH2 0x4044 JUMP JUMPDEST PUSH2 0x9EB PUSH32 0x538A8CC4CA32B29C8251ECEC430852F96BB7E5786276C1FA8F2B6549942D9CE2 PUSH1 0x0 SHL PUSH2 0x4044 JUMP JUMPDEST PUSH1 0x3 PUSH1 0x0 SWAP1 SLOAD SWAP1 PUSH2 0x100 EXP SWAP1 DIV PUSH20 0xFFFFFFFFFFFFFFFFFFFFFFFFFFFFFFFFFFFFFFFF AND PUSH20 0xFFFFFFFFFFFFFFFFFFFFFFFFFFFFFFFFFFFFFFFF AND PUSH4 0xA9059CBB PUSH1 0x9 PUSH1 0x0 SWAP1 SLOAD SWAP1 PUSH2 0x100 EXP SWAP1 DIV PUSH20 0xFFFFFFFFFFFFFFFFFFFFFFFFFFFFFFFFFFFFFFFF AND PUSH1 0x64 PUSH1 0xA DUP6 PUSH2 0xA5B SWAP2 SWAP1 PUSH2 0x452C JUMP JUMPDEST PUSH2 0xA65 SWAP2 SWAP1 PUSH2 0x459D JUMP JUMPDEST PUSH1 0x40 MLOAD DUP4 PUSH4 0xFFFFFFFF AND PUSH1 0xE0 SHL DUP2 MSTORE PUSH1 0x4 ADD PUSH2 0xA82 SWAP3 SWAP2 SWAP1 PUSH2 0x45CE JUMP JUMPDEST PUSH1 0x20 PUSH1 0x40 MLOAD DUP1 DUP4 SUB DUP2 PUSH1 0x0 DUP8 GAS CALL ISZERO DUP1 ISZERO PUSH2 0xAA1 JUMPI RETURNDATASIZE PUSH1 0x0 DUP1 RETURNDATACOPY RETURNDATASIZE PUSH1 0x0 REVERT JUMPDEST POP POP POP POP PUSH1 0x40 MLOAD RETURNDATASIZE PUSH1 0x1F NOT PUSH1 0x1F DUP3 ADD AND DUP3 ADD DUP1 PUSH1 0x40 MSTORE POP DUP2 ADD SWAP1 PUSH2 0xAC5 SWAP2 SWAP1 PUSH2 0x462F JUMP JUMPDEST POP PUSH2 0xAF2 PUSH32 0x9D48E3E198D70F0E7A5ADB8583E5D6A53832778C477DBD505D853C2BD2C30322 PUSH1 0x0 SHL PUSH2 0x4044 JUMP JUMPDEST PUSH2 0xB1E PUSH32 0x8DCE8051929D4CC61D7C6AA747B53AE34776830B3DE200B06FA017153F37CB12 PUSH1 0x0 SHL PUSH2 0x4044 JUMP JUMPDEST PUSH1 0x2 PUSH1 0x0 SWAP1 SLOAD SWAP1 PUSH2 0x100 EXP SWAP1 DIV PUSH20 0xFFFFFFFFFFFFFFFFFFFFFFFFFFFFFFFFFFFFFFFF AND PUSH20 0xFFFFFFFFFFFFFFFFFFFFFFFFFFFFFFFFFFFFFFFF AND PUSH4 0xA9059CBB CALLER PUSH1 0x64 PUSH1 0xA DUP7 PUSH2 0xB6C SWAP2 SWAP1 PUSH2 0x452C JUMP JUMPDEST PUSH2 0xB76 SWAP2 SWAP1 PUSH2 0x459D JUMP JUMPDEST DUP6 PUSH2 0xB81 SWAP2 SWAP1 PUSH2 0x465C JUMP JUMPDEST PUSH1 0x40 MLOAD DUP4 PUSH4 0xFFFFFFFF AND PUSH1 0xE0 SHL DUP2 MSTORE PUSH1 0x4 ADD PUSH2 0xB9E SWAP3 SWAP2 SWAP1 PUSH2 0x45CE JUMP JUMPDEST PUSH1 0x20 PUSH1 0x40 MLOAD DUP1 DUP4 SUB DUP2 PUSH1 0x0 DUP8 GAS CALL ISZERO DUP1 ISZERO PUSH2 0xBBD JUMPI RETURNDATASIZE PUSH1 0x0 DUP1 RETURNDATACOPY RETURNDATASIZE PUSH1 0x0 REVERT JUMPDEST POP POP POP POP PUSH1 0x40 MLOAD RETURNDATASIZE PUSH1 0x1F NOT PUSH1 0x1F DUP3 ADD AND DUP3 ADD DUP1 PUSH1 0x40 MSTORE POP DUP2 ADD SWAP1 PUSH2 0xBE1 SWAP2 SWAP1 PUSH2 0x462F JUMP JUMPDEST POP PUSH2 0xC0E PUSH32 0x24E532AD4FC179BBA85AEDAC039ADF90AD2DDFFDB7D4537BD78CFA209B79CCC1 PUSH1 0x0 SHL PUSH2 0x4044 JUMP JUMPDEST PUSH2 0xC3A PUSH32 0xECCDBBA6067A55711585414BAF67EE516D400EBBBF3E1F504FA0146D459B437B PUSH1 0x0 SHL PUSH2 0x4044 JUMP JUMPDEST PUSH1 0x3 PUSH1 0x0 SWAP1 SLOAD SWAP1 PUSH2 0x100 EXP SWAP1 DIV PUSH20 0xFFFFFFFFFFFFFFFFFFFFFFFFFFFFFFFFFFFFFFFF AND PUSH20 0xFFFFFFFFFFFFFFFFFFFFFFFFFFFFFFFFFFFFFFFF AND PUSH4 0xA9059CBB CALLER PUSH1 0x64 PUSH1 0xA DUP6 PUSH2 0xC88 SWAP2 SWAP1 PUSH2 0x452C JUMP JUMPDEST PUSH2 0xC92 SWAP2 SWAP1 PUSH2 0x459D JUMP JUMPDEST DUP5 PUSH2 0xC9D SWAP2 SWAP1 PUSH2 0x465C JUMP JUMPDEST PUSH1 0x40 MLOAD DUP4 PUSH4 0xFFFFFFFF AND PUSH1 0xE0 SHL DUP2 MSTORE PUSH1 0x4 ADD PUSH2 0xCBA SWAP3 SWAP2 SWAP1 PUSH2 0x45CE JUMP JUMPDEST PUSH1 0x20 PUSH1 0x40 MLOAD DUP1 DUP4 SUB DUP2 PUSH1 0x0 DUP8 GAS CALL ISZERO DUP1 ISZERO PUSH2 0xCD9 JUMPI RETURNDATASIZE PUSH1 0x0 DUP1 RETURNDATACOPY RETURNDATASIZE PUSH1 0x0 REVERT JUMPDEST POP POP POP POP PUSH1 0x40 MLOAD RETURNDATASIZE PUSH1 0x1F NOT PUSH1 0x1F DUP3 ADD AND DUP3 ADD DUP1 PUSH1 0x40 MSTORE POP DUP2 ADD SWAP1 PUSH2 0xCFD SWAP2 SWAP1 PUSH2 0x462F JUMP JUMPDEST POP PUSH2 0xD2A PUSH32 0xE706AA8DFD078FC9D2A7FD516E07FCCB98468CFF7EA5D86C2D348135FBA544A PUSH1 0x0 SHL PUSH2 0x4044 JUMP JUMPDEST PUSH2 0xD56 PUSH32 0x441F9F04D9EA35119229033A22DD41B848B0A6C406238EF992BD33778EF0EBA8 PUSH1 0x0 SHL PUSH2 0x4044 JUMP JUMPDEST DUP5 DUP5 PUSH1 0x0 ADD SLOAD PUSH2 0xD66 SWAP2 SWAP1 PUSH2 0x465C JUMP JUMPDEST DUP5 PUSH1 0x0 ADD DUP2 SWAP1 SSTORE POP PUSH2 0xD9A PUSH32 0x415DB434B90BAF4582A9BABB8A7E2469B4AAF705508DBBC2FD5BB5F0EF5EAD36 PUSH1 0x0 SHL PUSH2 0x4044 JUMP JUMPDEST PUSH2 0xDC6 PUSH32 0x912041EC950B16F0C18CF10DF45F85FB885E94E071D18B3AEEB4270D8DEDB87D PUSH1 0x0 SHL PUSH2 0x4044 JUMP JUMPDEST PUSH5 0xE8D4A51000 PUSH1 0xB SLOAD DUP6 PUSH1 0x0 ADD SLOAD PUSH2 0xDDE SWAP2 SWAP1 PUSH2 0x452C JUMP JUMPDEST PUSH2 0xDE8 SWAP2 SWAP1 PUSH2 0x459D JUMP JUMPDEST DUP5 PUSH1 0x1 ADD DUP2 SWAP1 SSTORE POP PUSH2 0xE1C PUSH32 0x752AFA3F1DB3D6C3DDEB4543E506EC7D5419BCE862A9B7C2D3DAB679931414E9 PUSH1 0x0 SHL PUSH2 0x4044 JUMP JUMPDEST PUSH2 0xE48 PUSH32 0x9053A95E374859CB2AD2E637222CED51DCD732A4558BBDED09ECBB11AAE1E04C PUSH1 0x0 SHL PUSH2 0x4044 JUMP JUMPDEST PUSH5 0xE8D4A51000 PUSH1 0xC SLOAD DUP6 PUSH1 0x0 ADD SLOAD PUSH2 0xE60 SWAP2 SWAP1 PUSH2 0x452C JUMP JUMPDEST PUSH2 0xE6A SWAP2 SWAP1 PUSH2 0x459D JUMP JUMPDEST DUP5 PUSH1 0x2 ADD DUP2 SWAP1 SSTORE POP PUSH2 0xE9E PUSH32 0x2F38C748040D2A314F2AD913A7E7ABE08EC8E3BB556B419694ABA1353473F94A PUSH1 0x0 SHL PUSH2 0x4044 JUMP JUMPDEST PUSH2 0xECA PUSH32 0x96BBA9422D4A340C413CD7023E87AC5B73DE0E37BE734FD1317F8AD7414AAA5D PUSH1 0x0 SHL PUSH2 0x4044 JUMP JUMPDEST PUSH1 0x1 PUSH1 0x0 SWAP1 SLOAD SWAP1 PUSH2 0x100 EXP SWAP1 DIV PUSH20 0xFFFFFFFFFFFFFFFFFFFFFFFFFFFFFFFFFFFFFFFF AND PUSH20 0xFFFFFFFFFFFFFFFFFFFFFFFFFFFFFFFFFFFFFFFF AND PUSH4 0xA9059CBB CALLER DUP8 PUSH1 0x40 MLOAD DUP4 PUSH4 0xFFFFFFFF AND PUSH1 0xE0 SHL DUP2 MSTORE PUSH1 0x4 ADD PUSH2 0xF27 SWAP3 SWAP2 SWAP1 PUSH2 0x45CE JUMP JUMPDEST PUSH1 0x20 PUSH1 0x40 MLOAD DUP1 DUP4 SUB DUP2 PUSH1 0x0 DUP8 GAS CALL ISZERO DUP1 ISZERO PUSH2 0xF46 JUMPI RETURNDATASIZE PUSH1 0x0 DUP1 RETURNDATACOPY RETURNDATASIZE PUSH1 0x0 REVERT JUMPDEST POP POP POP POP PUSH1 0x40 MLOAD RETURNDATASIZE PUSH1 0x1F NOT PUSH1 0x1F DUP3 ADD AND DUP3 ADD DUP1 PUSH1 0x40 MSTORE POP DUP2 ADD SWAP1 PUSH2 0xF6A SWAP2 SWAP1 PUSH2 0x462F JUMP JUMPDEST POP PUSH2 0xF97 PUSH32 0xAA4F334CAAEE5BBF1AF1F10FEEA3A61F529F7BDB2D18C7FEC86B805ACF82ABAC PUSH1 0x0 SHL PUSH2 0x4044 JUMP JUMPDEST PUSH2 0xFC3 PUSH32 0xC9126346EDAD0A904D0B23FC64F5CF91BCFDC3099266F0DCE7B839642F156D2B PUSH1 0x0 SHL PUSH2 0x4044 JUMP JUMPDEST DUP5 DUP5 PUSH1 0x3 ADD PUSH1 0x0 DUP2 SLOAD DUP2 LT PUSH2 0xFDB JUMPI PUSH2 0xFDA PUSH2 0x4690 JUMP JUMPDEST JUMPDEST SWAP1 PUSH1 0x0 MSTORE PUSH1 0x20 PUSH1 0x0 KECCAK256 SWAP1 PUSH1 0x2 MUL ADD PUSH1 0x0 ADD PUSH1 0x0 DUP3 DUP3 SLOAD PUSH2 0xFFB SWAP2 SWAP1 PUSH2 0x465C JUMP JUMPDEST SWAP3 POP POP DUP2 SWAP1 SSTORE POP PUSH2 0x102E PUSH32 0xDE494527EC9BAE5266EE9C30B9FCC19ECF22492C13E9EB1B284DFF1CABA1B62C PUSH1 0x0 SHL PUSH2 0x4044 JUMP JUMPDEST PUSH2 0x105A PUSH32 0x14C3C620222DB750DD784365DE6058365AC40630EF3A6765E796F891E5EAA49C PUSH1 0x0 SHL PUSH2 0x4044 JUMP JUMPDEST CALLER PUSH20 0xFFFFFFFFFFFFFFFFFFFFFFFFFFFFFFFFFFFFFFFF AND PUSH32 0x884EDAD9CE6FA2440D8A54CC123490EB96D2768479D49FF9C7366125A9424364 DUP7 PUSH1 0x40 MLOAD PUSH2 0x10A0 SWAP2 SWAP1 PUSH2 0x42F3 JUMP JUMPDEST PUSH1 0x40 MLOAD DUP1 SWAP2 SUB SWAP1 LOG2 POP POP POP POP POP JUMP JUMPDEST PUSH1 0x0 DUP1 PUSH2 0x10DE PUSH32 0xC852C7DA49ECEC354FEA50B2AE052F574F35B518823464846892B83295A58121 PUSH1 0x0 SHL PUSH2 0x4044 JUMP JUMPDEST PUSH2 0x110A PUSH32 0x163EFD95C0FCD01CF405AE9BF40C58831C73A6E5D1060A99D5DC0250282A791A PUSH1 0x0 SHL PUSH2 0x4044 JUMP JUMPDEST PUSH2 0x1136 PUSH32 0x46C38433840FEC8E3F6C43710F4199170E9AED76453107B7D650A1E341D3070C PUSH1 0x0 SHL PUSH2 0x4044 JUMP JUMPDEST PUSH1 0x0 PUSH1 0xD PUSH1 0x0 DUP6 PUSH20 0xFFFFFFFFFFFFFFFFFFFFFFFFFFFFFFFFFFFFFFFF AND PUSH20 0xFFFFFFFFFFFFFFFFFFFFFFFFFFFFFFFFFFFFFFFF AND DUP2 MSTORE PUSH1 0x20 ADD SWAP1 DUP2 MSTORE PUSH1 0x20 ADD PUSH1 0x0 KECCAK256 SWAP1 POP PUSH2 0x11A5 PUSH32 0x481CD945A98DBFD66268A82F3E06192C692CD1C5E805F2FEC7FA3CDC88F95037 PUSH1 0x0 SHL PUSH2 0x4044 JUMP JUMPDEST PUSH2 0x11D1 PUSH32 0x71700352D026FD30C09C401C089300769EB9EED141F9C4CDCE6304AA66864BF5 PUSH1 0x0 SHL PUSH2 0x4044 JUMP JUMPDEST PUSH1 0x0 PUSH2 0x11FF PUSH32 0xECFF65AB10F7DBD7886B785E37F4CA434D26F04FFD018A5865852A51B6EE3A91 PUSH1 0x0 SHL PUSH2 0x4044 JUMP JUMPDEST PUSH2 0x122B PUSH32 0x98658D91883BDDB9C2B2D69E6B305CCC446532DB482C7B6511C19201C32C1203 PUSH1 0x0 SHL PUSH2 0x4044 JUMP JUMPDEST PUSH1 0x0 JUMPDEST DUP3 PUSH1 0x3 ADD DUP1 SLOAD SWAP1 POP DUP2 LT ISZERO PUSH2 0x142D JUMPI PUSH2 0x1269 PUSH32 0x5ADA061393F614A3AEF5B81C6688CE5DA4F489821F61BA251A928B12A878D2CE PUSH1 0x0 SHL PUSH2 0x4044 JUMP JUMPDEST PUSH2 0x1295 PUSH32 0x47C27EF9BD39AEF1ED7F11B202C1C4CE20E5F5906AB03656A5F6321B5C8D63A0 PUSH1 0x0 SHL PUSH2 0x4044 JUMP JUMPDEST PUSH1 0x0 DUP4 PUSH1 0x3 ADD DUP3 DUP2 SLOAD DUP2 LT PUSH2 0x12AD JUMPI PUSH2 0x12AC PUSH2 0x4690 JUMP JUMPDEST JUMPDEST SWAP1 PUSH1 0x0 MSTORE PUSH1 0x20 PUSH1 0x0 KECCAK256 SWAP1 PUSH1 0x2 MUL ADD PUSH1 0x1 ADD SLOAD TIMESTAMP PUSH2 0x12CA SWAP2 SWAP1 PUSH2 0x465C JUMP JUMPDEST SWAP1 POP PUSH2 0x12F8 PUSH32 0xB7E7005B2A03FC0DF5C9AE3CAC52A6A6FB746B489A2FA0D14064DD7C143F32AF PUSH1 0x0 SHL PUSH2 0x4044 JUMP JUMPDEST PUSH2 0x1324 PUSH32 0xB2530E912C4BDD90BD450833304CF938B87DF580AC0C20BA963FC9B3A5454445 PUSH1 0x0 SHL PUSH2 0x4044 JUMP JUMPDEST PUSH1 0x6 SLOAD DUP2 LT ISZERO PUSH2 0x13EC JUMPI PUSH2 0x135A PUSH32 0xD78940FBC99F24D70592360806257FCB31CB054C50BD9A9060C38A61AF9AE65B PUSH1 0x0 SHL PUSH2 0x4044 JUMP JUMPDEST PUSH2 0x1386 PUSH32 0xCF990B4CF8400AB73E95C06C2C739F574237CFFD6A0B71AFE993D00D40439B52 PUSH1 0x0 SHL PUSH2 0x4044 JUMP JUMPDEST PUSH2 0x13B2 PUSH32 0x5453DD67A714E96EAF36E746F2170F1456D82CA091D72F81E6B13A22E8F8B77D PUSH1 0x0 SHL PUSH2 0x4044 JUMP JUMPDEST DUP4 PUSH1 0x3 ADD DUP3 DUP2 SLOAD DUP2 LT PUSH2 0x13C8 JUMPI PUSH2 0x13C7 PUSH2 0x4690 JUMP JUMPDEST JUMPDEST SWAP1 PUSH1 0x0 MSTORE PUSH1 0x20 PUSH1 0x0 KECCAK256 SWAP1 PUSH1 0x2 MUL ADD PUSH1 0x0 ADD SLOAD DUP4 PUSH2 0x13E5 SWAP2 SWAP1 PUSH2 0x46BF JUMP JUMPDEST SWAP3 POP PUSH2 0x1419 JUMP JUMPDEST PUSH2 0x1418 PUSH32 0x52FD9A2328BD417843348CE0EC1F9EF5D78FC56A5B647BCFB5FF9B99C9811C33 PUSH1 0x0 SHL PUSH2 0x4044 JUMP JUMPDEST JUMPDEST POP DUP1 DUP1 PUSH2 0x1425 SWAP1 PUSH2 0x46F3 JUMP JUMPDEST SWAP2 POP POP PUSH2 0x122E JUMP JUMPDEST POP PUSH2 0x145A PUSH32 0x69E437E07A057B2BF0DF0B7094B63057076D2B9C126FF1F436AD2EACA922CE1A PUSH1 0x0 SHL PUSH2 0x4044 JUMP JUMPDEST PUSH2 0x1486 PUSH32 0x1A3466A782673B46D00015AB0CA081A908214134462B8D579E5309F15D6531A9 PUSH1 0x0 SHL PUSH2 0x4044 JUMP JUMPDEST DUP1 DUP2 DUP4 PUSH1 0x0 ADD SLOAD PUSH2 0x1497 SWAP2 SWAP1 PUSH2 0x465C JUMP JUMPDEST SWAP4 POP SWAP4 POP POP POP SWAP2 POP SWAP2 JUMP JUMPDEST PUSH1 0x6 SLOAD DUP2 JUMP JUMPDEST PUSH2 0x14D4 PUSH32 0xB9081D62BD7C453FC455C20E434C4EED259D080859724DDCB6D72C48CC891F50 PUSH1 0x0 SHL PUSH2 0x4044 JUMP JUMPDEST PUSH2 0x1500 PUSH32 0x9C635FD08B5D9EF0AC078255E3B69D62BB193D1F49646C22835637D7B0EC4AC8 PUSH1 0x0 SHL PUSH2 0x4044 JUMP JUMPDEST PUSH2 0x152C PUSH32 0x435B7CC37C8FAFCDD59177EEC3822D278128B4858064441A82E8659FD68A1D47 PUSH1 0x0 SHL PUSH2 0x4044 JUMP JUMPDEST PUSH1 0x0 PUSH1 0xD PUSH1 0x0 DUP4 PUSH20 0xFFFFFFFFFFFFFFFFFFFFFFFFFFFFFFFFFFFFFFFF AND PUSH20 0xFFFFFFFFFFFFFFFFFFFFFFFFFFFFFFFFFFFFFFFF AND DUP2 MSTORE PUSH1 0x20 ADD SWAP1 DUP2 MSTORE PUSH1 0x20 ADD PUSH1 0x0 KECCAK256 SWAP1 POP PUSH2 0x159B PUSH32 0x8E05A4EFDF2E2CD3021C55CF11E9739B5345416D9844E7B122182FFF88F57567 PUSH1 0x0 SHL PUSH2 0x4044 JUMP JUMPDEST PUSH2 0x15C7 PUSH32 0x10BC0882DB81F457E792F73BE4ABC86F469E2EA09AC7F1A52946BD42E2F38CB0 PUSH1 0x0 SHL PUSH2 0x4044 JUMP JUMPDEST PUSH1 0x0 PUSH2 0x15F5 PUSH32 0x499FE063373723B22F49C519EDED841974B4562B04386359A07BD3F4B44B4B5C PUSH1 0x0 SHL PUSH2 0x4044 JUMP JUMPDEST PUSH2 0x1621 PUSH32 0x7B92AF0045025758A1735F2112A732C7AFD962DDEC8511B6E822AB721BF4AA49 PUSH1 0x0 SHL PUSH2 0x4044 JUMP JUMPDEST PUSH1 0x0 DUP3 PUSH1 0x3 ADD DUP1 SLOAD SWAP1 POP SWAP1 POP PUSH2 0x1659 PUSH32 0x8009D4B9730F3AF12BA4C8BBE4F7B358A8EF9292109FDC51D063F7CF951DA448 PUSH1 0x0 SHL PUSH2 0x4044 JUMP JUMPDEST PUSH2 0x1685 PUSH32 0x878489BD3FCD4AE46D563743C021BAB64D4D177D4AF1AC8E0BBE3A21E478AE65 PUSH1 0x0 SHL PUSH2 0x4044 JUMP JUMPDEST PUSH1 0x1 DUP2 GT PUSH2 0x16ED JUMPI PUSH2 0x16B9 PUSH32 0x3241773BF663D4F0D5AE47D401580EE869005C551885B41163D68C915F53ACC6 PUSH1 0x0 SHL PUSH2 0x4044 JUMP JUMPDEST PUSH2 0x16E5 PUSH32 0x4A7559AA22FAC43D1D195E4F2E1E719B6026FDADF2C35F434366BD627D5BE556 PUSH1 0x0 SHL PUSH2 0x4044 JUMP JUMPDEST POP POP POP PUSH2 0x1F19 JUMP JUMPDEST PUSH2 0x1719 PUSH32 0x7C79B4952BF179679FCAA1DC912924463CA890B82D325A6315FEACF864CE3D11 PUSH1 0x0 SHL PUSH2 0x4044 JUMP JUMPDEST PUSH2 0x1745 PUSH32 0xEC49C3325E9CA442A8D27945114BFB1EE16D9267944F0046357D96013B01B3FA PUSH1 0x0 SHL PUSH2 0x4044 JUMP JUMPDEST PUSH2 0x1771 PUSH32 0x6D3C9B53CCDBA4C020C2CC741C644630C498E8B5922894A574862362E4676DA9 PUSH1 0x0 SHL PUSH2 0x4044 JUMP JUMPDEST PUSH1 0x0 PUSH2 0x179F PUSH32 0x2FB549B6E3FE68F365CD24DD84F4A08B65C163DEC9299FA187020CD7F91F38A9 PUSH1 0x0 SHL PUSH2 0x4044 JUMP JUMPDEST PUSH2 0x17CB PUSH32 0xD343264F4061233E96C2B1D943BAD1352959A871C38A00296BBA7B8A86BE71B0 PUSH1 0x0 SHL PUSH2 0x4044 JUMP JUMPDEST PUSH1 0x0 SWAP1 POP JUMPDEST DUP4 PUSH1 0x3 ADD DUP1 SLOAD SWAP1 POP DUP2 LT ISZERO PUSH2 0x1A56 JUMPI PUSH2 0x180B PUSH32 0x435E8D25115448E44FF0380A94A4FFD1E5EF26DB9C43DD84881280A98E062DA6 PUSH1 0x0 SHL PUSH2 0x4044 JUMP JUMPDEST PUSH2 0x1837 PUSH32 0x2186D16DFECD2FA9B891517737E8C5B37B7AFD690226FA60345C44E15DA185EE PUSH1 0x0 SHL PUSH2 0x4044 JUMP JUMPDEST PUSH1 0x0 DUP5 PUSH1 0x3 ADD DUP3 DUP2 SLOAD DUP2 LT PUSH2 0x184F JUMPI PUSH2 0x184E PUSH2 0x4690 JUMP JUMPDEST JUMPDEST SWAP1 PUSH1 0x0 MSTORE PUSH1 0x20 PUSH1 0x0 KECCAK256 SWAP1 PUSH1 0x2 MUL ADD PUSH1 0x1 ADD SLOAD TIMESTAMP PUSH2 0x186C SWAP2 SWAP1 PUSH2 0x465C JUMP JUMPDEST SWAP1 POP PUSH2 0x189A PUSH32 0x5ACF58D9ABB0BA5794C63AB1CE68C75CF57E08D3BA9503765DE9BF17FD0F1AAC PUSH1 0x0 SHL PUSH2 0x4044 JUMP JUMPDEST PUSH2 0x18C6 PUSH32 0xA31F194EC947456E0A570BA78995BA7983D2BEB17AEDCA54A7835BA4B1E99730 PUSH1 0x0 SHL PUSH2 0x4044 JUMP JUMPDEST PUSH1 0x6 SLOAD DUP2 LT ISZERO PUSH2 0x1989 JUMPI PUSH2 0x18FC PUSH32 0x1F858E2D949D630FD246A98A991154A7C0D24997EAE4AF346F494C68E861CF7A PUSH1 0x0 SHL PUSH2 0x4044 JUMP JUMPDEST PUSH2 0x1928 PUSH32 0x1B79979C8762AB14D0FDC9159B381B246B8B6D11718E8982A8D4B24B28498E5C PUSH1 0x0 SHL PUSH2 0x4044 JUMP JUMPDEST PUSH2 0x1954 PUSH32 0x42212E69725FD62D792A59CA9BF83603008BDB9FAFB01B60109141D0395436A2 PUSH1 0x0 SHL PUSH2 0x4044 JUMP JUMPDEST DUP2 SWAP3 POP PUSH2 0x1983 PUSH32 0x329085EBB547636707B10E8215B22CBB4396D60CDC1F4B1566A4F2FFFF1427C9 PUSH1 0x0 SHL PUSH2 0x4044 JUMP JUMPDEST POP PUSH2 0x1A56 JUMP JUMPDEST PUSH2 0x19B5 PUSH32 0x6F1761168006EC7FCB4994CFD05EC84B73FD9312ED5DBA21D2DFFE5C9C269696 PUSH1 0x0 SHL PUSH2 0x4044 JUMP JUMPDEST PUSH2 0x19E1 PUSH32 0xC3EC808C7FC989E74848CC34ED4116D584140CA3B6FD37724B134CCBCF971FD1 PUSH1 0x0 SHL PUSH2 0x4044 JUMP JUMPDEST PUSH2 0x1A0D PUSH32 0xF0B837E8425EB54885C12C29EBF95CC7040F078F7A73E3852AB6A99CEA40CC3C PUSH1 0x0 SHL PUSH2 0x4044 JUMP JUMPDEST DUP5 PUSH1 0x3 ADD DUP3 DUP2 SLOAD DUP2 LT PUSH2 0x1A23 JUMPI PUSH2 0x1A22 PUSH2 0x4690 JUMP JUMPDEST JUMPDEST SWAP1 PUSH1 0x0 MSTORE PUSH1 0x20 PUSH1 0x0 KECCAK256 SWAP1 PUSH1 0x2 MUL ADD PUSH1 0x0 ADD SLOAD DUP5 PUSH2 0x1A40 SWAP2 SWAP1 PUSH2 0x46BF JUMP JUMPDEST SWAP4 POP POP DUP1 DUP1 PUSH2 0x1A4E SWAP1 PUSH2 0x46F3 JUMP JUMPDEST SWAP2 POP POP PUSH2 0x17D0 JUMP JUMPDEST PUSH2 0x1A82 PUSH32 0xBE556A8D7A50BF74E0B30F1C0BAEC9DAE27C0477BD4295C23E08294AB3CCF490 PUSH1 0x0 SHL PUSH2 0x4044 JUMP JUMPDEST PUSH2 0x1AAE PUSH32 0x5F93C950C21349330B121A9FCD0380EE3C184E3969378793B33C14A4020F3F29 PUSH1 0x0 SHL PUSH2 0x4044 JUMP JUMPDEST PUSH1 0x1 DUP3 GT PUSH2 0x1B17 JUMPI PUSH2 0x1AE2 PUSH32 0xFC3C92557C72086A556988416F28172384111D0F87132D0F0ECD1E9DA6B496EA PUSH1 0x0 SHL PUSH2 0x4044 JUMP JUMPDEST PUSH2 0x1B0E PUSH32 0x4C3EC161232A98660639825355B5556D437D19D04EB8047B2183A07D96AFB735 PUSH1 0x0 SHL PUSH2 0x4044 JUMP JUMPDEST POP POP POP POP PUSH2 0x1F19 JUMP JUMPDEST PUSH2 0x1B43 PUSH32 0xF25C051FC48BAD1D98826540310F65D98E6F6B1FC0703C637279008EE2D6CD18 PUSH1 0x0 SHL PUSH2 0x4044 JUMP JUMPDEST PUSH2 0x1B6F PUSH32 0xE34C57241C0B6F5DB3DBC4656DB03EE12E953A561DB0F7F2B273AA0026B85978 PUSH1 0x0 SHL PUSH2 0x4044 JUMP JUMPDEST PUSH2 0x1B9B PUSH32 0xCBDD4BA62D787E4676644047C123F9F45EC08835991A32EBADCD453030904E7A PUSH1 0x0 SHL PUSH2 0x4044 JUMP JUMPDEST DUP3 DUP5 PUSH1 0x3 ADD PUSH1 0x0 DUP2 SLOAD DUP2 LT PUSH2 0x1BB3 JUMPI PUSH2 0x1BB2 PUSH2 0x4690 JUMP JUMPDEST JUMPDEST SWAP1 PUSH1 0x0 MSTORE PUSH1 0x20 PUSH1 0x0 KECCAK256 SWAP1 PUSH1 0x2 MUL ADD PUSH1 0x0 ADD DUP2 SWAP1 SSTORE POP PUSH2 0x1BF4 PUSH32 0xF83A9A2B749F505CECDCC280FA4FDB3E1F692B1B8F4AE4D5EB915536EF965A65 PUSH1 0x0 SHL PUSH2 0x4044 JUMP JUMPDEST PUSH2 0x1C20 PUSH32 0xCC47E69981A5202C7D1162AAB22FEF29F872F670286621D583524BC298678757 PUSH1 0x0 SHL PUSH2 0x4044 JUMP JUMPDEST PUSH1 0x0 DUP5 PUSH1 0x3 ADD DUP1 SLOAD SWAP1 POP SWAP1 POP PUSH2 0x1C58 PUSH32 0xC4134372BA2CACEDD41BA5EC5CAC9930EC23CBFA561CFB5262DD6ADD6840BFAB PUSH1 0x0 SHL PUSH2 0x4044 JUMP JUMPDEST PUSH2 0x1C84 PUSH32 0xCC0D1D15770F0D82868346F8708F7C77B1AB470F32452A7036701624109256DA PUSH1 0x0 SHL PUSH2 0x4044 JUMP JUMPDEST PUSH1 0x1 DUP2 PUSH2 0x1C91 SWAP2 SWAP1 PUSH2 0x465C JUMP JUMPDEST SWAP2 POP JUMPDEST DUP3 DUP3 LT PUSH2 0x1E32 JUMPI PUSH2 0x1CC7 PUSH32 0x40E48B8BA31E6F533BCACBD28C69B1D18CF949A4A32073003FCFFE2C29E502B7 PUSH1 0x0 SHL PUSH2 0x4044 JUMP JUMPDEST PUSH2 0x1CF3 PUSH32 0x25D3806381D833DA0FCAE9E88D23ADEB13BB5356AF6CC990F9D84E8767AB8742 PUSH1 0x0 SHL PUSH2 0x4044 JUMP JUMPDEST DUP5 PUSH1 0x3 ADD DUP3 DUP2 SLOAD DUP2 LT PUSH2 0x1D09 JUMPI PUSH2 0x1D08 PUSH2 0x4690 JUMP JUMPDEST JUMPDEST SWAP1 PUSH1 0x0 MSTORE PUSH1 0x20 PUSH1 0x0 KECCAK256 SWAP1 PUSH1 0x2 MUL ADD PUSH1 0x0 ADD SLOAD DUP6 PUSH1 0x3 ADD PUSH1 0x1 DUP6 DUP6 PUSH2 0x1D2D SWAP2 SWAP1 PUSH2 0x465C JUMP JUMPDEST PUSH2 0x1D37 SWAP2 SWAP1 PUSH2 0x46BF JUMP JUMPDEST DUP2 SLOAD DUP2 LT PUSH2 0x1D48 JUMPI PUSH2 0x1D47 PUSH2 0x4690 JUMP JUMPDEST JUMPDEST SWAP1 PUSH1 0x0 MSTORE PUSH1 0x20 PUSH1 0x0 KECCAK256 SWAP1 PUSH1 0x2 MUL ADD PUSH1 0x0 ADD DUP2 SWAP1 SSTORE POP PUSH2 0x1D89 PUSH32 0x5FBF8D1AEE02E785B6DAD67CA39A73E38E224F360DB09C051572C8886633D1BF PUSH1 0x0 SHL PUSH2 0x4044 JUMP JUMPDEST PUSH2 0x1DB5 PUSH32 0xEB19524FEBF94545A97C72E0762D4A69CA50CCF8CFF40B776E0B362A3F50D28A PUSH1 0x0 SHL PUSH2 0x4044 JUMP JUMPDEST DUP5 PUSH1 0x3 ADD DUP3 DUP2 SLOAD DUP2 LT PUSH2 0x1DCB JUMPI PUSH2 0x1DCA PUSH2 0x4690 JUMP JUMPDEST JUMPDEST SWAP1 PUSH1 0x0 MSTORE PUSH1 0x20 PUSH1 0x0 KECCAK256 SWAP1 PUSH1 0x2 MUL ADD PUSH1 0x1 ADD SLOAD DUP6 PUSH1 0x3 ADD PUSH1 0x1 DUP6 DUP6 PUSH2 0x1DEF SWAP2 SWAP1 PUSH2 0x465C JUMP JUMPDEST PUSH2 0x1DF9 SWAP2 SWAP1 PUSH2 0x46BF JUMP JUMPDEST DUP2 SLOAD DUP2 LT PUSH2 0x1E0A JUMPI PUSH2 0x1E09 PUSH2 0x4690 JUMP JUMPDEST JUMPDEST SWAP1 PUSH1 0x0 MSTORE PUSH1 0x20 PUSH1 0x0 KECCAK256 SWAP1 PUSH1 0x2 MUL ADD PUSH1 0x1 ADD DUP2 SWAP1 SSTORE POP DUP2 DUP1 PUSH2 0x1E2A SWAP1 PUSH2 0x473B JUMP JUMPDEST SWAP3 POP POP PUSH2 0x1C94 JUMP JUMPDEST PUSH2 0x1E5E PUSH32 0x19627106E670E1B38E2143BD23C20A41C5B34AB7EA3B7ED6308CCE67A0298AF9 PUSH1 0x0 SHL PUSH2 0x4044 JUMP JUMPDEST PUSH2 0x1E8A PUSH32 0x88E6037B9BACAD784112B8D6954DA44BFCA69161D44128296FD80D3F5CEE089A PUSH1 0x0 SHL PUSH2 0x4044 JUMP JUMPDEST PUSH1 0x1 SWAP2 POP JUMPDEST DUP3 DUP3 LT ISZERO PUSH2 0x1F13 JUMPI PUSH2 0x1EC3 PUSH32 0x8D585C2285F67E23BC4B3A1EBF4524F301E4B91F3BEAFD4863DBBACD506E4B58 PUSH1 0x0 SHL PUSH2 0x4044 JUMP JUMPDEST DUP5 PUSH1 0x3 ADD DUP1 SLOAD DUP1 PUSH2 0x1ED7 JUMPI PUSH2 0x1ED6 PUSH2 0x4764 JUMP JUMPDEST JUMPDEST PUSH1 0x1 SWAP1 SUB DUP2 DUP2 SWAP1 PUSH1 0x0 MSTORE PUSH1 0x20 PUSH1 0x0 KECCAK256 SWAP1 PUSH1 0x2 MUL ADD PUSH1 0x0 DUP1 DUP3 ADD PUSH1 0x0 SWAP1 SSTORE PUSH1 0x1 DUP3 ADD PUSH1 0x0 SWAP1 SSTORE POP POP SWAP1 SSTORE DUP2 DUP1 PUSH2 0x1F0B SWAP1 PUSH2 0x46F3 JUMP JUMPDEST SWAP3 POP POP PUSH2 0x1E8F JUMP JUMPDEST POP POP POP POP POP JUMPDEST POP JUMP JUMPDEST PUSH2 0x1F48 PUSH32 0x84466732FFD1A19D0911C72E661BA9CA9919FBC92F2F86EBBAEE5A5A1AF8D6B8 PUSH1 0x0 SHL PUSH2 0x4044 JUMP JUMPDEST PUSH2 0x1F74 PUSH32 0x192051EFF1AB0D855AE2ADA8E1631835DE04A398D6DE903B38FA78102895072E PUSH1 0x0 SHL PUSH2 0x4044 JUMP JUMPDEST PUSH2 0x1FA0 PUSH32 0x8BDF77F806C3927F363D49D9163A9F7C5F79ED94C13DD10DBDFEACFF84608DBD PUSH1 0x0 SHL PUSH2 0x4044 JUMP JUMPDEST PUSH1 0x0 PUSH1 0xD PUSH1 0x0 CALLER PUSH20 0xFFFFFFFFFFFFFFFFFFFFFFFFFFFFFFFFFFFFFFFF AND PUSH20 0xFFFFFFFFFFFFFFFFFFFFFFFFFFFFFFFFFFFFFFFF AND DUP2 MSTORE PUSH1 0x20 ADD SWAP1 DUP2 MSTORE PUSH1 0x20 ADD PUSH1 0x0 KECCAK256 SWAP1 POP PUSH2 0x200F PUSH32 0xF3CB5A2EF2AC075B92713B0382B3DCDB7D503BEEB4BEB7CF331D73CA18B24D10 PUSH1 0x0 SHL PUSH2 0x4044 JUMP JUMPDEST PUSH2 0x203B PUSH32 0xA039AC587199F19B58E752F990672E2CA90FC94D96302962C9085A7CB036BCF6 PUSH1 0x0 SHL PUSH2 0x4044 JUMP JUMPDEST PUSH2 0x2044 CALLER PUSH2 0x14A8 JUMP JUMPDEST PUSH2 0x2070 PUSH32 0x2817315488BBE23455D6679B76E3295E3E3017628778FB01E445B5A2C2D0B806 PUSH1 0x0 SHL PUSH2 0x4044 JUMP JUMPDEST PUSH2 0x209C PUSH32 0x5F82A00B33FF48A02D85963AE73025C8827A6D987377FB17F0A9E9FB92F8CA95 PUSH1 0x0 SHL PUSH2 0x4044 JUMP JUMPDEST PUSH2 0x20A4 PUSH2 0x28D8 JUMP JUMPDEST PUSH2 0x20D0 PUSH32 0x5C7C29EBD37E1748BDEA04B1AF60D83C1C2D627361E7A6208E13200E6805222 PUSH1 0x0 SHL PUSH2 0x4044 JUMP JUMPDEST PUSH2 0x20FC PUSH32 0x3E5F465E6474AB49F2581B8C5780A544C5128133A64739873E789ADBB7CBFB74 PUSH1 0x0 SHL PUSH2 0x4044 JUMP JUMPDEST PUSH1 0x0 DUP1 PUSH2 0x2108 CALLER PUSH2 0x3EB6 JUMP JUMPDEST SWAP2 POP SWAP2 POP PUSH2 0x2138 PUSH32 0x24A9F875DEA45B362033FFEB5E26CDA7DC1CA54C018CFE7845C4494F03C19CDF PUSH1 0x0 SHL PUSH2 0x4044 JUMP JUMPDEST PUSH2 0x2164 PUSH32 0xD1F44700FBEE67FF8E8F1B014356906D3102CB1C7D823DD51311895EE22692AE PUSH1 0x0 SHL PUSH2 0x4044 JUMP JUMPDEST PUSH1 0x2 PUSH1 0x0 SWAP1 SLOAD SWAP1 PUSH2 0x100 EXP SWAP1 DIV PUSH20 0xFFFFFFFFFFFFFFFFFFFFFFFFFFFFFFFFFFFFFFFF AND PUSH20 0xFFFFFFFFFFFFFFFFFFFFFFFFFFFFFFFFFFFFFFFF AND PUSH4 0xA9059CBB PUSH1 0x9 PUSH1 0x0 SWAP1 SLOAD SWAP1 PUSH2 0x100 EXP SWAP1 DIV PUSH20 0xFFFFFFFFFFFFFFFFFFFFFFFFFFFFFFFFFFFFFFFF AND PUSH1 0x64 PUSH1 0xA DUP7 PUSH2 0x21D4 SWAP2 SWAP1 PUSH2 0x452C JUMP JUMPDEST PUSH2 0x21DE SWAP2 SWAP1 PUSH2 0x459D JUMP JUMPDEST PUSH1 0x40 MLOAD DUP4 PUSH4 0xFFFFFFFF AND PUSH1 0xE0 SHL DUP2 MSTORE PUSH1 0x4 ADD PUSH2 0x21FB SWAP3 SWAP2 SWAP1 PUSH2 0x45CE JUMP JUMPDEST PUSH1 0x20 PUSH1 0x40 MLOAD DUP1 DUP4 SUB DUP2 PUSH1 0x0 DUP8 GAS CALL ISZERO DUP1 ISZERO PUSH2 0x221A JUMPI RETURNDATASIZE PUSH1 0x0 DUP1 RETURNDATACOPY RETURNDATASIZE PUSH1 0x0 REVERT JUMPDEST POP POP POP POP PUSH1 0x40 MLOAD RETURNDATASIZE PUSH1 0x1F NOT PUSH1 0x1F DUP3 ADD AND DUP3 ADD DUP1 PUSH1 0x40 MSTORE POP DUP2 ADD SWAP1 PUSH2 0x223E SWAP2 SWAP1 PUSH2 0x462F JUMP JUMPDEST POP PUSH2 0x226B PUSH32 0xD1397F9B9A0BE6C498BF8EA7CE893873B4830BEE1B5DFF4F73077BA30DECA86B PUSH1 0x0 SHL PUSH2 0x4044 JUMP JUMPDEST PUSH2 0x2297 PUSH32 0xD03FF56CEC7F6B5F3F7265844D2B70C18EED5C30E7B63492D31DFED69EEA5598 PUSH1 0x0 SHL PUSH2 0x4044 JUMP JUMPDEST PUSH1 0x3 PUSH1 0x0 SWAP1 SLOAD SWAP1 PUSH2 0x100 EXP SWAP1 DIV PUSH20 0xFFFFFFFFFFFFFFFFFFFFFFFFFFFFFFFFFFFFFFFF AND PUSH20 0xFFFFFFFFFFFFFFFFFFFFFFFFFFFFFFFFFFFFFFFF AND PUSH4 0xA9059CBB PUSH1 0x9 PUSH1 0x0 SWAP1 SLOAD SWAP1 PUSH2 0x100 EXP SWAP1 DIV PUSH20 0xFFFFFFFFFFFFFFFFFFFFFFFFFFFFFFFFFFFFFFFF AND PUSH1 0x64 PUSH1 0xA DUP6 PUSH2 0x2307 SWAP2 SWAP1 PUSH2 0x452C JUMP JUMPDEST PUSH2 0x2311 SWAP2 SWAP1 PUSH2 0x459D JUMP JUMPDEST PUSH1 0x40 MLOAD DUP4 PUSH4 0xFFFFFFFF AND PUSH1 0xE0 SHL DUP2 MSTORE PUSH1 0x4 ADD PUSH2 0x232E SWAP3 SWAP2 SWAP1 PUSH2 0x45CE JUMP JUMPDEST PUSH1 0x20 PUSH1 0x40 MLOAD DUP1 DUP4 SUB DUP2 PUSH1 0x0 DUP8 GAS CALL ISZERO DUP1 ISZERO PUSH2 0x234D JUMPI RETURNDATASIZE PUSH1 0x0 DUP1 RETURNDATACOPY RETURNDATASIZE PUSH1 0x0 REVERT JUMPDEST POP POP POP POP PUSH1 0x40 MLOAD RETURNDATASIZE PUSH1 0x1F NOT PUSH1 0x1F DUP3 ADD AND DUP3 ADD DUP1 PUSH1 0x40 MSTORE POP DUP2 ADD SWAP1 PUSH2 0x2371 SWAP2 SWAP1 PUSH2 0x462F JUMP JUMPDEST POP PUSH2 0x239E PUSH32 0x672FD0AB4BC89B069F4692CDE2491074048DAF3E553B04FB7D4A18C192446ABA PUSH1 0x0 SHL PUSH2 0x4044 JUMP JUMPDEST PUSH2 0x23CA PUSH32 0x6DD80A224C51AD685EC31E7B524B9FF16EEFDD770A27F64EDDB55ADAD018C723 PUSH1 0x0 SHL PUSH2 0x4044 JUMP JUMPDEST PUSH1 0x64 PUSH1 0xA DUP4 PUSH2 0x23D9 SWAP2 SWAP1 PUSH2 0x452C JUMP JUMPDEST PUSH2 0x23E3 SWAP2 SWAP1 PUSH2 0x459D JUMP JUMPDEST DUP3 PUSH2 0x23EE SWAP2 SWAP1 PUSH2 0x465C JUMP JUMPDEST SWAP2 POP PUSH2 0x241C PUSH32 0xFD129554D70739FD3891A031997ED5036052C7A6B3599FC5E4E294D44D6A5172 PUSH1 0x0 SHL PUSH2 0x4044 JUMP JUMPDEST PUSH2 0x2448 PUSH32 0xE7AF1E2848757C47B56FB5D50DA9D5F684E712FBDF0DBFCA5C2A50298194C8B0 PUSH1 0x0 SHL PUSH2 0x4044 JUMP JUMPDEST PUSH1 0x64 PUSH1 0xA DUP3 PUSH2 0x2457 SWAP2 SWAP1 PUSH2 0x452C JUMP JUMPDEST PUSH2 0x2461 SWAP2 SWAP1 PUSH2 0x459D JUMP JUMPDEST DUP2 PUSH2 0x246C SWAP2 SWAP1 PUSH2 0x465C JUMP JUMPDEST SWAP1 POP PUSH2 0x249A PUSH32 0xD4829FA3790AEEBCB5696989274DF5AD0ED2C5F10466762CE9EEFDFEBD1D2DD3 PUSH1 0x0 SHL PUSH2 0x4044 JUMP JUMPDEST PUSH2 0x24C6 PUSH32 0xBB8FB28356D13E5A235179052300FDDB14861937EDEBA85602F7C3E9F1C6CBF5 PUSH1 0x0 SHL PUSH2 0x4044 JUMP JUMPDEST PUSH1 0x2 PUSH1 0x0 SWAP1 SLOAD SWAP1 PUSH2 0x100 EXP SWAP1 DIV PUSH20 0xFFFFFFFFFFFFFFFFFFFFFFFFFFFFFFFFFFFFFFFF AND PUSH20 0xFFFFFFFFFFFFFFFFFFFFFFFFFFFFFFFFFFFFFFFF AND PUSH4 0xA9059CBB CALLER DUP5 PUSH1 0x40 MLOAD DUP4 PUSH4 0xFFFFFFFF AND PUSH1 0xE0 SHL DUP2 MSTORE PUSH1 0x4 ADD PUSH2 0x2523 SWAP3 SWAP2 SWAP1 PUSH2 0x45CE JUMP JUMPDEST PUSH1 0x20 PUSH1 0x40 MLOAD DUP1 DUP4 SUB DUP2 PUSH1 0x0 DUP8 GAS CALL ISZERO DUP1 ISZERO PUSH2 0x2542 JUMPI RETURNDATASIZE PUSH1 0x0 DUP1 RETURNDATACOPY RETURNDATASIZE PUSH1 0x0 REVERT JUMPDEST POP POP POP POP PUSH1 0x40 MLOAD RETURNDATASIZE PUSH1 0x1F NOT PUSH1 0x1F DUP3 ADD AND DUP3 ADD DUP1 PUSH1 0x40 MSTORE POP DUP2 ADD SWAP1 PUSH2 0x2566 SWAP2 SWAP1 PUSH2 0x462F JUMP JUMPDEST POP PUSH2 0x2593 PUSH32 0x51F32E16A46D80392B4E81B92E0213F710DDCD6BF1159ADB31671E1ACCF5C457 PUSH1 0x0 SHL PUSH2 0x4044 JUMP JUMPDEST PUSH2 0x25BF PUSH32 0xF69FE8C63116112008627E79C413B0D15B821CBAD83B74695DA95169B44005E7 PUSH1 0x0 SHL PUSH2 0x4044 JUMP JUMPDEST PUSH1 0x3 PUSH1 0x0 SWAP1 SLOAD SWAP1 PUSH2 0x100 EXP SWAP1 DIV PUSH20 0xFFFFFFFFFFFFFFFFFFFFFFFFFFFFFFFFFFFFFFFF AND PUSH20 0xFFFFFFFFFFFFFFFFFFFFFFFFFFFFFFFFFFFFFFFF AND PUSH4 0xA9059CBB CALLER DUP4 PUSH1 0x40 MLOAD DUP4 PUSH4 0xFFFFFFFF AND PUSH1 0xE0 SHL DUP2 MSTORE PUSH1 0x4 ADD PUSH2 0x261C SWAP3 SWAP2 SWAP1 PUSH2 0x45CE JUMP JUMPDEST PUSH1 0x20 PUSH1 0x40 MLOAD DUP1 DUP4 SUB DUP2 PUSH1 0x0 DUP8 GAS CALL ISZERO DUP1 ISZERO PUSH2 0x263B JUMPI RETURNDATASIZE PUSH1 0x0 DUP1 RETURNDATACOPY RETURNDATASIZE PUSH1 0x0 REVERT JUMPDEST POP POP POP POP PUSH1 0x40 MLOAD RETURNDATASIZE PUSH1 0x1F NOT PUSH1 0x1F DUP3 ADD AND DUP3 ADD DUP1 PUSH1 0x40 MSTORE POP DUP2 ADD SWAP1 PUSH2 0x265F SWAP2 SWAP1 PUSH2 0x462F JUMP JUMPDEST POP PUSH2 0x268C PUSH32 0x18B964D70F48ADEF35E772C8068317F5952F38305763B5CE54726800A285CEC PUSH1 0x0 SHL PUSH2 0x4044 JUMP JUMPDEST PUSH2 0x26B8 PUSH32 0x7444A57C42FCC55B96BDB388D0CE2A5484F7D66351321158D6945958A796996B PUSH1 0x0 SHL PUSH2 0x4044 JUMP JUMPDEST PUSH5 0xE8D4A51000 PUSH1 0xB SLOAD DUP5 PUSH1 0x0 ADD SLOAD PUSH2 0x26D0 SWAP2 SWAP1 PUSH2 0x452C JUMP JUMPDEST PUSH2 0x26DA SWAP2 SWAP1 PUSH2 0x459D JUMP JUMPDEST DUP4 PUSH1 0x1 ADD DUP2 SWAP1 SSTORE POP PUSH2 0x270E PUSH32 0xD4718FEA819D33F51A51C3078C228E3177BD575001A915C119F2E94211EE8F8A PUSH1 0x0 SHL PUSH2 0x4044 JUMP JUMPDEST PUSH2 0x273A PUSH32 0x9AE69FF15A591C405925CE5BB3E7D8DC064065A9ECF75A152F613E6D9B801667 PUSH1 0x0 SHL PUSH2 0x4044 JUMP JUMPDEST PUSH5 0xE8D4A51000 PUSH1 0xC SLOAD DUP5 PUSH1 0x0 ADD SLOAD PUSH2 0x2752 SWAP2 SWAP1 PUSH2 0x452C JUMP JUMPDEST PUSH2 0x275C SWAP2 SWAP1 PUSH2 0x459D JUMP JUMPDEST DUP4 PUSH1 0x2 ADD DUP2 SWAP1 SSTORE POP PUSH2 0x2790 PUSH32 0xDBB63CB171628A98C512BE3B0392AFEFD60DD83362E8D7E06BFE373D64D1AE7B PUSH1 0x0 SHL PUSH2 0x4044 JUMP JUMPDEST PUSH2 0x27BC PUSH32 0x68ECABDC875CBE98EC19DF423B1C9DDDE574CD67454794D58601A1BBC70692F1 PUSH1 0x0 SHL PUSH2 0x4044 JUMP JUMPDEST CALLER PUSH20 0xFFFFFFFFFFFFFFFFFFFFFFFFFFFFFFFFFFFFFFFF AND PUSH32 0x34FCBAC0073D7C3D388E51312FAF357774904998EEB8FCA628B9E6F65EE1CBF7 DUP4 DUP4 PUSH1 0x40 MLOAD PUSH2 0x2804 SWAP3 SWAP2 SWAP1 PUSH2 0x42CA JUMP JUMPDEST PUSH1 0x40 MLOAD DUP1 SWAP2 SUB SWAP1 LOG2 POP POP POP JUMP JUMPDEST PUSH1 0xB SLOAD DUP2 JUMP JUMPDEST PUSH1 0xC SLOAD DUP2 JUMP JUMPDEST PUSH1 0x9 PUSH1 0x0 SWAP1 SLOAD SWAP1 PUSH2 0x100 EXP SWAP1 DIV PUSH20 0xFFFFFFFFFFFFFFFFFFFFFFFFFFFFFFFFFFFFFFFF AND DUP2 JUMP JUMPDEST PUSH1 0x4 SLOAD DUP2 JUMP JUMPDEST PUSH1 0x2 PUSH1 0x0 SWAP1 SLOAD SWAP1 PUSH2 0x100 EXP SWAP1 DIV PUSH20 0xFFFFFFFFFFFFFFFFFFFFFFFFFFFFFFFFFFFFFFFF AND DUP2 JUMP JUMPDEST PUSH2 0x2877 PUSH2 0x4047 JUMP JUMPDEST PUSH2 0x2881 PUSH1 0x0 PUSH2 0x40C5 JUMP JUMPDEST JUMP JUMPDEST PUSH1 0x1 PUSH1 0x0 SWAP1 SLOAD SWAP1 PUSH2 0x100 EXP SWAP1 DIV PUSH20 0xFFFFFFFFFFFFFFFFFFFFFFFFFFFFFFFFFFFFFFFF AND DUP2 JUMP JUMPDEST PUSH1 0x5 SLOAD DUP2 JUMP JUMPDEST PUSH1 0x0 DUP1 PUSH1 0x0 SWAP1 SLOAD SWAP1 PUSH2 0x100 EXP SWAP1 DIV PUSH20 0xFFFFFFFFFFFFFFFFFFFFFFFFFFFFFFFFFFFFFFFF AND SWAP1 POP SWAP1 JUMP JUMPDEST PUSH2 0x2904 PUSH32 0xA8EFE5FF1FBAF6DDC61A1CA9B46367888D635870689F5F722E0F0B3EA7DB942B PUSH1 0x0 SHL PUSH2 0x4044 JUMP JUMPDEST PUSH2 0x2930 PUSH32 0x59D0774EDCA95DAB8710067D7F4EC0AAA6A7E8071BD7DAAA3BD339E996378BD9 PUSH1 0x0 SHL PUSH2 0x4044 JUMP JUMPDEST PUSH2 0x295C PUSH32 0x5A2C3341E1AD56691168DB4737132E81713B89404EF98D78B88EDD0DA37B5054 PUSH1 0x0 SHL PUSH2 0x4044 JUMP JUMPDEST PUSH1 0x0 PUSH1 0x1 PUSH1 0x0 SWAP1 SLOAD SWAP1 PUSH2 0x100 EXP SWAP1 DIV PUSH20 0xFFFFFFFFFFFFFFFFFFFFFFFFFFFFFFFFFFFFFFFF AND PUSH20 0xFFFFFFFFFFFFFFFFFFFFFFFFFFFFFFFFFFFFFFFF AND PUSH4 0x70A08231 ADDRESS PUSH1 0x40 MLOAD DUP3 PUSH4 0xFFFFFFFF AND PUSH1 0xE0 SHL DUP2 MSTORE PUSH1 0x4 ADD PUSH2 0x29B9 SWAP2 SWAP1 PUSH2 0x431D JUMP JUMPDEST PUSH1 0x20 PUSH1 0x40 MLOAD DUP1 DUP4 SUB DUP2 DUP7 GAS STATICCALL ISZERO DUP1 ISZERO PUSH2 0x29D6 JUMPI RETURNDATASIZE PUSH1 0x0 DUP1 RETURNDATACOPY RETURNDATASIZE PUSH1 0x0 REVERT JUMPDEST POP POP POP POP PUSH1 0x40 MLOAD RETURNDATASIZE PUSH1 0x1F NOT PUSH1 0x1F DUP3 ADD AND DUP3 ADD DUP1 PUSH1 0x40 MSTORE POP DUP2 ADD SWAP1 PUSH2 0x29FA SWAP2 SWAP1 PUSH2 0x47A8 JUMP JUMPDEST SWAP1 POP PUSH2 0x2A28 PUSH32 0x5935D6A2E0D55FE7A7D12E2EA4E06BC8C316BE8CB4D4FE5EC0A3F9FF122DD866 PUSH1 0x0 SHL PUSH2 0x4044 JUMP JUMPDEST PUSH2 0x2A54 PUSH32 0x1070AA1CDF8E7A4CE6F0BC65480938AB037354F1BCCA1CB1E22D43E6A1E940F4 PUSH1 0x0 SHL PUSH2 0x4044 JUMP JUMPDEST PUSH1 0x0 DUP2 SUB PUSH2 0x2B45 JUMPI PUSH2 0x2A88 PUSH32 0x892EF3FBFBFD7370DB3AC85ECC9E8E7C77079A6E15CB41CDB37E99819A5F9FD PUSH1 0x0 SHL PUSH2 0x4044 JUMP JUMPDEST PUSH2 0x2AB4 PUSH32 0x478D001E10CAC2AE648C8BFAB1AB00ADF0823460C459C8733E3E2ECE528ED91 PUSH1 0x0 SHL PUSH2 0x4044 JUMP JUMPDEST PUSH2 0x2AE0 PUSH32 0xD85E35D3BDA4E6782C5AD837FB9998A7B6CB6AF285F4B81DE8DF4905279FA7FE PUSH1 0x0 SHL PUSH2 0x4044 JUMP JUMPDEST NUMBER PUSH1 0xA DUP2 SWAP1 SSTORE POP PUSH2 0x2B13 PUSH32 0xEDE0BAACCB0FA8E52A3234A847340044E58B12C210EAFE1702C053E427DFE098 PUSH1 0x0 SHL PUSH2 0x4044 JUMP JUMPDEST PUSH2 0x2B3F PUSH32 0x46DEB7BB70B9DFF2C3BCF0FC1E8CA1F366D15CF4846307D2644F1F2681CFA5AF PUSH1 0x0 SHL PUSH2 0x4044 JUMP JUMPDEST POP PUSH2 0x2FEF JUMP JUMPDEST PUSH2 0x2B71 PUSH32 0xC178C214177BD4A1434C49DE20CF171F06165CA5B73EAA7242440D28D0A71AEA PUSH1 0x0 SHL PUSH2 0x4044 JUMP JUMPDEST PUSH2 0x2B9D PUSH32 0x677F3C6B873C7D99063A15BD9453A54579C19CBB21229D7B4ACEE3ECFFBAC09F PUSH1 0x0 SHL PUSH2 0x4044 JUMP JUMPDEST PUSH2 0x2BC9 PUSH32 0x887F7096C30C157CDB4F69A4B6B817987BF36FED8DFF2134673775203D773A5F PUSH1 0x0 SHL PUSH2 0x4044 JUMP JUMPDEST PUSH1 0x0 PUSH1 0xA SLOAD NUMBER PUSH2 0x2BD9 SWAP2 SWAP1 PUSH2 0x465C JUMP JUMPDEST SWAP1 POP PUSH2 0x2C07 PUSH32 0x9A104C6BFAD03C49F6AD010551C6FF7125567CF32CA80D26053270D1D1E6719F PUSH1 0x0 SHL PUSH2 0x4044 JUMP JUMPDEST PUSH2 0x2C33 PUSH32 0x55F3FAD067A2C6FF868FF175923F3F247B02D404BC9D72F5E7622B40244DCC3D PUSH1 0x0 SHL PUSH2 0x4044 JUMP JUMPDEST PUSH1 0x0 PUSH1 0x7 SLOAD DUP3 PUSH2 0x2C43 SWAP2 SWAP1 PUSH2 0x452C JUMP JUMPDEST SWAP1 POP PUSH2 0x2C71 PUSH32 0x542537CA2F852B02B46512F3966BB6079A7D732FA4B40BDAE2220A71498177AC PUSH1 0x0 SHL PUSH2 0x4044 JUMP JUMPDEST PUSH2 0x2C9D PUSH32 0xC1F38D698352EBE17EC6AC1716E9BBAB2A91824D6A3A689EFDF49DA2A66A7C6F PUSH1 0x0 SHL PUSH2 0x4044 JUMP JUMPDEST PUSH1 0x0 PUSH1 0x8 SLOAD DUP4 PUSH2 0x2CAD SWAP2 SWAP1 PUSH2 0x452C JUMP JUMPDEST SWAP1 POP PUSH2 0x2CDB PUSH32 0x7AC50CBF99B7024EF0B652278B856AA52E111979CA6ED886641746931ACAB8F4 PUSH1 0x0 SHL PUSH2 0x4044 JUMP JUMPDEST PUSH2 0x2D07 PUSH32 0x3A5E32D57A79F78BD74A94CC20A47091828E2AA34F028532A86AEBD1F6C0A0BD PUSH1 0x0 SHL PUSH2 0x4044 JUMP JUMPDEST PUSH1 0x2 PUSH1 0x0 SWAP1 SLOAD SWAP1 PUSH2 0x100 EXP SWAP1 DIV PUSH20 0xFFFFFFFFFFFFFFFFFFFFFFFFFFFFFFFFFFFFFFFF AND PUSH20 0xFFFFFFFFFFFFFFFFFFFFFFFFFFFFFFFFFFFFFFFF AND PUSH4 0x40C10F19 ADDRESS DUP5 PUSH1 0x40 MLOAD DUP4 PUSH4 0xFFFFFFFF AND PUSH1 0xE0 SHL DUP2 MSTORE PUSH1 0x4 ADD PUSH2 0x2D64 SWAP3 SWAP2 SWAP1 PUSH2 0x45CE JUMP JUMPDEST PUSH1 0x0 PUSH1 0x40 MLOAD DUP1 DUP4 SUB DUP2 PUSH1 0x0 DUP8 DUP1 EXTCODESIZE ISZERO DUP1 ISZERO PUSH2 0x2D7E JUMPI PUSH1 0x0 DUP1 REVERT JUMPDEST POP GAS CALL ISZERO DUP1 ISZERO PUSH2 0x2D92 JUMPI RETURNDATASIZE PUSH1 0x0 DUP1 RETURNDATACOPY RETURNDATASIZE PUSH1 0x0 REVERT JUMPDEST POP POP POP POP PUSH2 0x2DC2 PUSH32 0x338DCCD554875F2D2C0273D290AA956D8C237698E114A22E6475007C14D720F PUSH1 0x0 SHL PUSH2 0x4044 JUMP JUMPDEST PUSH2 0x2DEE PUSH32 0xD25A2387189287666594A61E640AC1B5752485741583ECE2D84F6800685CCA6A PUSH1 0x0 SHL PUSH2 0x4044 JUMP JUMPDEST PUSH1 0x3 PUSH1 0x0 SWAP1 SLOAD SWAP1 PUSH2 0x100 EXP SWAP1 DIV PUSH20 0xFFFFFFFFFFFFFFFFFFFFFFFFFFFFFFFFFFFFFFFF AND PUSH20 0xFFFFFFFFFFFFFFFFFFFFFFFFFFFFFFFFFFFFFFFF AND PUSH4 0x40C10F19 ADDRESS DUP4 PUSH1 0x40 MLOAD DUP4 PUSH4 0xFFFFFFFF AND PUSH1 0xE0 SHL DUP2 MSTORE PUSH1 0x4 ADD PUSH2 0x2E4B SWAP3 SWAP2 SWAP1 PUSH2 0x45CE JUMP JUMPDEST PUSH1 0x0 PUSH1 0x40 MLOAD DUP1 DUP4 SUB DUP2 PUSH1 0x0 DUP8 DUP1 EXTCODESIZE ISZERO DUP1 ISZERO PUSH2 0x2E65 JUMPI PUSH1 0x0 DUP1 REVERT JUMPDEST POP GAS CALL ISZERO DUP1 ISZERO PUSH2 0x2E79 JUMPI RETURNDATASIZE PUSH1 0x0 DUP1 RETURNDATACOPY RETURNDATASIZE PUSH1 0x0 REVERT JUMPDEST POP POP POP POP PUSH2 0x2EA9 PUSH32 0xA30653B9AA803438CE1A51DD9F84443694DC566D935E6A5A9BEC49AE94F494E1 PUSH1 0x0 SHL PUSH2 0x4044 JUMP JUMPDEST PUSH2 0x2ED5 PUSH32 0x1980C662127209250ADCB64797DE322D35B9D8BDF672B31CA7A558913E165935 PUSH1 0x0 SHL PUSH2 0x4044 JUMP JUMPDEST DUP4 PUSH5 0xE8D4A51000 DUP4 PUSH2 0x2EE7 SWAP2 SWAP1 PUSH2 0x452C JUMP JUMPDEST PUSH2 0x2EF1 SWAP2 SWAP1 PUSH2 0x459D JUMP JUMPDEST PUSH1 0xB SLOAD PUSH2 0x2EFE SWAP2 SWAP1 PUSH2 0x46BF JUMP JUMPDEST PUSH1 0xB DUP2 SWAP1 SSTORE POP PUSH2 0x2F30 PUSH32 0x68B6BB0595DAEF2D0DA06D2E574516473A2E5859DE8FDDAAD4C2D112B224BCED PUSH1 0x0 SHL PUSH2 0x4044 JUMP JUMPDEST PUSH2 0x2F5C PUSH32 0x19F6A754C489F4D425C9158E220D3E2197354E838618F12744776DCC93DF6D70 PUSH1 0x0 SHL PUSH2 0x4044 JUMP JUMPDEST DUP4 PUSH5 0xE8D4A51000 DUP3 PUSH2 0x2F6E SWAP2 SWAP1 PUSH2 0x452C JUMP JUMPDEST PUSH2 0x2F78 SWAP2 SWAP1 PUSH2 0x459D JUMP JUMPDEST PUSH1 0xC SLOAD PUSH2 0x2F85 SWAP2 SWAP1 PUSH2 0x46BF JUMP JUMPDEST PUSH1 0xC DUP2 SWAP1 SSTORE POP PUSH2 0x2FB7 PUSH32 0x20A159F8BE6F0DA89576D293395C0228C7CA8FE4991A844BDFE3131FFC942A4 PUSH1 0x0 SHL PUSH2 0x4044 JUMP JUMPDEST PUSH2 0x2FE3 PUSH32 0xFF3F197CCF301833F632804FC574B60C4A2ECFE4E99A73594A67BA5759C71FD PUSH1 0x0 SHL PUSH2 0x4044 JUMP JUMPDEST NUMBER PUSH1 0xA DUP2 SWAP1 SSTORE POP POP POP POP POP JUMPDEST JUMP JUMPDEST PUSH1 0x7 SLOAD DUP2 JUMP JUMPDEST PUSH1 0xA SLOAD DUP2 JUMP JUMPDEST PUSH2 0x3029 PUSH32 0xA4471539EB4EED1AD98A57D8F97473172BD5525D62E4088A2A2A59B28A34E1B5 PUSH1 0x0 SHL PUSH2 0x4044 JUMP JUMPDEST PUSH2 0x3055 PUSH32 0xDB2F984831FBC46C19A502F23E081B07CAB7D87028B567650B10AD5BCF2F312 PUSH1 0x0 SHL PUSH2 0x4044 JUMP JUMPDEST PUSH2 0x3081 PUSH32 0x9C9A8B93AFC317FC1984520ED0CFD5F7453123177B45886F45EA8976192B33D7 PUSH1 0x0 SHL PUSH2 0x4044 JUMP JUMPDEST PUSH2 0x30AD PUSH32 0xD9687F32CA530C12632B9A783176C1D13CA044AFC0D8FBB1B00338B461D71815 PUSH1 0x0 SHL PUSH2 0x4044 JUMP JUMPDEST PUSH1 0x0 DUP2 GT PUSH2 0x30F0 JUMPI PUSH1 0x40 MLOAD PUSH32 0x8C379A000000000000000000000000000000000000000000000000000000000 DUP2 MSTORE PUSH1 0x4 ADD PUSH2 0x30E7 SWAP1 PUSH2 0x444B JUMP JUMPDEST PUSH1 0x40 MLOAD DUP1 SWAP2 SUB SWAP1 REVERT JUMPDEST PUSH2 0x311C PUSH32 0xE471D89DBA23BA6AB08915C725C864295E60BDE82A19C2674DA332A0540A756C PUSH1 0x0 SHL PUSH2 0x4044 JUMP JUMPDEST PUSH2 0x3148 PUSH32 0xACD70FD8D06675EAD35628FF79D7DA65822FEF3BC8D55446C8AEAEA872D4D64 PUSH1 0x0 SHL PUSH2 0x4044 JUMP JUMPDEST PUSH2 0x3174 PUSH32 0xD2F65EF0AFA4CB06F78F11876250C4627E7EBD3B40C4C43FD8B9D6F7AF5D134B PUSH1 0x0 SHL PUSH2 0x4044 JUMP JUMPDEST PUSH1 0x0 PUSH1 0xD PUSH1 0x0 CALLER PUSH20 0xFFFFFFFFFFFFFFFFFFFFFFFFFFFFFFFFFFFFFFFF AND PUSH20 0xFFFFFFFFFFFFFFFFFFFFFFFFFFFFFFFFFFFFFFFF AND DUP2 MSTORE PUSH1 0x20 ADD SWAP1 DUP2 MSTORE PUSH1 0x20 ADD PUSH1 0x0 KECCAK256 SWAP1 POP PUSH2 0x31E3 PUSH32 0x4484EB503F91CDC044A4280A4C211968AAC5046998D9B12384EC1B3B6C1415B6 PUSH1 0x0 SHL PUSH2 0x4044 JUMP JUMPDEST PUSH2 0x320F PUSH32 0x1BF65A14AB35B1BA0C2A3A5A509A4C8885B01EA9AE47D1F6CD51101CA4634FE1 PUSH1 0x0 SHL PUSH2 0x4044 JUMP JUMPDEST PUSH2 0x3218 CALLER PUSH2 0x14A8 JUMP JUMPDEST PUSH2 0x3244 PUSH32 0x8B33CA965CD84EEE4905D32A563F7A33CE8D32B99ACBE8DC704E1E52716511EF PUSH1 0x0 SHL PUSH2 0x4044 JUMP JUMPDEST PUSH2 0x3270 PUSH32 0x78803C8FD0C21196192557B551A5E375E1DBC5180B55C0E46979E818C8E4BCD4 PUSH1 0x0 SHL PUSH2 0x4044 JUMP JUMPDEST PUSH2 0x3278 PUSH2 0x28D8 JUMP JUMPDEST PUSH2 0x32A4 PUSH32 0x8BD9782457819C999F9A6021C97F817479458BE995E57DF0604017AAC689C3B5 PUSH1 0x0 SHL PUSH2 0x4044 JUMP JUMPDEST PUSH2 0x32D0 PUSH32 0x4AD08C7D54CE1AF267EB5EDC0AC476F7BC43F7D58E07F30D216BEA2BB9290B14 PUSH1 0x0 SHL PUSH2 0x4044 JUMP JUMPDEST PUSH1 0x0 DUP2 PUSH1 0x0 ADD SLOAD GT ISZERO PUSH2 0x3816 JUMPI PUSH2 0x3309 PUSH32 0x73DFB2BECB8B618ED1CAC97F95C6332FEA6CEA5000A7C0AD55A4D792F363F334 PUSH1 0x0 SHL PUSH2 0x4044 JUMP JUMPDEST PUSH2 0x3335 PUSH32 0xD0BE4E7EE4019CCB656647D51C6F01AC5A4F5E81F6304C61CB5EA5AFB2769243 PUSH1 0x0 SHL PUSH2 0x4044 JUMP JUMPDEST PUSH2 0x3361 PUSH32 0xFA2919CC9E514654F52331D030048061864326773CB527C8A64818968E985B71 PUSH1 0x0 SHL PUSH2 0x4044 JUMP JUMPDEST PUSH1 0x0 DUP1 PUSH2 0x336D CALLER PUSH2 0x3EB6 JUMP JUMPDEST SWAP2 POP SWAP2 POP PUSH2 0x339D PUSH32 0x371E545A68A42C958531E217894F7AD78349E056CFB2D4BBD12BB1596EA206C0 PUSH1 0x0 SHL PUSH2 0x4044 JUMP JUMPDEST PUSH2 0x33C9 PUSH32 0x98AF5338DCC8F30DDECEE444B0EC20E02F363874543D497E7A20DBCF580E3822 PUSH1 0x0 SHL PUSH2 0x4044 JUMP JUMPDEST PUSH1 0x2 PUSH1 0x0 SWAP1 SLOAD SWAP1 PUSH2 0x100 EXP SWAP1 DIV PUSH20 0xFFFFFFFFFFFFFFFFFFFFFFFFFFFFFFFFFFFFFFFF AND PUSH20 0xFFFFFFFFFFFFFFFFFFFFFFFFFFFFFFFFFFFFFFFF AND PUSH4 0xA9059CBB PUSH1 0x9 PUSH1 0x0 SWAP1 SLOAD SWAP1 PUSH2 0x100 EXP SWAP1 DIV PUSH20 0xFFFFFFFFFFFFFFFFFFFFFFFFFFFFFFFFFFFFFFFF AND PUSH1 0x64 PUSH1 0xA DUP7 PUSH2 0x3439 SWAP2 SWAP1 PUSH2 0x452C JUMP JUMPDEST PUSH2 0x3443 SWAP2 SWAP1 PUSH2 0x459D JUMP JUMPDEST PUSH1 0x40 MLOAD DUP4 PUSH4 0xFFFFFFFF AND PUSH1 0xE0 SHL DUP2 MSTORE PUSH1 0x4 ADD PUSH2 0x3460 SWAP3 SWAP2 SWAP1 PUSH2 0x45CE JUMP JUMPDEST PUSH1 0x20 PUSH1 0x40 MLOAD DUP1 DUP4 SUB DUP2 PUSH1 0x0 DUP8 GAS CALL ISZERO DUP1 ISZERO PUSH2 0x347F JUMPI RETURNDATASIZE PUSH1 0x0 DUP1 RETURNDATACOPY RETURNDATASIZE PUSH1 0x0 REVERT JUMPDEST POP POP POP POP PUSH1 0x40 MLOAD RETURNDATASIZE PUSH1 0x1F NOT PUSH1 0x1F DUP3 ADD AND DUP3 ADD DUP1 PUSH1 0x40 MSTORE POP DUP2 ADD SWAP1 PUSH2 0x34A3 SWAP2 SWAP1 PUSH2 0x462F JUMP JUMPDEST POP PUSH2 0x34D0 PUSH32 0x96581C54AAA55E1EF43DD83E505B9B19719AB30E842119D0EDE7160FD0CEFCFB PUSH1 0x0 SHL PUSH2 0x4044 JUMP JUMPDEST PUSH2 0x34FC PUSH32 0xB86DE7DBDCC786D026000B1980C9C1FA500965C8D3B16EFC79FC2F27A3B564D3 PUSH1 0x0 SHL PUSH2 0x4044 JUMP JUMPDEST PUSH1 0x3 PUSH1 0x0 SWAP1 SLOAD SWAP1 PUSH2 0x100 EXP SWAP1 DIV PUSH20 0xFFFFFFFFFFFFFFFFFFFFFFFFFFFFFFFFFFFFFFFF AND PUSH20 0xFFFFFFFFFFFFFFFFFFFFFFFFFFFFFFFFFFFFFFFF AND PUSH4 0xA9059CBB PUSH1 0x9 PUSH1 0x0 SWAP1 SLOAD SWAP1 PUSH2 0x100 EXP SWAP1 DIV PUSH20 0xFFFFFFFFFFFFFFFFFFFFFFFFFFFFFFFFFFFFFFFF AND PUSH1 0x64 PUSH1 0xA DUP6 PUSH2 0x356C SWAP2 SWAP1 PUSH2 0x452C JUMP JUMPDEST PUSH2 0x3576 SWAP2 SWAP1 PUSH2 0x459D JUMP JUMPDEST PUSH1 0x40 MLOAD DUP4 PUSH4 0xFFFFFFFF AND PUSH1 0xE0 SHL DUP2 MSTORE PUSH1 0x4 ADD PUSH2 0x3593 SWAP3 SWAP2 SWAP1 PUSH2 0x45CE JUMP JUMPDEST PUSH1 0x20 PUSH1 0x40 MLOAD DUP1 DUP4 SUB DUP2 PUSH1 0x0 DUP8 GAS CALL ISZERO DUP1 ISZERO PUSH2 0x35B2 JUMPI RETURNDATASIZE PUSH1 0x0 DUP1 RETURNDATACOPY RETURNDATASIZE PUSH1 0x0 REVERT JUMPDEST POP POP POP POP PUSH1 0x40 MLOAD RETURNDATASIZE PUSH1 0x1F NOT PUSH1 0x1F DUP3 ADD AND DUP3 ADD DUP1 PUSH1 0x40 MSTORE POP DUP2 ADD SWAP1 PUSH2 0x35D6 SWAP2 SWAP1 PUSH2 0x462F JUMP JUMPDEST POP PUSH2 0x3603 PUSH32 0x4739AFBFF182D5CE458F3C1DA943009C454923CCDEE12F27BEE1E93BD07C5110 PUSH1 0x0 SHL PUSH2 0x4044 JUMP JUMPDEST PUSH2 0x362F PUSH32 0x312231AC8EA0F2B11EB9C88694702945A760138CC3C70788F186038EA53270ED PUSH1 0x0 SHL PUSH2 0x4044 JUMP JUMPDEST PUSH1 0x2 PUSH1 0x0 SWAP1 SLOAD SWAP1 PUSH2 0x100 EXP SWAP1 DIV PUSH20 0xFFFFFFFFFFFFFFFFFFFFFFFFFFFFFFFFFFFFFFFF AND PUSH20 0xFFFFFFFFFFFFFFFFFFFFFFFFFFFFFFFFFFFFFFFF AND PUSH4 0xA9059CBB CALLER PUSH1 0x64 PUSH1 0xA DUP7 PUSH2 0x367D SWAP2 SWAP1 PUSH2 0x452C JUMP JUMPDEST PUSH2 0x3687 SWAP2 SWAP1 PUSH2 0x459D JUMP JUMPDEST DUP6 PUSH2 0x3692 SWAP2 SWAP1 PUSH2 0x465C JUMP JUMPDEST PUSH1 0x40 MLOAD DUP4 PUSH4 0xFFFFFFFF AND PUSH1 0xE0 SHL DUP2 MSTORE PUSH1 0x4 ADD PUSH2 0x36AF SWAP3 SWAP2 SWAP1 PUSH2 0x45CE JUMP JUMPDEST PUSH1 0x20 PUSH1 0x40 MLOAD DUP1 DUP4 SUB DUP2 PUSH1 0x0 DUP8 GAS CALL ISZERO DUP1 ISZERO PUSH2 0x36CE JUMPI RETURNDATASIZE PUSH1 0x0 DUP1 RETURNDATACOPY RETURNDATASIZE PUSH1 0x0 REVERT JUMPDEST POP POP POP POP PUSH1 0x40 MLOAD RETURNDATASIZE PUSH1 0x1F NOT PUSH1 0x1F DUP3 ADD AND DUP3 ADD DUP1 PUSH1 0x40 MSTORE POP DUP2 ADD SWAP1 PUSH2 0x36F2 SWAP2 SWAP1 PUSH2 0x462F JUMP JUMPDEST POP PUSH2 0x371F PUSH32 0xF99A3BE7B1A0BDEC0D22D076B810F385612E4EC6EDC87C2B52B5F32B9B282AFC PUSH1 0x0 SHL PUSH2 0x4044 JUMP JUMPDEST PUSH2 0x374B PUSH32 0xDDFE8749EF193468F20E46E3146AAC76E36E9A4C094012BCBBA9238E2116560D PUSH1 0x0 SHL PUSH2 0x4044 JUMP JUMPDEST PUSH1 0x3 PUSH1 0x0 SWAP1 SLOAD SWAP1 PUSH2 0x100 EXP SWAP1 DIV PUSH20 0xFFFFFFFFFFFFFFFFFFFFFFFFFFFFFFFFFFFFFFFF AND PUSH20 0xFFFFFFFFFFFFFFFFFFFFFFFFFFFFFFFFFFFFFFFF AND PUSH4 0xA9059CBB CALLER PUSH1 0x64 PUSH1 0xA DUP6 PUSH2 0x3799 SWAP2 SWAP1 PUSH2 0x452C JUMP JUMPDEST PUSH2 0x37A3 SWAP2 SWAP1 PUSH2 0x459D JUMP JUMPDEST DUP5 PUSH2 0x37AE SWAP2 SWAP1 PUSH2 0x465C JUMP JUMPDEST PUSH1 0x40 MLOAD DUP4 PUSH4 0xFFFFFFFF AND PUSH1 0xE0 SHL DUP2 MSTORE PUSH1 0x4 ADD PUSH2 0x37CB SWAP3 SWAP2 SWAP1 PUSH2 0x45CE JUMP JUMPDEST PUSH1 0x20 PUSH1 0x40 MLOAD DUP1 DUP4 SUB DUP2 PUSH1 0x0 DUP8 GAS CALL ISZERO DUP1 ISZERO PUSH2 0x37EA JUMPI RETURNDATASIZE PUSH1 0x0 DUP1 RETURNDATACOPY RETURNDATASIZE PUSH1 0x0 REVERT JUMPDEST POP POP POP POP PUSH1 0x40 MLOAD RETURNDATASIZE PUSH1 0x1F NOT PUSH1 0x1F DUP3 ADD AND DUP3 ADD DUP1 PUSH1 0x40 MSTORE POP DUP2 ADD SWAP1 PUSH2 0x380E SWAP2 SWAP1 PUSH2 0x462F JUMP JUMPDEST POP POP POP PUSH2 0x3843 JUMP JUMPDEST PUSH2 0x3842 PUSH32 0xA2D92700008CE2096F8B770E4F67AC6BD2606C8B5349608BF358C2DDE1D64A1 PUSH1 0x0 SHL PUSH2 0x4044 JUMP JUMPDEST JUMPDEST PUSH2 0x386F PUSH32 0x7A3F41CA3DE2C9BDF31B70F0BF1462E9422B540526D16B52EA3A25D97424FC9D PUSH1 0x0 SHL PUSH2 0x4044 JUMP JUMPDEST PUSH2 0x389B PUSH32 0x9394140502E6D3C60BD5B382820E371FFD5A50459D5776E1BF757C2102340728 PUSH1 0x0 SHL PUSH2 0x4044 JUMP JUMPDEST PUSH1 0x0 PUSH1 0x64 PUSH1 0x4 SLOAD DUP5 PUSH2 0x38AD SWAP2 SWAP1 PUSH2 0x452C JUMP JUMPDEST PUSH2 0x38B7 SWAP2 SWAP1 PUSH2 0x459D JUMP JUMPDEST SWAP1 POP PUSH2 0x38E5 PUSH32 0xE76E9241D23B8391FB238119803A39F06A50E7A11DEE49E1E25C6828E33C65F4 PUSH1 0x0 SHL PUSH2 0x4044 JUMP JUMPDEST PUSH2 0x3911 PUSH32 0x2E5418F9DBF448985E13B484B05EC761C8B1B1725739BF4437F4979154CB47A3 PUSH1 0x0 SHL PUSH2 0x4044 JUMP JUMPDEST PUSH1 0x0 DUP2 DUP5 PUSH2 0x391F SWAP2 SWAP1 PUSH2 0x465C JUMP JUMPDEST SWAP1 POP PUSH2 0x394D PUSH32 0xA64E234EBE303898E7E89F4AD909A9111B9A25DF82ED4E0E82E52EA5DBF4B787 PUSH1 0x0 SHL PUSH2 0x4044 JUMP JUMPDEST PUSH2 0x3979 PUSH32 0x5F50C97D463508E754DFBED200D2CF93F49ACFFE897C7A3971CCDB11895A1442 PUSH1 0x0 SHL PUSH2 0x4044 JUMP JUMPDEST PUSH1 0x1 PUSH1 0x0 SWAP1 SLOAD SWAP1 PUSH2 0x100 EXP SWAP1 DIV PUSH20 0xFFFFFFFFFFFFFFFFFFFFFFFFFFFFFFFFFFFFFFFF AND PUSH20 0xFFFFFFFFFFFFFFFFFFFFFFFFFFFFFFFFFFFFFFFF AND PUSH4 0x23B872DD CALLER ADDRESS DUP8 PUSH1 0x40 MLOAD DUP5 PUSH4 0xFFFFFFFF AND PUSH1 0xE0 SHL DUP2 MSTORE PUSH1 0x4 ADD PUSH2 0x39D8 SWAP4 SWAP3 SWAP2 SWAP1 PUSH2 0x47D5 JUMP JUMPDEST PUSH1 0x20 PUSH1 0x40 MLOAD DUP1 DUP4 SUB DUP2 PUSH1 0x0 DUP8 GAS CALL ISZERO DUP1 ISZERO PUSH2 0x39F7 JUMPI RETURNDATASIZE PUSH1 0x0 DUP1 RETURNDATACOPY RETURNDATASIZE PUSH1 0x0 REVERT JUMPDEST POP POP POP POP PUSH1 0x40 MLOAD RETURNDATASIZE PUSH1 0x1F NOT PUSH1 0x1F DUP3 ADD AND DUP3 ADD DUP1 PUSH1 0x40 MSTORE POP DUP2 ADD SWAP1 PUSH2 0x3A1B SWAP2 SWAP1 PUSH2 0x462F JUMP JUMPDEST POP PUSH2 0x3A48 PUSH32 0x668E1A6AFFD172F0471B55084C9919E5F6DBDE0347F0DABED018F4185FE44161 PUSH1 0x0 SHL PUSH2 0x4044 JUMP JUMPDEST PUSH2 0x3A74 PUSH32 0xE34AE497C447E275D8594AA1ACE7F7E708DD6627D5BEC1167185959E0FD96E29 PUSH1 0x0 SHL PUSH2 0x4044 JUMP JUMPDEST PUSH1 0x1 PUSH1 0x0 SWAP1 SLOAD SWAP1 PUSH2 0x100 EXP SWAP1 DIV PUSH20 0xFFFFFFFFFFFFFFFFFFFFFFFFFFFFFFFFFFFFFFFF AND PUSH20 0xFFFFFFFFFFFFFFFFFFFFFFFFFFFFFFFFFFFFFFFF AND PUSH4 0xA9059CBB PUSH1 0x9 PUSH1 0x0 SWAP1 SLOAD SWAP1 PUSH2 0x100 EXP SWAP1 DIV PUSH20 0xFFFFFFFFFFFFFFFFFFFFFFFFFFFFFFFFFFFFFFFF AND DUP5 PUSH1 0x40 MLOAD DUP4 PUSH4 0xFFFFFFFF AND PUSH1 0xE0 SHL DUP2 MSTORE PUSH1 0x4 ADD PUSH2 0x3AF3 SWAP3 SWAP2 SWAP1 PUSH2 0x45CE JUMP JUMPDEST PUSH1 0x20 PUSH1 0x40 MLOAD DUP1 DUP4 SUB DUP2 PUSH1 0x0 DUP8 GAS CALL ISZERO DUP1 ISZERO PUSH2 0x3B12 JUMPI RETURNDATASIZE PUSH1 0x0 DUP1 RETURNDATACOPY RETURNDATASIZE PUSH1 0x0 REVERT JUMPDEST POP POP POP POP PUSH1 0x40 MLOAD RETURNDATASIZE PUSH1 0x1F NOT PUSH1 0x1F DUP3 ADD AND DUP3 ADD DUP1 PUSH1 0x40 MSTORE POP DUP2 ADD SWAP1 PUSH2 0x3B36 SWAP2 SWAP1 PUSH2 0x462F JUMP JUMPDEST POP PUSH2 0x3B63 PUSH32 0xFCD6F6E98932BA16A3F6F336C932D4C21326299DAE2F2B1988A4F007E108F7E9 PUSH1 0x0 SHL PUSH2 0x4044 JUMP JUMPDEST PUSH2 0x3B8F PUSH32 0x8299E62E43CD85C93FACF59EAD9547841835E1B5D8494AB572BA5409D3E7E11A PUSH1 0x0 SHL PUSH2 0x4044 JUMP JUMPDEST DUP1 DUP4 PUSH1 0x0 ADD SLOAD PUSH2 0x3B9F SWAP2 SWAP1 PUSH2 0x46BF JUMP JUMPDEST DUP4 PUSH1 0x0 ADD DUP2 SWAP1 SSTORE POP PUSH2 0x3BD3 PUSH32 0x3EFD53F86EAFD146A783E5A89B1C774FB66DFE423C59D1CE43AED7F60A8FD92A PUSH1 0x0 SHL PUSH2 0x4044 JUMP JUMPDEST PUSH2 0x3BFF PUSH32 0x7307CCE97A14FDBB2CC6D37688404DF6D94CAF37C1276080C7023AD1406E628B PUSH1 0x0 SHL PUSH2 0x4044 JUMP JUMPDEST PUSH5 0xE8D4A51000 PUSH1 0xB SLOAD DUP5 PUSH1 0x0 ADD SLOAD PUSH2 0x3C17 SWAP2 SWAP1 PUSH2 0x452C JUMP JUMPDEST PUSH2 0x3C21 SWAP2 SWAP1 PUSH2 0x459D JUMP JUMPDEST DUP4 PUSH1 0x1 ADD DUP2 SWAP1 SSTORE POP PUSH2 0x3C55 PUSH32 0x13F9A961277FB7E241C3CB75F4D0E69F7A1C40CCB85ADB4DBE393439B20DFB4F PUSH1 0x0 SHL PUSH2 0x4044 JUMP JUMPDEST PUSH2 0x3C81 PUSH32 0xCAC5483CCC48366C846C65A1FBEC64AEAFF122F5359D659CE5BA5BA28DDD7299 PUSH1 0x0 SHL PUSH2 0x4044 JUMP JUMPDEST PUSH5 0xE8D4A51000 PUSH1 0xC SLOAD DUP5 PUSH1 0x0 ADD SLOAD PUSH2 0x3C99 SWAP2 SWAP1 PUSH2 0x452C JUMP JUMPDEST PUSH2 0x3CA3 SWAP2 SWAP1 PUSH2 0x459D JUMP JUMPDEST DUP4 PUSH1 0x2 ADD DUP2 SWAP1 SSTORE POP PUSH2 0x3CD7 PUSH32 0x51AB597EBF2B7D8B37177AC7005264B805F96C5CE6CBB1AF9C946E4D91760C67 PUSH1 0x0 SHL PUSH2 0x4044 JUMP JUMPDEST PUSH2 0x3D03 PUSH32 0xF832D15E714AA0ECA0213997867E773B6D294F0319F72463FBED104CF82DC10C PUSH1 0x0 SHL PUSH2 0x4044 JUMP JUMPDEST DUP3 PUSH1 0x3 ADD PUSH1 0x40 MLOAD DUP1 PUSH1 0x40 ADD PUSH1 0x40 MSTORE DUP1 DUP4 DUP2 MSTORE PUSH1 0x20 ADD TIMESTAMP DUP2 MSTORE POP SWAP1 DUP1 PUSH1 0x1 DUP2 SLOAD ADD DUP1 DUP3 SSTORE DUP1 SWAP2 POP POP PUSH1 0x1 SWAP1 SUB SWAP1 PUSH1 0x0 MSTORE PUSH1 0x20 PUSH1 0x0 KECCAK256 SWAP1 PUSH1 0x2 MUL ADD PUSH1 0x0 SWAP1 SWAP2 SWAP1 SWAP2 SWAP1 SWAP2 POP PUSH1 0x0 DUP3 ADD MLOAD DUP2 PUSH1 0x0 ADD SSTORE PUSH1 0x20 DUP3 ADD MLOAD DUP2 PUSH1 0x1 ADD SSTORE POP POP PUSH2 0x3D87 PUSH32 0x593D851AA6EFAC8D7E5254179F98F25D30B44E867B5E865EA5999150CD8C508B PUSH1 0x0 SHL PUSH2 0x4044 JUMP JUMPDEST PUSH2 0x3DB3 PUSH32 0xBC39619D7299160282BA32B513AA436B750EAAB30218ABA7596177B449DE6693 PUSH1 0x0 SHL PUSH2 0x4044 JUMP JUMPDEST CALLER PUSH20 0xFFFFFFFFFFFFFFFFFFFFFFFFFFFFFFFFFFFFFFFF AND PUSH32 0xE1FFFCC4923D04B559F4D29A8BFC6CDA04EB5B0D3C460751C2402C5C5CC9109C DUP3 PUSH1 0x40 MLOAD PUSH2 0x3DF9 SWAP2 SWAP1 PUSH2 0x42F3 JUMP JUMPDEST PUSH1 0x40 MLOAD DUP1 SWAP2 SUB SWAP1 LOG2 POP POP POP POP JUMP JUMPDEST PUSH1 0x3 PUSH1 0x0 SWAP1 SLOAD SWAP1 PUSH2 0x100 EXP SWAP1 DIV PUSH20 0xFFFFFFFFFFFFFFFFFFFFFFFFFFFFFFFFFFFFFFFF AND DUP2 JUMP JUMPDEST PUSH1 0x8 SLOAD DUP2 JUMP JUMPDEST PUSH2 0x3E3B PUSH2 0x4047 JUMP JUMPDEST PUSH1 0x0 PUSH20 0xFFFFFFFFFFFFFFFFFFFFFFFFFFFFFFFFFFFFFFFF AND DUP2 PUSH20 0xFFFFFFFFFFFFFFFFFFFFFFFFFFFFFFFFFFFFFFFF AND SUB PUSH2 0x3EAA JUMPI PUSH1 0x40 MLOAD PUSH32 0x8C379A000000000000000000000000000000000000000000000000000000000 DUP2 MSTORE PUSH1 0x4 ADD PUSH2 0x3EA1 SWAP1 PUSH2 0x487E JUMP JUMPDEST PUSH1 0x40 MLOAD DUP1 SWAP2 SUB SWAP1 REVERT JUMPDEST PUSH2 0x3EB3 DUP2 PUSH2 0x40C5 JUMP JUMPDEST POP JUMP JUMPDEST PUSH1 0x0 DUP1 PUSH2 0x3EE5 PUSH32 0x423A46EAF8B0E7DD3EA9421E66AEBDBD5177E95B10BE84C6E200531D961A5B3 PUSH1 0x0 SHL PUSH2 0x4044 JUMP JUMPDEST PUSH2 0x3F11 PUSH32 0xF5053479E6DAEFF425E47307FE25375B3EC2EFD219E2F1CE56FBB62E21AC84AC PUSH1 0x0 SHL PUSH2 0x4044 JUMP JUMPDEST PUSH2 0x3F3D PUSH32 0xAA3AF3B9313EC6B240611F8A742881A480BFEE4B8066049CAD41359AF58DC83B PUSH1 0x0 SHL PUSH2 0x4044 JUMP JUMPDEST PUSH1 0x0 PUSH1 0xD PUSH1 0x0 DUP6 PUSH20 0xFFFFFFFFFFFFFFFFFFFFFFFFFFFFFFFFFFFFFFFF AND PUSH20 0xFFFFFFFFFFFFFFFFFFFFFFFFFFFFFFFFFFFFFFFF AND DUP2 MSTORE PUSH1 0x20 ADD SWAP1 DUP2 MSTORE PUSH1 0x20 ADD PUSH1 0x0 KECCAK256 SWAP1 POP PUSH2 0x3FAC PUSH32 0xB5CA7F3A10510EB5EE1803FDF267D8BC5F19FE1EB496DB4F533A997798064802 PUSH1 0x0 SHL PUSH2 0x4044 JUMP JUMPDEST PUSH2 0x3FD8 PUSH32 0x58180C371A7ED561C074362957B57664E01952FDADE4C334ECB983D7E76A5F88 PUSH1 0x0 SHL PUSH2 0x4044 JUMP JUMPDEST DUP1 PUSH1 0x1 ADD SLOAD PUSH5 0xE8D4A51000 PUSH1 0xB SLOAD DUP4 PUSH1 0x0 ADD SLOAD PUSH2 0x3FF5 SWAP2 SWAP1 PUSH2 0x452C JUMP JUMPDEST PUSH2 0x3FFF SWAP2 SWAP1 PUSH2 0x459D JUMP JUMPDEST PUSH2 0x4009 SWAP2 SWAP1 PUSH2 0x465C JUMP JUMPDEST DUP2 PUSH1 0x2 ADD SLOAD PUSH5 0xE8D4A51000 PUSH1 0xC SLOAD DUP5 PUSH1 0x0 ADD SLOAD PUSH2 0x4026 SWAP2 SWAP1 PUSH2 0x452C JUMP JUMPDEST PUSH2 0x4030 SWAP2 SWAP1 PUSH2 0x459D JUMP JUMPDEST PUSH2 0x403A SWAP2 SWAP1 PUSH2 0x465C JUMP JUMPDEST SWAP3 POP SWAP3 POP POP SWAP2 POP SWAP2 JUMP JUMPDEST POP JUMP JUMPDEST PUSH2 0x404F PUSH2 0x4189 JUMP JUMPDEST PUSH20 0xFFFFFFFFFFFFFFFFFFFFFFFFFFFFFFFFFFFFFFFF AND PUSH2 0x406D PUSH2 0x28AF JUMP JUMPDEST PUSH20 0xFFFFFFFFFFFFFFFFFFFFFFFFFFFFFFFFFFFFFFFF AND EQ PUSH2 0x40C3 JUMPI PUSH1 0x40 MLOAD PUSH32 0x8C379A000000000000000000000000000000000000000000000000000000000 DUP2 MSTORE PUSH1 0x4 ADD PUSH2 0x40BA SWAP1 PUSH2 0x48EA JUMP JUMPDEST PUSH1 0x40 MLOAD DUP1 SWAP2 SUB SWAP1 REVERT JUMPDEST JUMP JUMPDEST PUSH1 0x0 DUP1 PUSH1 0x0 SWAP1 SLOAD SWAP1 PUSH2 0x100 EXP SWAP1 DIV PUSH20 0xFFFFFFFFFFFFFFFFFFFFFFFFFFFFFFFFFFFFFFFF AND SWAP1 POP DUP2 PUSH1 0x0 DUP1 PUSH2 0x100 EXP DUP2 SLOAD DUP2 PUSH20 0xFFFFFFFFFFFFFFFFFFFFFFFFFFFFFFFFFFFFFFFF MUL NOT AND SWAP1 DUP4 PUSH20 0xFFFFFFFFFFFFFFFFFFFFFFFFFFFFFFFFFFFFFFFF AND MUL OR SWAP1 SSTORE POP DUP2 PUSH20 0xFFFFFFFFFFFFFFFFFFFFFFFFFFFFFFFFFFFFFFFF AND DUP2 PUSH20 0xFFFFFFFFFFFFFFFFFFFFFFFFFFFFFFFFFFFFFFFF AND PUSH32 0x8BE0079C531659141344CD1FD0A4F28419497F9722A3DAAFE3B4186F6B6457E0 PUSH1 0x40 MLOAD PUSH1 0x40 MLOAD DUP1 SWAP2 SUB SWAP1 LOG3 POP POP JUMP JUMPDEST PUSH1 0x0 CALLER SWAP1 POP SWAP1 JUMP JUMPDEST PUSH1 0x0 DUP1 REVERT JUMPDEST PUSH1 0x0 PUSH20 0xFFFFFFFFFFFFFFFFFFFFFFFFFFFFFFFFFFFFFFFF DUP3 AND SWAP1 POP SWAP2 SWAP1 POP JUMP JUMPDEST PUSH1 0x0 PUSH2 0x41C1 DUP3 PUSH2 0x4196 JUMP JUMPDEST SWAP1 POP SWAP2 SWAP1 POP JUMP JUMPDEST PUSH2 0x41D1 DUP2 PUSH2 0x41B6 JUMP JUMPDEST DUP2 EQ PUSH2 0x41DC JUMPI PUSH1 0x0 DUP1 REVERT JUMPDEST POP JUMP JUMPDEST PUSH1 0x0 DUP2 CALLDATALOAD SWAP1 POP PUSH2 0x41EE DUP2 PUSH2 0x41C8 JUMP JUMPDEST SWAP3 SWAP2 POP POP JUMP JUMPDEST PUSH1 0x0 PUSH1 0x20 DUP3 DUP5 SUB SLT ISZERO PUSH2 0x420A JUMPI PUSH2 0x4209 PUSH2 0x4191 JUMP JUMPDEST JUMPDEST PUSH1 0x0 PUSH2 0x4218 DUP5 DUP3 DUP6 ADD PUSH2 0x41DF JUMP JUMPDEST SWAP2 POP POP SWAP3 SWAP2 POP POP JUMP JUMPDEST PUSH1 0x0 DUP2 SWAP1 POP SWAP2 SWAP1 POP JUMP JUMPDEST PUSH2 0x4234 DUP2 PUSH2 0x4221 JUMP JUMPDEST DUP3 MSTORE POP POP JUMP JUMPDEST PUSH1 0x0 PUSH1 0x60 DUP3 ADD SWAP1 POP PUSH2 0x424F PUSH1 0x0 DUP4 ADD DUP7 PUSH2 0x422B JUMP JUMPDEST PUSH2 0x425C PUSH1 0x20 DUP4 ADD DUP6 PUSH2 0x422B JUMP JUMPDEST PUSH2 0x4269 PUSH1 0x40 DUP4 ADD DUP5 PUSH2 0x422B JUMP JUMPDEST SWAP5 SWAP4 POP POP POP POP JUMP JUMPDEST PUSH2 0x427A DUP2 PUSH2 0x4221 JUMP JUMPDEST DUP2 EQ PUSH2 0x4285 JUMPI PUSH1 0x0 DUP1 REVERT JUMPDEST POP JUMP JUMPDEST PUSH1 0x0 DUP2 CALLDATALOAD SWAP1 POP PUSH2 0x4297 DUP2 PUSH2 0x4271 JUMP JUMPDEST SWAP3 SWAP2 POP POP JUMP JUMPDEST PUSH1 0x0 PUSH1 0x20 DUP3 DUP5 SUB SLT ISZERO PUSH2 0x42B3 JUMPI PUSH2 0x42B2 PUSH2 0x4191 JUMP JUMPDEST JUMPDEST PUSH1 0x0 PUSH2 0x42C1 DUP5 DUP3 DUP6 ADD PUSH2 0x4288 JUMP JUMPDEST SWAP2 POP POP SWAP3 SWAP2 POP POP JUMP JUMPDEST PUSH1 0x0 PUSH1 0x40 DUP3 ADD SWAP1 POP PUSH2 0x42DF PUSH1 0x0 DUP4 ADD DUP6 PUSH2 0x422B JUMP JUMPDEST PUSH2 0x42EC PUSH1 0x20 DUP4 ADD DUP5 PUSH2 0x422B JUMP JUMPDEST SWAP4 SWAP3 POP POP POP JUMP JUMPDEST PUSH1 0x0 PUSH1 0x20 DUP3 ADD SWAP1 POP PUSH2 0x4308 PUSH1 0x0 DUP4 ADD DUP5 PUSH2 0x422B JUMP JUMPDEST SWAP3 SWAP2 POP POP JUMP JUMPDEST PUSH2 0x4317 DUP2 PUSH2 0x41B6 JUMP JUMPDEST DUP3 MSTORE POP POP JUMP JUMPDEST PUSH1 0x0 PUSH1 0x20 DUP3 ADD SWAP1 POP PUSH2 0x4332 PUSH1 0x0 DUP4 ADD DUP5 PUSH2 0x430E JUMP JUMPDEST SWAP3 SWAP2 POP POP JUMP JUMPDEST PUSH1 0x0 DUP2 SWAP1 POP SWAP2 SWAP1 POP JUMP JUMPDEST PUSH1 0x0 PUSH2 0x435D PUSH2 0x4358 PUSH2 0x4353 DUP5 PUSH2 0x4196 JUMP JUMPDEST PUSH2 0x4338 JUMP JUMPDEST PUSH2 0x4196 JUMP JUMPDEST SWAP1 POP SWAP2 SWAP1 POP JUMP JUMPDEST PUSH1 0x0 PUSH2 0x436F DUP3 PUSH2 0x4342 JUMP JUMPDEST SWAP1 POP SWAP2 SWAP1 POP JUMP JUMPDEST PUSH1 0x0 PUSH2 0x4381 DUP3 PUSH2 0x4364 JUMP JUMPDEST SWAP1 POP SWAP2 SWAP1 POP JUMP JUMPDEST PUSH2 0x4391 DUP2 PUSH2 0x4376 JUMP JUMPDEST DUP3 MSTORE POP POP JUMP JUMPDEST PUSH1 0x0 PUSH1 0x20 DUP3 ADD SWAP1 POP PUSH2 0x43AC PUSH1 0x0 DUP4 ADD DUP5 PUSH2 0x4388 JUMP JUMPDEST SWAP3 SWAP2 POP POP JUMP JUMPDEST PUSH1 0x0 PUSH2 0x43BD DUP3 PUSH2 0x4364 JUMP JUMPDEST SWAP1 POP SWAP2 SWAP1 POP JUMP JUMPDEST PUSH2 0x43CD DUP2 PUSH2 0x43B2 JUMP JUMPDEST DUP3 MSTORE POP POP JUMP JUMPDEST PUSH1 0x0 PUSH1 0x20 DUP3 ADD SWAP1 POP PUSH2 0x43E8 PUSH1 0x0 DUP4 ADD DUP5 PUSH2 0x43C4 JUMP JUMPDEST SWAP3 SWAP2 POP POP JUMP JUMPDEST PUSH1 0x0 DUP3 DUP3 MSTORE PUSH1 0x20 DUP3 ADD SWAP1 POP SWAP3 SWAP2 POP POP JUMP JUMPDEST PUSH32 0x416D6F756E74206D7573742062652067726561746572207468616E2030000000 PUSH1 0x0 DUP3 ADD MSTORE POP JUMP JUMPDEST PUSH1 0x0 PUSH2 0x4435 PUSH1 0x1D DUP4 PUSH2 0x43EE JUMP JUMPDEST SWAP2 POP PUSH2 0x4440 DUP3 PUSH2 0x43FF JUMP JUMPDEST PUSH1 0x20 DUP3 ADD SWAP1 POP SWAP2 SWAP1 POP JUMP JUMPDEST PUSH1 0x0 PUSH1 0x20 DUP3 ADD SWAP1 POP DUP2 DUP2 SUB PUSH1 0x0 DUP4 ADD MSTORE PUSH2 0x4464 DUP2 PUSH2 0x4428 JUMP JUMPDEST SWAP1 POP SWAP2 SWAP1 POP JUMP JUMPDEST PUSH32 0x416D6F756E74206D757374206265206C657373207468616E2077697468647261 PUSH1 0x0 DUP3 ADD MSTORE PUSH32 0x7761626C6520616D6F756E740000000000000000000000000000000000000000 PUSH1 0x20 DUP3 ADD MSTORE POP JUMP JUMPDEST PUSH1 0x0 PUSH2 0x44C7 PUSH1 0x2C DUP4 PUSH2 0x43EE JUMP JUMPDEST SWAP2 POP PUSH2 0x44D2 DUP3 PUSH2 0x446B JUMP JUMPDEST PUSH1 0x40 DUP3 ADD SWAP1 POP SWAP2 SWAP1 POP JUMP JUMPDEST PUSH1 0x0 PUSH1 0x20 DUP3 ADD SWAP1 POP DUP2 DUP2 SUB PUSH1 0x0 DUP4 ADD MSTORE PUSH2 0x44F6 DUP2 PUSH2 0x44BA JUMP JUMPDEST SWAP1 POP SWAP2 SWAP1 POP JUMP JUMPDEST PUSH32 0x4E487B7100000000000000000000000000000000000000000000000000000000 PUSH1 0x0 MSTORE PUSH1 0x11 PUSH1 0x4 MSTORE PUSH1 0x24 PUSH1 0x0 REVERT JUMPDEST PUSH1 0x0 PUSH2 0x4537 DUP3 PUSH2 0x4221 JUMP JUMPDEST SWAP2 POP PUSH2 0x4542 DUP4 PUSH2 0x4221 JUMP JUMPDEST SWAP3 POP DUP3 DUP3 MUL PUSH2 0x4550 DUP2 PUSH2 0x4221 JUMP JUMPDEST SWAP2 POP DUP3 DUP3 DIV DUP5 EQ DUP4 ISZERO OR PUSH2 0x4567 JUMPI PUSH2 0x4566 PUSH2 0x44FD JUMP JUMPDEST JUMPDEST POP SWAP3 SWAP2 POP POP JUMP JUMPDEST PUSH32 0x4E487B7100000000000000000000000000000000000000000000000000000000 PUSH1 0x0 MSTORE PUSH1 0x12 PUSH1 0x4 MSTORE PUSH1 0x24 PUSH1 0x0 REVERT JUMPDEST PUSH1 0x0 PUSH2 0x45A8 DUP3 PUSH2 0x4221 JUMP JUMPDEST SWAP2 POP PUSH2 0x45B3 DUP4 PUSH2 0x4221 JUMP JUMPDEST SWAP3 POP DUP3 PUSH2 0x45C3 JUMPI PUSH2 0x45C2 PUSH2 0x456E JUMP JUMPDEST JUMPDEST DUP3 DUP3 DIV SWAP1 POP SWAP3 SWAP2 POP POP JUMP JUMPDEST PUSH1 0x0 PUSH1 0x40 DUP3 ADD SWAP1 POP PUSH2 0x45E3 PUSH1 0x0 DUP4 ADD DUP6 PUSH2 0x430E JUMP JUMPDEST PUSH2 0x45F0 PUSH1 0x20 DUP4 ADD DUP5 PUSH2 0x422B JUMP JUMPDEST SWAP4 SWAP3 POP POP POP JUMP JUMPDEST PUSH1 0x0 DUP2 ISZERO ISZERO SWAP1 POP SWAP2 SWAP1 POP JUMP JUMPDEST PUSH2 0x460C DUP2 PUSH2 0x45F7 JUMP JUMPDEST DUP2 EQ PUSH2 0x4617 JUMPI PUSH1 0x0 DUP1 REVERT JUMPDEST POP JUMP JUMPDEST PUSH1 0x0 DUP2 MLOAD SWAP1 POP PUSH2 0x4629 DUP2 PUSH2 0x4603 JUMP JUMPDEST SWAP3 SWAP2 POP POP JUMP JUMPDEST PUSH1 0x0 PUSH1 0x20 DUP3 DUP5 SUB SLT ISZERO PUSH2 0x4645 JUMPI PUSH2 0x4644 PUSH2 0x4191 JUMP JUMPDEST JUMPDEST PUSH1 0x0 PUSH2 0x4653 DUP5 DUP3 DUP6 ADD PUSH2 0x461A JUMP JUMPDEST SWAP2 POP POP SWAP3 SWAP2 POP POP JUMP JUMPDEST PUSH1 0x0 PUSH2 0x4667 DUP3 PUSH2 0x4221 JUMP JUMPDEST SWAP2 POP PUSH2 0x4672 DUP4 PUSH2 0x4221 JUMP JUMPDEST SWAP3 POP DUP3 DUP3 SUB SWAP1 POP DUP2 DUP2 GT ISZERO PUSH2 0x468A JUMPI PUSH2 0x4689 PUSH2 0x44FD JUMP JUMPDEST JUMPDEST SWAP3 SWAP2 POP POP JUMP JUMPDEST PUSH32 0x4E487B7100000000000000000000000000000000000000000000000000000000 PUSH1 0x0 MSTORE PUSH1 0x32 PUSH1 0x4 MSTORE PUSH1 0x24 PUSH1 0x0 REVERT JUMPDEST PUSH1 0x0 PUSH2 0x46CA DUP3 PUSH2 0x4221 JUMP JUMPDEST SWAP2 POP PUSH2 0x46D5 DUP4 PUSH2 0x4221 JUMP JUMPDEST SWAP3 POP DUP3 DUP3 ADD SWAP1 POP DUP1 DUP3 GT ISZERO PUSH2 0x46ED JUMPI PUSH2 0x46EC PUSH2 0x44FD JUMP JUMPDEST JUMPDEST SWAP3 SWAP2 POP POP JUMP JUMPDEST PUSH1 0x0 PUSH2 0x46FE DUP3 PUSH2 0x4221 JUMP JUMPDEST SWAP2 POP PUSH32 0xFFFFFFFFFFFFFFFFFFFFFFFFFFFFFFFFFFFFFFFFFFFFFFFFFFFFFFFFFFFFFFFF DUP3 SUB PUSH2 0x4730 JUMPI PUSH2 0x472F PUSH2 0x44FD JUMP JUMPDEST JUMPDEST PUSH1 0x1 DUP3 ADD SWAP1 POP SWAP2 SWAP1 POP JUMP JUMPDEST PUSH1 0x0 PUSH2 0x4746 DUP3 PUSH2 0x4221 JUMP JUMPDEST SWAP2 POP PUSH1 0x0 DUP3 SUB PUSH2 0x4759 JUMPI PUSH2 0x4758 PUSH2 0x44FD JUMP JUMPDEST JUMPDEST PUSH1 0x1 DUP3 SUB SWAP1 POP SWAP2 SWAP1 POP JUMP JUMPDEST PUSH32 0x4E487B7100000000000000000000000000000000000000000000000000000000 PUSH1 0x0 MSTORE PUSH1 0x31 PUSH1 0x4 MSTORE PUSH1 0x24 PUSH1 0x0 REVERT JUMPDEST PUSH1 0x0 DUP2 MLOAD SWAP1 POP PUSH2 0x47A2 DUP2 PUSH2 0x4271 JUMP JUMPDEST SWAP3 SWAP2 POP POP JUMP JUMPDEST PUSH1 0x0 PUSH1 0x20 DUP3 DUP5 SUB SLT ISZERO PUSH2 0x47BE JUMPI PUSH2 0x47BD PUSH2 0x4191 JUMP JUMPDEST JUMPDEST PUSH1 0x0 PUSH2 0x47CC DUP5 DUP3 DUP6 ADD PUSH2 0x4793 JUMP JUMPDEST SWAP2 POP POP SWAP3 SWAP2 POP POP JUMP JUMPDEST PUSH1 0x0 PUSH1 0x60 DUP3 ADD SWAP1 POP PUSH2 0x47EA PUSH1 0x0 DUP4 ADD DUP7 PUSH2 0x430E JUMP JUMPDEST PUSH2 0x47F7 PUSH1 0x20 DUP4 ADD DUP6 PUSH2 0x430E JUMP JUMPDEST PUSH2 0x4804 PUSH1 0x40 DUP4 ADD DUP5 PUSH2 0x422B JUMP JUMPDEST SWAP5 SWAP4 POP POP POP POP JUMP JUMPDEST PUSH32 0x4F776E61626C653A206E6577206F776E657220697320746865207A65726F2061 PUSH1 0x0 DUP3 ADD MSTORE PUSH32 0x6464726573730000000000000000000000000000000000000000000000000000 PUSH1 0x20 DUP3 ADD MSTORE POP JUMP JUMPDEST PUSH1 0x0 PUSH2 0x4868 PUSH1 0x26 DUP4 PUSH2 0x43EE JUMP JUMPDEST SWAP2 POP PUSH2 0x4873 DUP3 PUSH2 0x480C JUMP JUMPDEST PUSH1 0x40 DUP3 ADD SWAP1 POP SWAP2 SWAP1 POP JUMP JUMPDEST PUSH1 0x0 PUSH1 0x20 DUP3 ADD SWAP1 POP DUP2 DUP2 SUB PUSH1 0x0 DUP4 ADD MSTORE PUSH2 0x4897 DUP2 PUSH2 0x485B JUMP JUMPDEST SWAP1 POP SWAP2 SWAP1 POP JUMP JUMPDEST PUSH32 0x4F776E61626C653A2063616C6C6572206973206E6F7420746865206F776E6572 PUSH1 0x0 DUP3 ADD MSTORE POP JUMP JUMPDEST PUSH1 0x0 PUSH2 0x48D4 PUSH1 0x20 DUP4 PUSH2 0x43EE JUMP JUMPDEST SWAP2 POP PUSH2 0x48DF DUP3 PUSH2 0x489E JUMP JUMPDEST PUSH1 0x20 DUP3 ADD SWAP1 POP SWAP2 SWAP1 POP JUMP JUMPDEST PUSH1 0x0 PUSH1 0x20 DUP3 ADD SWAP1 POP DUP2 DUP2 SUB PUSH1 0x0 DUP4 ADD MSTORE PUSH2 0x4903 DUP2 PUSH2 0x48C7 JUMP JUMPDEST SWAP1 POP SWAP2 SWAP1 POP JUMP INVALID LOG2 PUSH5 0x6970667358 0x22 SLT KECCAK256 0x5D DUP8 0xF9 SWAP4 DUP16 JUMPDEST SWAP13 0xD9 0xF SELFDESTRUCT SMOD SWAP16 0xB8 0x5C CREATE COINBASE PUSH24 0x58119964D1E4DDD3A7CAF8878D123D64736F6C6343000812 STOP CALLER "},"methodIdentifiers":{"accReward1PerShare()":"532a6159","accReward2PerShare()":"5a98674b","claim()":"4e71d92d","deposit(uint256)":"b6b55f25","depositFee()":"67a52793","getFundInfo(address)":"3d835e01","lastRewardBlock()":"a9f8d181","lockPeriod()":"3fd8b02f","optimize(address)":"43a02568","owner()":"8da5cb5b","pendingReward(address)":"f40f0f52","renounceOwnership()":"715018a6","reward1PerBlock()":"a36e8600","reward2PerBlock()":"ea02b0e5","rewardToken1()":"6f28d688","rewardToken2()":"d61a47f1","stakingToken()":"72f702f3","totalStaked()":"817b1cd2","transferOwnership(address)":"f2fde38b","treasury()":"61d027b3","update()":"a2e62045","userInfo(address)":"1959a002","withdraw(uint256)":"2e1a7d4d"}}}}}