{
  "_format": "hh-sol-artifact-1",
  "contractName": "FarmingYield",
  "sourceName": "contracts/FarmingYield.sol",
  "abi": [
    {
      "inputs": [
        {
          "internalType": "contract IERC20",
          "name": "_stakingToken",
          "type": "address"
        },
        {
          "internalType": "contract ERC20Mock",
          "name": "_rewardToken1",
          "type": "address"
        },
        {
          "internalType": "contract ERC20Mock",
          "name": "_rewardToken2",
          "type": "address"
        },
        {
          "internalType": "uint256",
          "name": "_depositFee",
          "type": "uint256"
        },
        {
          "internalType": "address",
          "name": "_treasury",
          "type": "address"
        },
        {
          "internalType": "uint256",
          "name": "_reward1PerBlock",
          "type": "uint256"
        },
        {
          "internalType": "uint256",
          "name": "_reward2PerBlock",
          "type": "uint256"
        },
        {
          "internalType": "uint256",
          "name": "_lockPeriod",
          "type": "uint256"
        }
      ],
      "stateMutability": "nonpayable",
      "type": "constructor"
    },
    {
      "anonymous": false,
      "inputs": [
        {
          "indexed": true,
          "internalType": "address",
          "name": "user",
          "type": "address"
        },
        {
          "indexed": false,
          "internalType": "uint256",
          "name": "amount1",
          "type": "uint256"
        },
        {
          "indexed": false,
          "internalType": "uint256",
          "name": "amount2",
          "type": "uint256"
        }
      ],
      "name": "Claim",
      "type": "event"
    },
    {
      "anonymous": false,
      "inputs": [
        {
          "indexed": true,
          "internalType": "address",
          "name": "user",
          "type": "address"
        },
        {
          "indexed": false,
          "internalType": "uint256",
          "name": "amount",
          "type": "uint256"
        }
      ],
      "name": "Deposit",
      "type": "event"
    },
    {
      "anonymous": false,
      "inputs": [
        {
          "indexed": true,
          "internalType": "address",
          "name": "previousOwner",
          "type": "address"
        },
        {
          "indexed": true,
          "internalType": "address",
          "name": "newOwner",
          "type": "address"
        }
      ],
      "name": "OwnershipTransferred",
      "type": "event"
    },
    {
      "anonymous": false,
      "inputs": [
        {
          "indexed": true,
          "internalType": "address",
          "name": "user",
          "type": "address"
        },
        {
          "indexed": false,
          "internalType": "uint256",
          "name": "amount",
          "type": "uint256"
        }
      ],
      "name": "Withdraw",
      "type": "event"
    },
    {
      "inputs": [],
      "name": "accReward1PerShare",
      "outputs": [
        {
          "internalType": "uint256",
          "name": "",
          "type": "uint256"
        }
      ],
      "stateMutability": "view",
      "type": "function"
    },
    {
      "inputs": [],
      "name": "accReward2PerShare",
      "outputs": [
        {
          "internalType": "uint256",
          "name": "",
          "type": "uint256"
        }
      ],
      "stateMutability": "view",
      "type": "function"
    },
    {
      "inputs": [],
      "name": "claim",
      "outputs": [],
      "stateMutability": "nonpayable",
      "type": "function"
    },
    {
      "inputs": [
        {
          "internalType": "uint256",
          "name": "amount",
          "type": "uint256"
        }
      ],
      "name": "deposit",
      "outputs": [],
      "stateMutability": "nonpayable",
      "type": "function"
    },
    {
      "inputs": [],
      "name": "depositFee",
      "outputs": [
        {
          "internalType": "uint256",
          "name": "",
          "type": "uint256"
        }
      ],
      "stateMutability": "view",
      "type": "function"
    },
    {
      "inputs": [
        {
          "internalType": "address",
          "name": "_user",
          "type": "address"
        }
      ],
      "name": "getFundInfo",
      "outputs": [
        {
          "internalType": "uint256",
          "name": "",
          "type": "uint256"
        },
        {
          "internalType": "uint256",
          "name": "",
          "type": "uint256"
        }
      ],
      "stateMutability": "view",
      "type": "function"
    },
    {
      "inputs": [],
      "name": "lastRewardBlock",
      "outputs": [
        {
          "internalType": "uint256",
          "name": "",
          "type": "uint256"
        }
      ],
      "stateMutability": "view",
      "type": "function"
    },
    {
      "inputs": [],
      "name": "lockPeriod",
      "outputs": [
        {
          "internalType": "uint256",
          "name": "",
          "type": "uint256"
        }
      ],
      "stateMutability": "view",
      "type": "function"
    },
    {
      "inputs": [],
      "name": "owner",
      "outputs": [
        {
          "internalType": "address",
          "name": "",
          "type": "address"
        }
      ],
      "stateMutability": "view",
      "type": "function"
    },
    {
      "inputs": [
        {
          "internalType": "address",
          "name": "_user",
          "type": "address"
        }
      ],
      "name": "pendingReward",
      "outputs": [
        {
          "internalType": "uint256",
          "name": "",
          "type": "uint256"
        },
        {
          "internalType": "uint256",
          "name": "",
          "type": "uint256"
        }
      ],
      "stateMutability": "view",
      "type": "function"
    },
    {
      "inputs": [],
      "name": "renounceOwnership",
      "outputs": [],
      "stateMutability": "nonpayable",
      "type": "function"
    },
    {
      "inputs": [],
      "name": "reward1PerBlock",
      "outputs": [
        {
          "internalType": "uint256",
          "name": "",
          "type": "uint256"
        }
      ],
      "stateMutability": "view",
      "type": "function"
    },
    {
      "inputs": [],
      "name": "reward2PerBlock",
      "outputs": [
        {
          "internalType": "uint256",
          "name": "",
          "type": "uint256"
        }
      ],
      "stateMutability": "view",
      "type": "function"
    },
    {
      "inputs": [],
      "name": "rewardToken1",
      "outputs": [
        {
          "internalType": "contract ERC20Mock",
          "name": "",
          "type": "address"
        }
      ],
      "stateMutability": "view",
      "type": "function"
    },
    {
      "inputs": [],
      "name": "rewardToken2",
      "outputs": [
        {
          "internalType": "contract ERC20Mock",
          "name": "",
          "type": "address"
        }
      ],
      "stateMutability": "view",
      "type": "function"
    },
    {
      "inputs": [],
      "name": "stakingToken",
      "outputs": [
        {
          "internalType": "contract IERC20",
          "name": "",
          "type": "address"
        }
      ],
      "stateMutability": "view",
      "type": "function"
    },
    {
      "inputs": [],
      "name": "totalStaked",
      "outputs": [
        {
          "internalType": "uint256",
          "name": "",
          "type": "uint256"
        }
      ],
      "stateMutability": "view",
      "type": "function"
    },
    {
      "inputs": [
        {
          "internalType": "address",
          "name": "newOwner",
          "type": "address"
        }
      ],
      "name": "transferOwnership",
      "outputs": [],
      "stateMutability": "nonpayable",
      "type": "function"
    },
    {
      "inputs": [],
      "name": "treasury",
      "outputs": [
        {
          "internalType": "address",
          "name": "",
          "type": "address"
        }
      ],
      "stateMutability": "view",
      "type": "function"
    },
    {
      "inputs": [],
      "name": "update",
      "outputs": [],
      "stateMutability": "nonpayable",
      "type": "function"
    },
    {
      "inputs": [
        {
          "internalType": "address",
          "name": "",
          "type": "address"
        }
      ],
      "name": "userInfo",
      "outputs": [
        {
          "internalType": "uint256",
          "name": "amount",
          "type": "uint256"
        },
        {
          "internalType": "uint256",
          "name": "reward1Debt",
          "type": "uint256"
        },
        {
          "internalType": "uint256",
          "name": "reward2Debt",
          "type": "uint256"
        }
      ],
      "stateMutability": "view",
      "type": "function"
    },
    {
      "inputs": [
        {
          "internalType": "uint256",
          "name": "amount",
          "type": "uint256"
        }
      ],
      "name": "withdraw",
      "outputs": [],
      "stateMutability": "nonpayable",
      "type": "function"
    }
  ],
  "bytecode": "0x608060405262278d006006553480156200001857600080fd5b50604051620029213803806200292183398181016040528101906200003e919062000396565b6200005e620000526200019b60201b60201c565b620001a360201b60201c565b87600160006101000a81548173ffffffffffffffffffffffffffffffffffffffff021916908373ffffffffffffffffffffffffffffffffffffffff16021790555086600260006101000a81548173ffffffffffffffffffffffffffffffffffffffff021916908373ffffffffffffffffffffffffffffffffffffffff16021790555085600360006101000a81548173ffffffffffffffffffffffffffffffffffffffff021916908373ffffffffffffffffffffffffffffffffffffffff1602179055508460048190555083600960006101000a81548173ffffffffffffffffffffffffffffffffffffffff021916908373ffffffffffffffffffffffffffffffffffffffff160217905550826007819055508160088190555043600a819055506000600b819055508060068190555050505050505050506200045f565b600033905090565b60008060009054906101000a900473ffffffffffffffffffffffffffffffffffffffff169050816000806101000a81548173ffffffffffffffffffffffffffffffffffffffff021916908373ffffffffffffffffffffffffffffffffffffffff1602179055508173ffffffffffffffffffffffffffffffffffffffff168173ffffffffffffffffffffffffffffffffffffffff167f8be0079c531659141344cd1fd0a4f28419497f9722a3daafe3b4186f6b6457e060405160405180910390a35050565b600080fd5b600073ffffffffffffffffffffffffffffffffffffffff82169050919050565b600062000299826200026c565b9050919050565b6000620002ad826200028c565b9050919050565b620002bf81620002a0565b8114620002cb57600080fd5b50565b600081519050620002df81620002b4565b92915050565b6000620002f2826200028c565b9050919050565b6200030481620002e5565b81146200031057600080fd5b50565b6000815190506200032481620002f9565b92915050565b6000819050919050565b6200033f816200032a565b81146200034b57600080fd5b50565b6000815190506200035f8162000334565b92915050565b62000370816200028c565b81146200037c57600080fd5b50565b600081519050620003908162000365565b92915050565b600080600080600080600080610100898b031215620003ba57620003b962000267565b5b6000620003ca8b828c01620002ce565b9850506020620003dd8b828c0162000313565b9750506040620003f08b828c0162000313565b9650506060620004038b828c016200034e565b9550506080620004168b828c016200037f565b94505060a0620004298b828c016200034e565b93505060c06200043c8b828c016200034e565b92505060e06200044f8b828c016200034e565b9150509295985092959890939650565b6124b2806200046f6000396000f3fe608060405234801561001057600080fd5b50600436106101425760003560e01c806372f702f3116100b8578063a9f8d1811161007c578063a9f8d18114610310578063b6b55f251461032e578063d61a47f11461034a578063ea02b0e514610368578063f2fde38b14610386578063f40f0f52146103a257610142565b806372f702f31461028e578063817b1cd2146102ac5780638da5cb5b146102ca578063a2e62045146102e8578063a36e8600146102f257610142565b8063532a61591161010a578063532a6159146101ee5780635a98674b1461020c57806361d027b31461022a57806367a52793146102485780636f28d68814610266578063715018a61461028457610142565b80631959a002146101475780632e1a7d4d146101795780633d835e01146101955780633fd8b02f146101c65780634e71d92d146101e4575b600080fd5b610161600480360381019061015c9190611dbe565b6103d3565b60405161017093929190611e04565b60405180910390f35b610193600480360381019061018e9190611e67565b6103fd565b005b6101af60048036038101906101aa9190611dbe565b6109f5565b6040516101bd929190611e94565b60405180910390f35b6101ce610af6565b6040516101db9190611ebd565b60405180910390f35b6101ec610afc565b005b6101f6610fa6565b6040516102039190611ebd565b60405180910390f35b610214610fac565b6040516102219190611ebd565b60405180910390f35b610232610fb2565b60405161023f9190611ee7565b60405180910390f35b610250610fd8565b60405161025d9190611ebd565b60405180910390f35b61026e610fde565b60405161027b9190611f61565b60405180910390f35b61028c611004565b005b610296611018565b6040516102a39190611f9d565b60405180910390f35b6102b461103e565b6040516102c19190611ebd565b60405180910390f35b6102d2611044565b6040516102df9190611ee7565b60405180910390f35b6102f061106d565b005b6102fa611321565b6040516103079190611ebd565b60405180910390f35b610318611327565b6040516103259190611ebd565b60405180910390f35b61034860048036038101906103439190611e67565b61132d565b005b610352611a2e565b60405161035f9190611f61565b60405180910390f35b610370611a54565b60405161037d9190611ebd565b60405180910390f35b6103a0600480360381019061039b9190611dbe565b611a5a565b005b6103bc60048036038101906103b79190611dbe565b611add565b6040516103ca929190611e94565b60405180910390f35b600d6020528060005260406000206000915090508060000154908060010154908060020154905083565b60008111610440576040517f08c379a000000000000000000000000000000000000000000000000000000000815260040161043790612015565b60405180910390fd5b6000600d60003373ffffffffffffffffffffffffffffffffffffffff1673ffffffffffffffffffffffffffffffffffffffff1681526020019081526020016000209050600061048e336109f5565b915050808311156104d4576040517f08c379a00000000000000000000000000000000000000000000000000000000081526004016104cb906120a7565b60405180910390fd5b6104dc61106d565b6000806104e833611add565b91509150600260009054906101000a900473ffffffffffffffffffffffffffffffffffffffff1673ffffffffffffffffffffffffffffffffffffffff1663a9059cbb600960009054906101000a900473ffffffffffffffffffffffffffffffffffffffff166105746064610566600a88611bb990919063ffffffff16565b611bcf90919063ffffffff16565b6040518363ffffffff1660e01b81526004016105919291906120c7565b6020604051808303816000875af11580156105b0573d6000803e3d6000fd5b505050506040513d601f19601f820116820180604052508101906105d49190612128565b50600360009054906101000a900473ffffffffffffffffffffffffffffffffffffffff1673ffffffffffffffffffffffffffffffffffffffff1663a9059cbb600960009054906101000a900473ffffffffffffffffffffffffffffffffffffffff1661065d606461064f600a87611bb990919063ffffffff16565b611bcf90919063ffffffff16565b6040518363ffffffff1660e01b815260040161067a9291906120c7565b6020604051808303816000875af1158015610699573d6000803e3d6000fd5b505050506040513d601f19601f820116820180604052508101906106bd9190612128565b50600260009054906101000a900473ffffffffffffffffffffffffffffffffffffffff1673ffffffffffffffffffffffffffffffffffffffff1663a9059cbb336107366107276064610719600a89611bb990919063ffffffff16565b611bcf90919063ffffffff16565b86611be590919063ffffffff16565b6040518363ffffffff1660e01b81526004016107539291906120c7565b6020604051808303816000875af1158015610772573d6000803e3d6000fd5b505050506040513d601f19601f820116820180604052508101906107969190612128565b50600360009054906101000a900473ffffffffffffffffffffffffffffffffffffffff1673ffffffffffffffffffffffffffffffffffffffff1663a9059cbb3361080f61080060646107f2600a88611bb990919063ffffffff16565b611bcf90919063ffffffff16565b85611be590919063ffffffff16565b6040518363ffffffff1660e01b815260040161082c9291906120c7565b6020604051808303816000875af115801561084b573d6000803e3d6000fd5b505050506040513d601f19601f8201168201806040525081019061086f9190612128565b50610887858560000154611be590919063ffffffff16565b84600001819055506108bf64e8d4a510006108b1600b548760000154611bb990919063ffffffff16565b611bcf90919063ffffffff16565b84600101819055506108f764e8d4a510006108e9600c548760000154611bb990919063ffffffff16565b611bcf90919063ffffffff16565b8460020181905550600160009054906101000a900473ffffffffffffffffffffffffffffffffffffffff1673ffffffffffffffffffffffffffffffffffffffff1663a9059cbb33876040518363ffffffff1660e01b815260040161095c9291906120c7565b6020604051808303816000875af115801561097b573d6000803e3d6000fd5b505050506040513d601f19601f8201168201806040525081019061099f9190612128565b503373ffffffffffffffffffffffffffffffffffffffff167f884edad9ce6fa2440d8a54cc123490eb96d2768479d49ff9c7366125a9424364866040516109e69190611ebd565b60405180910390a25050505050565b6000806000600d60008573ffffffffffffffffffffffffffffffffffffffff1673ffffffffffffffffffffffffffffffffffffffff16815260200190815260200160002090506000805b8260030180549050811015610ad9576000836003018281548110610a6657610a65612155565b5b90600052602060002090600202016001015442610a8391906121b3565b9050600654811015610ac557836003018281548110610aa557610aa4612155565b5b90600052602060002090600202016000015483610ac291906121e7565b92505b508080610ad19061221b565b915050610a3f565b5080818360000154610aeb91906121b3565b935093505050915091565b60065481565b6000600d60003373ffffffffffffffffffffffffffffffffffffffff1673ffffffffffffffffffffffffffffffffffffffff1681526020019081526020016000209050610b4761106d565b600080610b5333611add565b91509150600260009054906101000a900473ffffffffffffffffffffffffffffffffffffffff1673ffffffffffffffffffffffffffffffffffffffff1663a9059cbb600960009054906101000a900473ffffffffffffffffffffffffffffffffffffffff16610bdf6064610bd1600a88611bb990919063ffffffff16565b611bcf90919063ffffffff16565b6040518363ffffffff1660e01b8152600401610bfc9291906120c7565b6020604051808303816000875af1158015610c1b573d6000803e3d6000fd5b505050506040513d601f19601f82011682018060405250810190610c3f9190612128565b50600360009054906101000a900473ffffffffffffffffffffffffffffffffffffffff1673ffffffffffffffffffffffffffffffffffffffff1663a9059cbb600960009054906101000a900473ffffffffffffffffffffffffffffffffffffffff16610cc86064610cba600a87611bb990919063ffffffff16565b611bcf90919063ffffffff16565b6040518363ffffffff1660e01b8152600401610ce59291906120c7565b6020604051808303816000875af1158015610d04573d6000803e3d6000fd5b505050506040513d601f19601f82011682018060405250810190610d289190612128565b50610d62610d536064610d45600a86611bb990919063ffffffff16565b611bcf90919063ffffffff16565b83611be590919063ffffffff16565b9150610d9d610d8e6064610d80600a85611bb990919063ffffffff16565b611bcf90919063ffffffff16565b82611be590919063ffffffff16565b9050600260009054906101000a900473ffffffffffffffffffffffffffffffffffffffff1673ffffffffffffffffffffffffffffffffffffffff1663a9059cbb33846040518363ffffffff1660e01b8152600401610dfc9291906120c7565b6020604051808303816000875af1158015610e1b573d6000803e3d6000fd5b505050506040513d601f19601f82011682018060405250810190610e3f9190612128565b50600360009054906101000a900473ffffffffffffffffffffffffffffffffffffffff1673ffffffffffffffffffffffffffffffffffffffff1663a9059cbb33836040518363ffffffff1660e01b8152600401610e9d9291906120c7565b6020604051808303816000875af1158015610ebc573d6000803e3d6000fd5b505050506040513d601f19601f82011682018060405250810190610ee09190612128565b50610f1164e8d4a51000610f03600b548660000154611bb990919063ffffffff16565b611bcf90919063ffffffff16565b8360010181905550610f4964e8d4a51000610f3b600c548660000154611bb990919063ffffffff16565b611bcf90919063ffffffff16565b83600201819055503373ffffffffffffffffffffffffffffffffffffffff167f34fcbac0073d7c3d388e51312faf357774904998eeb8fca628b9e6f65ee1cbf78383604051610f99929190611e94565b60405180910390a2505050565b600b5481565b600c5481565b600960009054906101000a900473ffffffffffffffffffffffffffffffffffffffff1681565b60045481565b600260009054906101000a900473ffffffffffffffffffffffffffffffffffffffff1681565b61100c611bfb565b6110166000611c79565b565b600160009054906101000a900473ffffffffffffffffffffffffffffffffffffffff1681565b60055481565b60008060009054906101000a900473ffffffffffffffffffffffffffffffffffffffff16905090565b6000600160009054906101000a900473ffffffffffffffffffffffffffffffffffffffff1673ffffffffffffffffffffffffffffffffffffffff166370a08231306040518263ffffffff1660e01b81526004016110ca9190611ee7565b602060405180830381865afa1580156110e7573d6000803e3d6000fd5b505050506040513d601f19601f8201168201806040525081019061110b9190612278565b9050600081036111225743600a819055505061131f565b6000611139600a5443611be590919063ffffffff16565b9050600061115260075483611bb990919063ffffffff16565b9050600061116b60085484611bb990919063ffffffff16565b9050600260009054906101000a900473ffffffffffffffffffffffffffffffffffffffff1673ffffffffffffffffffffffffffffffffffffffff166340c10f1930846040518363ffffffff1660e01b81526004016111ca9291906120c7565b600060405180830381600087803b1580156111e457600080fd5b505af11580156111f8573d6000803e3d6000fd5b50505050600360009054906101000a900473ffffffffffffffffffffffffffffffffffffffff1673ffffffffffffffffffffffffffffffffffffffff166340c10f1930836040518363ffffffff1660e01b81526004016112599291906120c7565b600060405180830381600087803b15801561127357600080fd5b505af1158015611287573d6000803e3d6000fd5b505050506112c96112b8856112aa64e8d4a5100086611bb990919063ffffffff16565b611bcf90919063ffffffff16565b600b54611d3d90919063ffffffff16565b600b8190555061130d6112fc856112ee64e8d4a5100085611bb990919063ffffffff16565b611bcf90919063ffffffff16565b600c54611d3d90919063ffffffff16565b600c8190555043600a81905550505050505b565b60075481565b600a5481565b60008111611370576040517f08c379a000000000000000000000000000000000000000000000000000000000815260040161136790612015565b60405180910390fd5b6000600d60003373ffffffffffffffffffffffffffffffffffffffff1673ffffffffffffffffffffffffffffffffffffffff16815260200190815260200160002090506113bb61106d565b60008160000154111561175f576000806113d433611add565b91509150600260009054906101000a900473ffffffffffffffffffffffffffffffffffffffff1673ffffffffffffffffffffffffffffffffffffffff1663a9059cbb600960009054906101000a900473ffffffffffffffffffffffffffffffffffffffff166114606064611452600a88611bb990919063ffffffff16565b611bcf90919063ffffffff16565b6040518363ffffffff1660e01b815260040161147d9291906120c7565b6020604051808303816000875af115801561149c573d6000803e3d6000fd5b505050506040513d601f19601f820116820180604052508101906114c09190612128565b50600360009054906101000a900473ffffffffffffffffffffffffffffffffffffffff1673ffffffffffffffffffffffffffffffffffffffff1663a9059cbb600960009054906101000a900473ffffffffffffffffffffffffffffffffffffffff16611549606461153b600a87611bb990919063ffffffff16565b611bcf90919063ffffffff16565b6040518363ffffffff1660e01b81526004016115669291906120c7565b6020604051808303816000875af1158015611585573d6000803e3d6000fd5b505050506040513d601f19601f820116820180604052508101906115a99190612128565b50600260009054906101000a900473ffffffffffffffffffffffffffffffffffffffff1673ffffffffffffffffffffffffffffffffffffffff1663a9059cbb336116226116136064611605600a89611bb990919063ffffffff16565b611bcf90919063ffffffff16565b86611be590919063ffffffff16565b6040518363ffffffff1660e01b815260040161163f9291906120c7565b6020604051808303816000875af115801561165e573d6000803e3d6000fd5b505050506040513d601f19601f820116820180604052508101906116829190612128565b50600360009054906101000a900473ffffffffffffffffffffffffffffffffffffffff1673ffffffffffffffffffffffffffffffffffffffff1663a9059cbb336116fb6116ec60646116de600a88611bb990919063ffffffff16565b611bcf90919063ffffffff16565b85611be590919063ffffffff16565b6040518363ffffffff1660e01b81526004016117189291906120c7565b6020604051808303816000875af1158015611737573d6000803e3d6000fd5b505050506040513d601f19601f8201168201806040525081019061175b9190612128565b5050505b600060646004548461177191906122a5565b61177b9190612316565b90506000818461178b91906121b3565b9050600160009054906101000a900473ffffffffffffffffffffffffffffffffffffffff1673ffffffffffffffffffffffffffffffffffffffff166323b872dd3330876040518463ffffffff1660e01b81526004016117ec93929190612347565b6020604051808303816000875af115801561180b573d6000803e3d6000fd5b505050506040513d601f19601f8201168201806040525081019061182f9190612128565b50600160009054906101000a900473ffffffffffffffffffffffffffffffffffffffff1673ffffffffffffffffffffffffffffffffffffffff1663a9059cbb600960009054906101000a900473ffffffffffffffffffffffffffffffffffffffff16846040518363ffffffff1660e01b81526004016118af9291906120c7565b6020604051808303816000875af11580156118ce573d6000803e3d6000fd5b505050506040513d601f19601f820116820180604052508101906118f29190612128565b5061190a818460000154611d3d90919063ffffffff16565b836000018190555061194264e8d4a51000611934600b548660000154611bb990919063ffffffff16565b611bcf90919063ffffffff16565b836001018190555061197a64e8d4a5100061196c600c548660000154611bb990919063ffffffff16565b611bcf90919063ffffffff16565b8360020181905550826003016040518060400160405280838152602001428152509080600181540180825580915050600190039060005260206000209060020201600090919091909150600082015181600001556020820151816001015550503373ffffffffffffffffffffffffffffffffffffffff167fe1fffcc4923d04b559f4d29a8bfc6cda04eb5b0d3c460751c2402c5c5cc9109c82604051611a209190611ebd565b60405180910390a250505050565b600360009054906101000a900473ffffffffffffffffffffffffffffffffffffffff1681565b60085481565b611a62611bfb565b600073ffffffffffffffffffffffffffffffffffffffff168173ffffffffffffffffffffffffffffffffffffffff1603611ad1576040517f08c379a0000000000000000000000000000000000000000000000000000000008152600401611ac8906123f0565b60405180910390fd5b611ada81611c79565b50565b6000806000600d60008573ffffffffffffffffffffffffffffffffffffffff1673ffffffffffffffffffffffffffffffffffffffff1681526020019081526020016000209050611b698160010154611b5b64e8d4a51000611b4d600b548660000154611bb990919063ffffffff16565b611bcf90919063ffffffff16565b611be590919063ffffffff16565b611baf8260020154611ba164e8d4a51000611b93600c548760000154611bb990919063ffffffff16565b611bcf90919063ffffffff16565b611be590919063ffffffff16565b9250925050915091565b60008183611bc791906122a5565b905092915050565b60008183611bdd9190612316565b905092915050565b60008183611bf391906121b3565b905092915050565b611c03611d53565b73ffffffffffffffffffffffffffffffffffffffff16611c21611044565b73ffffffffffffffffffffffffffffffffffffffff1614611c77576040517f08c379a0000000000000000000000000000000000000000000000000000000008152600401611c6e9061245c565b60405180910390fd5b565b60008060009054906101000a900473ffffffffffffffffffffffffffffffffffffffff169050816000806101000a81548173ffffffffffffffffffffffffffffffffffffffff021916908373ffffffffffffffffffffffffffffffffffffffff1602179055508173ffffffffffffffffffffffffffffffffffffffff168173ffffffffffffffffffffffffffffffffffffffff167f8be0079c531659141344cd1fd0a4f28419497f9722a3daafe3b4186f6b6457e060405160405180910390a35050565b60008183611d4b91906121e7565b905092915050565b600033905090565b600080fd5b600073ffffffffffffffffffffffffffffffffffffffff82169050919050565b6000611d8b82611d60565b9050919050565b611d9b81611d80565b8114611da657600080fd5b50565b600081359050611db881611d92565b92915050565b600060208284031215611dd457611dd3611d5b565b5b6000611de284828501611da9565b91505092915050565b6000819050919050565b611dfe81611deb565b82525050565b6000606082019050611e196000830186611df5565b611e266020830185611df5565b611e336040830184611df5565b949350505050565b611e4481611deb565b8114611e4f57600080fd5b50565b600081359050611e6181611e3b565b92915050565b600060208284031215611e7d57611e7c611d5b565b5b6000611e8b84828501611e52565b91505092915050565b6000604082019050611ea96000830185611df5565b611eb66020830184611df5565b9392505050565b6000602082019050611ed26000830184611df5565b92915050565b611ee181611d80565b82525050565b6000602082019050611efc6000830184611ed8565b92915050565b6000819050919050565b6000611f27611f22611f1d84611d60565b611f02565b611d60565b9050919050565b6000611f3982611f0c565b9050919050565b6000611f4b82611f2e565b9050919050565b611f5b81611f40565b82525050565b6000602082019050611f766000830184611f52565b92915050565b6000611f8782611f2e565b9050919050565b611f9781611f7c565b82525050565b6000602082019050611fb26000830184611f8e565b92915050565b600082825260208201905092915050565b7f416d6f756e74206d7573742062652067726561746572207468616e2030000000600082015250565b6000611fff601d83611fb8565b915061200a82611fc9565b602082019050919050565b6000602082019050818103600083015261202e81611ff2565b9050919050565b7f416d6f756e74206d757374206265206c657373207468616e207769746864726160008201527f7761626c6520616d6f756e740000000000000000000000000000000000000000602082015250565b6000612091602c83611fb8565b915061209c82612035565b604082019050919050565b600060208201905081810360008301526120c081612084565b9050919050565b60006040820190506120dc6000830185611ed8565b6120e96020830184611df5565b9392505050565b60008115159050919050565b612105816120f0565b811461211057600080fd5b50565b600081519050612122816120fc565b92915050565b60006020828403121561213e5761213d611d5b565b5b600061214c84828501612113565b91505092915050565b7f4e487b7100000000000000000000000000000000000000000000000000000000600052603260045260246000fd5b7f4e487b7100000000000000000000000000000000000000000000000000000000600052601160045260246000fd5b60006121be82611deb565b91506121c983611deb565b92508282039050818111156121e1576121e0612184565b5b92915050565b60006121f282611deb565b91506121fd83611deb565b925082820190508082111561221557612214612184565b5b92915050565b600061222682611deb565b91507fffffffffffffffffffffffffffffffffffffffffffffffffffffffffffffffff820361225857612257612184565b5b600182019050919050565b60008151905061227281611e3b565b92915050565b60006020828403121561228e5761228d611d5b565b5b600061229c84828501612263565b91505092915050565b60006122b082611deb565b91506122bb83611deb565b92508282026122c981611deb565b915082820484148315176122e0576122df612184565b5b5092915050565b7f4e487b7100000000000000000000000000000000000000000000000000000000600052601260045260246000fd5b600061232182611deb565b915061232c83611deb565b92508261233c5761233b6122e7565b5b828204905092915050565b600060608201905061235c6000830186611ed8565b6123696020830185611ed8565b6123766040830184611df5565b949350505050565b7f4f776e61626c653a206e6577206f776e657220697320746865207a65726f206160008201527f6464726573730000000000000000000000000000000000000000000000000000602082015250565b60006123da602683611fb8565b91506123e58261237e565b604082019050919050565b60006020820190508181036000830152612409816123cd565b9050919050565b7f4f776e61626c653a2063616c6c6572206973206e6f7420746865206f776e6572600082015250565b6000612446602083611fb8565b915061245182612410565b602082019050919050565b6000602082019050818103600083015261247581612439565b905091905056fea2646970667358221220106656a078628945de69049118bae0779563b3968369f0c747dee60d56c4357864736f6c63430008120033",
  "linkReferences": {},
  "deployedLinkReferences": {}
}