{
  "_format": "hh-sol-artifact-1",
  "contractName": "FarmingYield",
  "sourceName": "contracts/FarmingYield.sol",
  "abi": [
    {
      "inputs": [
        {
          "internalType": "contract IERC20",
          "name": "_stakingToken",
          "type": "address"
        },
        {
          "internalType": "contract ERC20Mock",
          "name": "_rewardToken1",
          "type": "address"
        },
        {
          "internalType": "contract ERC20Mock",
          "name": "_rewardToken2",
          "type": "address"
        },
        {
          "internalType": "uint256",
          "name": "_depositFee",
          "type": "uint256"
        },
        {
          "internalType": "address",
          "name": "_treasury",
          "type": "address"
        },
        {
          "internalType": "uint256",
          "name": "_reward1PerBlock",
          "type": "uint256"
        },
        {
          "internalType": "uint256",
          "name": "_reward2PerBlock",
          "type": "uint256"
        },
        {
          "internalType": "uint256",
          "name": "_lockPeriod",
          "type": "uint256"
        }
      ],
      "stateMutability": "nonpayable",
      "type": "constructor"
    },
    {
      "anonymous": false,
      "inputs": [
        {
          "indexed": true,
          "internalType": "address",
          "name": "user",
          "type": "address"
        },
        {
          "indexed": false,
          "internalType": "uint256",
          "name": "amount1",
          "type": "uint256"
        },
        {
          "indexed": false,
          "internalType": "uint256",
          "name": "amount2",
          "type": "uint256"
        }
      ],
      "name": "Claim",
      "type": "event"
    },
    {
      "anonymous": false,
      "inputs": [
        {
          "indexed": true,
          "internalType": "address",
          "name": "user",
          "type": "address"
        },
        {
          "indexed": false,
          "internalType": "uint256",
          "name": "amount",
          "type": "uint256"
        }
      ],
      "name": "Deposit",
      "type": "event"
    },
    {
      "anonymous": false,
      "inputs": [
        {
          "indexed": true,
          "internalType": "address",
          "name": "previousOwner",
          "type": "address"
        },
        {
          "indexed": true,
          "internalType": "address",
          "name": "newOwner",
          "type": "address"
        }
      ],
      "name": "OwnershipTransferred",
      "type": "event"
    },
    {
      "anonymous": false,
      "inputs": [
        {
          "indexed": true,
          "internalType": "address",
          "name": "user",
          "type": "address"
        },
        {
          "indexed": false,
          "internalType": "uint256",
          "name": "amount",
          "type": "uint256"
        }
      ],
      "name": "Withdraw",
      "type": "event"
    },
    {
      "inputs": [],
      "name": "accReward1PerShare",
      "outputs": [
        {
          "internalType": "uint256",
          "name": "",
          "type": "uint256"
        }
      ],
      "stateMutability": "view",
      "type": "function"
    },
    {
      "inputs": [],
      "name": "accReward2PerShare",
      "outputs": [
        {
          "internalType": "uint256",
          "name": "",
          "type": "uint256"
        }
      ],
      "stateMutability": "view",
      "type": "function"
    },
    {
      "inputs": [],
      "name": "claim",
      "outputs": [],
      "stateMutability": "nonpayable",
      "type": "function"
    },
    {
      "inputs": [
        {
          "internalType": "uint256",
          "name": "amount",
          "type": "uint256"
        }
      ],
      "name": "deposit",
      "outputs": [],
      "stateMutability": "nonpayable",
      "type": "function"
    },
    {
      "inputs": [],
      "name": "depositFee",
      "outputs": [
        {
          "internalType": "uint256",
          "name": "",
          "type": "uint256"
        }
      ],
      "stateMutability": "view",
      "type": "function"
    },
    {
      "inputs": [
        {
          "internalType": "address",
          "name": "_user",
          "type": "address"
        }
      ],
      "name": "getFundInfo",
      "outputs": [
        {
          "internalType": "uint256",
          "name": "",
          "type": "uint256"
        },
        {
          "internalType": "uint256",
          "name": "",
          "type": "uint256"
        }
      ],
      "stateMutability": "view",
      "type": "function"
    },
    {
      "inputs": [
        {
          "internalType": "address",
          "name": "",
          "type": "address"
        }
      ],
      "name": "lastBlockTimeStamp",
      "outputs": [
        {
          "internalType": "uint256",
          "name": "",
          "type": "uint256"
        }
      ],
      "stateMutability": "view",
      "type": "function"
    },
    {
      "inputs": [],
      "name": "lastRewardBlock",
      "outputs": [
        {
          "internalType": "uint256",
          "name": "",
          "type": "uint256"
        }
      ],
      "stateMutability": "view",
      "type": "function"
    },
    {
      "inputs": [],
      "name": "lockPeriod",
      "outputs": [
        {
          "internalType": "uint256",
          "name": "",
          "type": "uint256"
        }
      ],
      "stateMutability": "view",
      "type": "function"
    },
    {
      "inputs": [],
      "name": "owner",
      "outputs": [
        {
          "internalType": "address",
          "name": "",
          "type": "address"
        }
      ],
      "stateMutability": "view",
      "type": "function"
    },
    {
      "inputs": [
        {
          "internalType": "address",
          "name": "_user",
          "type": "address"
        }
      ],
      "name": "pendingReward",
      "outputs": [
        {
          "internalType": "uint256",
          "name": "",
          "type": "uint256"
        },
        {
          "internalType": "uint256",
          "name": "",
          "type": "uint256"
        }
      ],
      "stateMutability": "view",
      "type": "function"
    },
    {
      "inputs": [],
      "name": "renounceOwnership",
      "outputs": [],
      "stateMutability": "nonpayable",
      "type": "function"
    },
    {
      "inputs": [],
      "name": "reward1PerBlock",
      "outputs": [
        {
          "internalType": "uint256",
          "name": "",
          "type": "uint256"
        }
      ],
      "stateMutability": "view",
      "type": "function"
    },
    {
      "inputs": [],
      "name": "reward2PerBlock",
      "outputs": [
        {
          "internalType": "uint256",
          "name": "",
          "type": "uint256"
        }
      ],
      "stateMutability": "view",
      "type": "function"
    },
    {
      "inputs": [],
      "name": "rewardToken1",
      "outputs": [
        {
          "internalType": "contract ERC20Mock",
          "name": "",
          "type": "address"
        }
      ],
      "stateMutability": "view",
      "type": "function"
    },
    {
      "inputs": [],
      "name": "rewardToken2",
      "outputs": [
        {
          "internalType": "contract ERC20Mock",
          "name": "",
          "type": "address"
        }
      ],
      "stateMutability": "view",
      "type": "function"
    },
    {
      "inputs": [],
      "name": "stakingToken",
      "outputs": [
        {
          "internalType": "contract IERC20",
          "name": "",
          "type": "address"
        }
      ],
      "stateMutability": "view",
      "type": "function"
    },
    {
      "inputs": [],
      "name": "totalStaked",
      "outputs": [
        {
          "internalType": "uint256",
          "name": "",
          "type": "uint256"
        }
      ],
      "stateMutability": "view",
      "type": "function"
    },
    {
      "inputs": [
        {
          "internalType": "address",
          "name": "newOwner",
          "type": "address"
        }
      ],
      "name": "transferOwnership",
      "outputs": [],
      "stateMutability": "nonpayable",
      "type": "function"
    },
    {
      "inputs": [],
      "name": "treasury",
      "outputs": [
        {
          "internalType": "address",
          "name": "",
          "type": "address"
        }
      ],
      "stateMutability": "view",
      "type": "function"
    },
    {
      "inputs": [],
      "name": "update",
      "outputs": [],
      "stateMutability": "nonpayable",
      "type": "function"
    },
    {
      "inputs": [
        {
          "internalType": "address",
          "name": "",
          "type": "address"
        }
      ],
      "name": "userInfo",
      "outputs": [
        {
          "internalType": "uint256",
          "name": "amount",
          "type": "uint256"
        },
        {
          "internalType": "uint256",
          "name": "reward1Debt",
          "type": "uint256"
        },
        {
          "internalType": "uint256",
          "name": "reward2Debt",
          "type": "uint256"
        }
      ],
      "stateMutability": "view",
      "type": "function"
    },
    {
      "inputs": [
        {
          "internalType": "uint256",
          "name": "amount",
          "type": "uint256"
        }
      ],
      "name": "withdraw",
      "outputs": [],
      "stateMutability": "nonpayable",
      "type": "function"
    }
  ],
  "bytecode": "0x608060405262278d006006553480156200001857600080fd5b50604051620048013803806200480183398181016040528101906200003e9190620007dd565b6200005e62000052620005df60201b60201c565b620005e760201b60201c565b620000927ff25c051fc48bad1d98826540310f65d98e6f6b1fc0703c637279008ee2d6cd1860001b620006ab60201b60201c565b620000c67fe34c57241c0b6f5db3dbc4656db03ee12e953a561db0f7f2b273aa0026b8597860001b620006ab60201b60201c565b620000fa7fcbdd4ba62d787e4676644047c123f9f45ec08835991a32ebadcd453030904e7a60001b620006ab60201b60201c565b87600160006101000a81548173ffffffffffffffffffffffffffffffffffffffff021916908373ffffffffffffffffffffffffffffffffffffffff1602179055506200016f7ff83a9a2b749f505cecdcc280fa4fdb3e1f692b1b8f4ae4d5eb915536ef965a6560001b620006ab60201b60201c565b620001a37fcc47e69981a5202c7d1162aab22fef29f872f670286621d583524bc29867875760001b620006ab60201b60201c565b86600260006101000a81548173ffffffffffffffffffffffffffffffffffffffff021916908373ffffffffffffffffffffffffffffffffffffffff160217905550620002187fc4134372ba2cacedd41ba5ec5cac9930ec23cbfa561cfb5262dd6add6840bfab60001b620006ab60201b60201c565b6200024c7fcc0d1d15770f0d82868346f8708f7c77b1ab470f32452a7036701624109256da60001b620006ab60201b60201c565b85600360006101000a81548173ffffffffffffffffffffffffffffffffffffffff021916908373ffffffffffffffffffffffffffffffffffffffff160217905550620002c17f40e48b8ba31e6f533bcacbd28c69b1d18cf949a4a32073003fcffe2c29e502b760001b620006ab60201b60201c565b620002f57f25d3806381d833da0fcae9e88d23adeb13bb5356af6cc990f9d84e8767ab874260001b620006ab60201b60201c565b84600481905550620003307f5fbf8d1aee02e785b6dad67ca39a73e38e224f360db09c051572c8886633d1bf60001b620006ab60201b60201c565b620003647feb19524febf94545a97c72e0762d4a69ca50ccf8cff40b776e0b362a3f50d28a60001b620006ab60201b60201c565b83600960006101000a81548173ffffffffffffffffffffffffffffffffffffffff021916908373ffffffffffffffffffffffffffffffffffffffff160217905550620003d97f19627106e670e1b38e2143bd23c20a41c5b34ab7ea3b7ed6308cce67a0298af960001b620006ab60201b60201c565b6200040d7f88e6037b9bacad784112b8d6954da44bfca69161d44128296fd80d3f5cee089a60001b620006ab60201b60201c565b82600781905550620004487f8d585c2285f67e23bc4b3a1ebf4524f301e4b91f3beafd4863dbbacd506e4b5860001b620006ab60201b60201c565b6200047c7fa8efe5ff1fbaf6ddc61a1ca9b46367888d635870689f5f722e0f0b3ea7db942b60001b620006ab60201b60201c565b81600881905550620004b77f59d0774edca95dab8710067d7f4ec0aaa6a7e8071bd7daaa3bd339e996378bd960001b620006ab60201b60201c565b620004eb7f5a2c3341e1ad56691168db4737132e81713b89404ef98d78b88edd0da37b505460001b620006ab60201b60201c565b43600a81905550620005267f5935d6a2e0d55fe7a7d12e2ea4e06bc8c316be8cb4d4fe5ec0a3f9ff122dd86660001b620006ab60201b60201c565b6200055a7f1070aa1cdf8e7a4ce6f0bc65480938ab037354f1bcca1cb1e22d43e6a1e940f460001b620006ab60201b60201c565b6000600b81905550620005967f0892ef3fbfbfd7370db3ac85ecc9e8e7c77079a6e15cb41cdb37e99819a5f9fd60001b620006ab60201b60201c565b620005ca7f0478d001e10cac2ae648c8bfab1ab00adf0823460c459c8733e3e2ece528ed9160001b620006ab60201b60201c565b806006819055505050505050505050620008a6565b600033905090565b60008060009054906101000a900473ffffffffffffffffffffffffffffffffffffffff169050816000806101000a81548173ffffffffffffffffffffffffffffffffffffffff021916908373ffffffffffffffffffffffffffffffffffffffff1602179055508173ffffffffffffffffffffffffffffffffffffffff168173ffffffffffffffffffffffffffffffffffffffff167f8be0079c531659141344cd1fd0a4f28419497f9722a3daafe3b4186f6b6457e060405160405180910390a35050565b50565b600080fd5b600073ffffffffffffffffffffffffffffffffffffffff82169050919050565b6000620006e082620006b3565b9050919050565b6000620006f482620006d3565b9050919050565b6200070681620006e7565b81146200071257600080fd5b50565b6000815190506200072681620006fb565b92915050565b60006200073982620006d3565b9050919050565b6200074b816200072c565b81146200075757600080fd5b50565b6000815190506200076b8162000740565b92915050565b6000819050919050565b620007868162000771565b81146200079257600080fd5b50565b600081519050620007a6816200077b565b92915050565b620007b781620006d3565b8114620007c357600080fd5b50565b600081519050620007d781620007ac565b92915050565b600080600080600080600080610100898b031215620008015762000800620006ae565b5b6000620008118b828c0162000715565b9850506020620008248b828c016200075a565b9750506040620008378b828c016200075a565b96505060606200084a8b828c0162000795565b95505060806200085d8b828c01620007c6565b94505060a0620008708b828c0162000795565b93505060c0620008838b828c0162000795565b92505060e0620008968b828c0162000795565b9150509295985092959890939650565b613f4b80620008b66000396000f3fe608060405234801561001057600080fd5b506004361061014d5760003560e01c806372f702f3116100c3578063b6b55f251161007c578063b6b55f2514610339578063bb9ce3f614610355578063d61a47f114610385578063ea02b0e5146103a3578063f2fde38b146103c1578063f40f0f52146103dd5761014d565b806372f702f314610299578063817b1cd2146102b75780638da5cb5b146102d5578063a2e62045146102f3578063a36e8600146102fd578063a9f8d1811461031b5761014d565b8063532a615911610115578063532a6159146101f95780635a98674b1461021757806361d027b31461023557806367a52793146102535780636f28d68814610271578063715018a61461028f5761014d565b80631959a002146101525780632e1a7d4d146101845780633d835e01146101a05780633fd8b02f146101d15780634e71d92d146101ef575b600080fd5b61016c60048036038101906101679190613857565b61040e565b60405161017b9392919061389d565b60405180910390f35b61019e60048036038101906101999190613900565b610438565b005b6101ba60048036038101906101b59190613857565b611034565b6040516101c892919061392d565b60405180910390f35b6101d96113fb565b6040516101e69190613956565b60405180910390f35b6101f7611401565b005b610201611cf7565b60405161020e9190613956565b60405180910390f35b61021f611cfd565b60405161022c9190613956565b60405180910390f35b61023d611d03565b60405161024a9190613980565b60405180910390f35b61025b611d29565b6040516102689190613956565b60405180910390f35b610279611d2f565b60405161028691906139fa565b60405180910390f35b610297611d55565b005b6102a1611d69565b6040516102ae9190613a36565b60405180910390f35b6102bf611d8f565b6040516102cc9190613956565b60405180910390f35b6102dd611d95565b6040516102ea9190613980565b60405180910390f35b6102fb611dbe565b005b610305612516565b6040516103129190613956565b60405180910390f35b61032361251c565b6040516103309190613956565b60405180910390f35b610353600480360381019061034e9190613900565b612522565b005b61036f600480360381019061036a9190613857565b6133d0565b60405161037c9190613956565b60405180910390f35b61038d6133e8565b60405161039a91906139fa565b60405180910390f35b6103ab61340e565b6040516103b89190613956565b60405180910390f35b6103db60048036038101906103d69190613857565b613414565b005b6103f760048036038101906103f29190613857565b613497565b60405161040592919061392d565b60405180910390f35b600d6020528060005260406000206000915090508060000154908060010154908060020154905083565b6104647f441f9f04d9ea35119229033a22dd41b848b0a6c406238ef992bd33778ef0eba860001b61364f565b6104907f415db434b90baf4582a9babb8a7e2469b4aaf705508dbbc2fd5bb5f0ef5ead3660001b61364f565b6104bc7f912041ec950b16f0c18cf10df45f85fb885e94e071d18b3aeeb4270d8dedb87d60001b61364f565b6104e87f752afa3f1db3d6c3ddeb4543e506ec7d5419bce862a9b7c2d3dab679931414e960001b61364f565b6000811161052b576040517f08c379a000000000000000000000000000000000000000000000000000000000815260040161052290613aae565b60405180910390fd5b6105577f9053a95e374859cb2ad2e637222ced51dcd732a4558bbded09ecbb11aae1e04c60001b61364f565b6105837f2f38c748040d2a314f2ad913a7e7abe08ec8e3bb556b419694aba1353473f94a60001b61364f565b6105af7f96bba9422d4a340c413cd7023e87ac5b73de0e37be734fd1317f8ad7414aaa5d60001b61364f565b6000600d60003373ffffffffffffffffffffffffffffffffffffffff1673ffffffffffffffffffffffffffffffffffffffff168152602001908152602001600020905061061e7faa4f334caaee5bbf1af1f10feea3a61f529f7bdb2d18c7fec86b805acf82abac60001b61364f565b61064a7fc9126346edad0a904d0b23fc64f5cf91bcfdc3099266f0dce7b839642f156d2b60001b61364f565b600061065533611034565b9150506106847fde494527ec9bae5266ee9c30b9fcc19ecf22492c13e9eb1b284dff1caba1b62c60001b61364f565b6106b07f14c3c620222db750dd784365de6058365ac40630ef3a6765e796f891e5eaa49c60001b61364f565b6106dc7f84466732ffd1a19d0911c72e661ba9ca9919fbc92f2f86ebbaee5a5a1af8d6b860001b61364f565b8083111561071f576040517f08c379a000000000000000000000000000000000000000000000000000000000815260040161071690613b40565b60405180910390fd5b61074b7f192051eff1ab0d855ae2ada8e1631835de04a398d6de903b38fa78102895072e60001b61364f565b6107777f8bdf77f806c3927f363d49d9163a9f7c5f79ed94c13dd10dbdfeacff84608dbd60001b61364f565b6107a37ff3cb5a2ef2ac075b92713b0382b3dcdb7d503beeb4beb7cf331d73ca18b24d1060001b61364f565b6107ab611dbe565b6107d77fa039ac587199f19b58e752f990672e2ca90fc94d96302962c9085a7cb036bcf660001b61364f565b6108037f2817315488bbe23455d6679b76e3295e3e3017628778fb01e445b5a2c2d0b80660001b61364f565b60008061080f33613497565b9150915061083f7f5f82a00b33ff48a02d85963ae73025c8827a6d987377fb17f0a9e9fb92f8ca9560001b61364f565b61086b7f05c7c29ebd37e1748bdea04b1af60d83c1c2d627361e7a6208e13200e680522260001b61364f565b600260009054906101000a900473ffffffffffffffffffffffffffffffffffffffff1673ffffffffffffffffffffffffffffffffffffffff1663a9059cbb600960009054906101000a900473ffffffffffffffffffffffffffffffffffffffff166108f360646108e5600a8861365290919063ffffffff16565b61366890919063ffffffff16565b6040518363ffffffff1660e01b8152600401610910929190613b60565b6020604051808303816000875af115801561092f573d6000803e3d6000fd5b505050506040513d601f19601f820116820180604052508101906109539190613bc1565b506109807f3e5f465e6474ab49f2581b8c5780a544c5128133a64739873e789adbb7cbfb7460001b61364f565b6109ac7f24a9f875dea45b362033ffeb5e26cda7dc1ca54c018cfe7845c4494f03c19cdf60001b61364f565b600360009054906101000a900473ffffffffffffffffffffffffffffffffffffffff1673ffffffffffffffffffffffffffffffffffffffff1663a9059cbb600960009054906101000a900473ffffffffffffffffffffffffffffffffffffffff16610a346064610a26600a8761365290919063ffffffff16565b61366890919063ffffffff16565b6040518363ffffffff1660e01b8152600401610a51929190613b60565b6020604051808303816000875af1158015610a70573d6000803e3d6000fd5b505050506040513d601f19601f82011682018060405250810190610a949190613bc1565b50610ac17fd1f44700fbee67ff8e8f1b014356906d3102cb1c7d823dd51311895ee22692ae60001b61364f565b610aed7fd1397f9b9a0be6c498bf8ea7ce893873b4830bee1b5dff4f73077ba30deca86b60001b61364f565b600260009054906101000a900473ffffffffffffffffffffffffffffffffffffffff1673ffffffffffffffffffffffffffffffffffffffff1663a9059cbb33610b65610b566064610b48600a8961365290919063ffffffff16565b61366890919063ffffffff16565b8661367e90919063ffffffff16565b6040518363ffffffff1660e01b8152600401610b82929190613b60565b6020604051808303816000875af1158015610ba1573d6000803e3d6000fd5b505050506040513d601f19601f82011682018060405250810190610bc59190613bc1565b50610bf27fd03ff56cec7f6b5f3f7265844d2b70c18eed5c30e7b63492d31dfed69eea559860001b61364f565b610c1e7f672fd0ab4bc89b069f4692cde2491074048daf3e553b04fb7d4a18c192446aba60001b61364f565b600360009054906101000a900473ffffffffffffffffffffffffffffffffffffffff1673ffffffffffffffffffffffffffffffffffffffff1663a9059cbb33610c96610c876064610c79600a8861365290919063ffffffff16565b61366890919063ffffffff16565b8561367e90919063ffffffff16565b6040518363ffffffff1660e01b8152600401610cb3929190613b60565b6020604051808303816000875af1158015610cd2573d6000803e3d6000fd5b505050506040513d601f19601f82011682018060405250810190610cf69190613bc1565b50610d237f6dd80a224c51ad685ec31e7b524b9ff16eefdd770a27f64eddb55adad018c72360001b61364f565b610d4f7ffd129554d70739fd3891a031997ed5036052c7a6b3599fc5e4e294d44d6a517260001b61364f565b610d6685856000015461367e90919063ffffffff16565b8460000181905550610d9a7fe7af1e2848757c47b56fb5d50da9d5f684e712fbdf0dbfca5c2a50298194c8b060001b61364f565b610dc67fd4829fa3790aeebcb5696989274df5ad0ed2c5f10466762ce9eefdfebd1d2dd360001b61364f565b610df664e8d4a51000610de8600b54876000015461365290919063ffffffff16565b61366890919063ffffffff16565b8460010181905550610e2a7fbb8fb28356d13e5a235179052300fddb14861937edeba85602f7c3e9f1c6cbf560001b61364f565b610e567f51f32e16a46d80392b4e81b92e0213f710ddcd6bf1159adb31671e1accf5c45760001b61364f565b610e8664e8d4a51000610e78600c54876000015461365290919063ffffffff16565b61366890919063ffffffff16565b8460020181905550610eba7ff69fe8c63116112008627e79c413b0d15b821cbad83b74695da95169b44005e760001b61364f565b610ee67f018b964d70f48adef35e772c8068317f5952f38305763b5ce54726800a285cec60001b61364f565b600160009054906101000a900473ffffffffffffffffffffffffffffffffffffffff1673ffffffffffffffffffffffffffffffffffffffff1663a9059cbb33876040518363ffffffff1660e01b8152600401610f43929190613b60565b6020604051808303816000875af1158015610f62573d6000803e3d6000fd5b505050506040513d601f19601f82011682018060405250810190610f869190613bc1565b50610fb37f7444a57c42fcc55b96bdb388d0ce2a5484f7d66351321158d6945958a796996b60001b61364f565b610fdf7fd4718fea819d33f51a51c3078c228e3177bd575001a915c119f2e94211ee8f8a60001b61364f565b3373ffffffffffffffffffffffffffffffffffffffff167f884edad9ce6fa2440d8a54cc123490eb96d2768479d49ff9c7366125a9424364866040516110259190613956565b60405180910390a25050505050565b6000806110637f1bce3b53465cd09baf2ad3530575c4e77837c4cab74b6dead610857391c10cc860001b61364f565b61108f7f31865ce197f4b0e6f26aceed32f175667a7e6fec6e166f41c8647715242e750360001b61364f565b6110bb7f45133126c09243e775cc5537981579beb452e42656a6e37ab28772e7aa36d6ec60001b61364f565b6000600d60008573ffffffffffffffffffffffffffffffffffffffff1673ffffffffffffffffffffffffffffffffffffffff168152602001908152602001600020905061112a7fe49b53985db78286ea2f5bcfa65b3c057b9fa85177ae9cc1034e9d34482d9f6760001b61364f565b6111567fcfe76be50b3ff5f60c86f16e7f2f04c1a85db63e7927d0d014e3a1f66784b43960001b61364f565b60006111847ffd8c0ce99c9f7c2a4eb751c9529d203b671a9206938938d47a42ab621b63172060001b61364f565b6111b07ff66d83df518cd9e8c95d24234447943e589080742c9069a48e91d728c9b868ed60001b61364f565b60005b8260030180549050811015611386576111ee7f38d417ad5a3ee9342b32d4ecbfe22a3364af5fbfce152d9385e6a6794009efad60001b61364f565b61121a7f77e612d03bc4d72cf90c7c310cfee625a2db307762e9ae9795a616ed29fb538e60001b61364f565b600083600301828154811061123257611231613bee565b5b9060005260206000209060020201600101544261124f9190613c4c565b905061127d7f53405e789bc265df0bace73d148890bb7fac4fd359327fa82be698f66e206f5b60001b61364f565b6112a97f538a8cc4ca32b29c8251ecec430852f96bb7e5786276c1fa8f2b6549942d9ce260001b61364f565b600654811015611345576112df7f9d48e3e198d70f0e7a5adb8583e5d6a53832778c477dbd505d853c2bd2c3032260001b61364f565b61130b7f8dce8051929d4cc61d7c6aa747b53ae34776830b3de200b06fa017153f37cb1260001b61364f565b83600301828154811061132157611320613bee565b5b9060005260206000209060020201600001548361133e9190613c80565b9250611372565b6113717f24e532ad4fc179bba85aedac039adf90ad2ddffdb7d4537bd78cfa209b79ccc160001b61364f565b5b50808061137e90613cb4565b9150506111b3565b506113b37feccdbba6067a55711585414baf67ee516d400ebbbf3e1f504fa0146d459b437b60001b61364f565b6113df7f0e706aa8dfd078fc9d2a7fd516e07fccb98468cff7ea5d86c2d348135fba544a60001b61364f565b808183600001546113f09190613c4c565b935093505050915091565b60065481565b61142d7f9ae69ff15a591c405925ce5bb3e7d8dc064065a9ecf75a152f613e6d9b80166760001b61364f565b6114597fdbb63cb171628a98c512be3b0392afefd60dd83362e8d7e06bfe373d64d1ae7b60001b61364f565b6114857f68ecabdc875cbe98ec19df423b1c9ddde574cd67454794d58601a1bbc70692f160001b61364f565b6000600d60003373ffffffffffffffffffffffffffffffffffffffff1673ffffffffffffffffffffffffffffffffffffffff16815260200190815260200160002090506114f47fc852c7da49ecec354fea50b2ae052f574f35b518823464846892b83295a5812160001b61364f565b6115207f163efd95c0fcd01cf405ae9bf40c58831c73a6e5d1060a99d5dc0250282a791a60001b61364f565b611528611dbe565b6115547f46c38433840fec8e3f6c43710f4199170e9aed76453107b7d650a1e341d3070c60001b61364f565b6115807f481cd945a98dbfd66268a82f3e06192c692cd1c5e805f2fec7fa3cdc88f9503760001b61364f565b60008061158c33613497565b915091506115bc7f71700352d026fd30c09c401c089300769eb9eed141f9c4cdce6304aa66864bf560001b61364f565b6115e87fecff65ab10f7dbd7886b785e37f4ca434d26f04ffd018a5865852a51b6ee3a9160001b61364f565b600260009054906101000a900473ffffffffffffffffffffffffffffffffffffffff1673ffffffffffffffffffffffffffffffffffffffff1663a9059cbb600960009054906101000a900473ffffffffffffffffffffffffffffffffffffffff166116706064611662600a8861365290919063ffffffff16565b61366890919063ffffffff16565b6040518363ffffffff1660e01b815260040161168d929190613b60565b6020604051808303816000875af11580156116ac573d6000803e3d6000fd5b505050506040513d601f19601f820116820180604052508101906116d09190613bc1565b506116fd7f98658d91883bddb9c2b2d69e6b305ccc446532db482c7b6511c19201c32c120360001b61364f565b6117297f5ada061393f614a3aef5b81c6688ce5da4f489821f61ba251a928b12a878d2ce60001b61364f565b600360009054906101000a900473ffffffffffffffffffffffffffffffffffffffff1673ffffffffffffffffffffffffffffffffffffffff1663a9059cbb600960009054906101000a900473ffffffffffffffffffffffffffffffffffffffff166117b160646117a3600a8761365290919063ffffffff16565b61366890919063ffffffff16565b6040518363ffffffff1660e01b81526004016117ce929190613b60565b6020604051808303816000875af11580156117ed573d6000803e3d6000fd5b505050506040513d601f19601f820116820180604052508101906118119190613bc1565b5061183e7f47c27ef9bd39aef1ed7f11b202c1c4ce20e5f5906ab03656a5f6321b5c8d63a060001b61364f565b61186a7fb7e7005b2a03fc0df5c9ae3cac52a6a6fb746b489a2fa0d14064dd7c143f32af60001b61364f565b6118a36118946064611886600a8661365290919063ffffffff16565b61366890919063ffffffff16565b8361367e90919063ffffffff16565b91506118d17fb2530e912c4bdd90bd450833304cf938b87df580ac0c20ba963fc9b3a545444560001b61364f565b6118fd7fd78940fbc99f24d70592360806257fcb31cb054c50bd9a9060c38a61af9ae65b60001b61364f565b6119366119276064611919600a8561365290919063ffffffff16565b61366890919063ffffffff16565b8261367e90919063ffffffff16565b90506119647fcf990b4cf8400ab73e95c06c2c739f574237cffd6a0b71afe993d00d40439b5260001b61364f565b6119907f5453dd67a714e96eaf36e746f2170f1456d82ca091d72f81e6b13a22e8f8b77d60001b61364f565b600260009054906101000a900473ffffffffffffffffffffffffffffffffffffffff1673ffffffffffffffffffffffffffffffffffffffff1663a9059cbb33846040518363ffffffff1660e01b81526004016119ed929190613b60565b6020604051808303816000875af1158015611a0c573d6000803e3d6000fd5b505050506040513d601f19601f82011682018060405250810190611a309190613bc1565b50611a5d7f52fd9a2328bd417843348ce0ec1f9ef5d78fc56a5b647bcfb5ff9b99c9811c3360001b61364f565b611a897f69e437e07a057b2bf0df0b7094b63057076d2b9c126ff1f436ad2eaca922ce1a60001b61364f565b600360009054906101000a900473ffffffffffffffffffffffffffffffffffffffff1673ffffffffffffffffffffffffffffffffffffffff1663a9059cbb33836040518363ffffffff1660e01b8152600401611ae6929190613b60565b6020604051808303816000875af1158015611b05573d6000803e3d6000fd5b505050506040513d601f19601f82011682018060405250810190611b299190613bc1565b50611b567f1a3466a782673b46d00015ab0ca081a908214134462b8d579e5309f15d6531a960001b61364f565b611b827f0423a46eaf8b0e7dd3ea9421e66aebdbd5177e95b10be84c6e200531d961a5b360001b61364f565b611bb264e8d4a51000611ba4600b54866000015461365290919063ffffffff16565b61366890919063ffffffff16565b8360010181905550611be67ff5053479e6daeff425e47307fe25375b3ec2efd219e2f1ce56fbb62e21ac84ac60001b61364f565b611c127faa3af3b9313ec6b240611f8a742881a480bfee4b8066049cad41359af58dc83b60001b61364f565b611c4264e8d4a51000611c34600c54866000015461365290919063ffffffff16565b61366890919063ffffffff16565b8360020181905550611c767fb5ca7f3a10510eb5ee1803fdf267d8bc5f19fe1eb496db4f533a99779806480260001b61364f565b611ca27f58180c371a7ed561c074362957b57664e01952fdade4c334ecb983d7e76a5f8860001b61364f565b3373ffffffffffffffffffffffffffffffffffffffff167f34fcbac0073d7c3d388e51312faf357774904998eeb8fca628b9e6f65ee1cbf78383604051611cea92919061392d565b60405180910390a2505050565b600b5481565b600c5481565b600960009054906101000a900473ffffffffffffffffffffffffffffffffffffffff1681565b60045481565b600260009054906101000a900473ffffffffffffffffffffffffffffffffffffffff1681565b611d5d613694565b611d676000613712565b565b600160009054906101000a900473ffffffffffffffffffffffffffffffffffffffff1681565b60055481565b60008060009054906101000a900473ffffffffffffffffffffffffffffffffffffffff16905090565b611dea7f887f7096c30c157cdb4f69a4b6b817987bf36fed8dff2134673775203d773a5f60001b61364f565b611e167f9a104c6bfad03c49f6ad010551c6ff7125567cf32ca80d26053270d1d1e6719f60001b61364f565b611e427f55f3fad067a2c6ff868ff175923f3f247b02d404bc9d72f5e7622b40244dcc3d60001b61364f565b6000600160009054906101000a900473ffffffffffffffffffffffffffffffffffffffff1673ffffffffffffffffffffffffffffffffffffffff166370a08231306040518263ffffffff1660e01b8152600401611e9f9190613980565b602060405180830381865afa158015611ebc573d6000803e3d6000fd5b505050506040513d601f19601f82011682018060405250810190611ee09190613d11565b9050611f0e7f542537ca2f852b02b46512f3966bb6079a7d732fa4b40bdae2220a71498177ac60001b61364f565b611f3a7fc1f38d698352ebe17ec6ac1716e9bbab2a91824d6a3a689efdf49da2a66a7c6f60001b61364f565b6000810361202b57611f6e7f7ac50cbf99b7024ef0b652278b856aa52e111979ca6ed886641746931acab8f460001b61364f565b611f9a7f3a5e32d57a79f78bd74a94cc20a47091828e2aa34f028532a86aebd1f6c0a0bd60001b61364f565b611fc67f0338dccd554875f2d2c0273d290aa956d8c237698e114a22e6475007c14d720f60001b61364f565b43600a81905550611ff97fd25a2387189287666594a61e640ac1b5752485741583ece2d84f6800685cca6a60001b61364f565b6120257fa30653b9aa803438ce1a51dd9f84443694dc566d935e6a5a9bec49ae94f494e160001b61364f565b50612514565b6120577f1980c662127209250adcb64797de322d35b9d8bdf672b31ca7a558913e16593560001b61364f565b6120837f68b6bb0595daef2d0da06d2e574516473a2e5859de8fddaad4c2d112b224bced60001b61364f565b6120af7f19f6a754c489f4d425c9158e220d3e2197354e838618f12744776dcc93df6d7060001b61364f565b60006120c6600a544361367e90919063ffffffff16565b90506120f47f020a159f8be6f0da89576d293395c0228c7ca8fe4991a844bdfe3131ffc942a460001b61364f565b6121207f0ff3f197ccf301833f632804fc574b60c4a2ecfe4e99a73594a67ba5759c71fd60001b61364f565b60006121376007548361365290919063ffffffff16565b90506121657fa4471539eb4eed1ad98a57d8f97473172bd5525d62e4088a2a2a59b28a34e1b560001b61364f565b6121917f0db2f984831fbc46c19a502f23e081b07cab7d87028b567650b10ad5bcf2f31260001b61364f565b60006121a86008548461365290919063ffffffff16565b90506121d67f9c9a8b93afc317fc1984520ed0cfd5f7453123177b45886f45ea8976192b33d760001b61364f565b6122027fd9687f32ca530c12632b9a783176c1d13ca044afc0d8fbb1b00338b461d7181560001b61364f565b600260009054906101000a900473ffffffffffffffffffffffffffffffffffffffff1673ffffffffffffffffffffffffffffffffffffffff166340c10f1930846040518363ffffffff1660e01b815260040161225f929190613b60565b600060405180830381600087803b15801561227957600080fd5b505af115801561228d573d6000803e3d6000fd5b505050506122bd7fe471d89dba23ba6ab08915c725c864295e60bde82a19c2674da332a0540a756c60001b61364f565b6122e97f0acd70fd8d06675ead35628ff79d7da65822fef3bc8d55446c8aeaea872d4d6460001b61364f565b600360009054906101000a900473ffffffffffffffffffffffffffffffffffffffff1673ffffffffffffffffffffffffffffffffffffffff166340c10f1930836040518363ffffffff1660e01b8152600401612346929190613b60565b600060405180830381600087803b15801561236057600080fd5b505af1158015612374573d6000803e3d6000fd5b505050506123a47fd2f65ef0afa4cb06f78f11876250c4627e7ebd3b40c4c43fd8b9d6f7af5d134b60001b61364f565b6123d07f4484eb503f91cdc044a4280a4c211968aac5046998d9b12384ec1b3b6c1415b660001b61364f565b61240e6123fd856123ef64e8d4a510008661365290919063ffffffff16565b61366890919063ffffffff16565b600b546137d690919063ffffffff16565b600b819055506124407f1bf65a14ab35b1ba0c2a3a5a509a4c8885b01ea9ae47d1f6cd51101ca4634fe160001b61364f565b61246c7f8b33ca965cd84eee4905d32a563f7a33ce8d32b99acbe8dc704e1e52716511ef60001b61364f565b6124aa6124998561248b64e8d4a510008561365290919063ffffffff16565b61366890919063ffffffff16565b600c546137d690919063ffffffff16565b600c819055506124dc7f78803c8fd0c21196192557b551a5e375e1dbc5180b55c0e46979e818c8e4bcd460001b61364f565b6125087f8bd9782457819c999f9a6021c97f817479458be995e57df0604017aac689c3b560001b61364f565b43600a81905550505050505b565b60075481565b600a5481565b61254e7f4ad08c7d54ce1af267eb5edc0ac476f7bc43f7d58e07f30d216bea2bb9290b1460001b61364f565b61257a7f73dfb2becb8b618ed1cac97f95c6332fea6cea5000a7c0ad55a4d792f363f33460001b61364f565b6125a67fd0be4e7ee4019ccb656647d51c6f01ac5a4f5e81f6304c61cb5ea5afb276924360001b61364f565b6125d27ffa2919cc9e514654f52331d030048061864326773cb527c8a64818968e985b7160001b61364f565b60008111612615576040517f08c379a000000000000000000000000000000000000000000000000000000000815260040161260c90613aae565b60405180910390fd5b6126417f371e545a68a42c958531e217894f7ad78349e056cfb2d4bbd12bb1596ea206c060001b61364f565b61266d7f98af5338dcc8f30ddecee444b0ec20e02f363874543d497e7a20dbcf580e382260001b61364f565b6126997f96581c54aaa55e1ef43dd83e505b9b19719ab30e842119d0ede7160fd0cefcfb60001b61364f565b6000600d60003373ffffffffffffffffffffffffffffffffffffffff1673ffffffffffffffffffffffffffffffffffffffff16815260200190815260200160002090506127087fb86de7dbdcc786d026000b1980c9c1fa500965c8d3b16efc79fc2f27a3b564d360001b61364f565b6127347f4739afbff182d5ce458f3c1da943009c454923ccdee12f27bee1e93bd07c511060001b61364f565b61273c611dbe565b6127687f312231ac8ea0f2b11eb9c88694702945a760138cc3c70788f186038ea53270ed60001b61364f565b6127947ff99a3be7b1a0bdec0d22d076b810f385612e4ec6edc87c2b52b5f32b9b282afc60001b61364f565b600081600001541115612d20576127cd7fddfe8749ef193468f20e46e3146aac76e36e9a4c094012bcbba9238e2116560d60001b61364f565b6127f97f0a2d92700008ce2096f8b770e4f67ac6bd2606c8b5349608bf358c2dde1d64a160001b61364f565b6128257f7a3f41ca3de2c9bdf31b70f0bf1462e9422b540526d16b52ea3a25d97424fc9d60001b61364f565b60008061283133613497565b915091506128617f9394140502e6d3c60bd5b382820e371ffd5a50459d5776e1bf757c210234072860001b61364f565b61288d7fe76e9241d23b8391fb238119803a39f06a50e7a11dee49e1e25c6828e33c65f460001b61364f565b600260009054906101000a900473ffffffffffffffffffffffffffffffffffffffff1673ffffffffffffffffffffffffffffffffffffffff1663a9059cbb600960009054906101000a900473ffffffffffffffffffffffffffffffffffffffff166129156064612907600a8861365290919063ffffffff16565b61366890919063ffffffff16565b6040518363ffffffff1660e01b8152600401612932929190613b60565b6020604051808303816000875af1158015612951573d6000803e3d6000fd5b505050506040513d601f19601f820116820180604052508101906129759190613bc1565b506129a27f2e5418f9dbf448985e13b484b05ec761c8b1b1725739bf4437f4979154cb47a360001b61364f565b6129ce7fa64e234ebe303898e7e89f4ad909a9111b9a25df82ed4e0e82e52ea5dbf4b78760001b61364f565b600360009054906101000a900473ffffffffffffffffffffffffffffffffffffffff1673ffffffffffffffffffffffffffffffffffffffff1663a9059cbb600960009054906101000a900473ffffffffffffffffffffffffffffffffffffffff16612a566064612a48600a8761365290919063ffffffff16565b61366890919063ffffffff16565b6040518363ffffffff1660e01b8152600401612a73929190613b60565b6020604051808303816000875af1158015612a92573d6000803e3d6000fd5b505050506040513d601f19601f82011682018060405250810190612ab69190613bc1565b50612ae37f5f50c97d463508e754dfbed200d2cf93f49acffe897c7a3971ccdb11895a144260001b61364f565b612b0f7f668e1a6affd172f0471b55084c9919e5f6dbde0347f0dabed018f4185fe4416160001b61364f565b600260009054906101000a900473ffffffffffffffffffffffffffffffffffffffff1673ffffffffffffffffffffffffffffffffffffffff1663a9059cbb33612b87612b786064612b6a600a8961365290919063ffffffff16565b61366890919063ffffffff16565b8661367e90919063ffffffff16565b6040518363ffffffff1660e01b8152600401612ba4929190613b60565b6020604051808303816000875af1158015612bc3573d6000803e3d6000fd5b505050506040513d601f19601f82011682018060405250810190612be79190613bc1565b50612c147fe34ae497c447e275d8594aa1ace7f7e708dd6627d5bec1167185959e0fd96e2960001b61364f565b612c407ffcd6f6e98932ba16a3f6f336c932d4c21326299dae2f2b1988a4f007e108f7e960001b61364f565b600360009054906101000a900473ffffffffffffffffffffffffffffffffffffffff1673ffffffffffffffffffffffffffffffffffffffff1663a9059cbb33612cb8612ca96064612c9b600a8861365290919063ffffffff16565b61366890919063ffffffff16565b8561367e90919063ffffffff16565b6040518363ffffffff1660e01b8152600401612cd5929190613b60565b6020604051808303816000875af1158015612cf4573d6000803e3d6000fd5b505050506040513d601f19601f82011682018060405250810190612d189190613bc1565b505050612d4d565b612d4c7f8299e62e43cd85c93facf59ead9547841835e1b5d8494ab572ba5409d3e7e11a60001b61364f565b5b612d797f3efd53f86eafd146a783e5a89b1c774fb66dfe423c59d1ce43aed7f60a8fd92a60001b61364f565b612da57f7307cce97a14fdbb2cc6d37688404df6d94caf37c1276080c7023ad1406e628b60001b61364f565b6000606460045484612db79190613d3e565b612dc19190613daf565b9050612def7f13f9a961277fb7e241c3cb75f4d0e69f7a1c40ccb85adb4dbe393439b20dfb4f60001b61364f565b612e1b7fcac5483ccc48366c846c65a1fbec64aeaff122f5359d659ce5ba5ba28ddd729960001b61364f565b60008184612e299190613c4c565b9050612e577f51ab597ebf2b7d8b37177ac7005264b805f96c5ce6cbb1af9c946e4d91760c6760001b61364f565b612e837ff832d15e714aa0eca0213997867e773b6d294f0319f72463fbed104cf82dc10c60001b61364f565b600160009054906101000a900473ffffffffffffffffffffffffffffffffffffffff1673ffffffffffffffffffffffffffffffffffffffff166323b872dd3330876040518463ffffffff1660e01b8152600401612ee293929190613de0565b6020604051808303816000875af1158015612f01573d6000803e3d6000fd5b505050506040513d601f19601f82011682018060405250810190612f259190613bc1565b50612f527f593d851aa6efac8d7e5254179f98f25d30b44e867b5e865ea5999150cd8c508b60001b61364f565b612f7e7fbc39619d7299160282ba32b513aa436b750eaab30218aba7596177b449de669360001b61364f565b600160009054906101000a900473ffffffffffffffffffffffffffffffffffffffff1673ffffffffffffffffffffffffffffffffffffffff1663a9059cbb600960009054906101000a900473ffffffffffffffffffffffffffffffffffffffff16846040518363ffffffff1660e01b8152600401612ffd929190613b60565b6020604051808303816000875af115801561301c573d6000803e3d6000fd5b505050506040513d601f19601f820116820180604052508101906130409190613bc1565b5061306d7fc256e7cf217d23f2cbfc5f5700506db6928a88fad203c786551db12f88d67cbe60001b61364f565b6130997f3be5eb80a6290ed5ee928e769c75b5921effd3c96830f917e6f67b52cb32c8e760001b61364f565b6130b08184600001546137d690919063ffffffff16565b83600001819055506130e47f0eab8462f5437c3c3d04f2ef61184e260497049bb2ce3e5bc0e54cf75287032a60001b61364f565b6131107f99b41c0ac38ea8262ea69fb8bcee34022dea7bb965aa4d8fb1ab5875d7ef3b7260001b61364f565b61314064e8d4a51000613132600b54866000015461365290919063ffffffff16565b61366890919063ffffffff16565b83600101819055506131747f709e603ded08fc068ec8588b94105299a8f9c9b11a542ab1557da2ba55d32fba60001b61364f565b6131a07f1d7fce82212b9e7bebeecb5b7ed6179274e6e02b5f20bb565da055000803090b60001b61364f565b6131d064e8d4a510006131c2600c54866000015461365290919063ffffffff16565b61366890919063ffffffff16565b83600201819055506132047f71bebb7fffb3ddfdee9ed3ec856d5304e38b94b3f164745bb124bd136e11736060001b61364f565b6132307fbc902cf53a2c2b122686dc30d41e1afa5e07fb29fdcb329f62e54dd173a89b9f60001b61364f565b42600e60003373ffffffffffffffffffffffffffffffffffffffff1673ffffffffffffffffffffffffffffffffffffffff168152602001908152602001600020819055506132a07f45621b2018cc4fea3f0eae407ae5303b8f34b9bdf4f9b3f0724ac5ca8103185860001b61364f565b6132cc7f52ee005e1ee526a685b84fbc76533f480b2d9a44c6553fee8a1c5bc28294c68e60001b61364f565b826003016040518060400160405280838152602001428152509080600181540180825580915050600190039060005260206000209060020201600090919091909150600082015181600001556020820151816001015550506133507fd3a4c9eeee7a4d05cf5f9dfc8d434fb70c8c2b84ab676ecfc49b8ea0080d1a7c60001b61364f565b61337c7f997a9c10bd33ac6632c873fd31e623638c02c3bd4a764628a6dcbc3a33ccefdb60001b61364f565b3373ffffffffffffffffffffffffffffffffffffffff167fe1fffcc4923d04b559f4d29a8bfc6cda04eb5b0d3c460751c2402c5c5cc9109c826040516133c29190613956565b60405180910390a250505050565b600e6020528060005260406000206000915090505481565b600360009054906101000a900473ffffffffffffffffffffffffffffffffffffffff1681565b60085481565b61341c613694565b600073ffffffffffffffffffffffffffffffffffffffff168173ffffffffffffffffffffffffffffffffffffffff160361348b576040517f08c379a000000000000000000000000000000000000000000000000000000000815260040161348290613e89565b60405180910390fd5b61349481613712565b50565b6000806134c67fd85e35d3bda4e6782c5ad837fb9998a7b6cb6af285f4b81de8df4905279fa7fe60001b61364f565b6134f27fede0baaccb0fa8e52a3234a847340044e58b12c210eafe1702c053e427dfe09860001b61364f565b61351e7f46deb7bb70b9dff2c3bcf0fc1e8ca1f366d15cf4846307d2644f1f2681cfa5af60001b61364f565b6000600d60008573ffffffffffffffffffffffffffffffffffffffff1673ffffffffffffffffffffffffffffffffffffffff168152602001908152602001600020905061358d7fc178c214177bd4a1434c49de20cf171f06165ca5b73eaa7242440d28d0a71aea60001b61364f565b6135b97f677f3c6b873c7d99063a15bd9453a54579c19cbb21229d7b4acee3ecffbac09f60001b61364f565b6135ff81600101546135f164e8d4a510006135e3600b54866000015461365290919063ffffffff16565b61366890919063ffffffff16565b61367e90919063ffffffff16565b613645826002015461363764e8d4a51000613629600c54876000015461365290919063ffffffff16565b61366890919063ffffffff16565b61367e90919063ffffffff16565b9250925050915091565b50565b600081836136609190613d3e565b905092915050565b600081836136769190613daf565b905092915050565b6000818361368c9190613c4c565b905092915050565b61369c6137ec565b73ffffffffffffffffffffffffffffffffffffffff166136ba611d95565b73ffffffffffffffffffffffffffffffffffffffff1614613710576040517f08c379a000000000000000000000000000000000000000000000000000000000815260040161370790613ef5565b60405180910390fd5b565b60008060009054906101000a900473ffffffffffffffffffffffffffffffffffffffff169050816000806101000a81548173ffffffffffffffffffffffffffffffffffffffff021916908373ffffffffffffffffffffffffffffffffffffffff1602179055508173ffffffffffffffffffffffffffffffffffffffff168173ffffffffffffffffffffffffffffffffffffffff167f8be0079c531659141344cd1fd0a4f28419497f9722a3daafe3b4186f6b6457e060405160405180910390a35050565b600081836137e49190613c80565b905092915050565b600033905090565b600080fd5b600073ffffffffffffffffffffffffffffffffffffffff82169050919050565b6000613824826137f9565b9050919050565b61383481613819565b811461383f57600080fd5b50565b6000813590506138518161382b565b92915050565b60006020828403121561386d5761386c6137f4565b5b600061387b84828501613842565b91505092915050565b6000819050919050565b61389781613884565b82525050565b60006060820190506138b2600083018661388e565b6138bf602083018561388e565b6138cc604083018461388e565b949350505050565b6138dd81613884565b81146138e857600080fd5b50565b6000813590506138fa816138d4565b92915050565b600060208284031215613916576139156137f4565b5b6000613924848285016138eb565b91505092915050565b6000604082019050613942600083018561388e565b61394f602083018461388e565b9392505050565b600060208201905061396b600083018461388e565b92915050565b61397a81613819565b82525050565b60006020820190506139956000830184613971565b92915050565b6000819050919050565b60006139c06139bb6139b6846137f9565b61399b565b6137f9565b9050919050565b60006139d2826139a5565b9050919050565b60006139e4826139c7565b9050919050565b6139f4816139d9565b82525050565b6000602082019050613a0f60008301846139eb565b92915050565b6000613a20826139c7565b9050919050565b613a3081613a15565b82525050565b6000602082019050613a4b6000830184613a27565b92915050565b600082825260208201905092915050565b7f416d6f756e74206d7573742062652067726561746572207468616e2030000000600082015250565b6000613a98601d83613a51565b9150613aa382613a62565b602082019050919050565b60006020820190508181036000830152613ac781613a8b565b9050919050565b7f416d6f756e74206d757374206265206c657373207468616e207769746864726160008201527f7761626c6520616d6f756e740000000000000000000000000000000000000000602082015250565b6000613b2a602c83613a51565b9150613b3582613ace565b604082019050919050565b60006020820190508181036000830152613b5981613b1d565b9050919050565b6000604082019050613b756000830185613971565b613b82602083018461388e565b9392505050565b60008115159050919050565b613b9e81613b89565b8114613ba957600080fd5b50565b600081519050613bbb81613b95565b92915050565b600060208284031215613bd757613bd66137f4565b5b6000613be584828501613bac565b91505092915050565b7f4e487b7100000000000000000000000000000000000000000000000000000000600052603260045260246000fd5b7f4e487b7100000000000000000000000000000000000000000000000000000000600052601160045260246000fd5b6000613c5782613884565b9150613c6283613884565b9250828203905081811115613c7a57613c79613c1d565b5b92915050565b6000613c8b82613884565b9150613c9683613884565b9250828201905080821115613cae57613cad613c1d565b5b92915050565b6000613cbf82613884565b91507fffffffffffffffffffffffffffffffffffffffffffffffffffffffffffffffff8203613cf157613cf0613c1d565b5b600182019050919050565b600081519050613d0b816138d4565b92915050565b600060208284031215613d2757613d266137f4565b5b6000613d3584828501613cfc565b91505092915050565b6000613d4982613884565b9150613d5483613884565b9250828202613d6281613884565b91508282048414831517613d7957613d78613c1d565b5b5092915050565b7f4e487b7100000000000000000000000000000000000000000000000000000000600052601260045260246000fd5b6000613dba82613884565b9150613dc583613884565b925082613dd557613dd4613d80565b5b828204905092915050565b6000606082019050613df56000830186613971565b613e026020830185613971565b613e0f604083018461388e565b949350505050565b7f4f776e61626c653a206e6577206f776e657220697320746865207a65726f206160008201527f6464726573730000000000000000000000000000000000000000000000000000602082015250565b6000613e73602683613a51565b9150613e7e82613e17565b604082019050919050565b60006020820190508181036000830152613ea281613e66565b9050919050565b7f4f776e61626c653a2063616c6c6572206973206e6f7420746865206f776e6572600082015250565b6000613edf602083613a51565b9150613eea82613ea9565b602082019050919050565b60006020820190508181036000830152613f0e81613ed2565b905091905056fea2646970667358221220ae42961516c01c3d9cc757ad2da401ee411052c9813a69e0847b5bf99e8a2a1364736f6c63430008120033",
  "linkReferences": {},
  "deployedLinkReferences": {}
}