{
  "_format": "hh-sol-artifact-1",
  "contractName": "FarmingYield",
  "sourceName": "contracts/FarmingYield.sol",
  "abi": [
    {
      "inputs": [
        {
          "internalType": "contract IERC20",
          "name": "_stakingToken",
          "type": "address"
        },
        {
          "internalType": "contract ERC20Mock",
          "name": "_rewardToken1",
          "type": "address"
        },
        {
          "internalType": "contract ERC20Mock",
          "name": "_rewardToken2",
          "type": "address"
        },
        {
          "internalType": "uint256",
          "name": "_depositFee",
          "type": "uint256"
        },
        {
          "internalType": "address",
          "name": "_treasury",
          "type": "address"
        },
        {
          "internalType": "uint256",
          "name": "_reward1PerBlock",
          "type": "uint256"
        },
        {
          "internalType": "uint256",
          "name": "_reward2PerBlock",
          "type": "uint256"
        }
      ],
      "stateMutability": "nonpayable",
      "type": "constructor"
    },
    {
      "anonymous": false,
      "inputs": [
        {
          "indexed": true,
          "internalType": "address",
          "name": "user",
          "type": "address"
        },
        {
          "indexed": false,
          "internalType": "uint256",
          "name": "amount1",
          "type": "uint256"
        },
        {
          "indexed": false,
          "internalType": "uint256",
          "name": "amount2",
          "type": "uint256"
        }
      ],
      "name": "Claim",
      "type": "event"
    },
    {
      "anonymous": false,
      "inputs": [
        {
          "indexed": true,
          "internalType": "address",
          "name": "user",
          "type": "address"
        },
        {
          "indexed": false,
          "internalType": "uint256",
          "name": "amount",
          "type": "uint256"
        }
      ],
      "name": "Deposit",
      "type": "event"
    },
    {
      "anonymous": false,
      "inputs": [
        {
          "indexed": true,
          "internalType": "address",
          "name": "previousOwner",
          "type": "address"
        },
        {
          "indexed": true,
          "internalType": "address",
          "name": "newOwner",
          "type": "address"
        }
      ],
      "name": "OwnershipTransferred",
      "type": "event"
    },
    {
      "anonymous": false,
      "inputs": [
        {
          "indexed": true,
          "internalType": "address",
          "name": "user",
          "type": "address"
        },
        {
          "indexed": false,
          "internalType": "uint256",
          "name": "amount",
          "type": "uint256"
        }
      ],
      "name": "Withdraw",
      "type": "event"
    },
    {
      "inputs": [],
      "name": "accReward1PerShare",
      "outputs": [
        {
          "internalType": "uint256",
          "name": "",
          "type": "uint256"
        }
      ],
      "stateMutability": "view",
      "type": "function"
    },
    {
      "inputs": [],
      "name": "accReward2PerShare",
      "outputs": [
        {
          "internalType": "uint256",
          "name": "",
          "type": "uint256"
        }
      ],
      "stateMutability": "view",
      "type": "function"
    },
    {
      "inputs": [],
      "name": "claim",
      "outputs": [],
      "stateMutability": "nonpayable",
      "type": "function"
    },
    {
      "inputs": [
        {
          "internalType": "uint256",
          "name": "amount",
          "type": "uint256"
        }
      ],
      "name": "deposit",
      "outputs": [],
      "stateMutability": "nonpayable",
      "type": "function"
    },
    {
      "inputs": [],
      "name": "depositFee",
      "outputs": [
        {
          "internalType": "uint256",
          "name": "",
          "type": "uint256"
        }
      ],
      "stateMutability": "view",
      "type": "function"
    },
    {
      "inputs": [
        {
          "internalType": "address",
          "name": "",
          "type": "address"
        }
      ],
      "name": "lastBlockTimeStamp",
      "outputs": [
        {
          "internalType": "uint256",
          "name": "",
          "type": "uint256"
        }
      ],
      "stateMutability": "view",
      "type": "function"
    },
    {
      "inputs": [],
      "name": "lastRewardBlock",
      "outputs": [
        {
          "internalType": "uint256",
          "name": "",
          "type": "uint256"
        }
      ],
      "stateMutability": "view",
      "type": "function"
    },
    {
      "inputs": [],
      "name": "lockPeriod",
      "outputs": [
        {
          "internalType": "uint256",
          "name": "",
          "type": "uint256"
        }
      ],
      "stateMutability": "view",
      "type": "function"
    },
    {
      "inputs": [],
      "name": "owner",
      "outputs": [
        {
          "internalType": "address",
          "name": "",
          "type": "address"
        }
      ],
      "stateMutability": "view",
      "type": "function"
    },
    {
      "inputs": [
        {
          "internalType": "address",
          "name": "_user",
          "type": "address"
        }
      ],
      "name": "pendingReward",
      "outputs": [
        {
          "internalType": "uint256",
          "name": "",
          "type": "uint256"
        },
        {
          "internalType": "uint256",
          "name": "",
          "type": "uint256"
        }
      ],
      "stateMutability": "view",
      "type": "function"
    },
    {
      "inputs": [],
      "name": "renounceOwnership",
      "outputs": [],
      "stateMutability": "nonpayable",
      "type": "function"
    },
    {
      "inputs": [],
      "name": "reward1PerBlock",
      "outputs": [
        {
          "internalType": "uint256",
          "name": "",
          "type": "uint256"
        }
      ],
      "stateMutability": "view",
      "type": "function"
    },
    {
      "inputs": [],
      "name": "reward2PerBlock",
      "outputs": [
        {
          "internalType": "uint256",
          "name": "",
          "type": "uint256"
        }
      ],
      "stateMutability": "view",
      "type": "function"
    },
    {
      "inputs": [],
      "name": "rewardToken1",
      "outputs": [
        {
          "internalType": "contract ERC20Mock",
          "name": "",
          "type": "address"
        }
      ],
      "stateMutability": "view",
      "type": "function"
    },
    {
      "inputs": [],
      "name": "rewardToken2",
      "outputs": [
        {
          "internalType": "contract ERC20Mock",
          "name": "",
          "type": "address"
        }
      ],
      "stateMutability": "view",
      "type": "function"
    },
    {
      "inputs": [],
      "name": "stakingToken",
      "outputs": [
        {
          "internalType": "contract IERC20",
          "name": "",
          "type": "address"
        }
      ],
      "stateMutability": "view",
      "type": "function"
    },
    {
      "inputs": [],
      "name": "totalStaked",
      "outputs": [
        {
          "internalType": "uint256",
          "name": "",
          "type": "uint256"
        }
      ],
      "stateMutability": "view",
      "type": "function"
    },
    {
      "inputs": [
        {
          "internalType": "address",
          "name": "newOwner",
          "type": "address"
        }
      ],
      "name": "transferOwnership",
      "outputs": [],
      "stateMutability": "nonpayable",
      "type": "function"
    },
    {
      "inputs": [],
      "name": "treasury",
      "outputs": [
        {
          "internalType": "address",
          "name": "",
          "type": "address"
        }
      ],
      "stateMutability": "view",
      "type": "function"
    },
    {
      "inputs": [],
      "name": "update",
      "outputs": [],
      "stateMutability": "nonpayable",
      "type": "function"
    },
    {
      "inputs": [
        {
          "internalType": "address",
          "name": "",
          "type": "address"
        }
      ],
      "name": "userInfo",
      "outputs": [
        {
          "internalType": "uint256",
          "name": "amount",
          "type": "uint256"
        },
        {
          "internalType": "uint256",
          "name": "reward1Debt",
          "type": "uint256"
        },
        {
          "internalType": "uint256",
          "name": "reward2Debt",
          "type": "uint256"
        }
      ],
      "stateMutability": "view",
      "type": "function"
    },
    {
      "inputs": [
        {
          "internalType": "uint256",
          "name": "amount",
          "type": "uint256"
        }
      ],
      "name": "withdraw",
      "outputs": [],
      "stateMutability": "nonpayable",
      "type": "function"
    }
  ],
  "bytecode": "0x608060405262278d006006553480156200001857600080fd5b50604051620041813803806200418183398181016040528101906200003e91906200076d565b6200005e620000526200056f60201b60201c565b6200057760201b60201c565b620000927f887f7096c30c157cdb4f69a4b6b817987bf36fed8dff2134673775203d773a5f60001b6200063b60201b60201c565b620000c67f9a104c6bfad03c49f6ad010551c6ff7125567cf32ca80d26053270d1d1e6719f60001b6200063b60201b60201c565b620000fa7f55f3fad067a2c6ff868ff175923f3f247b02d404bc9d72f5e7622b40244dcc3d60001b6200063b60201b60201c565b86600160006101000a81548173ffffffffffffffffffffffffffffffffffffffff021916908373ffffffffffffffffffffffffffffffffffffffff1602179055506200016f7f542537ca2f852b02b46512f3966bb6079a7d732fa4b40bdae2220a71498177ac60001b6200063b60201b60201c565b620001a37fc1f38d698352ebe17ec6ac1716e9bbab2a91824d6a3a689efdf49da2a66a7c6f60001b6200063b60201b60201c565b85600260006101000a81548173ffffffffffffffffffffffffffffffffffffffff021916908373ffffffffffffffffffffffffffffffffffffffff160217905550620002187f7ac50cbf99b7024ef0b652278b856aa52e111979ca6ed886641746931acab8f460001b6200063b60201b60201c565b6200024c7f3a5e32d57a79f78bd74a94cc20a47091828e2aa34f028532a86aebd1f6c0a0bd60001b6200063b60201b60201c565b84600360006101000a81548173ffffffffffffffffffffffffffffffffffffffff021916908373ffffffffffffffffffffffffffffffffffffffff160217905550620002c17f0338dccd554875f2d2c0273d290aa956d8c237698e114a22e6475007c14d720f60001b6200063b60201b60201c565b620002f57fd25a2387189287666594a61e640ac1b5752485741583ece2d84f6800685cca6a60001b6200063b60201b60201c565b83600481905550620003307fa30653b9aa803438ce1a51dd9f84443694dc566d935e6a5a9bec49ae94f494e160001b6200063b60201b60201c565b620003647f1980c662127209250adcb64797de322d35b9d8bdf672b31ca7a558913e16593560001b6200063b60201b60201c565b82600960006101000a81548173ffffffffffffffffffffffffffffffffffffffff021916908373ffffffffffffffffffffffffffffffffffffffff160217905550620003d97f68b6bb0595daef2d0da06d2e574516473a2e5859de8fddaad4c2d112b224bced60001b6200063b60201b60201c565b6200040d7f19f6a754c489f4d425c9158e220d3e2197354e838618f12744776dcc93df6d7060001b6200063b60201b60201c565b81600781905550620004487f020a159f8be6f0da89576d293395c0228c7ca8fe4991a844bdfe3131ffc942a460001b6200063b60201b60201c565b6200047c7f0ff3f197ccf301833f632804fc574b60c4a2ecfe4e99a73594a67ba5759c71fd60001b6200063b60201b60201c565b80600881905550620004b77fa4471539eb4eed1ad98a57d8f97473172bd5525d62e4088a2a2a59b28a34e1b560001b6200063b60201b60201c565b620004eb7f0db2f984831fbc46c19a502f23e081b07cab7d87028b567650b10ad5bcf2f31260001b6200063b60201b60201c565b43600a81905550620005267f9c9a8b93afc317fc1984520ed0cfd5f7453123177b45886f45ea8976192b33d760001b6200063b60201b60201c565b6200055a7fd9687f32ca530c12632b9a783176c1d13ca044afc0d8fbb1b00338b461d7181560001b6200063b60201b60201c565b6000600b819055505050505050505062000820565b600033905090565b60008060009054906101000a900473ffffffffffffffffffffffffffffffffffffffff169050816000806101000a81548173ffffffffffffffffffffffffffffffffffffffff021916908373ffffffffffffffffffffffffffffffffffffffff1602179055508173ffffffffffffffffffffffffffffffffffffffff168173ffffffffffffffffffffffffffffffffffffffff167f8be0079c531659141344cd1fd0a4f28419497f9722a3daafe3b4186f6b6457e060405160405180910390a35050565b50565b600080fd5b600073ffffffffffffffffffffffffffffffffffffffff82169050919050565b6000620006708262000643565b9050919050565b6000620006848262000663565b9050919050565b620006968162000677565b8114620006a257600080fd5b50565b600081519050620006b6816200068b565b92915050565b6000620006c98262000663565b9050919050565b620006db81620006bc565b8114620006e757600080fd5b50565b600081519050620006fb81620006d0565b92915050565b6000819050919050565b620007168162000701565b81146200072257600080fd5b50565b60008151905062000736816200070b565b92915050565b620007478162000663565b81146200075357600080fd5b50565b60008151905062000767816200073c565b92915050565b600080600080600080600060e0888a0312156200078f576200078e6200063e565b5b60006200079f8a828b01620006a5565b9750506020620007b28a828b01620006ea565b9650506040620007c58a828b01620006ea565b9550506060620007d88a828b0162000725565b9450506080620007eb8a828b0162000756565b93505060a0620007fe8a828b0162000725565b92505060c0620008118a828b0162000725565b91505092959891949750929550565b61395180620008306000396000f3fe608060405234801561001057600080fd5b50600436106101425760003560e01c8063817b1cd2116100b8578063b6b55f251161007c578063b6b55f25146102fd578063bb9ce3f614610319578063d61a47f114610349578063ea02b0e514610367578063f2fde38b14610385578063f40f0f52146103a157610142565b8063817b1cd21461027b5780638da5cb5b14610299578063a2e62045146102b7578063a36e8600146102c1578063a9f8d181146102df57610142565b80635a98674b1161010a5780635a98674b146101db57806361d027b3146101f957806367a52793146102175780636f28d68814610235578063715018a61461025357806372f702f31461025d57610142565b80631959a002146101475780632e1a7d4d146101795780633fd8b02f146101955780634e71d92d146101b3578063532a6159146101bd575b600080fd5b610161600480360381019061015c91906132d4565b6103d2565b6040516101709392919061331a565b60405180910390f35b610193600480360381019061018e919061337d565b6103fc565b005b61019d610fde565b6040516101aa91906133aa565b60405180910390f35b6101bb610fe4565b005b6101c5611824565b6040516101d291906133aa565b60405180910390f35b6101e361182a565b6040516101f091906133aa565b60405180910390f35b610201611830565b60405161020e91906133d4565b60405180910390f35b61021f611856565b60405161022c91906133aa565b60405180910390f35b61023d61185c565b60405161024a919061344e565b60405180910390f35b61025b611882565b005b610265611896565b604051610272919061348a565b60405180910390f35b6102836118bc565b60405161029091906133aa565b60405180910390f35b6102a16118c2565b6040516102ae91906133d4565b60405180910390f35b6102bf6118eb565b005b6102c9612043565b6040516102d691906133aa565b60405180910390f35b6102e7612049565b6040516102f491906133aa565b60405180910390f35b6103176004803603810190610312919061337d565b61204f565b005b610333600480360381019061032e91906132d4565b612e4d565b60405161034091906133aa565b60405180910390f35b610351612e65565b60405161035e919061344e565b60405180910390f35b61036f612e8b565b60405161037c91906133aa565b60405180910390f35b61039f600480360381019061039a91906132d4565b612e91565b005b6103bb60048036038101906103b691906132d4565b612f14565b6040516103c99291906134a5565b60405180910390f35b600d6020528060005260406000206000915090508060000154908060010154908060020154905083565b6104287f96bba9422d4a340c413cd7023e87ac5b73de0e37be734fd1317f8ad7414aaa5d60001b6130cc565b6104547faa4f334caaee5bbf1af1f10feea3a61f529f7bdb2d18c7fec86b805acf82abac60001b6130cc565b6104807fc9126346edad0a904d0b23fc64f5cf91bcfdc3099266f0dce7b839642f156d2b60001b6130cc565b6104ac7fde494527ec9bae5266ee9c30b9fcc19ecf22492c13e9eb1b284dff1caba1b62c60001b6130cc565b600081116104ef576040517f08c379a00000000000000000000000000000000000000000000000000000000081526004016104e69061352b565b60405180910390fd5b61051b7f14c3c620222db750dd784365de6058365ac40630ef3a6765e796f891e5eaa49c60001b6130cc565b6105477f84466732ffd1a19d0911c72e661ba9ca9919fbc92f2f86ebbaee5a5a1af8d6b860001b6130cc565b6105737f192051eff1ab0d855ae2ada8e1631835de04a398d6de903b38fa78102895072e60001b6130cc565b6000600d60003373ffffffffffffffffffffffffffffffffffffffff1673ffffffffffffffffffffffffffffffffffffffff16815260200190815260200160002090506105e27f8bdf77f806c3927f363d49d9163a9f7c5f79ed94c13dd10dbdfeacff84608dbd60001b6130cc565b61060e7ff3cb5a2ef2ac075b92713b0382b3dcdb7d503beeb4beb7cf331d73ca18b24d1060001b6130cc565b61063a7fa039ac587199f19b58e752f990672e2ca90fc94d96302962c9085a7cb036bcf660001b6130cc565b62278d00600e60003373ffffffffffffffffffffffffffffffffffffffff1673ffffffffffffffffffffffffffffffffffffffff1681526020019081526020016000205442610689919061357a565b10156106ca576040517f08c379a00000000000000000000000000000000000000000000000000000000081526004016106c190613620565b60405180910390fd5b6106f67f2817315488bbe23455d6679b76e3295e3e3017628778fb01e445b5a2c2d0b80660001b6130cc565b6107227f5f82a00b33ff48a02d85963ae73025c8827a6d987377fb17f0a9e9fb92f8ca9560001b6130cc565b61074e7f05c7c29ebd37e1748bdea04b1af60d83c1c2d627361e7a6208e13200e680522260001b6130cc565b6107566118eb565b6107827f3e5f465e6474ab49f2581b8c5780a544c5128133a64739873e789adbb7cbfb7460001b6130cc565b6107ae7f24a9f875dea45b362033ffeb5e26cda7dc1ca54c018cfe7845c4494f03c19cdf60001b6130cc565b6000806107ba33612f14565b915091506107ea7fd1f44700fbee67ff8e8f1b014356906d3102cb1c7d823dd51311895ee22692ae60001b6130cc565b6108167fd1397f9b9a0be6c498bf8ea7ce893873b4830bee1b5dff4f73077ba30deca86b60001b6130cc565b600260009054906101000a900473ffffffffffffffffffffffffffffffffffffffff1673ffffffffffffffffffffffffffffffffffffffff1663a9059cbb600960009054906101000a900473ffffffffffffffffffffffffffffffffffffffff1661089e6064610890600a886130cf90919063ffffffff16565b6130e590919063ffffffff16565b6040518363ffffffff1660e01b81526004016108bb929190613640565b6020604051808303816000875af11580156108da573d6000803e3d6000fd5b505050506040513d601f19601f820116820180604052508101906108fe91906136a1565b5061092b7fd03ff56cec7f6b5f3f7265844d2b70c18eed5c30e7b63492d31dfed69eea559860001b6130cc565b6109577f672fd0ab4bc89b069f4692cde2491074048daf3e553b04fb7d4a18c192446aba60001b6130cc565b600360009054906101000a900473ffffffffffffffffffffffffffffffffffffffff1673ffffffffffffffffffffffffffffffffffffffff1663a9059cbb600960009054906101000a900473ffffffffffffffffffffffffffffffffffffffff166109df60646109d1600a876130cf90919063ffffffff16565b6130e590919063ffffffff16565b6040518363ffffffff1660e01b81526004016109fc929190613640565b6020604051808303816000875af1158015610a1b573d6000803e3d6000fd5b505050506040513d601f19601f82011682018060405250810190610a3f91906136a1565b50610a6c7f6dd80a224c51ad685ec31e7b524b9ff16eefdd770a27f64eddb55adad018c72360001b6130cc565b610a987ffd129554d70739fd3891a031997ed5036052c7a6b3599fc5e4e294d44d6a517260001b6130cc565b600260009054906101000a900473ffffffffffffffffffffffffffffffffffffffff1673ffffffffffffffffffffffffffffffffffffffff1663a9059cbb33610b10610b016064610af3600a896130cf90919063ffffffff16565b6130e590919063ffffffff16565b866130fb90919063ffffffff16565b6040518363ffffffff1660e01b8152600401610b2d929190613640565b6020604051808303816000875af1158015610b4c573d6000803e3d6000fd5b505050506040513d601f19601f82011682018060405250810190610b7091906136a1565b50610b9d7fe7af1e2848757c47b56fb5d50da9d5f684e712fbdf0dbfca5c2a50298194c8b060001b6130cc565b610bc97fd4829fa3790aeebcb5696989274df5ad0ed2c5f10466762ce9eefdfebd1d2dd360001b6130cc565b600360009054906101000a900473ffffffffffffffffffffffffffffffffffffffff1673ffffffffffffffffffffffffffffffffffffffff1663a9059cbb33610c41610c326064610c24600a886130cf90919063ffffffff16565b6130e590919063ffffffff16565b856130fb90919063ffffffff16565b6040518363ffffffff1660e01b8152600401610c5e929190613640565b6020604051808303816000875af1158015610c7d573d6000803e3d6000fd5b505050506040513d601f19601f82011682018060405250810190610ca191906136a1565b50610cce7fbb8fb28356d13e5a235179052300fddb14861937edeba85602f7c3e9f1c6cbf560001b6130cc565b610cfa7f51f32e16a46d80392b4e81b92e0213f710ddcd6bf1159adb31671e1accf5c45760001b6130cc565b610d118484600001546130fb90919063ffffffff16565b8360000181905550610d457ff69fe8c63116112008627e79c413b0d15b821cbad83b74695da95169b44005e760001b6130cc565b610d717f018b964d70f48adef35e772c8068317f5952f38305763b5ce54726800a285cec60001b6130cc565b610da164e8d4a51000610d93600b5486600001546130cf90919063ffffffff16565b6130e590919063ffffffff16565b8360010181905550610dd57f7444a57c42fcc55b96bdb388d0ce2a5484f7d66351321158d6945958a796996b60001b6130cc565b610e017fd4718fea819d33f51a51c3078c228e3177bd575001a915c119f2e94211ee8f8a60001b6130cc565b610e3164e8d4a51000610e23600c5486600001546130cf90919063ffffffff16565b6130e590919063ffffffff16565b8360020181905550610e657f9ae69ff15a591c405925ce5bb3e7d8dc064065a9ecf75a152f613e6d9b80166760001b6130cc565b610e917fdbb63cb171628a98c512be3b0392afefd60dd83362e8d7e06bfe373d64d1ae7b60001b6130cc565b600160009054906101000a900473ffffffffffffffffffffffffffffffffffffffff1673ffffffffffffffffffffffffffffffffffffffff1663a9059cbb33866040518363ffffffff1660e01b8152600401610eee929190613640565b6020604051808303816000875af1158015610f0d573d6000803e3d6000fd5b505050506040513d601f19601f82011682018060405250810190610f3191906136a1565b50610f5e7f68ecabdc875cbe98ec19df423b1c9ddde574cd67454794d58601a1bbc70692f160001b6130cc565b610f8a7fc852c7da49ecec354fea50b2ae052f574f35b518823464846892b83295a5812160001b6130cc565b3373ffffffffffffffffffffffffffffffffffffffff167f884edad9ce6fa2440d8a54cc123490eb96d2768479d49ff9c7366125a942436485604051610fd091906133aa565b60405180910390a250505050565b60065481565b6110107f163efd95c0fcd01cf405ae9bf40c58831c73a6e5d1060a99d5dc0250282a791a60001b6130cc565b61103c7f46c38433840fec8e3f6c43710f4199170e9aed76453107b7d650a1e341d3070c60001b6130cc565b6110687f481cd945a98dbfd66268a82f3e06192c692cd1c5e805f2fec7fa3cdc88f9503760001b6130cc565b6000600d60003373ffffffffffffffffffffffffffffffffffffffff1673ffffffffffffffffffffffffffffffffffffffff16815260200190815260200160002090506110d77f71700352d026fd30c09c401c089300769eb9eed141f9c4cdce6304aa66864bf560001b6130cc565b6111037fecff65ab10f7dbd7886b785e37f4ca434d26f04ffd018a5865852a51b6ee3a9160001b6130cc565b61110b6118eb565b6111377f98658d91883bddb9c2b2d69e6b305ccc446532db482c7b6511c19201c32c120360001b6130cc565b6111637f5ada061393f614a3aef5b81c6688ce5da4f489821f61ba251a928b12a878d2ce60001b6130cc565b60008061116f33612f14565b9150915061119f7f47c27ef9bd39aef1ed7f11b202c1c4ce20e5f5906ab03656a5f6321b5c8d63a060001b6130cc565b6111cb7fb7e7005b2a03fc0df5c9ae3cac52a6a6fb746b489a2fa0d14064dd7c143f32af60001b6130cc565b600260009054906101000a900473ffffffffffffffffffffffffffffffffffffffff1673ffffffffffffffffffffffffffffffffffffffff1663a9059cbb600960009054906101000a900473ffffffffffffffffffffffffffffffffffffffff166112536064611245600a886130cf90919063ffffffff16565b6130e590919063ffffffff16565b6040518363ffffffff1660e01b8152600401611270929190613640565b6020604051808303816000875af115801561128f573d6000803e3d6000fd5b505050506040513d601f19601f820116820180604052508101906112b391906136a1565b506112e07fb2530e912c4bdd90bd450833304cf938b87df580ac0c20ba963fc9b3a545444560001b6130cc565b61130c7fd78940fbc99f24d70592360806257fcb31cb054c50bd9a9060c38a61af9ae65b60001b6130cc565b600360009054906101000a900473ffffffffffffffffffffffffffffffffffffffff1673ffffffffffffffffffffffffffffffffffffffff1663a9059cbb600960009054906101000a900473ffffffffffffffffffffffffffffffffffffffff166113946064611386600a876130cf90919063ffffffff16565b6130e590919063ffffffff16565b6040518363ffffffff1660e01b81526004016113b1929190613640565b6020604051808303816000875af11580156113d0573d6000803e3d6000fd5b505050506040513d601f19601f820116820180604052508101906113f491906136a1565b506114217fcf990b4cf8400ab73e95c06c2c739f574237cffd6a0b71afe993d00d40439b5260001b6130cc565b61144d7f5453dd67a714e96eaf36e746f2170f1456d82ca091d72f81e6b13a22e8f8b77d60001b6130cc565b600260009054906101000a900473ffffffffffffffffffffffffffffffffffffffff1673ffffffffffffffffffffffffffffffffffffffff1663a9059cbb336114c56114b660646114a8600a896130cf90919063ffffffff16565b6130e590919063ffffffff16565b866130fb90919063ffffffff16565b6040518363ffffffff1660e01b81526004016114e2929190613640565b6020604051808303816000875af1158015611501573d6000803e3d6000fd5b505050506040513d601f19601f8201168201806040525081019061152591906136a1565b506115527f52fd9a2328bd417843348ce0ec1f9ef5d78fc56a5b647bcfb5ff9b99c9811c3360001b6130cc565b61157e7f69e437e07a057b2bf0df0b7094b63057076d2b9c126ff1f436ad2eaca922ce1a60001b6130cc565b600360009054906101000a900473ffffffffffffffffffffffffffffffffffffffff1673ffffffffffffffffffffffffffffffffffffffff1663a9059cbb336115f66115e760646115d9600a886130cf90919063ffffffff16565b6130e590919063ffffffff16565b856130fb90919063ffffffff16565b6040518363ffffffff1660e01b8152600401611613929190613640565b6020604051808303816000875af1158015611632573d6000803e3d6000fd5b505050506040513d601f19601f8201168201806040525081019061165691906136a1565b506116837f1a3466a782673b46d00015ab0ca081a908214134462b8d579e5309f15d6531a960001b6130cc565b6116af7f0423a46eaf8b0e7dd3ea9421e66aebdbd5177e95b10be84c6e200531d961a5b360001b6130cc565b6116df64e8d4a510006116d1600b5486600001546130cf90919063ffffffff16565b6130e590919063ffffffff16565b83600101819055506117137ff5053479e6daeff425e47307fe25375b3ec2efd219e2f1ce56fbb62e21ac84ac60001b6130cc565b61173f7faa3af3b9313ec6b240611f8a742881a480bfee4b8066049cad41359af58dc83b60001b6130cc565b61176f64e8d4a51000611761600c5486600001546130cf90919063ffffffff16565b6130e590919063ffffffff16565b83600201819055506117a37fb5ca7f3a10510eb5ee1803fdf267d8bc5f19fe1eb496db4f533a99779806480260001b6130cc565b6117cf7f58180c371a7ed561c074362957b57664e01952fdade4c334ecb983d7e76a5f8860001b6130cc565b3373ffffffffffffffffffffffffffffffffffffffff167f34fcbac0073d7c3d388e51312faf357774904998eeb8fca628b9e6f65ee1cbf783836040516118179291906134a5565b60405180910390a2505050565b600b5481565b600c5481565b600960009054906101000a900473ffffffffffffffffffffffffffffffffffffffff1681565b60045481565b600260009054906101000a900473ffffffffffffffffffffffffffffffffffffffff1681565b61188a613111565b611894600061318f565b565b600160009054906101000a900473ffffffffffffffffffffffffffffffffffffffff1681565b60055481565b60008060009054906101000a900473ffffffffffffffffffffffffffffffffffffffff16905090565b6119177f8b33ca965cd84eee4905d32a563f7a33ce8d32b99acbe8dc704e1e52716511ef60001b6130cc565b6119437f78803c8fd0c21196192557b551a5e375e1dbc5180b55c0e46979e818c8e4bcd460001b6130cc565b61196f7f8bd9782457819c999f9a6021c97f817479458be995e57df0604017aac689c3b560001b6130cc565b6000600160009054906101000a900473ffffffffffffffffffffffffffffffffffffffff1673ffffffffffffffffffffffffffffffffffffffff166370a08231306040518263ffffffff1660e01b81526004016119cc91906133d4565b602060405180830381865afa1580156119e9573d6000803e3d6000fd5b505050506040513d601f19601f82011682018060405250810190611a0d91906136e3565b9050611a3b7f4ad08c7d54ce1af267eb5edc0ac476f7bc43f7d58e07f30d216bea2bb9290b1460001b6130cc565b611a677f73dfb2becb8b618ed1cac97f95c6332fea6cea5000a7c0ad55a4d792f363f33460001b6130cc565b60008103611b5857611a9b7fd0be4e7ee4019ccb656647d51c6f01ac5a4f5e81f6304c61cb5ea5afb276924360001b6130cc565b611ac77ffa2919cc9e514654f52331d030048061864326773cb527c8a64818968e985b7160001b6130cc565b611af37f371e545a68a42c958531e217894f7ad78349e056cfb2d4bbd12bb1596ea206c060001b6130cc565b43600a81905550611b267f98af5338dcc8f30ddecee444b0ec20e02f363874543d497e7a20dbcf580e382260001b6130cc565b611b527f96581c54aaa55e1ef43dd83e505b9b19719ab30e842119d0ede7160fd0cefcfb60001b6130cc565b50612041565b611b847fb86de7dbdcc786d026000b1980c9c1fa500965c8d3b16efc79fc2f27a3b564d360001b6130cc565b611bb07f4739afbff182d5ce458f3c1da943009c454923ccdee12f27bee1e93bd07c511060001b6130cc565b611bdc7f312231ac8ea0f2b11eb9c88694702945a760138cc3c70788f186038ea53270ed60001b6130cc565b6000611bf3600a54436130fb90919063ffffffff16565b9050611c217ff99a3be7b1a0bdec0d22d076b810f385612e4ec6edc87c2b52b5f32b9b282afc60001b6130cc565b611c4d7fddfe8749ef193468f20e46e3146aac76e36e9a4c094012bcbba9238e2116560d60001b6130cc565b6000611c64600754836130cf90919063ffffffff16565b9050611c927f0a2d92700008ce2096f8b770e4f67ac6bd2606c8b5349608bf358c2dde1d64a160001b6130cc565b611cbe7f7a3f41ca3de2c9bdf31b70f0bf1462e9422b540526d16b52ea3a25d97424fc9d60001b6130cc565b6000611cd5600854846130cf90919063ffffffff16565b9050611d037f9394140502e6d3c60bd5b382820e371ffd5a50459d5776e1bf757c210234072860001b6130cc565b611d2f7fe76e9241d23b8391fb238119803a39f06a50e7a11dee49e1e25c6828e33c65f460001b6130cc565b600260009054906101000a900473ffffffffffffffffffffffffffffffffffffffff1673ffffffffffffffffffffffffffffffffffffffff166340c10f1930846040518363ffffffff1660e01b8152600401611d8c929190613640565b600060405180830381600087803b158015611da657600080fd5b505af1158015611dba573d6000803e3d6000fd5b50505050611dea7f2e5418f9dbf448985e13b484b05ec761c8b1b1725739bf4437f4979154cb47a360001b6130cc565b611e167fa64e234ebe303898e7e89f4ad909a9111b9a25df82ed4e0e82e52ea5dbf4b78760001b6130cc565b600360009054906101000a900473ffffffffffffffffffffffffffffffffffffffff1673ffffffffffffffffffffffffffffffffffffffff166340c10f1930836040518363ffffffff1660e01b8152600401611e73929190613640565b600060405180830381600087803b158015611e8d57600080fd5b505af1158015611ea1573d6000803e3d6000fd5b50505050611ed17f5f50c97d463508e754dfbed200d2cf93f49acffe897c7a3971ccdb11895a144260001b6130cc565b611efd7f668e1a6affd172f0471b55084c9919e5f6dbde0347f0dabed018f4185fe4416160001b6130cc565b611f3b611f2a85611f1c64e8d4a51000866130cf90919063ffffffff16565b6130e590919063ffffffff16565b600b5461325390919063ffffffff16565b600b81905550611f6d7fe34ae497c447e275d8594aa1ace7f7e708dd6627d5bec1167185959e0fd96e2960001b6130cc565b611f997ffcd6f6e98932ba16a3f6f336c932d4c21326299dae2f2b1988a4f007e108f7e960001b6130cc565b611fd7611fc685611fb864e8d4a51000856130cf90919063ffffffff16565b6130e590919063ffffffff16565b600c5461325390919063ffffffff16565b600c819055506120097f8299e62e43cd85c93facf59ead9547841835e1b5d8494ab572ba5409d3e7e11a60001b6130cc565b6120357f3efd53f86eafd146a783e5a89b1c774fb66dfe423c59d1ce43aed7f60a8fd92a60001b6130cc565b43600a81905550505050505b565b60075481565b600a5481565b61207b7f7307cce97a14fdbb2cc6d37688404df6d94caf37c1276080c7023ad1406e628b60001b6130cc565b6120a77f13f9a961277fb7e241c3cb75f4d0e69f7a1c40ccb85adb4dbe393439b20dfb4f60001b6130cc565b6120d37fcac5483ccc48366c846c65a1fbec64aeaff122f5359d659ce5ba5ba28ddd729960001b6130cc565b6120ff7f51ab597ebf2b7d8b37177ac7005264b805f96c5ce6cbb1af9c946e4d91760c6760001b6130cc565b60008111612142576040517f08c379a00000000000000000000000000000000000000000000000000000000081526004016121399061352b565b60405180910390fd5b61216e7ff832d15e714aa0eca0213997867e773b6d294f0319f72463fbed104cf82dc10c60001b6130cc565b61219a7f593d851aa6efac8d7e5254179f98f25d30b44e867b5e865ea5999150cd8c508b60001b6130cc565b6121c67fbc39619d7299160282ba32b513aa436b750eaab30218aba7596177b449de669360001b6130cc565b6000600d60003373ffffffffffffffffffffffffffffffffffffffff1673ffffffffffffffffffffffffffffffffffffffff16815260200190815260200160002090506122357fc256e7cf217d23f2cbfc5f5700506db6928a88fad203c786551db12f88d67cbe60001b6130cc565b6122617f3be5eb80a6290ed5ee928e769c75b5921effd3c96830f917e6f67b52cb32c8e760001b6130cc565b6122696118eb565b6122957f0eab8462f5437c3c3d04f2ef61184e260497049bb2ce3e5bc0e54cf75287032a60001b6130cc565b6122c17f99b41c0ac38ea8262ea69fb8bcee34022dea7bb965aa4d8fb1ab5875d7ef3b7260001b6130cc565b60008160000154111561284d576122fa7f709e603ded08fc068ec8588b94105299a8f9c9b11a542ab1557da2ba55d32fba60001b6130cc565b6123267f1d7fce82212b9e7bebeecb5b7ed6179274e6e02b5f20bb565da055000803090b60001b6130cc565b6123527f71bebb7fffb3ddfdee9ed3ec856d5304e38b94b3f164745bb124bd136e11736060001b6130cc565b60008061235e33612f14565b9150915061238e7fbc902cf53a2c2b122686dc30d41e1afa5e07fb29fdcb329f62e54dd173a89b9f60001b6130cc565b6123ba7f45621b2018cc4fea3f0eae407ae5303b8f34b9bdf4f9b3f0724ac5ca8103185860001b6130cc565b600260009054906101000a900473ffffffffffffffffffffffffffffffffffffffff1673ffffffffffffffffffffffffffffffffffffffff1663a9059cbb600960009054906101000a900473ffffffffffffffffffffffffffffffffffffffff166124426064612434600a886130cf90919063ffffffff16565b6130e590919063ffffffff16565b6040518363ffffffff1660e01b815260040161245f929190613640565b6020604051808303816000875af115801561247e573d6000803e3d6000fd5b505050506040513d601f19601f820116820180604052508101906124a291906136a1565b506124cf7f52ee005e1ee526a685b84fbc76533f480b2d9a44c6553fee8a1c5bc28294c68e60001b6130cc565b6124fb7fd3a4c9eeee7a4d05cf5f9dfc8d434fb70c8c2b84ab676ecfc49b8ea0080d1a7c60001b6130cc565b600360009054906101000a900473ffffffffffffffffffffffffffffffffffffffff1673ffffffffffffffffffffffffffffffffffffffff1663a9059cbb600960009054906101000a900473ffffffffffffffffffffffffffffffffffffffff166125836064612575600a876130cf90919063ffffffff16565b6130e590919063ffffffff16565b6040518363ffffffff1660e01b81526004016125a0929190613640565b6020604051808303816000875af11580156125bf573d6000803e3d6000fd5b505050506040513d601f19601f820116820180604052508101906125e391906136a1565b506126107f997a9c10bd33ac6632c873fd31e623638c02c3bd4a764628a6dcbc3a33ccefdb60001b6130cc565b61263c7f1bce3b53465cd09baf2ad3530575c4e77837c4cab74b6dead610857391c10cc860001b6130cc565b600260009054906101000a900473ffffffffffffffffffffffffffffffffffffffff1673ffffffffffffffffffffffffffffffffffffffff1663a9059cbb336126b46126a56064612697600a896130cf90919063ffffffff16565b6130e590919063ffffffff16565b866130fb90919063ffffffff16565b6040518363ffffffff1660e01b81526004016126d1929190613640565b6020604051808303816000875af11580156126f0573d6000803e3d6000fd5b505050506040513d601f19601f8201168201806040525081019061271491906136a1565b506127417f31865ce197f4b0e6f26aceed32f175667a7e6fec6e166f41c8647715242e750360001b6130cc565b61276d7f45133126c09243e775cc5537981579beb452e42656a6e37ab28772e7aa36d6ec60001b6130cc565b600360009054906101000a900473ffffffffffffffffffffffffffffffffffffffff1673ffffffffffffffffffffffffffffffffffffffff1663a9059cbb336127e56127d660646127c8600a886130cf90919063ffffffff16565b6130e590919063ffffffff16565b856130fb90919063ffffffff16565b6040518363ffffffff1660e01b8152600401612802929190613640565b6020604051808303816000875af1158015612821573d6000803e3d6000fd5b505050506040513d601f19601f8201168201806040525081019061284591906136a1565b50505061287a565b6128797fe49b53985db78286ea2f5bcfa65b3c057b9fa85177ae9cc1034e9d34482d9f6760001b6130cc565b5b6128a67fcfe76be50b3ff5f60c86f16e7f2f04c1a85db63e7927d0d014e3a1f66784b43960001b6130cc565b6128d27ffd8c0ce99c9f7c2a4eb751c9529d203b671a9206938938d47a42ab621b63172060001b6130cc565b60006064600454846128e49190613710565b6128ee9190613781565b905061291c7ff66d83df518cd9e8c95d24234447943e589080742c9069a48e91d728c9b868ed60001b6130cc565b6129487f38d417ad5a3ee9342b32d4ecbfe22a3364af5fbfce152d9385e6a6794009efad60001b6130cc565b60008184612956919061357a565b90506129847f77e612d03bc4d72cf90c7c310cfee625a2db307762e9ae9795a616ed29fb538e60001b6130cc565b6129b07f53405e789bc265df0bace73d148890bb7fac4fd359327fa82be698f66e206f5b60001b6130cc565b600160009054906101000a900473ffffffffffffffffffffffffffffffffffffffff1673ffffffffffffffffffffffffffffffffffffffff166323b872dd3330876040518463ffffffff1660e01b8152600401612a0f939291906137b2565b6020604051808303816000875af1158015612a2e573d6000803e3d6000fd5b505050506040513d601f19601f82011682018060405250810190612a5291906136a1565b50612a7f7f538a8cc4ca32b29c8251ecec430852f96bb7e5786276c1fa8f2b6549942d9ce260001b6130cc565b612aab7f9d48e3e198d70f0e7a5adb8583e5d6a53832778c477dbd505d853c2bd2c3032260001b6130cc565b600160009054906101000a900473ffffffffffffffffffffffffffffffffffffffff1673ffffffffffffffffffffffffffffffffffffffff1663a9059cbb600960009054906101000a900473ffffffffffffffffffffffffffffffffffffffff16846040518363ffffffff1660e01b8152600401612b2a929190613640565b6020604051808303816000875af1158015612b49573d6000803e3d6000fd5b505050506040513d601f19601f82011682018060405250810190612b6d91906136a1565b50612b9a7f8dce8051929d4cc61d7c6aa747b53ae34776830b3de200b06fa017153f37cb1260001b6130cc565b612bc67f24e532ad4fc179bba85aedac039adf90ad2ddffdb7d4537bd78cfa209b79ccc160001b6130cc565b612bdd81846000015461325390919063ffffffff16565b8360000181905550612c117feccdbba6067a55711585414baf67ee516d400ebbbf3e1f504fa0146d459b437b60001b6130cc565b612c3d7f0e706aa8dfd078fc9d2a7fd516e07fccb98468cff7ea5d86c2d348135fba544a60001b6130cc565b612c6d64e8d4a51000612c5f600b5486600001546130cf90919063ffffffff16565b6130e590919063ffffffff16565b8360010181905550612ca17f441f9f04d9ea35119229033a22dd41b848b0a6c406238ef992bd33778ef0eba860001b6130cc565b612ccd7f415db434b90baf4582a9babb8a7e2469b4aaf705508dbbc2fd5bb5f0ef5ead3660001b6130cc565b612cfd64e8d4a51000612cef600c5486600001546130cf90919063ffffffff16565b6130e590919063ffffffff16565b8360020181905550612d317f912041ec950b16f0c18cf10df45f85fb885e94e071d18b3aeeb4270d8dedb87d60001b6130cc565b612d5d7f752afa3f1db3d6c3ddeb4543e506ec7d5419bce862a9b7c2d3dab679931414e960001b6130cc565b42600e60003373ffffffffffffffffffffffffffffffffffffffff1673ffffffffffffffffffffffffffffffffffffffff16815260200190815260200160002081905550612dcd7f9053a95e374859cb2ad2e637222ced51dcd732a4558bbded09ecbb11aae1e04c60001b6130cc565b612df97f2f38c748040d2a314f2ad913a7e7abe08ec8e3bb556b419694aba1353473f94a60001b6130cc565b3373ffffffffffffffffffffffffffffffffffffffff167fe1fffcc4923d04b559f4d29a8bfc6cda04eb5b0d3c460751c2402c5c5cc9109c82604051612e3f91906133aa565b60405180910390a250505050565b600e6020528060005260406000206000915090505481565b600360009054906101000a900473ffffffffffffffffffffffffffffffffffffffff1681565b60085481565b612e99613111565b600073ffffffffffffffffffffffffffffffffffffffff168173ffffffffffffffffffffffffffffffffffffffff1603612f08576040517f08c379a0000000000000000000000000000000000000000000000000000000008152600401612eff9061385b565b60405180910390fd5b612f118161318f565b50565b600080612f437fe471d89dba23ba6ab08915c725c864295e60bde82a19c2674da332a0540a756c60001b6130cc565b612f6f7f0acd70fd8d06675ead35628ff79d7da65822fef3bc8d55446c8aeaea872d4d6460001b6130cc565b612f9b7fd2f65ef0afa4cb06f78f11876250c4627e7ebd3b40c4c43fd8b9d6f7af5d134b60001b6130cc565b6000600d60008573ffffffffffffffffffffffffffffffffffffffff1673ffffffffffffffffffffffffffffffffffffffff168152602001908152602001600020905061300a7f4484eb503f91cdc044a4280a4c211968aac5046998d9b12384ec1b3b6c1415b660001b6130cc565b6130367f1bf65a14ab35b1ba0c2a3a5a509a4c8885b01ea9ae47d1f6cd51101ca4634fe160001b6130cc565b61307c816001015461306e64e8d4a51000613060600b5486600001546130cf90919063ffffffff16565b6130e590919063ffffffff16565b6130fb90919063ffffffff16565b6130c282600201546130b464e8d4a510006130a6600c5487600001546130cf90919063ffffffff16565b6130e590919063ffffffff16565b6130fb90919063ffffffff16565b9250925050915091565b50565b600081836130dd9190613710565b905092915050565b600081836130f39190613781565b905092915050565b60008183613109919061357a565b905092915050565b613119613269565b73ffffffffffffffffffffffffffffffffffffffff166131376118c2565b73ffffffffffffffffffffffffffffffffffffffff161461318d576040517f08c379a0000000000000000000000000000000000000000000000000000000008152600401613184906138c7565b60405180910390fd5b565b60008060009054906101000a900473ffffffffffffffffffffffffffffffffffffffff169050816000806101000a81548173ffffffffffffffffffffffffffffffffffffffff021916908373ffffffffffffffffffffffffffffffffffffffff1602179055508173ffffffffffffffffffffffffffffffffffffffff168173ffffffffffffffffffffffffffffffffffffffff167f8be0079c531659141344cd1fd0a4f28419497f9722a3daafe3b4186f6b6457e060405160405180910390a35050565b6000818361326191906138e7565b905092915050565b600033905090565b600080fd5b600073ffffffffffffffffffffffffffffffffffffffff82169050919050565b60006132a182613276565b9050919050565b6132b181613296565b81146132bc57600080fd5b50565b6000813590506132ce816132a8565b92915050565b6000602082840312156132ea576132e9613271565b5b60006132f8848285016132bf565b91505092915050565b6000819050919050565b61331481613301565b82525050565b600060608201905061332f600083018661330b565b61333c602083018561330b565b613349604083018461330b565b949350505050565b61335a81613301565b811461336557600080fd5b50565b60008135905061337781613351565b92915050565b60006020828403121561339357613392613271565b5b60006133a184828501613368565b91505092915050565b60006020820190506133bf600083018461330b565b92915050565b6133ce81613296565b82525050565b60006020820190506133e960008301846133c5565b92915050565b6000819050919050565b600061341461340f61340a84613276565b6133ef565b613276565b9050919050565b6000613426826133f9565b9050919050565b60006134388261341b565b9050919050565b6134488161342d565b82525050565b6000602082019050613463600083018461343f565b92915050565b60006134748261341b565b9050919050565b61348481613469565b82525050565b600060208201905061349f600083018461347b565b92915050565b60006040820190506134ba600083018561330b565b6134c7602083018461330b565b9392505050565b600082825260208201905092915050565b7f416d6f756e74206d7573742062652067726561746572207468616e2030000000600082015250565b6000613515601d836134ce565b9150613520826134df565b602082019050919050565b6000602082019050818103600083015261354481613508565b9050919050565b7f4e487b7100000000000000000000000000000000000000000000000000000000600052601160045260246000fd5b600061358582613301565b915061359083613301565b92508282039050818111156135a8576135a761354b565b5b92915050565b7f43616e206e6f7420776974686472617720696e206c6f636b5f706572696f642060008201527f74696d6500000000000000000000000000000000000000000000000000000000602082015250565b600061360a6024836134ce565b9150613615826135ae565b604082019050919050565b60006020820190508181036000830152613639816135fd565b9050919050565b600060408201905061365560008301856133c5565b613662602083018461330b565b9392505050565b60008115159050919050565b61367e81613669565b811461368957600080fd5b50565b60008151905061369b81613675565b92915050565b6000602082840312156136b7576136b6613271565b5b60006136c58482850161368c565b91505092915050565b6000815190506136dd81613351565b92915050565b6000602082840312156136f9576136f8613271565b5b6000613707848285016136ce565b91505092915050565b600061371b82613301565b915061372683613301565b925082820261373481613301565b9150828204841483151761374b5761374a61354b565b5b5092915050565b7f4e487b7100000000000000000000000000000000000000000000000000000000600052601260045260246000fd5b600061378c82613301565b915061379783613301565b9250826137a7576137a6613752565b5b828204905092915050565b60006060820190506137c760008301866133c5565b6137d460208301856133c5565b6137e1604083018461330b565b949350505050565b7f4f776e61626c653a206e6577206f776e657220697320746865207a65726f206160008201527f6464726573730000000000000000000000000000000000000000000000000000602082015250565b60006138456026836134ce565b9150613850826137e9565b604082019050919050565b6000602082019050818103600083015261387481613838565b9050919050565b7f4f776e61626c653a2063616c6c6572206973206e6f7420746865206f776e6572600082015250565b60006138b16020836134ce565b91506138bc8261387b565b602082019050919050565b600060208201905081810360008301526138e0816138a4565b9050919050565b60006138f282613301565b91506138fd83613301565b92508282019050808211156139155761391461354b565b5b9291505056fea2646970667358221220ecf3edb98c1a856f3754b18cf9da1d4802da4e149059af21d9a790d8c97de1a964736f6c63430008120033",
  "linkReferences": {},
  "deployedLinkReferences": {}
}