{
  "_format": "hh-sol-artifact-1",
  "contractName": "YieldFarming",
  "sourceName": "contracts/YieldFarming.sol",
  "abi": [
    {
      "inputs": [
        {
          "internalType": "contract IERC20",
          "name": "_stakingToken",
          "type": "address"
        },
        {
          "internalType": "contract IERC20",
          "name": "_rewardToken1",
          "type": "address"
        },
        {
          "internalType": "contract IERC20",
          "name": "_rewardToken2",
          "type": "address"
        },
        {
          "internalType": "uint256",
          "name": "_depositFee",
          "type": "uint256"
        },
        {
          "internalType": "uint256",
          "name": "_treasuryFee",
          "type": "uint256"
        },
        {
          "internalType": "address",
          "name": "_treasury",
          "type": "address"
        },
        {
          "internalType": "uint256",
          "name": "_reward1PerBlock",
          "type": "uint256"
        },
        {
          "internalType": "uint256",
          "name": "_reward2PerBlock",
          "type": "uint256"
        }
      ],
      "stateMutability": "nonpayable",
      "type": "constructor"
    },
    {
      "anonymous": false,
      "inputs": [
        {
          "indexed": true,
          "internalType": "address",
          "name": "user",
          "type": "address"
        },
        {
          "indexed": false,
          "internalType": "uint256",
          "name": "amount",
          "type": "uint256"
        }
      ],
      "name": "Claim",
      "type": "event"
    },
    {
      "anonymous": false,
      "inputs": [
        {
          "indexed": true,
          "internalType": "address",
          "name": "user",
          "type": "address"
        },
        {
          "indexed": false,
          "internalType": "uint256",
          "name": "amount",
          "type": "uint256"
        }
      ],
      "name": "Deposit",
      "type": "event"
    },
    {
      "anonymous": false,
      "inputs": [
        {
          "indexed": true,
          "internalType": "address",
          "name": "previousOwner",
          "type": "address"
        },
        {
          "indexed": true,
          "internalType": "address",
          "name": "newOwner",
          "type": "address"
        }
      ],
      "name": "OwnershipTransferred",
      "type": "event"
    },
    {
      "anonymous": false,
      "inputs": [
        {
          "indexed": true,
          "internalType": "address",
          "name": "user",
          "type": "address"
        },
        {
          "indexed": false,
          "internalType": "uint256",
          "name": "amount",
          "type": "uint256"
        }
      ],
      "name": "Withdraw",
      "type": "event"
    },
    {
      "inputs": [],
      "name": "claim",
      "outputs": [],
      "stateMutability": "nonpayable",
      "type": "function"
    },
    {
      "inputs": [
        {
          "internalType": "uint256",
          "name": "amount",
          "type": "uint256"
        }
      ],
      "name": "deposit",
      "outputs": [],
      "stateMutability": "nonpayable",
      "type": "function"
    },
    {
      "inputs": [],
      "name": "depositFee",
      "outputs": [
        {
          "internalType": "uint256",
          "name": "",
          "type": "uint256"
        }
      ],
      "stateMutability": "view",
      "type": "function"
    },
    {
      "inputs": [
        {
          "internalType": "uint256",
          "name": "income",
          "type": "uint256"
        }
      ],
      "name": "distributionProfit",
      "outputs": [],
      "stateMutability": "nonpayable",
      "type": "function"
    },
    {
      "inputs": [
        {
          "internalType": "address",
          "name": "staker",
          "type": "address"
        }
      ],
      "name": "getLockedAmount",
      "outputs": [
        {
          "internalType": "uint256",
          "name": "",
          "type": "uint256"
        }
      ],
      "stateMutability": "view",
      "type": "function"
    },
    {
      "inputs": [
        {
          "internalType": "address",
          "name": "",
          "type": "address"
        }
      ],
      "name": "lastRewardBlockNumbers",
      "outputs": [
        {
          "internalType": "uint256",
          "name": "",
          "type": "uint256"
        }
      ],
      "stateMutability": "view",
      "type": "function"
    },
    {
      "inputs": [],
      "name": "lockPeriod",
      "outputs": [
        {
          "internalType": "uint256",
          "name": "",
          "type": "uint256"
        }
      ],
      "stateMutability": "view",
      "type": "function"
    },
    {
      "inputs": [],
      "name": "owner",
      "outputs": [
        {
          "internalType": "address",
          "name": "",
          "type": "address"
        }
      ],
      "stateMutability": "view",
      "type": "function"
    },
    {
      "inputs": [
        {
          "internalType": "address",
          "name": "user",
          "type": "address"
        }
      ],
      "name": "pendingReward",
      "outputs": [
        {
          "internalType": "uint256",
          "name": "",
          "type": "uint256"
        },
        {
          "internalType": "uint256",
          "name": "",
          "type": "uint256"
        }
      ],
      "stateMutability": "view",
      "type": "function"
    },
    {
      "inputs": [],
      "name": "renounceOwnership",
      "outputs": [],
      "stateMutability": "nonpayable",
      "type": "function"
    },
    {
      "inputs": [],
      "name": "reward1PerBlock",
      "outputs": [
        {
          "internalType": "uint256",
          "name": "",
          "type": "uint256"
        }
      ],
      "stateMutability": "view",
      "type": "function"
    },
    {
      "inputs": [],
      "name": "reward2PerBlock",
      "outputs": [
        {
          "internalType": "uint256",
          "name": "",
          "type": "uint256"
        }
      ],
      "stateMutability": "view",
      "type": "function"
    },
    {
      "inputs": [],
      "name": "rewardToken1",
      "outputs": [
        {
          "internalType": "contract IERC20",
          "name": "",
          "type": "address"
        }
      ],
      "stateMutability": "view",
      "type": "function"
    },
    {
      "inputs": [],
      "name": "rewardToken2",
      "outputs": [
        {
          "internalType": "contract IERC20",
          "name": "",
          "type": "address"
        }
      ],
      "stateMutability": "view",
      "type": "function"
    },
    {
      "inputs": [
        {
          "internalType": "address",
          "name": "",
          "type": "address"
        }
      ],
      "name": "stakedBalances",
      "outputs": [
        {
          "internalType": "uint256",
          "name": "",
          "type": "uint256"
        }
      ],
      "stateMutability": "view",
      "type": "function"
    },
    {
      "inputs": [],
      "name": "stakingReward",
      "outputs": [
        {
          "internalType": "uint256",
          "name": "",
          "type": "uint256"
        }
      ],
      "stateMutability": "view",
      "type": "function"
    },
    {
      "inputs": [],
      "name": "stakingToken",
      "outputs": [
        {
          "internalType": "contract IERC20",
          "name": "",
          "type": "address"
        }
      ],
      "stateMutability": "view",
      "type": "function"
    },
    {
      "inputs": [],
      "name": "totalStaked",
      "outputs": [
        {
          "internalType": "uint256",
          "name": "",
          "type": "uint256"
        }
      ],
      "stateMutability": "view",
      "type": "function"
    },
    {
      "inputs": [
        {
          "internalType": "address",
          "name": "newOwner",
          "type": "address"
        }
      ],
      "name": "transferOwnership",
      "outputs": [],
      "stateMutability": "nonpayable",
      "type": "function"
    },
    {
      "inputs": [],
      "name": "treasury",
      "outputs": [
        {
          "internalType": "address",
          "name": "",
          "type": "address"
        }
      ],
      "stateMutability": "view",
      "type": "function"
    },
    {
      "inputs": [],
      "name": "treasuryFee",
      "outputs": [
        {
          "internalType": "uint256",
          "name": "",
          "type": "uint256"
        }
      ],
      "stateMutability": "view",
      "type": "function"
    },
    {
      "inputs": [
        {
          "internalType": "uint256",
          "name": "amount",
          "type": "uint256"
        }
      ],
      "name": "withdraw",
      "outputs": [],
      "stateMutability": "nonpayable",
      "type": "function"
    }
  ],
  "bytecode": "0x608060405262278d006007553480156200001857600080fd5b50604051620020403803806200204083398181016040528101906200003e91906200034a565b6200005e620000526200019460201b60201c565b6200019c60201b60201c565b87600160006101000a81548173ffffffffffffffffffffffffffffffffffffffff021916908373ffffffffffffffffffffffffffffffffffffffff16021790555086600260006101000a81548173ffffffffffffffffffffffffffffffffffffffff021916908373ffffffffffffffffffffffffffffffffffffffff16021790555085600360006101000a81548173ffffffffffffffffffffffffffffffffffffffff021916908373ffffffffffffffffffffffffffffffffffffffff160217905550846004819055508360058190555082600f60006101000a81548173ffffffffffffffffffffffffffffffffffffffff021916908373ffffffffffffffffffffffffffffffffffffffff16021790555081600881905550806009819055506000600a81905550505050505050505062000413565b600033905090565b60008060009054906101000a900473ffffffffffffffffffffffffffffffffffffffff169050816000806101000a81548173ffffffffffffffffffffffffffffffffffffffff021916908373ffffffffffffffffffffffffffffffffffffffff1602179055508173ffffffffffffffffffffffffffffffffffffffff168173ffffffffffffffffffffffffffffffffffffffff167f8be0079c531659141344cd1fd0a4f28419497f9722a3daafe3b4186f6b6457e060405160405180910390a35050565b600080fd5b600073ffffffffffffffffffffffffffffffffffffffff82169050919050565b6000620002928262000265565b9050919050565b6000620002a68262000285565b9050919050565b620002b88162000299565b8114620002c457600080fd5b50565b600081519050620002d881620002ad565b92915050565b6000819050919050565b620002f381620002de565b8114620002ff57600080fd5b50565b6000815190506200031381620002e8565b92915050565b620003248162000285565b81146200033057600080fd5b50565b600081519050620003448162000319565b92915050565b600080600080600080600080610100898b0312156200036e576200036d62000260565b5b60006200037e8b828c01620002c7565b9850506020620003918b828c01620002c7565b9750506040620003a48b828c01620002c7565b9650506060620003b78b828c0162000302565b9550506080620003ca8b828c0162000302565b94505060a0620003dd8b828c0162000333565b93505060c0620003f08b828c0162000302565b92505060e0620004038b828c0162000302565b9150509295985092959890939650565b611c1d80620004236000396000f3fe608060405234801561001057600080fd5b50600436106101425760003560e01c8063817b1cd2116100b8578063b6b55f251161007c578063b6b55f2514610331578063cc32d1761461034d578063d61a47f11461036b578063ea02b0e514610389578063f2fde38b146103a7578063f40f0f52146103c357610142565b8063817b1cd21461028b5780638a8f7b1d146102a95780638da5cb5b146102c5578063929ec537146102e3578063a36e86001461031357610142565b80634e71d92d1161010a5780634e71d92d146101ff57806361d027b31461020957806367a52793146102275780636f28d68814610245578063715018a61461026357806372f702f31461026d57610142565b8063042249bb146101475780631460fa87146101655780632e1a7d4d146101955780633fd8b02f146101b15780634980d6da146101cf575b600080fd5b61014f6103f4565b60405161015c9190611594565b60405180910390f35b61017f600480360381019061017a9190611612565b6103fa565b60405161018c9190611594565b60405180910390f35b6101af60048036038101906101aa919061166b565b610412565b005b6101b96107e9565b6040516101c69190611594565b60405180910390f35b6101e960048036038101906101e49190611612565b6107ef565b6040516101f69190611594565b60405180910390f35b610207610807565b005b610211610a04565b60405161021e91906116a7565b60405180910390f35b61022f610a2a565b60405161023c9190611594565b60405180910390f35b61024d610a30565b60405161025a9190611721565b60405180910390f35b61026b610a56565b005b610275610a6a565b6040516102829190611721565b60405180910390f35b610293610a90565b6040516102a09190611594565b60405180910390f35b6102c360048036038101906102be919061166b565b610a96565b005b6102cd610ba6565b6040516102da91906116a7565b60405180910390f35b6102fd60048036038101906102f89190611612565b610bcf565b60405161030a9190611594565b60405180910390f35b61031b610d20565b6040516103289190611594565b60405180910390f35b61034b6004803603810190610346919061166b565b610d26565b005b610355611096565b6040516103629190611594565b60405180910390f35b61037361109c565b6040516103809190611721565b60405180910390f35b6103916110c2565b60405161039e9190611594565b60405180910390f35b6103c160048036038101906103bc9190611612565b6110c8565b005b6103dd60048036038101906103d89190611612565b61114b565b6040516103eb92919061173c565b60405180910390f35b600a5481565b600b6020528060005260406000206000915090505481565b60008111610455576040517f08c379a000000000000000000000000000000000000000000000000000000000815260040161044c906117c2565b60405180910390fd5b600061046033610bcf565b600b60003373ffffffffffffffffffffffffffffffffffffffff1673ffffffffffffffffffffffffffffffffffffffff168152602001908152602001600020546104aa9190611811565b9050808211156104ef576040517f08c379a00000000000000000000000000000000000000000000000000000000081526004016104e6906118b7565b60405180910390fd5b6000806104fb3361114b565b9150915083600b60003373ffffffffffffffffffffffffffffffffffffffff1673ffffffffffffffffffffffffffffffffffffffff168152602001908152602001600020600082825461054e9190611811565b9250508190555042600c60003373ffffffffffffffffffffffffffffffffffffffff1673ffffffffffffffffffffffffffffffffffffffff1681526020019081526020016000208190555083600660008282546105ab9190611811565b92505081905550600160009054906101000a900473ffffffffffffffffffffffffffffffffffffffff1673ffffffffffffffffffffffffffffffffffffffff1663a9059cbb33866040518363ffffffff1660e01b815260040161060f9291906118d7565b6020604051808303816000875af115801561062e573d6000803e3d6000fd5b505050506040513d601f19601f820116820180604052508101906106529190611938565b50600260009054906101000a900473ffffffffffffffffffffffffffffffffffffffff1673ffffffffffffffffffffffffffffffffffffffff1663a9059cbb33846040518363ffffffff1660e01b81526004016106b09291906118d7565b6020604051808303816000875af11580156106cf573d6000803e3d6000fd5b505050506040513d601f19601f820116820180604052508101906106f39190611938565b50600360009054906101000a900473ffffffffffffffffffffffffffffffffffffffff1673ffffffffffffffffffffffffffffffffffffffff1663a9059cbb33836040518363ffffffff1660e01b81526004016107519291906118d7565b6020604051808303816000875af1158015610770573d6000803e3d6000fd5b505050506040513d601f19601f820116820180604052508101906107949190611938565b503373ffffffffffffffffffffffffffffffffffffffff167f884edad9ce6fa2440d8a54cc123490eb96d2768479d49ff9c7366125a9424364856040516107db9190611594565b60405180910390a250505050565b60075481565b600c6020528060005260406000206000915090505481565b6000806108133361114b565b9150915061082182826112d3565b42600c60003373ffffffffffffffffffffffffffffffffffffffff1673ffffffffffffffffffffffffffffffffffffffff16815260200190815260200160002081905550600260009054906101000a900473ffffffffffffffffffffffffffffffffffffffff1673ffffffffffffffffffffffffffffffffffffffff1663a9059cbb33846040518363ffffffff1660e01b81526004016108c29291906118d7565b6020604051808303816000875af11580156108e1573d6000803e3d6000fd5b505050506040513d601f19601f820116820180604052508101906109059190611938565b50600360009054906101000a900473ffffffffffffffffffffffffffffffffffffffff1673ffffffffffffffffffffffffffffffffffffffff1663a9059cbb33836040518363ffffffff1660e01b81526004016109639291906118d7565b6020604051808303816000875af1158015610982573d6000803e3d6000fd5b505050506040513d601f19601f820116820180604052508101906109a69190611938565b503373ffffffffffffffffffffffffffffffffffffffff167f47cee97cb7acd717b3c0aa1435d004cd5b3c8c57d70dbceb4e4458bbd60e39d482846109eb9190611965565b6040516109f89190611594565b60405180910390a25050565b600f60009054906101000a900473ffffffffffffffffffffffffffffffffffffffff1681565b60045481565b600260009054906101000a900473ffffffffffffffffffffffffffffffffffffffff1681565b610a5e61136f565b610a6860006113ed565b565b600160009054906101000a900473ffffffffffffffffffffffffffffffffffffffff1681565b60065481565b610a9e61136f565b60006064600a83610aaf9190611999565b610ab99190611a0a565b9050600160009054906101000a900473ffffffffffffffffffffffffffffffffffffffff1673ffffffffffffffffffffffffffffffffffffffff1663a9059cbb600f60009054906101000a900473ffffffffffffffffffffffffffffffffffffffff16836040518363ffffffff1660e01b8152600401610b3a9291906118d7565b6020604051808303816000875af1158015610b59573d6000803e3d6000fd5b505050506040513d601f19601f82011682018060405250810190610b7d9190611938565b508082610b8a9190611811565b600a6000828254610b9b9190611965565b925050819055505050565b60008060009054906101000a900473ffffffffffffffffffffffffffffffffffffffff16905090565b6000806000905060005b600d60008573ffffffffffffffffffffffffffffffffffffffff1673ffffffffffffffffffffffffffffffffffffffff16815260200190815260200160002080549050811015610d16576000600d60008673ffffffffffffffffffffffffffffffffffffffff1673ffffffffffffffffffffffffffffffffffffffff1681526020019081526020016000208281548110610c7657610c75611a3b565b5b906000526020600020015442610c8c9190611811565b9050600754811015610d0257600e60008673ffffffffffffffffffffffffffffffffffffffff1673ffffffffffffffffffffffffffffffffffffffff1681526020019081526020016000208281548110610ce957610ce8611a3b565b5b906000526020600020015483610cff9190611965565b92505b508080610d0e90611a6a565b915050610bd9565b5080915050919050565b60085481565b60008111610d69576040517f08c379a0000000000000000000000000000000000000000000000000000000008152600401610d60906117c2565b60405180910390fd5b6000606460045483610d7b9190611999565b610d859190611a0a565b905060008183610d959190611811565b9050600160009054906101000a900473ffffffffffffffffffffffffffffffffffffffff1673ffffffffffffffffffffffffffffffffffffffff166323b872dd3330866040518463ffffffff1660e01b8152600401610df693929190611ab2565b6020604051808303816000875af1158015610e15573d6000803e3d6000fd5b505050506040513d601f19601f82011682018060405250810190610e399190611938565b50600160009054906101000a900473ffffffffffffffffffffffffffffffffffffffff1673ffffffffffffffffffffffffffffffffffffffff1663a9059cbb600f60009054906101000a900473ffffffffffffffffffffffffffffffffffffffff16846040518363ffffffff1660e01b8152600401610eb99291906118d7565b6020604051808303816000875af1158015610ed8573d6000803e3d6000fd5b505050506040513d601f19601f82011682018060405250810190610efc9190611938565b5080600b60003373ffffffffffffffffffffffffffffffffffffffff1673ffffffffffffffffffffffffffffffffffffffff1681526020019081526020016000206000828254610f4c9190611965565b92505081905550600d60003373ffffffffffffffffffffffffffffffffffffffff1673ffffffffffffffffffffffffffffffffffffffff168152602001908152602001600020429080600181540180825580915050600190039060005260206000200160009091909190915055600e60003373ffffffffffffffffffffffffffffffffffffffff1673ffffffffffffffffffffffffffffffffffffffff16815260200190815260200160002081908060018154018082558091505060019003906000526020600020016000909190919091505580600660008282546110319190611965565b925050819055506110436006546114b1565b3373ffffffffffffffffffffffffffffffffffffffff167fe1fffcc4923d04b559f4d29a8bfc6cda04eb5b0d3c460751c2402c5c5cc9109c846040516110899190611594565b60405180910390a2505050565b60055481565b600360009054906101000a900473ffffffffffffffffffffffffffffffffffffffff1681565b60095481565b6110d061136f565b600073ffffffffffffffffffffffffffffffffffffffff168173ffffffffffffffffffffffffffffffffffffffff160361113f576040517f08c379a000000000000000000000000000000000000000000000000000000000815260040161113690611b5b565b60405180910390fd5b611148816113ed565b50565b60008060004390506000670de0b6b3a7640000600854600c60008873ffffffffffffffffffffffffffffffffffffffff1673ffffffffffffffffffffffffffffffffffffffff16815260200190815260200160002054846111ac9190611811565b600b60008973ffffffffffffffffffffffffffffffffffffffff1673ffffffffffffffffffffffffffffffffffffffff168152602001908152602001600020546111f69190611999565b6112009190611999565b61120a9190611a0a565b90506000670de0b6b3a7640000600954600c60008973ffffffffffffffffffffffffffffffffffffffff1673ffffffffffffffffffffffffffffffffffffffff16815260200190815260200160002054856112659190611811565b600b60008a73ffffffffffffffffffffffffffffffffffffffff1673ffffffffffffffffffffffffffffffffffffffff168152602001908152602001600020546112af9190611999565b6112b99190611999565b6112c39190611a0a565b9050818194509450505050915091565b61136b82826040516024016112e992919061173c565b6040516020818303038152906040527ff666715a000000000000000000000000000000000000000000000000000000007bffffffffffffffffffffffffffffffffffffffffffffffffffffffff19166020820180517bffffffffffffffffffffffffffffffffffffffffffffffffffffffff838183161783525050505061154a565b5050565b611377611573565b73ffffffffffffffffffffffffffffffffffffffff16611395610ba6565b73ffffffffffffffffffffffffffffffffffffffff16146113eb576040517f08c379a00000000000000000000000000000000000000000000000000000000081526004016113e290611bc7565b60405180910390fd5b565b60008060009054906101000a900473ffffffffffffffffffffffffffffffffffffffff169050816000806101000a81548173ffffffffffffffffffffffffffffffffffffffff021916908373ffffffffffffffffffffffffffffffffffffffff1602179055508173ffffffffffffffffffffffffffffffffffffffff168173ffffffffffffffffffffffffffffffffffffffff167f8be0079c531659141344cd1fd0a4f28419497f9722a3daafe3b4186f6b6457e060405160405180910390a35050565b611547816040516024016114c59190611594565b6040516020818303038152906040527ff82c50f1000000000000000000000000000000000000000000000000000000007bffffffffffffffffffffffffffffffffffffffffffffffffffffffff19166020820180517bffffffffffffffffffffffffffffffffffffffffffffffffffffffff838183161783525050505061154a565b50565b60008151905060006a636f6e736f6c652e6c6f679050602083016000808483855afa5050505050565b600033905090565b6000819050919050565b61158e8161157b565b82525050565b60006020820190506115a96000830184611585565b92915050565b600080fd5b600073ffffffffffffffffffffffffffffffffffffffff82169050919050565b60006115df826115b4565b9050919050565b6115ef816115d4565b81146115fa57600080fd5b50565b60008135905061160c816115e6565b92915050565b600060208284031215611628576116276115af565b5b6000611636848285016115fd565b91505092915050565b6116488161157b565b811461165357600080fd5b50565b6000813590506116658161163f565b92915050565b600060208284031215611681576116806115af565b5b600061168f84828501611656565b91505092915050565b6116a1816115d4565b82525050565b60006020820190506116bc6000830184611698565b92915050565b6000819050919050565b60006116e76116e26116dd846115b4565b6116c2565b6115b4565b9050919050565b60006116f9826116cc565b9050919050565b600061170b826116ee565b9050919050565b61171b81611700565b82525050565b60006020820190506117366000830184611712565b92915050565b60006040820190506117516000830185611585565b61175e6020830184611585565b9392505050565b600082825260208201905092915050565b7f416d6f756e74206d7573742062652067726561746572207468616e2030000000600082015250565b60006117ac601d83611765565b91506117b782611776565b602082019050919050565b600060208201905081810360008301526117db8161179f565b9050919050565b7f4e487b7100000000000000000000000000000000000000000000000000000000600052601160045260246000fd5b600061181c8261157b565b91506118278361157b565b925082820390508181111561183f5761183e6117e2565b5b92915050565b7f416d6f756e74206d757374206265206c657373207468616e206f72206571756160008201527f6c20746f207769746864726177616c20416d6f756e7400000000000000000000602082015250565b60006118a1603683611765565b91506118ac82611845565b604082019050919050565b600060208201905081810360008301526118d081611894565b9050919050565b60006040820190506118ec6000830185611698565b6118f96020830184611585565b9392505050565b60008115159050919050565b61191581611900565b811461192057600080fd5b50565b6000815190506119328161190c565b92915050565b60006020828403121561194e5761194d6115af565b5b600061195c84828501611923565b91505092915050565b60006119708261157b565b915061197b8361157b565b9250828201905080821115611993576119926117e2565b5b92915050565b60006119a48261157b565b91506119af8361157b565b92508282026119bd8161157b565b915082820484148315176119d4576119d36117e2565b5b5092915050565b7f4e487b7100000000000000000000000000000000000000000000000000000000600052601260045260246000fd5b6000611a158261157b565b9150611a208361157b565b925082611a3057611a2f6119db565b5b828204905092915050565b7f4e487b7100000000000000000000000000000000000000000000000000000000600052603260045260246000fd5b6000611a758261157b565b91507fffffffffffffffffffffffffffffffffffffffffffffffffffffffffffffffff8203611aa757611aa66117e2565b5b600182019050919050565b6000606082019050611ac76000830186611698565b611ad46020830185611698565b611ae16040830184611585565b949350505050565b7f4f776e61626c653a206e6577206f776e657220697320746865207a65726f206160008201527f6464726573730000000000000000000000000000000000000000000000000000602082015250565b6000611b45602683611765565b9150611b5082611ae9565b604082019050919050565b60006020820190508181036000830152611b7481611b38565b9050919050565b7f4f776e61626c653a2063616c6c6572206973206e6f7420746865206f776e6572600082015250565b6000611bb1602083611765565b9150611bbc82611b7b565b602082019050919050565b60006020820190508181036000830152611be081611ba4565b905091905056fea2646970667358221220b060c6591d4c5a5a36c8ab4f39c603cfcbebcdf49ee84e6aada3d1c190c3296f64736f6c63430008120033",
  "linkReferences": {},
  "deployedLinkReferences": {}
}